:020000040800F2
:10000000A83000209D01000861220008D71F0008C9
:10001000A121000859080008B529000800000000C7
:100020000000000000000000000000002F23000876
:100030004909000800000000632200087D23000831
:10004000B7010008B7010008B7010008B7010008B0
:10005000B7010008B7010008B7010008B7010008A0
:10006000B7010008B7010008B7010008B701000890
:10007000B7010008B70100085D080008690800081A
:10008000B7010008B7010008B7010008B701000870
:10009000B7010008B7010008B7010008B701000860
:1000A000B7010008B7010008B7010008B701000850
:1000B000B7010008E1230008ED230008B70100089C
:1000C000B7010008B7010008B7010008B701000830
:1000D000B701000845290008B7010008B70100086A
:1000E000B7010008B7010008B7010008DFF810D019
:1000F00000F0A0FB00480047DD2D0008AFF30080B2
:10010000A8300020224B19680868B0E8F00F80F38F
:100110000988BFF36F8F4FF0000080F311884EF015
:100120000D0E70470000000006480068006880F36C
:10013000088862B661B6BFF34F8FBFF36F8F00DFE1
:1001400000BF00BF08ED00E0EFF30980BFF36F8F41
:100150000F4B1A6820E9F00F106008B54FF0BF0090
:1001600080F31188BFF34F8FBFF36F8F03F03AF91D
:100170004FF0000080F31188BDE808401968086856
:10018000B0E8F00F80F30988BFF36F8F704700BFAE
:100190001C000020EFF305807047000006488047F0
:1001A00006480047FEE7FEE7FEE7FEE7FEE7FEE75C
:1001B000FEE7FEE7FEE7FEE7DF230008ED000008AC
:1001C000202A04DB203A21FA02F00021704721FAAC
:1001D00002F3D040C2F12002914008431946704713
:1001E00040EA01039B0703D009E008C9121F08C0B9
:1001F000042AFAD203E011F8013B00F8013B521E39
:10020000F9D27047D2B201E000F8012B491EFBD2AF
:1002100070470022F6E710B513460A460446194611
:10022000FFF7F0FF204610BDF0B480EA0102D40FC2
:100230004200B2EB410F02D20246084611464A0084
:1002400042D0C30DDDB2C1F3C752AD1A202D35DA4D
:10025000C1F3160141F4000204B15242C5F1200677
:1002600002FA06F12A411044B3EBD05F23D0C4B1A7
:10027000012DA0EBC35009DCF0BC4FF0004202EAB4
:10028000C352DBB200F5000000F02EBA400000F1CE
:10029000807000EBC350A0F1807040EAD17049003B
:1002A00009E0490841EAC071A0EBC35000F5000025
:1002B000400800EBC350F0BC00F00DBA61420122CF
:1002C00002EB4101001BF6E7F0BC704781F00041F2
:1002D000AAE780F00040A7E780EA010210B502F02B
:1002E0000043400022D04A001FD0010E01EB1261F2
:1002F000C0F35600C2F3560240F4000042F400027C
:10030000A0FB022000047F39140400D0401C50EAF6
:10031000124001D44000491EC2B20C0604EBD010BA
:10032000401C4008802A02D003E0002010BD20F0CD
:100330000100002900DA0020184310BD30B480EA23
:10034000010202F0004530F0004221F0004013D0DD
:1003500090B1C30DD40DC2F31601C0F31600E41A18
:1003600041F4000140F400027D34914201D3641C49
:1003700000E04900002C02DA30BC002070474FF446
:1003800000000023914201D3891A034340084FEA39
:100390004101F7D151B1914202D14FF0004105E046
:1003A00002D24FF0010101E06FF0010103EBC450F4
:1003B000284430BC00F08FB9420005D0C0F3C752CA
:1003C0005242914201DC0020704700EBC15070475F
:1003D0002DE9FE4F804681EA0300C00F0C460090D5
:1003E00021F0004123F00045B8EB0200A94105D2FD
:1003F0004046214690461C460B46024623F00040EC
:10040000104347D0270DC7F30A00C3F30A510290E7
:10041000401A019040286BDAC3F3130040F4801BAC
:100420000098924620B10023D2EB030A63EB0B0B3A
:1004300001985946C0F14002504600F02BF906469B
:100440000D4650465946019A00F033F910EB08006A
:100450006141002487EA115284EAE7731A4340D0CD
:10046000009A62B3019A012A4FEA075215DC001B79
:1004700061EB02014FF0004202EA0752CDE900426F
:10048000001C41F5801132462B4600F06AF903B09A
:10049000BDE8F08F40462146F9E7001B61EB020101
:1004A000001C41F5801300185B412018A2F50017CD
:1004B00047EB030140EAD570B6196D4111E06D08B4
:1004C0004FEA360645EAC0754FEA0752001B61EB5A
:1004D0000201001C41F5801149084FEA3000001963
:1004E000514132462B4603B0BDE8F04F00F02AB927
:1004F0000098012240000023D0EB020263EBE0737E
:10050000009821464FEAE074B8EB000061EB04016B
:10051000E9E783F000435BE781F0004158E72DE90C
:10052000F04D81EA030404F0004B21F0004514462D
:100530004FF0000A23F0004150EA050220D054EAAF
:1005400001021DD0C5F30A570246C5F31303C1F3D8
:100550001300C1F30A5640F4801543F48013A7EB4F
:100560000608101BD64608F2FD3873EB050002D3CF
:1005700008F1010801E092185B41B8F1000F03DABD
:1005800000200146BDE8F08D00204FF480110646A2
:1005900084460EE0171B73EB050705D3121B63EBB4
:1005A000050306434CEA010C49084FEA3000921853
:1005B0005B4150EA0107EDD152EA030012D082EA12
:1005C000040083EA0501084305D0101BAB4106D2A5
:1005D0000122002306E000224FF0004302E06FF00A
:1005E000010253101AEB06004CEB085110EB0A0005
:1005F00041EB0B01BDE8F04D00F0A4B8C10F80EA5B
:10060000E0700844CA079623002100F06DB820F07E
:100610000040C10DC0F3160040F400007F2901DA4C
:1006200000207047962903DCC1F19601C84070474D
:1006300096398840704700F0004230F000400AD000
:10064000C10D01F56071C0F3160042EA0151C20804
:1006500040071143704700200146704701F00043F6
:1006600030B421F0004150EA010206D00A0DA2F593
:100670006072C1F31301002A02DC30BC0020704715
:10068000440F44EAC104C100E01830BC00EBC25082
:1006900000F021B8202A04DB203A00FA02F1002001
:1006A00070479140C2F1200320FA03F319439040B0
:1006B0007047202A06DBCB17203A41FA02F043EAC2
:1006C000E07306E041FA02F3D040C2F1200291400B
:1006D0000843194670470029A8BF7047401C4900CD
:1006E00008BF20F00100704710B4B0FA80FC00FA97
:1006F0000CF050EA010404BF10BC704749B1CCF1C2
:10070000200421FA04F411FA0CF118BF012121434D
:100710000843A3EB0C01CB1D4FEA00614FEA102008
:1007200042BF002010BC704700EBC35010440029AA
:10073000A4BF10BC7047401C490008BF20F0010056
:1007400010BC704710B5141E73F1000408DA401C89
:1007500041F1000192185B411A4301D120F00100E0
:1007600010BD2DE9F04D92469B4611B1B1FA81F2D0
:1007700002E0B0FA80F220329046FFF78BFF044689
:100780000F4640EA0A0041EA0B0153465A46084325
:1007900013D0114653EA010019D0C8F14002504667
:1007A000FFF70EFD05460E46504659464246FFF7F6
:1007B00071FF084305D0012004E020463946BDE81A
:1007C000F08D0020054346EAE0762C4337430A9833
:1007D0006305E40AA0EB08000022FD0A44EA47543E
:1007E0000A3002D500200146E9E7010510196941E8
:1007F000DDE9084500196941BDE8F04DA2E7002890
:1008000001DBC0F10040002901DBC1F10041814260
:1008100002D24FF0004004E04FF0005001D14FF001
:10082000C0404FEA2062EFF3008162F31F6181F361
:1008300000887047064C074D06E0E06840F0010371
:1008400094E8070098471034AC42F6D3FFF752FC07
:100850006037000880370008FEE70000014800F01C
:10086000E5B80000AC010020014800F0DFB800004E
:100870006801002030B590F840500124AC40C56BB1
:100880006C60046863604368102B036803D0996050
:100890000068C26030BD9A600068C16030BD000071
:1008A0002DE9F041244888B000684068C0F180001C
:1008B00007043F0C33D00025204EA846204C2CE0E6
:1008C00020482178405D052925D2DFE801F00308A2
:1008D0000B162B00AA281ED1307001201AE0707070
:1008E000022017E0B0700A2803D900BF84F8008006
:1008F00011E084F8018003200CE0B27861788A422C
:1009000009D97218491CD070C8B26070B1788142A0
:1009100001D8042020706D1CADB2BD42D0D308B008
:10092000BDE8F0815528E1D1707304486A468178AA
:10093000C01C02F0D1F9D9E768010020942C0020F6
:100940007C00002070020020704772B6FEE710B5F0
:1009500090F821100022022905D00421816380F83B
:100960002020012010BD01680B6823F00E030B60EE
:1009700001680B6823F001030B6090F84030C46BF2
:10098000012101FA03F3636080F8211080F8202030
:10099000104610BD10B590F821100024022903D094
:1009A0000421816301243DE001680A6822F00E02FF
:1009B0000A6001680A6822F001020A601A4A0168A6
:1009C000914201D1012121E0174A1432914201D113
:1009D00010211BE0144A2832914201D1891515E0FB
:1009E000114A3C32914201D189140FE00E4A503233
:1009F000914202D14FF4803108E00B4A64329142B7
:100A000002D14FF4801101E04FF08071064A083A9C
:100A10005160012180F82110002180F82010416BE5
:100A200001B18847204610BD080002402DE9F05F63
:100A3000C16B0C6801680B68D0F840C0042202FA50
:100A40000CF2494DDFF824A1494E4A4FDFF828B196
:100A5000DFF828E122422CD05A072AD50A689206EC
:100A600003D40A6822F004020A600168A94201D195
:100A7000042219E0514501D1402215E0B14202D1D2
:100A80004FF4806210E0B94202D14FF480420BE093
:100A9000594502D14FF4802206E0714502D14FF44E
:100AA000800201E04FF080622F4908394A60C16A34
:100AB0003BE04FF0020808FA0CF818EA040F4FF078
:100AC00000094FF0010235D05FEA837832D50B6818
:100AD0009B0605D40B6823F00A030B6080F82120E5
:100AE0000168A94201D1022219E0514501D1202219
:100AF00015E0B14202D14FF4007210E0B94202D1C8
:100B00004FF400520BE0594502D14FF4003206E099
:100B1000714502D14FF4001201E04FF0007212490A
:100B200008394A6080F82090816A00291AD0BDE80F
:100B3000F05F0847082505FA0CF5254212D01B077F
:100B400010D50B6823F00E030B6090F84010C36BB8
:100B500002FA01F15960826380F8212080F8209028
:100B6000016BE2E7BDE8F09F080002401C00024074
:100B70003000024044000240580002406C00024035
:100B800030B528B308C8134914221944B1FBF2F157
:100B90008900C16310498163022141771A6843F6D5
:100BA000F0718A43D0E900142143D0E902452C4377
:100BB000214304692143446921438469214311434A
:100BC000196000214163012242770177084630BD58
:100BD000012030BDF8FFFDBF0000024070B50446A3
:100BE00090F82000002501280CD0012084F8200076
:100BF00094F821600020012E06D084F82000022500
:100C0000284670BD022070BD022684F82160A063D2
:100C10002068066826F0010606602046FFF72AFED7
:100C2000E06A00282068016802D041F00E0106E069
:100C300021F0040101602068016841F00A010160AF
:100C40002068016841F001010160D9E72DE9F84F02
:100C5000DFF8B8910024A9F1040B23460F2709F10E
:100C6000040AABF1040EC9E00125A5402A40AA42BE
:100C70007DD1674ED1F804C0ACEB0608B44532D044
:100C800014DCBCF1030F3AD009DCBCF1000F2AD010
:100C9000BCF1010F1CD0BCF1020F31D11DE0BCF141
:100CA000110F17D0BCF1120F2AD119E0B8F5881F27
:100CB00019D006DCB8F5803F15D0B8F5801F1FD1DC
:100CC00011E0B8F5001F0ED0B8F5041F18D10AE0E6
:100CD000CB6815E0CB681B1D12E0CB6808330FE032
:100CE000CB680C330CE08B682BB1012B4FF0080361
:100CF00003D0456104E0042302E0056100E0002325
:100D0000FF2A01D8064601E000F104064FEA8405F7
:100D100001D9A5F12005D6F8008007FA05FC28EADC
:100D20000C0803FA05F548EA0508C6F800804D6886
:100D3000ED0062D5374DAE6946F00106AE61AD6992
:100D400024F0030605F001050095334D06EB050C74
:100D5000DCF80850A607360F07FA06F825EA08055A
:100D6000DFF8B880404503D14FF0000817E044E0B9
:100D7000DFF8AC80404502D14FF001080FE0DFF80A
:100D8000A480404502D14FF0020808E0DFF89880C7
:100D9000404502D14FF0030801E04FF0040808FA83
:100DA00006F848EA0508CCF808804D68D9F80060D4
:100DB000ED024D4601D5164300E096432E604D6886
:100DC000DAF80060AD02554601D5164300E09643BF
:100DD0002E604D68DBF80060AD035D4601D516431B
:100DE00000E096432E604D68DEF80060ED03754626
:100DF00001D5164300E096432E60641C0D682A4618
:100E0000E5407FF431AFBDE8F88F000008040140F1
:100E100000001110001002400000014000080140D5
:100E2000000C014000100140001401400AB10161B2
:100E300070470904FBE70000014880687047000024
:100E40000C00002070B5040025D094F83D0000256A
:100E500020B984F83C50204600F0B8F8242084F8EB
:100E60003D002068016821F00101016020680168EF
:100E700041F4004101602068016821F400410160F3
:100E800000F04EFA4D4A6168914201D84C4900E0A9
:100E90004C49884201D2012070BD4B492368B0FB08
:100EA000F1F15E6826F03F060E435E606368934290
:100EB00006D94FF4967359434FF47A73B1FBF3F1AB
:100EC0002368491C1E6A26F03F0631431962616897
:100ED000914210D84900401EB0FBF1F2521CC2F3FF
:100EE0000B02042A01D2042022E0B0FBF1F0401CE6
:100EF000C0F30B001CE0A268F2B301EBC10303EBEB
:100F00000116431EB3FBF6F35B1C43F480431B0541
:100F100049D092B301EBC10202EB0111401EB0FBBC
:100F2000F1F0401CC0F30B0040F4804040F400405E
:100F30002168CA694CF6FF739A431043C861D4E92B
:100F4000071001432068026822F0C00211430160CB
:100F5000D4E9030101432068826848F2FF339A43D1
:100F600011438160D4E9050108432168CA6822F071
:100F7000FF021043C86001E00EE016E0206801683F
:100F800041F0010101602564202084F83D002563C3
:100F900084F83E50002070BD01EB4106431EB3FBB8
:100FA000F6F35B1CB3E70120C2E701EB4101401EF1
:100FB000B0FBF1F0401CC0F30B00B7E7A0860100C6
:100FC00080841E0000093D0040420F0010B586B02D
:100FD000002100910191029103910068104988421B
:100FE0001BD1104CA06940F00800A061A0696946BF
:100FF00000F0080004904FF440600090122001902F
:10100000032003900848FFF721FEE06940F48000C8
:10101000E061E06900F48000049006B010BD0000BB
:101020000058004000100240000C01400248816856
:1010300002781144816070470C000020074810B509
:10104000016841F010010160032000F0A1F80F20B9
:1010500000F006F800F050F8002010BD002002401B
:1010600030B505461F4887B0C16941F00401C16130
:10107000C06906A900F00400009001A800F030F952
:101080000498B0B100F04CF940001749174AB0FB82
:10109000F1F11748491E0260416040F2E732002139
:1010A000C0E903218160816100F046FB040003D0A8
:1010B00015E000F035F9E8E70D4800F06BFB04009F
:1010C0000DD11E2000F036F8102D07D2002229463F
:1010D0001E2000F03DF80748056000E0012407B03D
:1010E000204630BD0010024040420F000008004082
:1010F00070030020100000200C4808B5816941F001
:1011000001018161816901F001010091C16941F032
:101110008051C161C06900F080500090044841686E
:1011200021F0E06141F00071416008BD0010024013
:1011300000000140002809DB00F01F02012191405E
:101140004009800000F1E020C0F800117047000065
:10115000F0B40E4B1B680C46C3F30223C3F1070522
:10116000042D00D90425191D072901D2002300E010
:10117000DB1E012606FA05F1491E214099409E40DA
:10118000761E16403143F0BC01F028BC0CED00E0A7
:10119000064900F0070208684FF6FF03184040EACE
:1011A0000220034A10430860704700000CED00E085
:1011B0000000FA052DE9F0470F46050061D0434EC7
:1011C000306800F00700B84209D2306820F007000C
:1011D00038433060306800F00700B84251D12868C9
:1011E0003B4C810712D5400703D5606840F4E060AE
:1011F00060602878000703D5606840F46050606044
:101200006068A96820F0F000084360602878C00793
:1012100028D06868012810D02168022810D08907DA
:1012200000292EDA616821F0030101436160FFF7B4
:1012300003FE804641F288390DE021688903EFE71B
:101240008901EDE7FFF7F8FDA0EB0801494502D958
:101250000320BDE8F0876068696800F00C00B0EB1F
:10126000810FEFD1306800F00700B8420BD9306829
:1012700020F0070038433060306800F00700B842C3
:1012800001D00120E5E72878400705D56068E968C6
:1012900020F4E060084360602878000706D56068A5
:1012A000296920F4605040EAC100606000F058F8FD
:1012B0006168084AC1F30311515CC84006490860DF
:1012C00006480068FFF7CCFE0020C2E7002002407D
:1012D00000100240463700081800002010000020CF
:1012E0000F2202600C4A536803F003034360536803
:1012F00003F0F0038360536803F4E063C360526853
:101300004FF4E06303EAD20202610448006800F08F
:1013100007000860704700000010024000200240F3
:101320000448054900684968044AC1F30221515C38
:10133000C8407047180000200010024056370008CF
:101340000448054900684968044AC1F3C221515C58
:10135000C8407047180000200010024056370008AF
:101360000E4A51680E4801F00C03042B11D0082BD3
:101370000FD10C48C1F38343C903C05C0AD551683F
:10138000084AC1F34041921E515C054A5043B0FBEC
:10139000F1F07047044948437047000000100240D4
:1013A00000127A003637000800093D002DE9F84F99
:1013B000040070D02078C04DC00749D06868C0F3E1
:1013C0008100012807D06868C0F38100022809D194
:1013D0006868C00306D52868800339D5606800288E
:1013E000E7D035E06068B0F5803F0BD010B1B0F5C4
:1013F000A02F11D0286820F480302860286820F4BD
:10140000802002E0286840F480302860606890B155
:10141000FFF712FD06460AE0286840F480202860A5
:10142000F0E700BFFFF708FD801B642873D8286829
:101430008003F7D50CE0FFF7FFFC064605E000BF90
:10144000FFF7FAFC801B6428F0D828688003F7D4E3
:1014500020789A4E80074FF001094FF0000839D5E7
:10146000686810F00C0F07D06868C0F3810002288C
:1014700009D16868C00306D42868800714D520699C
:10148000012808D110E02069B0B1C6F80090FFF73C
:10149000D3FC074605E00AE1FFF7CEFCC01B02289B
:1014A000C4D828688007F7D52868616920F0F8005B
:1014B00040EAC10028600DE0C6F80080FFF7BCFCE0
:1014C000074604E0FFF7B8FCC01B022823D82868B1
:1014D0008007F7D4207800072CD57948A169D9B1C5
:1014E000C0F80090FFF7A8FC074604E0FFF7A4FC53
:1014F000C01B02280FD8686A8007F7D571484FF4DF
:10150000FA510068B0FBF1F0009000BF0098411E56
:101510000091FAD20EE080E0C0F80080FFF78CFC6A
:10152000074604E0FFF788FCC01B022875D8686AEC
:101530008007F7D42078400760D5E8690027C0000D
:1015400008D4E86940F08050E861E869012700F0BC
:10155000805000905C480168C90513D40168834637
:1015600041F480710160FFF767FC824606E000BF2E
:10157000FFF762FCA0EB0A0064284ED8DBF80000FD
:10158000C005F5D5E06801280AD008B1052813D0B8
:10159000286A20F001002862286A20F0040002E096
:1015A000286A40F001002862E06841F2883B98B167
:1015B000FFF742FC82460BE0286A40F004002862F4
:1015C000EEE700BFFFF738FCA0EB0A0159455AD8F7
:1015D000286A8007F6D50CE0FFF72EFC824605E06E
:1015E000FFF72AFCA0EB0A0159454CD8286A80076E
:1015F000F6D41FB1E86920F08050E861E06988B353
:101600006968C1F38101022944D00228C6F86080CC
:1016100004D0FFF711FC044638E034E0FFF70CFC7F
:10162000074604E0FFF708FCC01B02282BD82868F7
:101630008001F7D4206AB0F5803F05D16868A168C1
:1016400020F4003008436860D4E908010843696861
:1016500021F4741108436860C6F86090FFF7ECFB52
:10166000044606E025E000BFFFF7E6FB001B02286A
:1016700009D828688001F7D51BE000BFFFF7DCFB25
:10168000001B022802D90320BDE8F88F28688001DA
:10169000F4D40EE00128F7D06868226A00F48031A3
:1016A000914204D1616A00F47010884201D0012097
:1016B000EAE70020E8E70000001002400000424294
:1016C00080044242180000200070004070477047BC
:1016D00070B590F83C20012A26D0012480F83C40C7
:1016E000022280F83D2003685A689D6822F0700647
:1016F0000A6832435A600D4B02689A4208D0B2F130
:10170000804F05D00A4B9A4202D00A4B9A4204D12C
:10171000496825F080031943916080F83D4000211D
:1017200080F83C10084670BD022070BD002C0140BE
:10173000000400400008004010B5040003D094F8F5
:101740003D0010B107E0012010BD002084F83C00EE
:10175000204600F01EF8022084F83D00211D20687C
:1017600000F04AFE012084F8460084F83E0084F828
:101770003F0084F8400084F8410084F8420084F877
:10178000430084F8440084F8450084F83D000020BC
:1017900010BD704790F83D10012901D0012070471D
:1017A000022180F83D100168CA6842F00102CA6057
:1017B00000680B49884208D0B0F1804F05D0094934
:1017C000884202D00849884204D1816801F00701AB
:1017D000062903D0016841F0010101600020704733
:1017E000002C0140000400400008004070472DE933
:1017F000F04104460068C66805694FF00007A90774
:1018000013D5B10711D5F91E016101202077206899
:1018100080698007204602D0FFF7E8FF04E000F06F
:10182000A5F8204600F054F92777680716D5700709
:1018300014D521686FF00400086102202077206829
:10184000806910F4407F204602D0FFF7CFFF04E00C
:1018500000F08CF8204600F03BF92777280715D5D3
:10186000300713D521686FF0080008610420207745
:101870002068C0698007204602D0FFF7B7FF04E068
:1018800000F074F8204600F023F92777E80616D513
:10189000F00614D521686FF0100008610820207749
:1018A0002068C06910F4407F204602D0FFF79EFFF9
:1018B00004E000F05BF8204600F00AF92777E8071B
:1018C00008D0F00706D021686FF0010008612046BB
:1018D00000F04EF9280608D5300606D521686FF0CD
:1018E000800008612046FFF7F1FE680608D5700603
:1018F00006D521686FF040000861204600F042F9EB
:10190000A8060AD5B00608D521686FF02000086146
:101910002046BDE8F041FFF7DABEBDE8F0810000E7
:1019200000B585B0002100910191029103910068FA
:101930000B49884211D10B48816941F00401816152
:101940008069694600F004000490C02000900220E5
:10195000019003900448FFF779F905B000BD00003D
:10196000000400400010024000080140704770B5BC
:10197000044690F83C0000260D4601280FD00120B7
:1019800084F83C006AB1042A1DD0082A2FD00C2A02
:101990003FD00126002084F83C00304670BD022074
:1019A00070BD206800F072FD2068816941F0080177
:1019B00081612068816921F0040181612068816969
:1019C0002A69114311E0206800F088FD20688169D0
:1019D00041F4006181612068816921F48061816145
:1019E000206881692A6941EA02218161D2E7206881
:1019F00000F0A0FD2068C16941F00801C1612068C4
:101A0000C16921F00401C1612068C1692A691143DB
:101A100011E0206800F0BAFD2068C16941F400615E
:101A2000C1612068C16921F48061C1612068C16918
:101A30002A6941EA0221C161ACE710B5040003D074
:101A400094F83D0010B107E0012010BD002084F89B
:101A50003C00204600F01EF8022084F83D00211DC5
:101A6000206800F0C9FC012084F8460084F83E009C
:101A700084F83F0084F8400084F8410084F8420074
:101A800084F8430084F8440084F8450084F83D005D
:101A9000002010BD08B500680B49884212D10B48E0
:101AA000C16941F00201C161C069002200F0020079
:101AB000009011461D20FFF74BFBBDE808401D209C
:101AC000FFF738BB08BD00000004004000100240D2
:101AD0007047000010B50446022249B104290ED017
:101AE000082913D094F84100012816D0012010BD18
:101AF00094F83E000128F9D184F83E200FE094F8D4
:101B00003F000128F2D184F83F2008E094F840001B
:101B10000128EBD184F8402001E084F84120012223
:101B2000206800F0A5FC0F492068884203D1426C70
:101B300042F4004242642068884208D0B0F1804FED
:101B400005D00949884202D00849884204D18168F9
:101B500001F00701062903D0016841F0010101608D
:101B6000002010BD002C014000040040000800408F
:101B700000680349884201D1FFF758BA7047000056
:101B8000000800407047704710B50446006840697F
:101B900094F84110C0F3C010212911D180B1206800
:101BA000143050E8001F21F0800140E80012002AA4
:101BB000F5D1A06B08B1FEF7CAFE204600F0AEFDDD
:101BC0002068406994F84210C0F38010222911D196
:101BD00080B12068143050E8001F21F0400140E837
:101BE0000012002AF5D1E06B08B1FEF7B0FE2046E6
:101BF00000F06DFD002010BD70470000F8B50168D1
:101C000004460868CA684B6910F00F0F4FF00005D2
:101C100059D003F0010602F49077374365D0C1072D
:101C200005D0D10503D5616C41F001016164410724
:101C300005D5D90703D0616C41F0020161648107C9
:101C400005D5D90703D0616C41F004016164010737
:101C500007D502F02001314303D0616C41F0080147
:101C60006164616C00293AD0800604D5900602D5E3
:101C7000204600F061FD20684069616CC0F380106F
:101C8000090700D460B3204600F021FD20684069B8
:101C9000400621D52068143050E8001F21F0400193
:101CA00040E80012002AF5D1E06BA8B16D4941630C
:101CB000E06BFEF76FFE002811D0E06B416B01B0C6
:101CC000BDE8F040084783060FD593060DD52046A2
:101CD000BDE8F84000F030BD2046FFF78DFFF8BDAD
:101CE0002046FFF789FF6564F8BD266B2023012E8F
:101CF0007CD1C6067AD5D60678D5086848680090A3
:101D000048694FF00206400640D5E16B086840681C
:101D10000004000CE8D0A28D8242E5D9E0858869F4
:101D200020282DD020680C3050E8001F21F480714D
:101D300040E80012002AF5D12068143050E8001F56
:101D400021F0010140E80012002AF5D1206814308A
:101D500050E8001F21F0400140E80012002AF5D1B0
:101D600084F84230256320680C3050E8001F21F0D1
:101D7000100140E80012002AF5D1E06BFEF7E7FD04
:101D80006663A08DE18D401A81B22AE0A08DE18DBD
:101D9000401A81B2E08D0028A6D00029A4D0226884
:101DA0000C3252E8000F20F4907042E80007002F38
:101DB000F5D12068143050E8002F22F0010240E8ED
:101DC0000027002FF5D184F84230256320680C30BD
:101DD00050E8002F22F0100240E80023002BF5D13C
:101DE00066632046FFF7CFFEF8BDFFE705062BD55B
:101DF000150629D594F841002128F5D1A068B0F541
:101E0000805F01D12069B0B1206A411C2162216844
:101E100000784860E08C401E0004000CE084E3D1B0
:101E20002068C16821F08001C1602068C16841F06C
:101E30004001C160D8E7206A0088C0F3080048600C
:101E4000206A801C2062E5E74006CDD55006CBD540
:101E5000CA68204622F04002CA6084F8413000F08F
:101E6000B9F8C1E7D125000870B5040004D094F892
:101E70004100002510B106E0012070BD84F84050FB
:101E8000204600F023F8242084F841002068C1682F
:101E900021F40051C160204600F0B0FC20680169C7
:101EA00021F4904101612068416921F02A014161DA
:101EB0002068C16841F40051C1606564202084F845
:101EC000410084F842006563002070BDF0B585B024
:101ED00000240646009401940294039400682F495C
:101EE000884259D12E48816941F4804181618169DC
:101EF00001F480410491816941F0080181618069A8
:101F0000284D00F00800049040200090022001902D
:101F10000320039069462846FEF798FE8027CDE906
:101F20000074694628460294FEF790FE1E484168F8
:101F300041F0E06141F0040141601D4D1B48C5E9DD
:101F40000004C5E902472C616C61AC612846EC6174
:101F5000FEF716FE08B1FEF7F8FCF5636E62144D4D
:101F600012484435143801C5102091C5104845F871
:101F7000104944306C61AC61EC61FEF701FE08B1C0
:101F8000FEF7E3FCB5630022114625206E62FFF7E1
:101F9000DFF82520FFF7CEF805B0F0BD003801408E
:101FA00000100240000C01400000014058000240B7
:101FB0006801002090F84230202B01D002207047A9
:101FC00021B11AB10023036300F074BC01207047F3
:101FD000704770477047FEE70D4808B5416941F00A
:101FE000010141614069002200F0010000901146AA
:101FF0000E20FFF7ADF80E20FFF79CF800221146E7
:102000000F20FFF7A5F8BDE808400F20FFF792B8B2
:102010000010024070B586B000242048009401945E
:1020200002940394816941F010018161816901F09A
:1020300010010491816941F020018161816901F001
:1020400020010491816941F004018161816901F0FD
:1020500004010491816941F0080181618069104E99
:1020600000F008004FF40055049000222946304645
:10207000FEF7DCFE0220CDE902400095012569460D
:1020800001953046FEF7E2FDCDE90054694605486A
:102090000294FEF7DBFD06B070BD000000100240A8
:1020A00000100140000801400D4810B50B490160C7
:1020B0000C49416000214FF480428160C0E9031265
:1020C00041618161C1610162FEF7BCFE002803D05D
:1020D000BDE81040FEF739BC10BD000000580040BC
:1020E00084000020A086010010B58AB00024079467
:1020F0001C2168460894FEF78CF81A4818490160BC
:102100004721C0E901144FF6FF71C0E9031484614F
:10211000FFF793FC08B1FEF718FC079407A91148D4
:102120000894FFF7D5FA08B1FEF70FFC6020CDE95F
:1021300000040294002269460A480494FFF717FC41
:1021400008B1FEF702FC042269460648FFF70FFCBF
:1021500008B1FEF7FAFB0348FFF7E2FB0AB010BD37
:1021600000040040D80000200C4810B50A49016066
:102170004FF4E1314160002181600C22C160C0E96F
:1021800004128161C161FFF76FFE002803D0BDE832
:102190001040FEF7DABB10BD0038014020010020DE
:1021A000FEE700002DE9F04FADF5217DDFF874A0CA
:1021B000DFF874B01D4F00256E462846FEF71EFA64
:1021C0005946FEF789F81A49FEF7B8F880463946AD
:1021D000FEF72AF846F8350006EBC5048146C4F838
:1021E00004A051464046C4F8A0A0FEF772F8C4F817
:1021F000A400C4E95007C4E978796D1C142DDCDB18
:102200005FF0000406EBC40003C800F013F81E20C2
:1022100001F0A0F8641C502CF4DB0DF5217DBDE825
:10222000F08F00000000C841000048420000C8C113
:102230000000A0411CB501AB6A4600F015F8002172
:102240000648009A00F076F804210448019A00F04C
:1022500071F8142001F07EF81CBD0000D8000020A9
:10226000FEE7FDF771BF00002DE9F05F234E8B46BE
:102270001C461546314600F0DDFBDFF884A05146D0
:10228000FEF72AF8FEF7D7F91E4FDFF87C803A46B2
:102290004346FEF744F9DFF8749000224B46FEF700
:1022A00097F8FEF7DBF928605846314600F0C2FB8C
:1022B0005146FEF711F8FEF7BEF93A464346FEF7DF
:1022C0002EF900224B46FEF783F8FEF7C7F9104EB1
:1022D00020603146286800F06DFD0E4F01463846FB
:1022E00000F054FD28603146206800F063FD01468F
:1022F000384600F04BFD2060BDE8F09F0000C8426A
:1023000000003443182D4454FB21094000805640FE
:10231000000016430000F04110B500200146FFF711
:1023200089FFBDE810404FF47A7001F013B8FDF753
:10233000E9BE000070B50C4605460D491046FDF794
:10234000FDFF0C49FDF7C8FF0B49FDF76DFFFEF7D8
:102350005EF92A682CB1042C05D0082C05D0106435
:1023600070BD506370BD906370BDD06370BD0000E0
:10237000000034430000FA440000FA4301F078B84A
:1023800030B58FB028216846FDF743FF14210AA815
:10239000FDF73FFF01210804CDE90010002402945D
:1023A00002250491CDE907504FF4E01009906846EA
:1023B000FEF7FCFF08B172B6FEE70F20CDE90A0573
:1023C0004FF48060CDE90C4002210AA80E94FEF77C
:1023D000F1FE002801D072B6FEE70FB030BD7047A5
:1023E0000148FFF704BA0000D80000200148FFF7B9
:1023F000FEB9000070030020F0B50268194B1A4CBA
:102400001A4D4FF08047984205D0B84203D0A04201
:1024100001D0A84203D122F070064A6832439842A4
:1024200005D0B84203D0A04201D0A84203D122F483
:102430004074CA6822434C6922F080022243026041
:102440008A68C2620A688262984201D1096901639E
:10245000012141610169C90703D0016921F001012E
:102460000161F0BD002C0140000400400008004064
:1024700010B501F01F030121046A99408C430462E6
:10248000016A9A401143016210BD000030B5036A31
:10249000026A22F0010202624268846924F0730534
:1024A0000C682C4323F002058B682B430A4DA8428D
:1024B0000BD123F00805CB6822F440722B434D6901
:1024C00023F0040315438A692A4342608461496802
:1024D0004163036230BD0000002C014030B5026A48
:1024E000036A23F010030362436884690D6824F4CF
:1024F000E64444EA05248D6822F0200242EA0512EF
:102500000B4DA8420ED1CD6822F0800242EA05129E
:102510004D6923F4406343EA85038D6922F040024C
:1025200043EA85034360846149688163026230BD88
:10253000002C014030B5036A026A22F48072026204
:102540004268C46923F4007324F073050C682C43BB
:102550008D6843EA05230C4DA8420ED1CD6823F4C3
:10256000006343EA05234D6922F4405242EA051212
:102570008D6923F4806342EA05124260C4614968B0
:10258000C163036230BD0000002C014030B5046A15
:10259000026A22F4805202624268C3690D6823F421
:1025A000E64343EA05238D6824F4005444EA0534E5
:1025B000064DA84204D14D6922F4804242EA8512B8
:1025C0004260C36149680164046230BD002C01406F
:1025D00010B5406A0021C185C184FFF70DFB10BD15
:1025E00070B5446A2068406994F84110C0F3C01087
:1025F0000025212904D118B1E584204600F08EF889
:102600002068406994F84210C0F38010222904D158
:1026100018B1E585204600F05AF8606C40F01000D3
:1026200060642046FFF7E8FA70BD10B50146406AC5
:10263000096809684FF0000289062ED4C285016836
:102640000C3151E8003F23F4807341E80034002C42
:10265000F5D10168143151E8003F23F0010341E84E
:102660000034002CF5D10168143151E8003F23F00B
:10267000400341E80034002CF5D1202180F84210BD
:10268000016B012909D101680C3151E8003F23F0A9
:10269000100341E80034002CF5D14263016B01299D
:1026A00002D0FFF795FC10BD818DFFF76CFA10BDCD
:1026B00010B5406A01214163016B012902D0FFF787
:1026C00088FC10BD818D4908FFF75DFA10BD0168D7
:1026D0000C3151E8002F22F4907241E80023002BC6
:1026E000F5D10168143151E8002F22F0010241E8D0
:1026F0000023002BF5D1016B012909D101680C31B0
:1027000051E8002F22F0100241E80023002BF5D100
:10271000202180F8421000210163704701680C31CC
:1027200051E8002F22F0C00241E80023002BF5D130
:10273000202180F84110704708B590F842102229F6
:1027400001D0022008BD82684FF480539A4201D123
:10275000016921B1816A9A421BD04AB10AE002683C
:10276000816A5268C2F308020A80816A891C08E003
:10277000026972B10268526802F07F020A70816ACF
:10278000491C8162C18D491E0904090CC18503D011
:102790001BE002685268F1E70168CA6822F0200273
:1027A000CA600168CA6822F48072CA6001684A6916
:1027B00022F001024A61202180F842100021416389
:1027C000026B012A03D0FFF703FC002008BD016360
:1027D00001680C3151E8002F22F0100241E800237B
:1027E000002BF5D101680A68D20602D50A6849684B
:1027F0000091818DFFF7C7F9E7E7000070B5044647
:1028000000680169E26821F44051114301612169C6
:10281000A0680843616908432168CA6841F20C63F3
:102820009A430243CA6020684169A26921F4407159
:10283000114341611E492068884202D1FEF780FDA4
:1028400001E0FEF76DFD00EBC00101EB00126068D6
:1028500064218000B2FBF0F3B3FBF1F36FF01806D4
:102860007343B2FBF0F5B2FBF0F605EB83053223C0
:1028700003EB0515B5FBF1F5B6FBF1F605F0F00538
:1028800005EB0615B2FBF0F6B2FBF0F0B0FBF1F091
:102890006FF01802504306EB800003EB0010B0FB12
:1028A000F1F0216800F00F002844886070BD00003E
:1028B0000038014038B58162044682850020134605
:1028C0006064222284F84220E56B1B4AAA62E56B11
:1028D0001A4AEA62E56B1A4A2A63E26B50630A46B7
:1028E0002168E06B091DFEF779F9206801684068EE
:1028F0000090206948B120680C3050E8001F41F476
:10290000807140E80012002AF5D12068143050E8A8
:10291000001F41F0010140E80012002AF5D12068B3
:10292000143050E8001F41F0400140E80012002A36
:10293000F5D1002038BD00002B260008B126000884
:10294000E125000810B50348FFF758F9BDE810402D
:1029500000F002B82001002038B515480068016871
:10296000C943C90622D40168406800901048FFF7A7
:102970000BF90F484830006840680D49C0F18000ED
:10298000C4B2D031802201F18000FDF729FCFDF7AF
:1029900087FF07482146D030FDF73BFCBDE83840B3
:1029A00003498022D0310248FFF704BB38BD000044
:1029B00020010020FEE74100080218BF04200A0E93
:1029C00018BF40F001004FF07F4232EA010108BF1A
:1029D00040F00200012808BF052070470907090ED2
:1029E000002804DB00F1E02080F80014704700F0BC
:1029F0000F0000F1E02080F8141D7047FDF714BCB3
:102A00006FF05E010807FDF7D7BC02E008C8121F8F
:102A100008C1002AFAD170477047002001E001C1C7
:102A2000121F002AFBD1704701490860704700005F
:102A3000800000202DE9F0474FF0684202EB400390
:102A40000C460546B3F1654F3CBF02EB4102B2F1C3
:102A5000654F80F0CD8000BFC0F3C752C1F3C753AC
:102A6000D21A1B2A06DD10F0004F14BF8748884891
:102A7000BDE8F08712F11A0F2FDA11F0004F06D0DF
:102A800010F0004F0CBF83488348BDE8F087214613
:102A90002846FDF753FC0646FFF78DFF042808BFC4
:102AA000FFF7AEFF2846FFF786FF05462046FFF7F3
:102AB00082FF04463046FFF77EFF042D18BF052D28
:102AC00008D1042C18BF052C04D1002804BF022013
:102AD000FFF7AAFF3046BDE8F0874200B2EB410F96
:102AE00025D910F0004F19BF6C4F6D4E6D4F6E4ED3
:102AF000224685F0004415460A4680F00041104603
:102B00000A1A5200B2F1807F3ED248406749DFF88E
:102B1000A0A110F0004F18D04FF03F483846FDF705
:102B2000D5FB074651463046FDF7D0FB17E011F0C4
:102B3000004F04BF00263746E2D010F0004F19BF07
:102B40005C4F5D4E5D4F5E4EDAE74FF07C58384685
:102B5000FDF76AFB074651463046FDF765FB064622
:102B600041462846FDF7B8FB2146FDF75DFB82464E
:102B700021464046FDF7B0FB2946FDF7AAFB51462A
:102B8000FDF7DCFB044604E021462846FDF7D6FBB2
:102B900004460146FDF7A0FB80464A49FDF79CFB31
:102BA0004949FDF741FB4146FDF796FB4749FDF7D3
:102BB0003BFB4146FDF790FB4549FDF735FB4146A0
:102BC000FDF78AFB4349FDF72FFB054641462046AA
:102BD000FDF782FB2946FDF77FFB3146FDF724FB1D
:102BE0002146FDF721FB3946BDE8F047FDF71CBB48
:102BF0004FF07F42B2EB400F28BFB2EB410F03D240
:102C0000BDE8F047FFF7FABE40EA01035B0008BFEA
:102C100044F0FF410AD0B2EB400F08BFB2EB410FC6
:102C200006D125F0804024F0804105460C4613E78C
:102C3000B2EB400F12BF5FEA410345F0FF4004F0E2
:102C400000413FF409AFB2EB410F12BF5FEA40020F
:102C500005F0004044F0FF413FF4FEAE4A0092EA26
:102C600040033FF5F9AE002AACBF4FF09F464FF04E
:102C70003E563146FDF730FB054631462046FDF70E
:102C80002BFB044628462146E6E60000DB0FC9BFC1
:102C9000DB0FC93FDB0F4940DB0F49C00000C9BF54
:102CA00022AAFDB90000C93F22AAFD390060ED3E0D
:102CB000C30ACE37000049C022AA7DBA00004940AD
:102CC00022AA7D3A2DAD65BD8FB8D53D0FB511BE99
:102CD00061C84C3EA8AAAABE70B514460E460500AF
:102CE00053D0002C51D0002E4FD00146A67732464B
:102CF00004F11400FDF774FA28782070012E01D930
:102D0000687800E000206070022E01D9A87800E009
:102D10000020A070032E01D9E87800E00020E070C8
:102D20000020042E02D9A988A18000E0A080062EF0
:102D300002D9E988E18000E0E080082E02D92989E3
:102D4000218100E020810A2E02D96989618100E099
:102D500060810C2E0BD9297BEA7B6B7B41EA0261F7
:102D6000AA7B120442EA03221143E16000E0E06022
:102D7000102E09D9287CE97C6A7C40EA0160A97C94
:102D8000090441EA02210843206170BD70B50C4678
:102D90000546FDF734FD00F07040B0F1005F07D04C
:102DA00024F00040C0F1FF40C00F04BF204670BDBA
:102DB000284670BD70B50C460546FDF720FD00F0B5
:102DC0007040B0F1004F07D024F00040C0F1FF4048
:102DD000C00F04BF204670BD284670BD1CB5FEF76D
:102DE0002DF9FFF7CDFAFFF715F9FFF7F5F8FFF723
:102DF000BBF9FFF759F9FFF777F9FFF7B5F906497E
:102E00000120CDE900010023802204A1064800F042
:102E100045FB00F0B7FAFEE7080000207365727604
:102E20006F5F7461736B00000D3200082DE9F04193
:102E30001E4C0F460546E6682068001D00F008FAA3
:102E400038B9206890F82C1001208840216981430E
:102E50002161681C15D1A7B11549226848689060A6
:102E600023688268DA6022688368121D5A602268CB
:102E7000121D8260206841610868401C0860BDE83E
:102E8000F08120683544B5424560216805D2E06B89
:102E9000BDE8F041091D00F0FEB9A06B091D00F06E
:102EA000FAF9A06A8542EAD2A562E8E71C00002090
:102EB000800400202DE9F041054600F005FA364C6B
:102EC000A068401CA0602068344F10B1606940B316
:102ED0002DE02560A068012829D1002606EB860098
:102EE00007EB800000F0C9F9761C062EF6D32B48BC
:102EF000783000F0C2F929488C3000F0BEF927483C
:102F0000A03000F0BAF92548B43000F0B6F92348F3
:102F1000C83000F0B2F921487830A0631430E06383
:102F200005E02068E96AC06A884200D82560606AC6
:102F30000121401C6062E86A2269814011432161DD
:102F400000EB800007EB80004068A8608168E960C2
:102F50008268291D51608160E86A00EB800007EB00
:102F60008001696157F82010491C47F8201000F0D3
:102F7000B9F9606900280CD02068E96AC06A884203
:102F800007D207494FF080500860BFF34F8FBFF35F
:102F90006F8FBDE8F08100001C000020B803002006
:102FA00004ED00E010B50446006B00F0A5F92046E2
:102FB000BDE8104000F0A0B90E484FF42051420780
:102FC00006D0C01D0B4920F00700411AC1F5205161
:102FD000094A00230144C2E900030839143A21F0E8
:102FE000070111604B600B600B1AC0E9001393607E
:102FF000536070479404002074000020144E154C58
:10300000A6F1B4074FF08058DFF84C9012E000BFF3
:1030100000F05AF9F068C568281D00F019F9A06899
:10302000401EA0606068401E606000F05BF92846AA
:10303000FFF7B8FF60680028EAD138680128F9D99D
:10304000C9F80080BFF34F8FBFF36F8FF2E7000026
:103050006C0400201C00002004ED00E02DE9F04786
:103060009946DDE9096480466FF00303206B03EBAA
:103070008202089D104420F0070761B10020231848
:103080000A5C83F834200A5C12B1401C1028F6D385
:10309000002084F84300062D00D30525201DE5629D
:1030A00000F0F6F804F1180000F0F2F82461C5F120
:1030B00006006462A0614A464146384600F094F832
:1030C0002060002E00D03460BDE8F08730B5114993
:1030D00000E011460A688242FBD34B685C188442C8
:1030E00003D1406818444860084643681C1894425D
:1030F00009D1084C143C2468A24209D052681A44F1
:1031000042600A6812680260814200D0086030BDE7
:103110000460F9E7740000200548816B096821B15B
:10312000816BC9680968816270474FF0FF31FAE727
:103130001C000020BF2080F31188BFF34F8FBFF326
:103140006F8FFEE770B50446002600F043F9254D69
:10315000286808B9FFF730FFE4B304F00700C0F1B6
:103160001000C1438C4202D82118002902DC00F073
:1031700055FA32E068688142F9D81A48143002469C
:10318000146801E02046144662688A4202D222682E
:10319000002AF7D12A689442E9D0066822680260C2
:1031A00060680836421A102A04D9601842606160CB
:1031B000FFF78CFF61686868401A6860AA689042EF
:1031C00000D2A86041F00040606000202060E86804
:1031D000401CE86000F022FA0EB900F04CF83046CE
:1031E00070BD00006000002010B5031F4FF0807418
:1031F0001C601B1F21F001011960191F024B0B609D
:10320000143940380A6010BD3531000800210E48DD
:10321000FEF760FC04210C48FEF75CFCFFF77CF82D
:103220000A4C00252078012807D0022808D003285E
:1032300008D0642000F08EF8F4E7FFF76DF801E0A5
:10324000FEF7B0FF2570EDE7D80000200000002059
:10325000D0E9013201699A60D0E901235A604A68D5
:10326000824201D182684A60002202610868401EE1
:10327000086008687047FEE7FEE700F108014FF0BC
:10328000FF32C0E90112C160016100210160704795
:1032900000210161704730B50B685A1C02D000F163
:1032A000080202E0026904E02246546825689D4253
:1032B000FAD953684B6099608A605160086101686F
:1032C000491C016030BD0000BF2080F31188BFF3AE
:1032D0004F8FBFF36F8F02480168491C0160704730
:1032E0005C00002003490868401E086001D180F39B
:1032F000118870475C00002070B500281BD0A0F139
:1033000008046068002816DA2168002913D120F02B
:103310000040606000F05EF8074D6068696808442E
:1033200068602046FFF7D2FE2869401C2861BDE88E
:10333000704000F073B970BD600000204FF0E020D5
:1033400000210161816102494161072101617047EA
:103350003F19010010B5020009D000F03BF8002130
:103360001046FFF763FD00F059F9002807D1044922
:103370004FF080500860BFF34F8FBFF36F8F10BDC9
:1033800004ED00E07CB50F480025CDE900502B4648
:1033900080220DA10E4800F081F80A4C2C3C012837
:1033A0000ED1BF2080F31188BFF34F8FBFF36F8F13
:1033B0004FF0FF30A06201206061E56000F040F84E
:1033C000206B7CBD4800002049444C4500000000B3
:1033D000FD2F00080248416B491C41637047000003
:1033E0001C00002010B5144C606B10B10120E0618E
:1033F00010BD0020E061206821680068096B8842E8
:1034000004D8216820683431FFF736FF20690B4962
:10341000B0FA80F0C0F11F0000EB800001EB8000EB
:1034200000F10802416849684160914201D1496850
:103430004160C868206010BD1C000020B803002057
:10344000094810B5016841F47F010160016841F04D
:103450007F410160FFF772FF044900200860FCF71C
:1034600063FE002010BD000020ED00E05C000020A5
:1034700010B5BF2080F31188BFF34F8FBFF36F8F5C
:1034800000F03AF818B104494FF08050086000206D
:1034900080F3118810BD000004ED00E02DE9FF5F0E
:1034A0008346DDE90E87994616468A469000FFF767
:1034B00049FE05001DD04C20FFF744FE040015D046
:1034C0004C21FCF7A6FE25630021CDE90241CDE9A0
:1034D00000874B46324651465846FFF7BFFD20460F
:1034E000FFF7E8FC012004B0BDE8F09F2846FFF795
:1034F00003FF4FF0FF30F6E72DE9F041454C002681
:10350000606B28B1A069401CA0613046BDE8F08125
:10351000E5686D1CE56008D1A06BE16BA163E06319
:10352000206A401C2062FFF7F7FDA16A3A488D42ED
:103530000FD34FF0000EA16B096839B1A16BC968B8
:10354000C9684A68954212D2A26202E04FF0FF3188
:10355000A1622168C96A01EB810150F821000128AC
:1035600000D90126E0690028CFD00126CDE7D1E9B6
:1035700002724B69BA60D1E902277A605F680A1D5E
:10358000974201D1CF685F60C1F814E01F687F1EC9
:103590001F60D1F828C0BCF1000F15D0D1E9073762
:1035A0009F60D1E907377B60DCF8047001F11803F4
:1035B0009F4202D10B6ACCF80430C1F828E0DCF855
:1035C00000305B1ECCF80030CB6A0127D4F810C065
:1035D0009F4047EA0C07276103EB830300EB83035B
:1035E0005B688B609F68CF609F687A609A60CA6AE8
:1035F00002EB820200EB82034B6150F822305B1C2D
:1036000040F82230C96A2268D26A914293D90126D1
:1036100091E700001C000020B80300202DE9F041D4
:1036200000242746FFF750FE3F4D686B401E68633D
:10363000686B002872D1A8683C4B00264FF0010847
:10364000F0BB6BE0D868C468D4E90721A06A916038
:10365000D4E907125160426804F118018A4201D18D
:10366000216A4160A6620168491E0160D4E9022115
:1036700060699160D4E9021251604268211D8A425A
:1036800001D1E268426066610268521E0260E26A2D
:10369000D5F810C008FA02F040EA0C00286102EBED
:1036A0008200224AA03A02EB80004068A060D0F875
:1036B00008C0C4F80CC0D0F808C0CCF8041000E072
:1036C00012E08160E06A00EB800002EB8001616142
:1036D00052F82010491C42F82010E06A2968C96A93
:1036E000884201D3C5F81C8018680028AAD10CB103
:1036F000FFF712FDAC693CB1FFF7FEFE08B1C5F85B
:103700001C80641EF8D1AE61E86938B10849012710
:1037100038070860BFF34F8FBFF36F8FFFF7E2FDED
:103720003846BDE8F08100001C000020580400204D
:1037300004ED00E0010202030405060708090A0B74
:103740000C0D0E0F10100000000000000000010220
:10375000030406070809000000000102030400003A
:103760008037000800000020840000000A2A0008BA
:103770000438000884000020243000001A2A0008C1
:103780000000000000000000000000000100000038
:10379000100000000000000000127A00000000008D
:1037A0000000000000000000000000000000000019
:1037B0000000000000000000000000000000000009
:1037C00000000000000000000000000005000000F4
:1037D000000000000000000000000000AAAAAAAA41
:1037E00000000000000000000000000000000000D9
:1037F00000000000000000000000000000000000C9
:0438000000000000C4
:04000005080000ED02
:00000001FF
