:020000040800F2
:10000000203200209D010008FD240008ED21000899
:100010008924000857090008D92C000800000000B6
:100020000000000000000000000000003125000872
:10003000190A000800000000FF240008B925000884
:10004000B7010008B7010008B7010008B7010008B0
:10005000B7010008B7010008B7010008B7010008A0
:10006000B7010008B7010008B7010008B701000890
:10007000B7010008B7010008590900086509000820
:10008000B7010008B7010008B7010008B701000870
:10009000B7010008B7010008B7010008B701000860
:1000A000B7010008B7010008B7010008B701000850
:1000B0001D2600082926000835260008B70100087B
:1000C000B7010008B7010008B7010008B701000830
:1000D000B7010008692C0008B7010008B701000843
:1000E000B7010008B7010008B7010008DFF810D019
:1000F00000F008FC00480047D5350008AFF3008049
:1001000020320020224B19680868B0E8F00F80F315
:100110000988BFF36F8F4FF0000080F311884EF015
:100120000D0E70470000000006480068006880F36C
:10013000088862B661B6BFF34F8FBFF36F8F00DFE1
:1001400000BF00BF08ED00E0EFF30980BFF36F8F41
:100150000F4B1A6820E9F00F106008B54FF0BF0090
:1001600080F31188BFF34F8FBFF36F8F03F0D4FD7F
:100170004FF0000080F31188BDE808401968086856
:10018000B0E8F00F80F30988BFF36F8F704700BFAE
:1001900034000020EFF305807047000006488047D8
:1001A00006480047FEE7FEE7FEE7FEE7FEE7FEE75C
:1001B000FEE7FEE7FEE7FEE71B260008ED0000086D
:1001C000202A04DB203A21FA02F00021704721FAAC
:1001D00002F3D040C2F12002914008431946704713
:1001E00040EA01039B0703D009E008C9121F08C0B9
:1001F000042AFAD203E011F8013B00F8013B521E39
:10020000F9D27047D2B201E000F8012B491EFBD2AF
:1002100070470022F6E710B513460A460446194611
:10022000FFF7F0FF204610BDF0B480EA0102D40FC2
:100230004200B2EB410F02D20246084611464A0084
:1002400042D0C30DDDB2C1F3C752AD1A202D35DA4D
:10025000C1F3160141F4000204B15242C5F1200677
:1002600002FA06F12A411044B3EBD05F23D0C4B1A7
:10027000012DA0EBC35009DCF0BC4FF0004202EAB4
:10028000C352DBB200F5000000F042BA400000F1BA
:10029000807000EBC350A0F1807040EAD17049003B
:1002A00009E0490841EAC071A0EBC35000F5000025
:1002B000400800EBC350F0BC00F021BA61420122BB
:1002C00002EB4101001BF6E7F0BC704781F00041F2
:1002D000AAE780F00040A7E780EA010210B502F02B
:1002E0000043400022D04A001FD0010E01EB1261F2
:1002F000C0F35600C2F3560240F4000042F400027C
:10030000A0FB022000047F39140400D0401C50EAF6
:10031000124001D44000491EC2B20C0604EBD010BA
:10032000401C4008802A02D003E0002010BD20F0CD
:100330000100002900DA0020184310BD30B480EA23
:10034000010202F0004530F0004221F0004013D0DD
:1003500090B1C30DD40DC2F31601C0F31600E41A18
:1003600041F4000140F400027D34914201D3641C49
:1003700000E04900002C02DA30BC002070474FF446
:1003800000000023914201D3891A034340084FEA39
:100390004101F7D151B1914202D14FF0004105E046
:1003A00002D24FF0010101E06FF0010103EBC450F4
:1003B000284430BC00F0A3B92DE9FE4F804681EA05
:1003C0000300C00F0C46009021F0004123F00045CF
:1003D000B8EB0200A94105D24046214690461C4692
:1003E0000B46024623F00040104347D0270DC7F3C9
:1003F0000A00C3F30A510290401A019040286BDAB8
:10040000C3F3130040F4801B0098924620B10023F0
:10041000D2EB030A63EB0B0B01985946C0F1400283
:10042000504600F04BF906460D4650465946019A93
:1004300000F053F910EB08006141002487EA1152E3
:1004400084EAE7731A4340D0009A62B3019A012A02
:100450004FEA075215DC001B61EB02014FF000422E
:1004600002EA0752CDE90042001C41F580113246F4
:100470002B4600F08AF903B0BDE8F08F40462146D4
:10048000F9E7001B61EB0201001C41F58013001825
:100490005B412018A2F5001747EB030140EAD57035
:1004A000B6196D4111E06D084FEA360645EAC07590
:1004B0004FEA0752001B61EB0201001C41F580115D
:1004C00049084FEA30000019514132462B4603B02B
:1004D000BDE8F04F00F04AB9009801224000002327
:1004E000D0EB020263EBE073009821464FEAE07420
:1004F000B8EB000061EB0401E9E783F000435BE740
:1005000081F0004158E72DE9FE4F81EA030404F031
:10051000004421F0004100944FF0000B23F0004311
:1005200050EA01045ED052EA03045BD0C3F30A54DC
:10053000C1F30A552C44A4F2F3340194A0FB0254F5
:10054000C1F3130141F48011C3F3130343F4801387
:1005500001FB024400FB034E840A970A44EA8154DB
:1005600047EA8357A4FB076802958D0A05FB0785B8
:100570004FEA932C04FB0C542705029D4FEA0658C2
:1005800047EA1637B5EB08056EEB070C870E920E9F
:1005900047EA811742EA8312A7FB0201B6EB0B017F
:1005A00064EB00042B0D43EA0C335E1844EB1C5043
:1005B000DA465146E7FB0201C5F313044FEA0B3359
:1005C00043EA14534FEA0432019C43EA0603A4F1C0
:1005D0000C040294009CCDE900B400F0D6F803B0FE
:1005E000BDE8F08F00200146F9E7C10F80EAE07016
:1005F0000844CA079623002100F08AB896230022F7
:10060000114600F085B820F00040C10DC0F316007F
:1006100040F400007F2901DA00207047962903DCAE
:10062000C1F19601C840704796398840704700F084
:10063000004230F000400AD0C10D01F56071C0F3F6
:10064000160042EA0151C2084007114370470020DA
:100650000146704730B5041E71F1000404DB4FF011
:100660000044404264EB0101141E73F1000405DBF9
:100670001C464FF00043524263EB04038B4208BF19
:10068000824230BD01F0004330B421F0004150EA15
:10069000010206D00A0DA2F56072C1F31301002A0F
:1006A00002DC30BC00207047440F44EAC104C100A2
:1006B000E01830BC00EBC25000F021B8202A04DB67
:1006C000203A00FA02F1002070479140C2F1200365
:1006D00020FA03F3194390407047202A06DBCB171A
:1006E000203A41FA02F043EAE07306E041FA02F3ED
:1006F000D040C2F1200291400843194670470029BA
:10070000A8BF7047401C490008BF20F00100704797
:1007100010B4B0FA80FC00FA0CF050EA010404BFF7
:1007200010BC704749B1CCF1200421FA04F411FA4D
:100730000CF118BF012121430843A3EB0C01CB1D91
:100740004FEA00614FEA102042BF002010BC704702
:1007500000EBC35010440029A4BF10BC7047401CDC
:10076000490008BF20F0010010BC704710B5141EEE
:1007700073F1000408DA401C41F1000192185B415A
:100780001A4301D120F0010010BD2DE9F04D924631
:100790009B4611B1B1FA81F202E0B0FA80F2203248
:1007A0009046FFF78BFF04460F4640EA0A0041EAF5
:1007B0000B0153465A46084313D0114653EA010031
:1007C00019D0C8F140025046FFF7FAFC05460E4624
:1007D000504659464246FFF771FF084305D00120B5
:1007E00004E020463946BDE8F08D0020054346EA86
:1007F000E0762C4337430A986305E40AA0EB08002F
:100800000022FD0A44EA47540A3002D5002001467E
:10081000E9E7010510196941DDE908450019694159
:10082000BDE8F04DA2E72DE9F04D81EA030404F0A4
:10083000004B21F0004514464FF0000A23F0004120
:1008400050EA050220D054EA01021DD0C5F30A5730
:100850000246C5F31303C1F31300C1F30A5640F473
:10086000801543F48013A7EB0608101BD64608F248
:10087000FD3873EB050002D308F1010801E092187E
:100880005B41B8F1000F03DA00200146BDE8F08DAE
:1008900000204FF48011064684460EE0171B73EBD0
:1008A000050705D3121B63EB050306434CEA010C55
:1008B00049084FEA300092185B4150EA0107EDD138
:1008C00052EA030012D082EA040083EA05010843D9
:1008D00005D0101BAB4106D20122002306E0002206
:1008E0004FF0004302E06FF0010253101AEB0600D4
:1008F0004CEB085110EB0A0041EB0B01BDE8F04D49
:10090000FFF734BF064C074D06E0E06840F00103F6
:1009100094E8070098471034AC42F6D3FFF7EAFB9F
:10092000384100085841000870B521F000430343E6
:100930000CD0C1F30A550024D5EB040564EB040385
:10094000D617AD1AB34102DB0020014670BD201856
:1009500041EB025170BDFEE7014800F0CFB8000046
:10096000D8020020014800F0C9B80000940200201D
:1009700030B590F840500124AC40C56B6C60046801
:1009800063604368102B036803D099600068C260FD
:1009900030BD9A600068C16030BD00002DE9F041B3
:1009A000194800684068C0F180000604360C29D060
:1009B0000025164C164F23E016482178405D21B1E2
:1009C000012907D0022919D110E0552816D1387015
:1009D000012012E06178092910D27A18491C507060
:1009E000C8B26070092809D3022006E00D2805D19D
:1009F000F872074802F09CFE002020706D1CADB21A
:100A0000B542D9D3BDE8F0819402002094000020C3
:100A1000C02D00209C030020704772B6FEE710B581
:100A200090F821100022022905D00421816380F86A
:100A30002020012010BD01680B6823F00E030B601D
:100A400001680B6823F001030B6090F84030C46B21
:100A5000012101FA03F3636080F8211080F820205F
:100A6000104610BD10B590F821100024022903D0C3
:100A70000421816301243DE001680A6822F00E022E
:100A80000A6001680A6822F001020A601A4A0168D5
:100A9000914201D1012121E0174A1432914201D142
:100AA00010211BE0144A2832914201D1891515E02A
:100AB000114A3C32914201D189140FE00E4A503262
:100AC000914202D14FF4803108E00B4A64329142E6
:100AD00002D14FF4801101E04FF08071064A083ACC
:100AE0005160012180F82110002180F82010416B15
:100AF00001B18847204610BD080002402DE9F05F93
:100B0000C16B0C6801680B68D0F840C0042202FA7F
:100B10000CF2494DDFF824A1494E4A4FDFF828B1C5
:100B2000DFF828E122422CD05A072AD50A6892061B
:100B300003D40A6822F004020A600168A94201D1C4
:100B4000042219E0514501D1402215E0B14202D101
:100B50004FF4806210E0B94202D14FF480420BE0C2
:100B6000594502D14FF4802206E0714502D14FF47D
:100B7000800201E04FF080622F4908394A60C16A63
:100B80003BE04FF0020808FA0CF818EA040F4FF0A7
:100B900000094FF0010235D05FEA837832D50B6847
:100BA0009B0605D40B6823F00A030B6080F8212014
:100BB0000168A94201D1022219E0514501D1202248
:100BC00015E0B14202D14FF4007210E0B94202D1F7
:100BD0004FF400520BE0594502D14FF4003206E0C9
:100BE000714502D14FF4001201E04FF0007212493A
:100BF00008394A6080F82090816A00291AD0BDE83F
:100C0000F05F0847082505FA0CF5254212D01B07AE
:100C100010D50B6823F00E030B6090F84010C36BE7
:100C200002FA01F15960826380F8212080F8209057
:100C3000016BE2E7BDE8F09F080002401C000240A3
:100C40003000024044000240580002406C00024064
:100C500030B528B308C8134914221944B1FBF2F186
:100C60008900C16310498163022141771A6843F604
:100C7000F0718A43D0E900142143D0E902452C43A6
:100C80002143046921434469214384692143114379
:100C9000196000214163012242770177084630BD87
:100CA000012030BDF8FFFDBF0000024070B50446D2
:100CB00090F82000002501280CD0012084F82000A5
:100CC00094F821600020012E06D084F8200002252F
:100CD000284670BD022070BD022684F82160A06302
:100CE0002068066826F0010606602046FFF740FEF1
:100CF000E06A00282068016802D041F00E0106E099
:100D000021F0040101602068016841F00A010160DE
:100D10002068016841F001010160D9E72DE9F84F31
:100D2000DFF8B8910024A9F1040B23460F2709F13D
:100D3000040AABF1040EC9E00125A5402A40AA42ED
:100D40007DD1674ED1F804C0ACEB0608B44532D073
:100D500014DCBCF1030F3AD009DCBCF1000F2AD03F
:100D6000BCF1010F1CD0BCF1020F31D11DE0BCF170
:100D7000110F17D0BCF1120F2AD119E0B8F5881F56
:100D800019D006DCB8F5803F15D0B8F5801F1FD10B
:100D900011E0B8F5001F0ED0B8F5041F18D10AE015
:100DA000CB6815E0CB681B1D12E0CB6808330FE061
:100DB000CB680C330CE08B682BB1012B4FF0080390
:100DC00003D0456104E0042302E0056100E0002354
:100DD000FF2A01D8064601E000F104064FEA840527
:100DE00001D9A5F12005D6F8008007FA05FC28EA0C
:100DF0000C0803FA05F548EA0508C6F800804D68B6
:100E0000ED0062D5374DAE6946F00106AE61AD69C1
:100E100024F0030605F001050095334D06EB050CA3
:100E2000DCF80850A607360F07FA06F825EA080589
:100E3000DFF8B880404503D14FF0000817E044E0E8
:100E4000DFF8AC80404502D14FF001080FE0DFF839
:100E5000A480404502D14FF0020808E0DFF89880F6
:100E6000404502D14FF0030801E04FF0040808FAB2
:100E700006F848EA0508CCF808804D68D9F8006003
:100E8000ED024D4601D5164300E096432E604D68B5
:100E9000DAF80060AD02554601D5164300E09643EE
:100EA0002E604D68DBF80060AD035D4601D516434A
:100EB00000E096432E604D68DEF80060ED03754655
:100EC00001D5164300E096432E60641C0D682A4647
:100ED000E5407FF431AFBDE8F88F00000804014021
:100EE0000000111000100240000001400008014005
:100EF000000C0140001001400014014080680840CF
:100F000000D0012070470AB1016170470904FBE776
:100F10000148806870470000240000200248816872
:100F2000027811448160704724000020074810B502
:100F3000016841F010010160032000F0A1F80F20CA
:100F400000F006F800F050F8002010BD002002402C
:100F500030B505461F4887B0C16941F00401C16141
:100F6000C06906A900F00400009001A800F030F963
:100F70000498B0B100F04CF940001749174AB0FB93
:100F8000F1F11748491E0260416040F2E73200214A
:100F9000C0E903218160816100F046FB040003D0B9
:100FA00015E000F035F9E8E70D4800F09BFB040080
:100FB0000DD11E2000F036F8102D07D20022294650
:100FC0001E2000F03DF80748056000E0012407B04E
:100FD000204630BD0010024040420F000008004093
:100FE0009C040020280000200C4808B5816941F0CD
:100FF00001018161816901F001010091C16941F044
:101000008051C161C06900F080500090044841687F
:1010100021F0E06141F00071416008BD0010024024
:1010200000000140002809DB00F01F02012191406F
:101030004009800000F1E020C0F800117047000076
:10104000F0B40E4B1B680C46C3F30223C3F1070533
:10105000042D00D90425191D072901D2002300E021
:10106000DB1E012606FA05F1491E214099409E40EB
:10107000761E16403143F0BC01F043BE0CED00E09B
:10108000064900F0070208684FF6FF03184040EADF
:101090000220034A10430860704700000CED00E096
:1010A0000000FA052DE9F0470F46050061D0434ED8
:1010B000306800F00700B84209D2306820F007001D
:1010C00038433060306800F00700B84251D12868DA
:1010D0003B4C810712D5400703D5606840F4E060BF
:1010E00060602878000703D5606840F46050606055
:1010F0006068A96820F0F000084360602878C007A5
:1011000028D06868012810D02168022810D08907EB
:1011100000292EDA616821F0030101436160FFF7C5
:10112000F7FE804641F288390DE021688903EFE738
:101130008901EDE7FFF7ECFEA0EB0801494502D974
:101140000320BDE8F0876068696800F00C00B0EB30
:10115000810FEFD1306800F00700B8420BD930683A
:1011600020F0070038433060306800F00700B842D4
:1011700001D00120E5E72878400705D56068E968D7
:1011800020F4E060084360602878000706D56068B6
:10119000296920F4605040EAC100606000F058F80E
:1011A0006168084AC1F30311515CC84006490860F0
:1011B00006480068FFF7CCFE0020C2E7002002408E
:1011C000001002407A400008300000202800002073
:1011D0000F2202600C4A536803F003034360536814
:1011E00003F0F0038360536803F4E063C360526864
:1011F0004FF4E06303EAD20202610448006800F0A1
:101200000700086070470000001002400020024004
:101210000448054900684968044AC1F30221515C49
:10122000C840704730000020001002408A4000088B
:101230000448054900684968044AC1F3C221515C69
:10124000C840704730000020001002408A4000086B
:101250000E4A51680E4801F00C03042B11D0082BE4
:101260000FD10C48C1F38343C903C05C0AD5516850
:10127000084AC1F34041921E515C054A5043B0FBFD
:10128000F1F07047044948437047000000100240E5
:1012900000127A006A40000800093D002DE9F84F6D
:1012A000040070D02078C04DC00749D06868C0F3F2
:1012B0008100012807D06868C0F38100022809D1A5
:1012C0006868C00306D52868800339D5606800289F
:1012D000E7D035E06068B0F5803F0BD010B1B0F5D5
:1012E000A02F11D0286820F480302860286820F4CE
:1012F000802002E0286840F480302860606890B167
:10130000FFF706FE06460AE0286840F480202860C1
:10131000F0E700BFFFF7FCFD801B642873D8286846
:101320008003F7D50CE0FFF7F3FD064605E000BFAC
:10133000FFF7EEFD801B6428F0D828688003F7D4FF
:1013400020789A4E80074FF001094FF0000839D5F8
:10135000686810F00C0F07D06868C0F3810002289D
:1013600009D16868C00306D42868800714D52069AD
:10137000012808D110E02069B0B1C6F80090FFF74D
:10138000C7FD074605E00AE1FFF7C2FDC01B0228C2
:10139000C4D828688007F7D52868616920F0F8006C
:1013A00040EAC10028600DE0C6F80080FFF7B0FDFC
:1013B000074604E0FFF7ACFDC01B022823D82868CD
:1013C0008007F7D4207800072CD57948A169D9B1D6
:1013D000C0F80090FFF79CFD074604E0FFF798FD7A
:1013E000C01B02280FD8686A8007F7D571484FF4F0
:1013F000FA510068B0FBF1F0009000BF0098411E68
:101400000091FAD20EE080E0C0F80080FFF780FD86
:10141000074604E0FFF77CFDC01B022875D8686A08
:101420008007F7D42078400760D5E8690027C0001E
:1014300008D4E86940F08050E861E869012700F0CD
:10144000805000905C480168C90513D40168834648
:1014500041F480710160FFF75BFD824606E000BF4A
:10146000FFF756FDA0EB0A0064284ED8DBF8000019
:10147000C005F5D5E06801280AD008B1052813D0C9
:10148000286A20F001002862286A20F0040002E0A7
:10149000286A40F001002862E06841F2883B98B178
:1014A000FFF736FD82460BE0286A40F00400286210
:1014B000EEE700BFFFF72CFDA0EB0A0159455AD813
:1014C000286A8007F6D50CE0FFF722FD824605E08A
:1014D000FFF71EFDA0EB0A0159454CD8286A80078A
:1014E000F6D41FB1E86920F08050E861E06988B364
:1014F0006968C1F38101022944D00228C6F86080DE
:1015000004D0FFF705FD044638E034E0FFF700FDA6
:10151000074604E0FFF7FCFCC01B02282BD8286814
:101520008001F7D4206AB0F5803F05D16868A168D2
:1015300020F4003008436860D4E908010843696872
:1015400021F4741108436860C6F86090FFF7E0FC6E
:10155000044606E025E000BFFFF7DAFC001B022886
:1015600009D828688001F7D51BE000BFFFF7D0FC41
:10157000001B022802D90320BDE8F88F28688001EB
:10158000F4D40EE00128F7D06868226A00F48031B4
:10159000914204D1616A00F47010884201D00120A8
:1015A000EAE70020E8E700000010024000004242A5
:1015B00080044242300000200070004070477047B5
:1015C00070B590F83C20012A26D0012480F83C40D8
:1015D000022280F83D2003685A689D6822F0700658
:1015E0000A6832435A600D4B02689A4208D0B2F141
:1015F000804F05D00A4B9A4202D00A4B9A4204D13E
:10160000496825F080031943916080F83D4000212E
:1016100080F83C10084670BD022070BD002C0140CF
:10162000000400400008004010B5040003D094F806
:101630003D0010B107E0012010BD002084F83C00FF
:10164000204600F01FF8022084F83D00211D20688C
:1016500000F0F6FF012084F8460084F83E0084F88C
:101660003F0084F8400084F8410084F8420084F888
:10167000430084F8440084F8450084F83D000020CD
:1016800010BD000008B501681448B1F1804F14D0B6
:10169000134A914220D1C16941F00201C161C06980
:1016A000002200F00200009011461D20FFF7C8FC48
:1016B0001D20BDE80840FFF7B5BCC16941F001013C
:1016C000C161C069002200F00100009011461C2099
:1016D000FFF7B6FC1C20ECE708BD0000001002403C
:1016E0000004004090F83D10012901D0012070470E
:1016F000022180F83D100168CA6842F00102CA6008
:1017000000680B49884208D0B0F1804F05D00949E4
:10171000884202D00849884204D1816801F007015B
:10172000062903D0016841F00101016000207047E3
:10173000002C0140000400400008004070B5044641
:1017400090F83C000025012817D0012684F83C6061
:10175000022084F83D002068826822F0770222F49B
:101760007F4282600868502838D00DDC20284FD096
:1017700005DC90B3102811D14AE0022070BD30285A
:1017800046D040280AD13BE060282FD070280DD0E9
:10179000B0F5805F03D0B0F5005F12D0012584F86A
:1017A0003D60002084F83C00284670BDCB68D1E93C
:1017B0000121206800F08DFF2068816841F07701E9
:1017C00009E0CB68D1E90121206800F082FF2068A0
:1017D000816841F480418160E1E719E0CA684968A5
:1017E000206801F02BF85021206806E0CA6849689B
:1017F000206801F034F86021206800F074FFCEE723
:10180000CA684968206801F019F840212068F4E7A7
:10181000226801461046F0E770472DE9F041044682
:101820000068C66805694FF00007A90713D5B1071E
:1018300011D5F91E01610120207720688069800799
:10184000204602D0FFF7E8FF04E000F0C7F820468A
:1018500000F059F92777680716D5700714D5216865
:101860006FF004000861022020772068806910F47E
:10187000407F204602D0FFF7CFFF04E000F0AEF833
:10188000204600F040F92777280715D5300713D5F3
:1018900021686FF008000861042020772068C06983
:1018A0008007204602D0FFF7B7FF04E000F096F86B
:1018B000204600F028F92777E80616D5F00614D55B
:1018C00021686FF010000861082020772068C06947
:1018D00010F4407F204602D0FFF79EFF04E000F0A6
:1018E0007DF8204600F00FF92777E80708D0F007C9
:1018F00006D021686FF001000861204600F0C0F9B1
:10190000280608D5300606D521686FF080000861EA
:101910002046FFF753FE680608D5700606D52168F5
:101920006FF040000861204600F000FAA8060AD5D2
:10193000B00608D521686FF0200008612046BDE898
:10194000F041FFF73CBEBDE8F081000010B586B065
:101950000021009101910291039102681B49022428
:101960001B48B2F1804F23D01A4B9A421ED18A698C
:1019700042F004028A618A6902F0040204928A69D0
:1019800042F008028A618969039401F00801049118
:10199000C021CDE900146946FFF7C0F90094019415
:1019A00069460D48CDF80C40FFF7B8F906B010BDF8
:1019B0008A6942F004028A618969039401F0040192
:1019C00004910821CDE900146946EDE700100240BA
:1019D0000008014000040040000C0140704770B551
:1019E000044690F83C0000260D4601280FD0012047
:1019F00084F83C006AB1042A1DD0082A2FD00C2A92
:101A00003FD00126002084F83C00304670BD022003
:101A100070BD206800F070FE2068816941F0080107
:101A200081612068816921F00401816120688169F8
:101A30002A69114311E0206800F086FE2068816960
:101A400041F4006181612068816921F480618161D4
:101A5000206881692A6941EA02218161D2E7206810
:101A600000F09EFE2068C16941F00801C161206854
:101A7000C16921F00401C1612068C1692A6911436B
:101A800011E0206800F0B8FE2068C16941F40061EF
:101A9000C1612068C16921F48061C1612068C169A8
:101AA0002A6941EA0221C161ACE710B5040003D004
:101AB00094F83D0010B107E0012010BD002084F82B
:101AC0003C00204600F01EF8022084F83D00211D55
:101AD000206800F0B5FD012084F8460084F83E003F
:101AE00084F83F0084F8400084F8410084F8420004
:101AF00084F8430084F8440084F8450084F83D00ED
:101B0000002010BD7047704730B500250446022202
:101B100049B1042912D008293ED094F84100012887
:101B200045D0012030BD94F83E000128F9D184F859
:101B30003E202068C26842F0020209E094F83F00AB
:101B40000128EED184F83F202068C26842F00402E8
:101B5000C2600122206800F0AFFD1A492068884267
:101B600003D1426C42F4004242642068884208D0AB
:101B7000B0F1804F05D01449884202D01349884201
:101B800004D1816801F00701062903D0016841F002
:101B900001010160284630BD94F840000128C0D101
:101BA00084F840202068C26842F00802D0E784F838
:101BB00041200C2901D00125ECE72068C26842F0E1
:101BC0001002C5E7002C014000040040000800405E
:101BD00070B50D0004464FF0000607D0042D0AD062
:101BE000082D0DD00C2D10D001263CE02068C168D6
:101BF00021F002010DE02068C16821F0040108E035
:101C00002068C16821F0080103E02068C16821F064
:101C10001001C16000222946206800F04DFD174BDD
:101C200041F2111120688A10984209D1036A0B42CF
:101C300006D1036A134203D1436C23F40043436487
:101C40002068036A0B4206D1016A114203D1016880
:101C500021F00101016001203DB1042D08D0082DC3
:101C600009D084F84100304670BD84F83E00FAE7A0
:101C700084F83F00F7E784F84000F4E7002C0140C7
:101C80002DE9F041054600682549884201D1FFF75A
:101C900045F9244C0026276AAF421CD1D4E9021032
:101CA000884218D2401CE060227D002A226901D0BF
:101CB000521E00E0521C226188420CD184F8306030
:101CC0001046FEF792FCA16AFEF706FB206038463C
:101CD000616AFFF77DFF144C276AAF421ED1D4E939
:101CE000021088421AD2401CE060227D002A22693C
:101CF00001D0521E00E0521C226188420ED184F8AD
:101D000030601046FEF771FCA16AFEF7E5FA20602C
:101D10003846616ABDE8F041FFF75ABFBDE8F0817F
:101D200000080040A4000020D80000207047704741
:101D300010B504460068406994F84110C0F3C01023
:101D4000212911D180B12068143050E8001F21F002
:101D5000800140E80012002AF5D1A06B08B1FEF71F
:101D60005EFE204600F059FE2068406994F842105B
:101D7000C0F38010222911D180B12068143050E8BE
:101D8000001F21F0400140E80012002AF5D1E06B6D
:101D900008B1FEF744FE204600F018FE002010BDFA
:101DA00070470000F8B5016804460868CA684B69C6
:101DB00010F00F0F4FF0000559D003F0010602F4A8
:101DC0009077374365D0C10705D0D10503D5616C45
:101DD00041F001016164410705D5D90703D0616C69
:101DE00041F002016164810705D5D90703D0616C18
:101DF00041F004016164010707D502F0200131437D
:101E000003D0616C41F008016164616C00293AD033
:101E1000800604D5900602D5204600F00CFE20680E
:101E20004069616CC0F38010090700D460B320469C
:101E300000F0CCFD20684069400621D520681430B0
:101E400050E8001F21F0400140E80012002AF5D1BF
:101E5000E06BA8B16D494163E06BFEF703FE00281B
:101E600011D0E06B416B01B0BDE8F040084783063C
:101E70000FD593060DD52046BDE8F84000F0DBBD38
:101E80002046FFF78DFFF8BD2046FFF789FF656408
:101E9000F8BD266B2023012E7CD1C6067AD5D60646
:101EA00078D508684868009048694FF002064006F7
:101EB00040D5E16B086840680004000CE8D0A28DB2
:101EC0008242E5D9E085886920282DD020680C3031
:101ED00050E8001F21F4807140E80012002AF5D17B
:101EE0002068143050E8001F21F0010140E8001282
:101EF000002AF5D12068143050E8001F21F040017D
:101F000040E80012002AF5D184F8423025632068A9
:101F10000C3050E8001F21F0100140E80012002AA8
:101F2000F5D1E06BFEF77BFD6663A08DE18D401A75
:101F300081B22AE0A08DE18D401A81B2E08D0028A7
:101F4000A6D00029A4D022680C3252E8000F20F459
:101F5000907042E80007002FF5D12068143050E857
:101F6000002F22F0010240E80027002FF5D184F86D
:101F70004230256320680C3050E8002F22F0100218
:101F800040E80023002BF5D166632046FFF7CFFE23
:101F9000F8BDFFE705062BD5150629D594F84100B5
:101FA0002128F5D1A068B0F5805F01D12069B0B1DA
:101FB000206A411C2162216800784860E08C401E44
:101FC0000004000CE084E3D12068C16821F08001A6
:101FD000C1602068C16841F04001C160D8E7206A53
:101FE0000088C0F308004860206A801C2062E5E792
:101FF0004006CDD55006CBD5CA68204622F0400217
:10200000CA6084F8413000F0EFF8C1E78328000887
:1020100070B5040004D094F84100002510B106E02A
:10202000012070BD84F84050204600F023F82420A1
:1020300084F841002068C16821F40051C160204645
:1020400000F05AFD2068016921F490410161206887
:10205000416921F02A0141612068C16841F40051C1
:10206000C1606564202084F8410084F84200656303
:10207000002070BDF0B585B00024064600940194A0
:102080000294039400682D49884255D12C488169F7
:1020900041F480418161816901F480410491816949
:1020A00041F0040181618069264D00F00400049034
:1020B0004FF40070009002200190032003906946C5
:1020C0002846FEF72BFE2815CDE900046946284670
:1020D0000294FEF723FE1D4D1B488027C5E900042E
:1020E000C5E9024720202C61C5E905402846EC617E
:1020F000FEF7AEFD08B1FEF790FCF5636E62134D7E
:1021000011484435143801C5102091C50F4845F8D1
:10211000104944306C61AC61EC61FEF799FD08B187
:10212000FEF77BFCB5630022114625206E62FEF7A8
:1021300087FF2520FEF776FF05B0F0BD003801408F
:1021400000100240000801405800024094020020A4
:1021500090F84230202B01D00220704721B11AB1F3
:102160000023036300F024BD0120704770477047CF
:1021700070B5044690F84100202801D0022070BDBF
:1021800049B342B32162A284E28400206064212327
:1021900084F84130A56B114BAB62A56B104BEB6221
:1021A000A56B104B2B63A36B5863256813462A1D40
:1021B000A06BFEF77BFD21686FF04000086020688F
:1021C000143050E8001F41F0800140E80012002A5E
:1021D000F5D1002070BD012070BD000081290008EC
:1021E000C32900089328000870477047FEE70000E5
:1021F0000D4808B5416941F0010141614069002283
:1022000000F00100009011460E20FEF719FF0E208D
:10221000FEF708FF002211460F20FEF711FFBDE870
:1022200008400F20FEF7FEBE001002402DE9F041ED
:1022300086B000242B480094019402940394816991
:1022400041F010018161816901F0100104918169FF
:1022500041F020018161816901F0200104918169CF
:1022600041F004018161816901F0040104918169F7
:1022700041F0080181618069012200F008001A4FD5
:102280005503049029463846FEF73DFEDFF85C8092
:10229000012236214046FEF736FE00950226012532
:1022A0000396CDE9015469463846FEF737FDCDE97E
:1022B0000054694640460295FEF730FD3620CDE9D0
:1022C00000050320CDE9024069464046FEF726FDA1
:1022D000E8208DE8510069460548FEF71FFD06B06D
:1022E000BDE8F081001002400010014000080140EC
:1022F000000C014010B58EB0002407940894099496
:102300000A940B941C2168460C94FDF782FF1F4829
:102310004FF0804101604721C0E9011440F2E731EC
:10232000C0E903148461FFF77FF908B1FEF775FB7C
:102330004FF48050079007A91448FFF7FFF908B140
:10234000FEF76BFB1148FFF7B0FB08B1FEF765FB2A
:102350000B940BA90D480C94FFF732F908B1FEF766
:102360005CFB602000904FF4FA70CDE901040C2270
:10237000694606480494FFF732FB08B1FEF74DFBAF
:102380000248FFF7E3FA0EB010BD0000BC010020C8
:1023900010B58EB000240794089409940A940B9405
:1023A0001C2168460C94FDF734FF2848264901603B
:1023B0004721C0E9011440F2E731C0E90314846108
:1023C000FFF732F908B1FEF728FB4FF48050079071
:1023D00007A91E48FFF7B2F908B1FEF71EFB1B481C
:1023E000FFF763FB08B1FEF718FB0B940BA9174826
:1023F0000C94FFF7E5F808B1FEF70FFB6020CDE97C
:10240000000402940022694610480494FFF7E7FA9A
:1024100008B1FEF702FB042269460C48FFF7DFFA19
:1024200008B1FEF7FAFA4FF4FA7001900C226946EF
:102430000648FFF7D4FA08B1FEF7EFFA0348FFF7B2
:1024400085FA0EB010BD0000000400400402002018
:102450000C4810B50A4901604FF4E1314160002198
:1024600081600C22C160C0E904128161C161FFF783
:10247000CFFD002803D0BDE81040FEF7CEBA10BD56
:10248000003801404C020020FEE770B516460D46AC
:10249000044611F1FF4F01D3012100E0002100F0BB
:1024A00049F825F00040A16AFDF748FF4FF07C5144
:1024B000FDF7BAFEFEF7A7F8A0600020E060314605
:1024C000204600F041F8012084F83000206AFFF730
:1024D00009F9D4E90801BDE87040FFF715BB70B5F4
:1024E00015460A46044601681046FDF7EFFE014610
:1024F0002A462046BDE87040FFF7C7BFFEE7FDF75C
:1025000023BE0000094900200861C8608860086097
:10251000486081F83000087534310861C86088600F
:102520000860486081F8300008757047A4000020FA
:10253000FDF7E8BD017521B10022818B8069FEF7AE
:10254000E2BC0122F9E70000C26A8A4200D21146C9
:10255000104A036AB2FBF1F11B684A1EDA62036A91
:10256000DA60426A4AB1042A0CD0006A082A4FEAAB
:10257000510100680BD001647047006A4908006887
:1025800041637047006A4908006881637047C1630E
:102590007047000040420F0010B5064C0022042195
:1025A0002046FEF7B0FC20460022BDE81040202166
:1025B000FEF7A9BC0008014001F0F4BB30B58FB0B4
:1025C00028216846FDF725FE14210AA8FDF721FE03
:1025D00001210804CDE90010002402940225049191
:1025E000CDE907504FF4E01009906846FEF756FE1B
:1025F00008B172B6FEE70F20CDE90A054FF48060FE
:10260000CDE90C4002210AA80E94FEF74BFD0028EC
:1026100001D072B6FEE70FB030BD70470148FFF73A
:10262000FCB80000BC0100200148FFF7F6B800002C
:10263000040200200148FFF7F0B800009C040020CD
:10264000F0B50268194B1A4C1A4D4FF0804798426A
:1026500005D0B84203D0A04201D0A84203D122F055
:1026600070064A683243984205D0B84203D0A0426F
:1026700001D0A84203D122F44074CA6822434C69B5
:1026800022F08002224302608A68C2620A68826283
:10269000984201D109690163012141610169C907BA
:1026A00003D0016921F001010161F0BD002C01405E
:1026B000000400400008004010B501F01F03012194
:1026C000046A99408C430462016A9A401143016292
:1026D00010BD10B5846842EA032224F47F440A4303
:1026E0002243826010BD826822F070020A4342F0E9
:1026F000070181607047000030B5036A026A22F06A
:10270000010202624268846924F073050C682C435C
:1027100023F002058B682B430A4DA8420BD123F00E
:102720000805CB6822F440722B434D6923F0040363
:1027300015438A692A4342608461496841630362A0
:1027400030BD0000002C014030B5026A036A23F05E
:1027500010030362436884690D6824F4E64444EA84
:1027600005248D6822F0200242EA05120B4DA84292
:102770000ED1CD6822F0800242EA05124D6923F4A1
:10278000406343EA85038D6922F0400243EA8503F2
:102790004360846149688163026230BD002C01405E
:1027A00030B5036A026A22F4807202624268C46928
:1027B00023F4007324F073050C682C438D6843EAFE
:1027C00005230C4DA8420ED1CD6823F4006343EAE3
:1027D00005234D6922F4405242EA05128D6923F423
:1027E000806342EA05124260C4614968C1630362C2
:1027F00030BD0000002C014030B5046A026A22F4AA
:10280000805202624268C3690D6823F4E64343EADA
:1028100005238D6824F4005444EA0534064DA8428B
:1028200004D14D6922F4804242EA85124260C361BC
:1028300049680164046230BD002C014010B5036A90
:10284000046A24F001040462846924F0F00444EA78
:10285000021423F00A020A438461026210BD10B51B
:10286000036A046A24F010040462846923F0A0035C
:1028700024F4704444EA023243EA011182610162A5
:1028800010BD10B5406A0021C185C184FFF788FAE8
:1028900010BD70B5446A2068406994F84110C0F3D7
:1028A000C0100025212904D118B1E584204600F08C
:1028B000B4F82068406994F84210C0F380102229CF
:1028C00004D118B1E585204600F080F8606C40F036
:1028D000100060642046FFF763FA70BD10B5014632
:1028E000406A096809684FF0000289062ED4C28543
:1028F00001680C3151E8003F23F4807341E8003453
:10290000002CF5D10168143151E8003F23F0010398
:1029100041E80034002CF5D10168143151E8003F42
:1029200023F0400341E80034002CF5D1202180F849
:102930004210016B012909D101680C3151E8003FB7
:1029400023F0100341E80034002CF5D14263016B01
:10295000012902D0FFF70AFC10BD818DFFF7E7F9CE
:1029600010BD10B5406A01214163016B012902D0FD
:10297000FFF7FDFB10BD818D4908FFF7D8F910BDA9
:1029800010B50146406A09680968890616D4002115
:10299000C1840168143151E8002F22F0800241E81F
:1029A0000023002BF5D101680C3151E8002F42F0D3
:1029B000400241E80023002BF5D110BDFFF714FCC5
:1029C00010BD10B5406AFFF710FC10BD01680C3156
:1029D00051E8002F22F4907241E80023002BF5D13A
:1029E0000168143151E8002F22F0010241E8002370
:1029F000002BF5D1016B012909D101680C3151E897
:102A0000002F22F0100241E80023002BF5D12021F5
:102A100080F8421000210163704701680C3151E8D1
:102A2000002F22F0C00241E80023002BF5D1202125
:102A300080F84110704708B590F84210222901D063
:102A4000022008BD82684FF480539A4201D1016987
:102A500021B1816A9A421BD04AB10AE00268816AB8
:102A60005268C2F308020A80816A891C08E0026980
:102A700072B10268526802F07F020A70816A491CD2
:102A80008162C18D491E0904090CC18503D01BE078
:102A900002685268F1E70168CA6822F02002CA6041
:102AA0000168CA6822F48072CA6001684A6922F02B
:102AB00001024A61202180F8421000214163026B2B
:102AC000012A03D0FFF752FB002008BD0163016813
:102AD0000C3151E8002F22F0100241E80023002BB6
:102AE000F5D101680A68D20602D50A6849680091E2
:102AF000818DFFF71CF9E7E770B5044600680169AE
:102B0000E26821F44051114301612169A068084342
:102B1000616908432168CA6841F20C639A43024321
:102B2000CA6020684169A26921F440711143416182
:102B30001E492068884202D1FEF77AFB01E0FEF7C9
:102B400067FB00EBC00101EB0012606864218000AC
:102B5000B2FBF0F3B3FBF1F36FF018067343B2FB73
:102B6000F0F5B2FBF0F605EB8305322303EB051518
:102B7000B5FBF1F5B6FBF1F605F0F00505EB061532
:102B8000B2FBF0F6B2FBF0F0B0FBF1F06FF0180220
:102B9000504306EB800003EB0010B0FBF1F021681E
:102BA00000F00F002844886070BD0000003801402C
:102BB00038B5816204468285002013466064222273
:102BC00084F84220E56B1B4AAA62E56B1A4AEA6266
:102BD000E56B1A4A2A63E26B50630A462168E06B90
:102BE000091DFEF763F820680168406800902069BD
:102BF00048B120680C3050E8001F41F4807140E873
:102C00000012002AF5D12068143050E8001F41F06E
:102C1000010140E80012002AF5D12068143050E884
:102C2000001F41F0400140E80012002AF5D10020C9
:102C300038BD0000DD28000863290008932800083B
:102C400010B50C46802900D980240146224605484B
:102C5000FDF7C6FA22460349BDE81040A1F5E87029
:102C6000FFF786BA1C04002010B50348FFF79AF856
:102C7000BDE8104000F002B84C02002038B51548FD
:102C800000680168C943C90622D401684068009001
:102C90001048FFF74DF80F484830006840680D496C
:102CA000C0F18000C4B2D031802201F18000FDF774
:102CB00097FAFDF773FE07482146D030FDF7A9FAD1
:102CC000BDE8384003498022D0310248FFF740BABE
:102CD00038BD00004C020020FEE7490050EAC12048
:102CE00018BF04204A0D18BF40F0010040F2FF72E7
:102CF000B2EB515F08BF40F00200012808BF052079
:102D000070470907090E002804DB00F1E02080F875
:102D10000014704700F00F0000F1E02080F8141D4F
:102D200070472DE9F0414F1E00EBC7010446D1E981
:102D3000000115461E4637F006020DD02A463346DE
:102D4000FDF7E1FB7F1E04EBC703D3E90023FDF78A
:102D500033FB37F00602F1D1022F25D0042F13D018
:102D6000062F18BFBDE8F0812A463346FDF7CBFB9E
:102D7000D4E90A23FDF720FB2A463346FDF7C3FBBF
:102D8000D4E90823FDF718FB2A463346FDF7BBFBC1
:102D9000D4E90623FDF710FB2A463346FDF7B3FBC3
:102DA000D4E90423FDF708FB2A463346FDF7ABFBC5
:102DB000D4E90223FDF700FB2A463346FDF7A3FBC7
:102DC000D4E90023BDE8F041FDF7F6BA0122FDF792
:102DD000ABBDFDF7F1BA0000024A00201107FDF774
:102DE000A3BD000001FDFFFF02E008C8121F08C1DB
:102DF000002AFAD170477047002001E001C1121F7C
:102E0000002AFBD1704700000149086070470000AC
:102E1000180100202DE9F84F04460D4621F000402E
:102E200000917349814211DC7249884201DC06D16C
:102E30002CB120462946BDE8F84FFFF7C7BF6E48C2
:102E4000002DCCBF6D496E49BDE8F88F6D498142B8
:102E500011DD6D498142D8BF4FF0FF366DDD204650
:102E60002946FFF73AFF042808BFFFF7B5FF2046C1
:102E70002946BDE8F88F6549654F25F00045814238
:102E800033DD6449814219DD002632464FF080432C
:102E900020462946FDF790FA80468A4601222046C0
:102EA0002946FDF741FD00223B46FDF726FB424641
:102EB0005346FDF7B8FC04460D463EE001260022CD
:102EC000BA463B4620462946FDF776FA80460F462D
:102ED0000022534620462946FDF70FFB42463B465B
:102EE000FDF7A1FC04460D4627E04B4981421BDD5E
:102EF000DFF828A102260022534620462946FDF786
:102F000002FB00223B46FDF757FA80460F4600229F
:102F1000534620462946FDF7F0FA42463B46FDF768
:102F200082FC04460D4608E0032622462B4600207C
:102F30003B49FDF778FC04460D4622462B461046D9
:102F40001946FDF7E0FA8B46824602460B46FDF72E
:102F5000DAFA07460246334888460B46062178448B
:102F6000FFF7DFFE52465B46FDF7CDFA82462E485C
:102F70008B463A46434605217844FFF7D2FE3A464F
:102F80004346FDF7C0FA02460B46002E504659460E
:102F90000CDAFDF711FA22462B46FDF7B4FA01B020
:102FA00022462B46BDE8F04FFDF7AABAFDF704FA1A
:102FB00022462B46FDF7A7FA1C4A7A4402EBC603C9
:102FC000D3E90023FDF799FA22462B46FDF795FA3F
:102FD000174A7A4402EBC603D3E90023FDF790FABF
:102FE000009A002AB8BF81F00041BDE8F88F0000C8
:102FF000000010440000F07F182D4454FB21F93FDD
:10300000FB21F9BF0000DC3F0000203E0000F33F41
:103010000000F03F0000E63F008003400000F83F62
:103020000000F0BF9E1100005C110000FA100000CB
:10303000C21000002DE9F04D9446CCF1000423F0BD
:1030400000464CEA0404594F46EAD4749A4688462E
:1030500021F00042BC4206D8454240EA050442EA5B
:10306000D474BC4204D9BDE8F04D6246FFF7B1BE4E
:10307000AAF14055A5F17F6555EA0C040BD0022456
:1030800004EAAA744A4DDFF82CE144EAD87452EA03
:10309000000B04D00CE0BDE8F04DFFF7BBBE002CE8
:1030A00014BF012CBDE8F08D022C30D0032C32D09F
:1030B00056EA0C0B0AD0BE4220D1BA4209D126F002
:1030C000804622F080423346114617E000291ADB81
:1030D00025E0DFF8E4B0FB44002C04BFDBE900018D
:1030E000BDE8F08D012C02BFDBE9000181F0004159
:1030F000BDE8F08D022C0AD0032C0CD0BA4212D1BC
:10310000B8F1000F0BDA2A482C49BDE8F08D2846AB
:103110002B49BDE8F08D28467146BDE8F08D244866
:103120002849BDE8F08D921B12153C2AC4BF204FE0
:10313000244E10DCBAF1000FBEBF12F13C0F002785
:103140003E4608DB6246FDF76EFB21F00041FFF7CB
:1031500061FE07460E4694B1012C08BF86F000467A
:103160000DD0194A194B022C3846314615D0FDF7BF
:10317000C4F92A46BDE8F04D114BFDF7BEB9002257
:10318000134638463146FDF765FA04BF0220FFF7C3
:103190003BFE38463146BDE8F08DFDF7AEF92A46D4
:1031A000BDE8F04D064BFDF7ABB900000000F07F25
:1031B000182D4454FB2109C056100000FB21F9BF13
:1031C000FB210940FB21F93F075C143326A6A13CF3
:1031D000DFF8F0B008B5384E384DDFF8E4A04FF016
:1031E0000009ABF114043068F0B340212846FDF724
:1031F00085FE012847D1642000F046FD4021284685
:10320000FDF77CFE01283ED16068052801D1C4F895
:1032100004902D4F97F8300038BB2C4890F83000C0
:1032200018BB607808BB84F80090606878B30AEB3C
:103230008001274B51F8048C03EB8001CBF8008010
:10324000DFF880C051F8041CCBF804100CF1080C16
:103250005AF82020CCF8002053F820301D48CCF834
:1032600004300090404601E00DE006E000F0B8F8C0
:103270006068401C6060012060700A2000F004FD5E
:1032800060680528C6D10A2000F0FEFCABE7FFE726
:103290000F4BDAF810C0CBF800C00A481969CBF818
:1032A00004100830DAF8002002601B684360094807
:1032B00000906046D7E7000010010020000C01409C
:1032C000CC2D002014000020A4000020D8000020F5
:1032D000E02D00201C0100202DE9F05F9A46934666
:1032E0000C4680F00040FDF7A2F906460F46204646
:1032F000FDF79DF9DFF8588004460D46002243464D
:1033000030463946FFF796FE06460F4600224346F2
:1033100020462946FFF78EFEDFF83880DFF8389028
:1033200004460D4642464B4630463946FDF7EBF81B
:10333000FDF7A8F9CAF8000042464B462046294648
:10334000FDF7E1F8FDF79EF9CBF80000BDE8F09F2E
:1033500000408F40F8C1631ADCA54C402DE9F047CE
:1033600090460C4680F00040FDF761F905460E4698
:103370002046FDF75CF9DFF85C9004460F4600221A
:103380004B4628463146FFF755FE05460E460022BD
:103390004B4620463946FFF74DFEDFF83C90DFF8FC
:1033A0003CA004460F464A46534628463146FDF7A0
:1033B000AAF8FDF767F9C8F804004A4653462046C4
:1033C0003946FDF7A0F8FDF75DF9C8F80000BDE843
:1033D000F087000000408F40F8C1631ADCA54C4024
:1033E0002DE9FF4F83B0804689469B460024414625
:1033F000DDF840A00598FCF769FF0190184E58468B
:103400004946FCF763FF00902046FDF7F7F81549A1
:10341000FCF794FF054629460198FCF75DFF4146FD
:10342000FCF702FF0746306029460098FCF754FF7E
:103430004946FCF7F9FE014670600AEBC4023846C3
:10344000FFF78CFF641CA4B2132CDDD3059807B0E2
:103450000AF198025946BDE8F04FFFF77FBF000020
:103460009C0000200000984170B5174C8021204638
:10347000FDF744FD012825D1642000F005FC8021E2
:103480002046FDF73BFD012816D1104D2868052880
:1034900007DA01210E4800F035F92868401C286041
:1034A00002E0FFF72FF82868052805D1FFF774F828
:1034B00002E0012000F0E8FB80212046FDF71EFD20
:1034C0000128F6D070BD0000000C014098000020DB
:1034D0000C01002010B5114C40212046FDF70EFDD7
:1034E000012819D1642000F0CFFB40212046FDF7D0
:1034F00005FD01280AD10A48816881F00101816037
:103500000121416002E0012000F0BEFB4021204685
:10351000FDF7F4FC0128F6D010BD0000000C0140BE
:103520000C01002070B5124C20212046FDF7E6FC6E
:1035300001281BD1642000F0A7FB20212046FDF7C5
:10354000DDFC01280CD10B4D4FF47A720A48297A20
:1035500000F0C0F80120686002E0012000F094FB58
:1035600020212046FDF7CAFC0128F6D070BD0000DE
:10357000000C01400C010020A400002070B5124C8A
:1035800008212046FDF7BAFC01281BD1642000F079
:103590007BFB08212046FDF7B1FC01280CD10B4D27
:1035A0004FF47A720A48297A00F094F80120686092
:1035B00002E0012000F068FB08212046FDF79EFC98
:1035C0000128F6D070BD0000000C01400C01002065
:1035D000D80000201CB5FDF7A9FCFEF7EFFFFEF7B1
:1035E00025FEFEF705FEFEF733FFFEF7D1FEFEF7E0
:1035F00081FE012410482502CDE9004000232A461F
:103600000EA1124800F0E4FB0B4800230838CDE976
:10361000004080220EA1114800F0DAFB064800238A
:10362000001FCDE900402A460DA1104800F0D0FB54
:1036300000F042FBFEE700001000002064656369B3
:1036400073696F6E5F7461736B000000D1310008A5
:1036500075736172745F7461736B0000613B000885
:103660006D6F746F725F7461736B00007136000868
:10367000144D154EDFF85480154C4FF47A7900271D
:103680006078D8B195F83000A0B996F8300088B9C4
:1036900021784A4608EBC10041680A48FEF71FFF3F
:1036A00021784A46084858F83110FEF718FF20786C
:1036B000401C20702078142800D167700A2000F088
:1036C000E3FADDE7A4000020D80000201C01002060
:1036D0000000002070B516460446FEF72BFF0125BA
:1036E0000020C4E9025031462046FEF72DFF84F841
:1036F0003050206AFDF7F6FFD4E90801BDE87040BC
:10370000FEF702BA38B50C4601290FD855218DF8BD
:103710000010014622460DF10100FCF761FD0D206D
:103720008DF80200A11C6846FFF78AFA38BD000038
:1037300030B4114942788A704A68052A1ADC0F4968
:1037400050F8024F01EB820141F8044C0B4914314F
:1037500001EB82034168094843F8041C3C3000EB4C
:103760008203143800EB82022046121F30BC1B1F5C
:10377000FFF7B2BD30BC704794000020CC2D002074
:103780002DE9F0411E4C0F460546E6682068001DF5
:1037900000F0F8F938B9206890F82C100120884022
:1037A000216981432161681C15D1A7B1154922689F
:1037B0004868906023688268DA6022688368121D16
:1037C0005A602268121D8260206841610868401CAE
:1037D0000860BDE8F08120683544B5424560216845
:1037E00005D2E06BBDE8F041091D00F0EEB9A06B19
:1037F000091D00F0EAF9A06A8542EAD2A562E8E76D
:1038000034000020AC0500202DE9F041054600F011
:10381000F5F9364CA068401CA0602068344F10B108
:10382000606940B32DE02560A068012829D10026F9
:1038300006EB860007EB800000F0B9F9761C062E37
:10384000F6D32B48783000F0B2F929488C3000F0DC
:10385000AEF92748A03000F0AAF92548B43000F0AE
:10386000A6F92348C83000F0A2F921487830A063B7
:103870001430E06305E02068E96AC06A884200D835
:103880002560606A0121401C6062E86A226981400B
:103890001143216100EB800007EB80004068A860C5
:1038A0008168E9608268291D51608160E86A00EBE7
:1038B000800007EB8001696157F82010491C47F828
:1038C000201000F0A9F9606900280CD02068E96A8E
:1038D000C06A884207D207494FF080500860BFF3A2
:1038E0004F8FBFF36F8FBDE8F081000034000020E0
:1038F000E404002004ED00E010B50446006B00F085
:1039000095F92046BDE8104000F090B90E484FF4FC
:103910002051420706D0C01D0B4920F00700411A74
:10392000C1F52051094A00230144C2E900030839C6
:10393000143A21F0070111604B600B600B1AC0E9CB
:103940000013936053607047C00500208C00002076
:10395000144E154CA6F1B4074FF08058DFF84C9088
:1039600012E000BF00F04AF9F068C568281D00F0B9
:1039700009F9A068401EA0606068401E606000F009
:103980004BF92846FFF7B8FF60680028EAD138688D
:103990000128F9D9C9F80080BFF34F8FBFF36F8FAB
:1039A000F2E70000980500203400002004ED00E05C
:1039B0002DE9F0479946DDE9096480466FF003037D
:1039C000206B03EB8202089D104420F0070761B1D1
:1039D000002023180A5C83F834200A5C12B1401CD2
:1039E0001028F6D3002084F84300062D00D30525C7
:1039F000201DE56200F0E6F804F1180000F0E2F89E
:103A00002461C5F106006462A0614A464146384619
:103A100000F094F82060002E00D03460BDE8F087FC
:103A200030B5114900E011460A688242FBD34B6869
:103A30005C18844203D140681844486008464368D3
:103A40001C18944209D1084C143C2468A24209D0A5
:103A500052681A4442600A6812680260814200D0CB
:103A6000086030BD0460F9E78C0000200548816BD8
:103A7000096821B1816BC9680968816270474FF09C
:103A8000FF31FAE734000020BF2080F31188BFF334
:103A90004F8FBFF36F8FFEE770B50446002600F02E
:103AA00033F9254D286808B9FFF730FFE4B304F077
:103AB0000700C0F11000C1438C4202D82118002930
:103AC00002DC00F045FA32E068688142F9D81A4811
:103AD00014300246146801E02046144662688A42A7
:103AE00002D22268002AF7D12A689442E9D00668F7
:103AF0002268026060680836421A102A04D96018E9
:103B000042606160FFF78CFF61686868401A686016
:103B1000AA68904200D2A86041F000406060002096
:103B20002060E868401CE86000F012FA0EB900F06E
:103B30003CF8304670BD00007800002010B5031F2F
:103B40004FF080741C601B1F21F001011960191FC8
:103B5000024B0B60143940380A6010BD893A0008E6
:103B6000074C206838B9FFF77FFCFFF7B3FCFFF77D
:103B7000D9FCFFF703FD0A2000F086F8F1E700000A
:103B800010010020D0E9013201699A60D0E90123D7
:103B90005A604A68824201D182684A60002202610A
:103BA0000868401E086008687047FEE7FEE700F1FD
:103BB00008014FF0FF32C0E90112C160016100212C
:103BC0000160704700210161704730B50B685A1CD5
:103BD00002D000F1080202E0026904E022465468C3
:103BE00025689D42FAD953684B6099608A6051609C
:103BF00008610168491C016030BD0000BF2080F3EE
:103C00001188BFF34F8FBFF36F8F02480168491CC3
:103C1000016070477400002003490868401E086076
:103C200001D180F3118870477400002070B500281E
:103C30001BD0A0F108046068002816DA216800296A
:103C400013D120F00040606000F05EF8074D60681E
:103C50006968084468602046FFF7E2FE2869401C56
:103C60002861BDE8704000F073B970BD7800002095
:103C70004FF0E0200021016181610249416107218B
:103C8000016170473F19010010B5020009D000F032
:103C90003BF800211046FFF773FD00F059F90028AA
:103CA00007D104494FF080500860BFF34F8FBFF336
:103CB0006F8F10BD04ED00E07CB50F480025CDE905
:103CC00000502B4680220DA10E4800F081F80A4CCE
:103CD0002C3C01280ED1BF2080F31188BFF34F8FF9
:103CE000BFF36F8F4FF0FF30A06201206061E5608D
:103CF00000F040F8206B7CBD6000002049444C453A
:103D000000000000513900080248416B491C416322
:103D1000704700003400002010B5144C606B10B1E7
:103D20000120E06110BD0020E0612068216800688A
:103D3000096B884204D8216820683431FFF736FFC8
:103D400020690B49B0FA80F0C0F11F0000EB800041
:103D500001EB800000F1080241684968416091422E
:103D600001D149684160C868206010BD340000205E
:103D7000E4040020094810B5016841F47F010160A6
:103D8000016841F07F410160FFF772FF04490020A4
:103D90000860FCF7C9F9002010BD000020ED00E02C
:103DA0007400002010B5BF2080F31188BFF34F8F3F
:103DB000BFF36F8F00F03AF818B104494FF080500C
:103DC0000860002080F3118810BD000004ED00E0C1
:103DD0002DE9FF5F8346DDE90E87994616468A4640
:103DE0009000FFF759FE05001DD04C20FFF754FE50
:103DF000040015D04C21FCF70CFA25630021CDE915
:103E00000241CDE900874B46324651465846FFF7FE
:103E1000CFFD2046FFF7F8FC012004B0BDE8F09F7D
:103E20002846FFF703FF4FF0FF30F6E72DE9F0419A
:103E3000454C0026606B28B1A069401CA06130464B
:103E4000BDE8F081E5686D1CE56008D1A06BE16B11
:103E5000A163E063206A401C2062FFF707FEA16AAD
:103E60003A488D420FD34FF0000EA16B096839B16B
:103E7000A16BC968C9684A68954212D2A26202E081
:103E80004FF0FF31A1622168C96A01EB810150F84E
:103E90002100012800D90126E0690028CFD00126A1
:103EA000CDE7D1E902724B69BA60D1E902277A60A5
:103EB0005F680A1D974201D1CF685F60C1F814E0C6
:103EC0001F687F1E1F60D1F828C0BCF1000F15D0FD
:103ED000D1E907379F60D1E907377B60DCF80470D0
:103EE00001F118039F4202D10B6ACCF80430C1F8EB
:103EF00028E0DCF800305B1ECCF80030CB6A0127EC
:103F0000D4F810C09F4047EA0C07276103EB8303F6
:103F100000EB83035B688B609F68CF609F687A606B
:103F20009A60CA6A02EB820200EB82034B6150F88E
:103F300022305B1C40F82230C96A2268D26A914262
:103F400093D9012691E7000034000020E40400200A
:103F50002DE9F04100242746FFF750FE3F4D686BE6
:103F6000401E6863686B002872D1A8683C4B00262D
:103F70004FF00108F0BB6BE0D868C468D4E90721B2
:103F8000A06A9160D4E907125160426804F11801F7
:103F90008A4201D1216A4160A6620168491E01601E
:103FA000D4E9022160699160D4E90212516042684B
:103FB000211D8A4201D1E268426066610268521E98
:103FC0000260E26AD5F810C008FA02F040EA0C007C
:103FD000286102EB8200224AA03A02EB800040688E
:103FE000A060D0F808C0C4F80CC0D0F808C0CCF865
:103FF000041000E012E08160E06A00EB800002EB58
:104000008001616152F82010491C42F82010E06ADA
:104010002968C96A884201D3C5F81C80186800283D
:10402000AAD10CB1FFF722FDAC693CB1FFF7FEFE4F
:1040300008B1C5F81C80641EF8D1AE61E86938B1DA
:104040000849012738070860BFF34F8FBFF36F8F10
:10405000FFF7E2FD3846BDE8F081000034000020A3
:104060008405002004ED00E00102020304050607B8
:1040700008090A0B0C0D0E0F1010000000000000C4
:104080000000010203040607080900000000010205
:1040900003040000000000004FBB610567ACDD3F7A
:1040A000182D4454FB21E93F9BF681D20B73EF3F5F
:1040B000182D4454FB21F93FE2652F227F2B7A3CD7
:1040C000075C143326A6813CBDCBF07A8807703C90
:1040D000075C143326A6913CC4EB98999999C9BF03
:1040E000711623FEC671BCBF6D9A74AFF2B0B3BF38
:1040F0009AFDDE522DDEADBF2F6C6A2C44B4A2BFF8
:104100000D5555555555D53FFF8300922449C23F63
:104110006E204CC5CD45B73F513DD0A0660DB13F97
:10412000EB0D76244B7BA93F11DA22E33AAD903FA9
:1041300000000000000000005841000800000020BE
:104140001C010000E82D0008744200081C0100203A
:1041500004310000F82D00080000000000000000FD
:10416000000000000000000000000000000000004F
:10417000000000000000000000000000010000003E
:10418000100000000000000000127A000000000093
:10419000000000000000000000000000000000001F
:1041A000000000000000000000000000000000000F
:1041B00000000000000000000000000005000000FA
:1041C000000000000000000000000000AAAAAAAA47
:1041D00000000000000000000000000000000000DF
:1041E00000000000000000000000000000000000CF
:1041F00000000000000000000000000000000000BF
:1042000000000000000000000000000000000000AE
:10421000000000000008014002000000BC01002076
:104220000C0000006666663D204E000000000000A5
:10423000000000000000000000000000000000007E
:104240000000000000000000000801401000000015
:10425000040200200C0000006666663D204E00004F
:10426000000000000100000000000000000000004D
:04427000000000004A
:04000005080000ED02
:00000001FF
