:020000040800F2
:10000000D03C012029030008CD2700086724000800
:10001000E52600085F060008953200080000000091
:10002000000000000000000000000000112900088E
:100030008D080008000000009D2800089129000894
:100040004303000843030008430300084303000878
:100050004303000843030008430300084303000868
:100060004303000843030008430300084303000858
:100070004303000861060008430300086D060008FA
:1000800079060008850600084303000843030008BA
:100090004303000843030008430300084303000828
:1000A0004303000843030008430300084303000818
:1000B000392A0008452A0008512A0008430300088D
:1000C00043030008430300084303000843030008F8
:1000D0004303000875310008893100084303000814
:1000E00043030008430300084303000843030008D8
:1000F00043030008430300084303000843030008C8
:1001000043030008430300084303000843030008B7
:10011000312D00084303000843030008430300088F
:100120004303000843030008910600084303000846
:100130004303000843030008430300084303000887
:100140004303000843030008430300084303000877
:1001500043030008430300089D060008430300080A
:100160004303000843030008430300084303000857
:100170004303000843030008430300080000000095
:10018000430300084303000800F002F800F05CF8A5
:100190000AA090E8000C82448344AAF10107DA45E2
:1001A00001D100F051F8AFF2090EBAE80F0013F0D8
:1001B000010F18BFFB1A43F001031847C44E00009B
:1001C000E44E00000A444FF0000C10F8013B13F01D
:1001D000070408BF10F8014B1D1108BF10F8015BA0
:1001E000641E05D010F8016B641E01F8016BF9D193
:1001F00013F0080F1EBF10F8014BAD1C0C1B09D1EA
:100200006D1E58BF01F801CBFAD505E014F8016B5B
:1002100001F8016B6D1EF9D59142D6D370470000ED
:100220000023002400250026103A28BF78C1FBD8FF
:10023000520728BF30C148BF0B6070471FB504F09C
:1002400004FF1FBD10B510BD00F0D4F91146FFF733
:10025000F5FF03F0D9F800F0F2F903B4FFF7F2FF6D
:1002600003BC00F0F5F900002C4B19680868B0E8F1
:10027000F04F80F30988BFF36F8F4FF0000080F3D9
:10028000118870470000000008480068006880F38B
:1002900008884FF0000080F3148862B661B6BFF39F
:1002A0004F8FBFF36F8F00DF00BF00BF08ED00E08E
:1002B000DFF80C00016841F470010160704700BF75
:1002C00088ED00E0EFF30980BFF36F8F134B1A68DE
:1002D0001EF0100F08BF20ED108A20E9F04F1060CB
:1002E00009B44FF0500080F31188BFF34F8FBFF374
:1002F0006F8F03F049FF4FF0000080F3118809BCB5
:1003000019680868B0E8F04F1EF0100F08BFB0EC95
:10031000108A80F30988BFF36F8F70472000002098
:10032000EFF30580704700000948804709480047FF
:10033000FEE7FEE7FEE7FEE7FEE7FEE7FEE7FEE795
:10034000FEE7FEE704480549054A064B70470000F2
:10035000292A000889010008D0360120D03C01205C
:10036000D0380120D038012053EA020C00F0698017
:100370002DE9F04B4FF00006002B1FBFB3FA83F5B9
:1003800003FA05F424FA05F65E4012BF1643B2FAEA
:1003900082F502FA05F4C5F120051EBF22FA05FC1C
:1003A00044EA0C04203556EA044C4FEA144418BFC2
:1003B000641C4FF000084FF00009904271EB030CF1
:1003C00039D3002919BFB1FA81F701FA07F6B0FA5B
:1003D00080F700FA07F6C7F120071EBF20FA07FCD6
:1003E00046EA0C062037B6FBF4FCA7EB0507103FE6
:1003F00007F01F0BCBF120060CFA0BFB2CFA06F6CC
:1004000044BFB3460026202FA4BF5E464FF0000B2A
:100410005BEA060C08BF4FF0010B19EB0B09ABFBB5
:10042000027C48EB0608C01B06FB02CC0BFB03CC8E
:1004300071EB0C01C1E70B46024641464846BDE858
:10044000F08B13B54FF000004FF00001AFF30080C8
:10045000BDE81C407047032A40F2308010F0030CC6
:1004600000F0158011F8013BBCF1020F624498BF07
:1004700011F801CB00F8013B38BF11F8013BA2F1A4
:10048000040298BF00F801CB38BF00F8013B11F01F
:10049000030300F07980083AC0F0088051F8043B6B
:1004A000083A51F804CBA0E80810F5E7121D5CBF2C
:1004B00051F8043B40F8043BAFF30080D20724BF5F
:1004C00011F8013B11F801CB48BF11F8012B24BFF3
:1004D00000F8013B00F801CB48BF00F8012B704742
:1004E00002F0FF0343EA032242EA024200F002B8AC
:1004F0004FF000020429C0F0128010F0030C00F04D
:100500001B80CCF1040CBCF1020F18BF00F8012BCA
:10051000A8BF20F8022BA1EB0C0100F00DB85FEA98
:10052000C17C24BF00F8012B00F8012B48BF00F864
:10053000012B70474FF0000200B5134694469646D3
:10054000203922BFA0E80C50A0E80C50B1F12001E6
:10055000BFF4F7AF090728BFA0E80C5048BF0CC094
:100560005DF804EB890028BF40F8042B08BF7047F2
:1005700048BF20F8022B11F0804F18BF00F8012B64
:10058000704770477047704710B5203AC0F00B8035
:10059000B1E81850203AA0E81850B1E81850A0E887
:1005A0001850BFF4F5AF5FEA027C24BFB1E81850E1
:1005B000A0E8185044BF18C918C0BDE810405FEA51
:1005C000827C24BF51F8043B40F8043B08BF7047CD
:1005D000D20728BF31F8023B48BF11F8012B28BFD2
:1005E00020F8023B48BF00F8012B704700487047D5
:1005F0006C3601207546FFF7F9FFAE4605006946E7
:10060000534620F00700854618B020B5FFF79AFE44
:10061000BDE820404FF000064FF000074FF0000803
:100620004FF0000B21F00701AC46ACE8C009ACE884
:10063000C009ACE8C009ACE8C0098D46704710B5E8
:100640000446AFF300802046BDE81040FFF705BE2A
:1006500001491820ABBEFEE7260002007047FEE706
:10066000014800F0D7B90000F8020020014800F06E
:10067000D1B9000058030020014800F0CBB90000B8
:10068000D8040020014800F0C5B90000780400201B
:10069000014800F0BFB90000B8030020014800F095
:1006A000B9B900001804002001681823CAB2103A32
:1006B000B2FBF3F2054B6FF30901032A9B5CC365A0
:1006C00000D9091D81650846704700005E5000088A
:1006D00010B5014600208B698A6A4FF0C07453B18F
:1006E000B3F5005F15D072B1012A0CD0022A0AD0EE
:1006F000032A09D104E01AB1012A06D0022A03D143
:10070000C96AC90100D5012010BDC96AA142FAD049
:1007100010BD002AF7D0012AF2D0022AF3D0032A12
:10072000F3D010BD30B50468256825F48025256018
:10073000046863608368402B036803D09960006895
:10074000C26030BD9A600068C16030BDF0B51F481E
:1007500000684068C0F1800007043F0C35D01C4D94
:10076000002421462246EB781A482BE01A4EB65C4C
:1007700024B1012C08D0022C22D112E0552E1FD119
:100780005524047001241BE0052919D200EB010C4B
:10079000491CC9B28CF80160052911D3022400213B
:1007A0000EE00D2E0CD10D24847444789C4206D0AA
:1007B00043885BBAAB8083885BBAEB802346002416
:1007C000521C92B2BA42D1D3EB70F0BDB8030020F4
:1007D0009C000020B03201206C33012012480068D8
:1007E0004068C0F180000004000C13D00F4841782D
:1007F000352910D0362912D0F6290BD1817802295B
:1008000008D1C1786B2905D10078012802D10849A7
:100810000020087070470549012000F06BB80349BB
:10082000012000F037B80000D80400206C3401200B
:100830009C000020124800684068C0F1800000045D
:10084000000C13D00F484178352910D0362912D02A
:10085000F6290BD18178022908D1C1786B2905D1FD
:100860000078012802D108490020487070470549E6
:10087000012000F03FB80349012000F00BB8000050
:10088000F80200206C3501209C000020704772B6F1
:10089000FEE70000CA796B2A23D100EB80021148E1
:1008A0008B7800EB8202DFED100A1372B1F80300BF
:1008B0004B7940BA000440EA03208B79184300EEDC
:1008C000100AD0608978B8EE400A11B19FED071A7E
:1008D00001E09FED071A20EE010A20EE200A82EDCA
:1008E000040A7047C4320120000080370000B4C3FE
:1008F0000000B44310B54A796B2A23D1124A00EBA9
:1009000080038C7802F82340B1F8030002EB8304E3
:1009100040BA6080897831B104F015FA41EC100BCF
:100920009FED0A1B05E004F00EFA41EC100B9FED61
:10093000091B51EC100B53EC112B04F017FA04F0C7
:100940004BF8606010BD0000C432012000000000C0
:10095000000018C000000000000018402DE9F04120
:100960000446876D00F0DCFA064694F83500002551
:10097000022806D08020606584F834500120BDE84C
:10098000F0812068016821F016010160206841694A
:1009900021F080014161206C08B9A06C20B1206871
:1009A000016821F0080101602068016821F001015F
:1009B00001600CE000F0B4FA801B052807D9202064
:1009C0006065032084F8350084F83450D7E7206848
:1009D0000068C007EED194F85C103F208840B860F2
:1009E000012084F8350084F834500020C7E790F8DF
:1009F0003510022903D0802141650120704705216F
:100A000080F835100068016821F0010101600020C4
:100A1000704700002DE9F84304464FF00009CDF877
:100A2000009063484FF41651A56D0068B0FBF1F7D4
:100A30002E6894F85C10082000FA01F131420FD0C2
:100A400021680A6852070BD50A6822F004020A607E
:100A500094F85C108840A860606D40F0010060650B
:100A600094F85C104FF0010808FA01F0304208D009
:100A700021684969090604D5A860606D40F002004C
:100A8000606594F85C1004208840304208D02168EA
:100A90000968890704D5A860606D40F004006065AE
:100AA00094F85C1010208840304218D02168096802
:100AB000090714D5A86020680168490304D50068B7
:100AC000000308D5A16C07E00168C90503D40168DB
:100AD00021F008010160216C09B12046884794F893
:100AE0005C1020208840304231D021680968C90656
:100AF0002DD5A86094F8350005282068016806D037
:100B0000490347D5006800031DD4616C1CE021F047
:100B1000160101602068416921F080014161206C6B
:100B200008B9A06C20B12068016821F008010160BB
:100B300094F85C103F208840A86084F8358084F8E1
:100B40003490216D1FE0E16B09B120468847606D4C
:100B500000282BD0606DC00714D0052084F8350024
:100B60002068016821F0010101600098401C00909C
:100B7000B84203D820680068C007F6D184F83580F1
:100B800084F83490E16C002910D001B02046BDE813
:100B9000F04308470168C905D5D4016821F0100168
:100BA000016084F8358084F83490CCE7BDE8F883A0
:100BB0001C0000202DE9F041044600F0B1F9064682
:100BC0005CB1022084F83500002584F83450206898
:100BD000016821F0010101600DE00120BDE8F08114
:100BE00000F09EF9801B052805D9202060650320B0
:100BF00084F83500F2E720680068C007F0D1226869
:100C0000116820480140D4E901031843D4E90336B0
:100C10003343184363691843A3691843E3691843CE
:100C2000236A18430843616A042903D1D4E90B13EA
:100C300019430843106020684069666A20F0070184
:100C400030460E43012704280CD1A06A0643E06A0F
:100C500040B12046FFF73CFD20B14020606584F89C
:100C60003570BAE7206846612046FFF71DFD94F80D
:100C70005C203F2191408160656584F835700020DB
:100C8000ACE700003F8010F02DE9F0410446866D8E
:100C900090F83400002501280DD0012084F834009C
:100CA00094F835700020012F07D084F83400022515
:100CB0002846BDE8F0810220FBE7022784F8357062
:100CC00060652046FFF72EFD94F85C103F208840B9
:100CD000B0602068016841F016010160206C20B10D
:100CE0002068016841F0080101602068016841F056
:100CF00001010160DCE7000070B5044600F010F966
:100D00000546601C02D004480078044400F008F94D
:100D1000401BA042FAD370BD100000202DE9F84F0F
:100D2000DFF8BCA10022012503264FF00F090AF1CC
:100D3000040BAAF1040E00BF0B6805FA02F423406D
:100D4000A34270D10F7907F00307012F01D0022FC2
:100D500016D187684FEA420806FA08FC27EA0C0712
:100D6000D1F80CC00CFA08FC4CEA070CC0F808C01B
:100D70004768A7430C79C4F3001494403C43446093
:100D80000C79E443A4070AD0C4684FEA420C06FA7F
:100D90000CF7BC438F6807FA0CF72743C7600C7940
:100DA00004F00304022C12D1D40800EB840CDCF80C
:100DB00020405707FF0E09FA07F824EA0804D1F883
:100DC000108008FA07F848EA0408CCF82080046884
:100DD0004FEA420C06FA0CF7BC430F7907F0030701
:100DE00007FA0CF7274307604C6814F4403F70D0B3
:100DF0003C4C276847F480472760246822F00307AB
:100E000004F480440094384C07EB040CDCF80848E8
:100E100097074FEA177809FA08F7BC43334FB842EF
:100E200002D1002724E054E0314FB84201D101271C
:100E30001EE0304FB84201D1022719E02E4FB842D0
:100E400001D1032714E02D4FB84201D104270FE050
:100E50002B4FB84201D105270AE02A4FB84201D1F1
:100E6000062705E0284FB84201D1072700E00827F0
:100E700007FA08F72743CCF80878DAF80040574615
:100E8000D1F804C09C435FEACC2C00D51C433C60E5
:100E9000DBF800405F46D1F804C09C435FEA8C2C2D
:100EA00000D51C433C60DEF800407746D1F804C012
:100EB0009C435FEA8C3C00D51C433C60084F083FD4
:100EC0003C68D1F804C09C435FEACC3C00D51C438D
:100ED0003C60521C102AFFF42FAFBDE8F88F0000D1
:100EE000083C01404438024000300140000002400C
:100EF0000004024000080240000C024000100240C2
:100F00000014024000180240001C02400069084022
:100F100000D0012070470AB1816170470904FBE7E6
:100F20000148806870470000100000200248816876
:100F30000278114481607047100000200B4810B502
:100F4000016841F400710160016841F48061016051
:100F5000016841F480710160032000F09BF80F20CC
:100F600000F006F800F050F8002010BD003C0240F0
:100F700030B505461F4887B00024016841F00401E0
:100F80000160006806A900F00400009001A800F0CC
:100F90002DF90498A8B100F049F940001649174A04
:100FA000B0FBF1F11648491E026040F2E732C0E999
:100FB0000324C0E90114846100F08AFB040003D01B
:100FC00015E000F033F9E9E70D4800F0DFFB04001D
:100FD0000DD11E2000F030F8102D07D20022294636
:100FE0001E2000F037F80748056000E0012407B034
:100FF000204630BD4038024040420F00000800400B
:1010000038050020140000200A4808B5016841F4A2
:1010100080410160006800F4804000900548001F96
:10102000016841F080510160006800F0805000903C
:1010300008BD000044380240002809DB00F01F0210
:10104000012191404009800000F1E020C0F800112A
:1010500070470000F0B40E4B1B680C46C3F302232C
:10106000C3F10705042D00D90425191D072901D254
:10107000002300E0DB1E012606FA05F1491E21408F
:1010800099409E40761E16403143F0BC02F003B9F1
:101090000CED00E0064900F0070208684FF6FF0378
:1010A000184040EA0220034A1043086070470000DD
:1010B0000CED00E00000FA052DE9F0470E460500B2
:1010C00065D0DFF81481D8F80000F7B200F007000F
:1010D000B04207D288F80070D8F8000000F007008E
:1010E000B04254D128683D4C810712D5400703D542
:1010F000206840F4E05020602878000703D520687D
:1011000040F4604020602068A96820F0F0000843A7
:1011100020602878C0072DD0304968680839012838
:1011200012D0022813D0032811D00968890700299A
:101130002DDA216821F0030101432160FFF7F0FE61
:10114000814641F2883A0EE009688903EFE70968B1
:101150008901ECE7FFF7E4FEA0EB0901514502D954
:101160000320BDE8F0872068696800F00C00B0EB50
:10117000810FEFD1D8F80010404601F00701B142CD
:1011800007D90770006800F00700B04201D00120C5
:10119000E7E72878400705D52068E96820F4E050A3
:1011A000084320602878000706D52068296920F4C4
:1011B000604040EAC100206000F058F82168084A09
:1011C000C1F30311515CC840064908600648006835
:1011D000FFF7CEFE0020C4E7003C02400838024082
:1011E000665000081C000020140000200F2202603E
:1011F0000C4A136803F003034360136803F0F00321
:101200008360136803F4E053C36012684FF4E05343
:1012100003EAD20202610448006800F00700086097
:101220007047000008380240003C0240044805496D
:1012300000680968044AC1F38221515CC8407047C4
:101240001C00002008380240765000080448054978
:1012500000680968044AC1F34231515CC8407047D4
:101260001C0000200838024076500008154810B5D0
:10127000006810F00C02144813D01449042A0FD04F
:10128000082A0ED10F4C241F2268236802F03F0267
:101290005B0207D52068C0F38810A0FB010106E0BF
:1012A000084610BD2168C1F38811A1FB000100238D
:1012B000FFF75AF82168C1F30141491C4900B0FB0E
:1012C000F1F010BD083802400024F40040787D01A0
:1012D0002DE9F84F04006ED02078DFF84C93C0075A
:1012E000A9F104054AD009F104000168C1F38101A4
:1012F000012908D00068C0F3810002280AD1D9F87A
:101300000000400206D52868800337D560680028B1
:10131000E1D033E06068B0F5803F10D0B0F5A02F89
:10132000286810D020F480302860286820F48020BD
:1013300028606068A8B1FFF7F3FD06460DE0286855
:1013400040F48030F4E740F480202860F7E700BFE5
:10135000FFF7E6FD801B642873D828688003F7D563
:101360000CE0FFF7DDFD064605E000BFFFF7D8FD06
:10137000801B6428F0D828688003F7D42078DFF831
:10138000AC8280074FF0000A3ED5A748001D0168D7
:1013900011F00C0F08D00068C0F3810002280BD1B7
:1013A000D9F80000400207D42868800716D5E06805
:1013B000012800D112E033E1E068B8B10120C8F89B
:1013C0000000FFF7ADFD064605E000BFFFF7A8FDF2
:1013D000801B0228C0D828688007F7D528682169B3
:1013E00020F0F80040EAC10028600DE0C8F800A035
:1013F000FFF796FD064604E0FFF792FD801B0228EA
:101400001FD828688007F7D42078000722D5864F98
:1014100087486169703771B101210160FFF780FD74
:10142000064604E0FFF77CFD801B022809D83868D7
:101430008007F7D50EE0C0F800A0FFF771FD064663
:1014400005E082E0FFF76CFD801B02287DD838683C
:101450008007F7D42078400768D5DFF8CCB10027A3
:101460000BF13C0BDBF80000C0000BD4DBF80010E4
:1014700041F08051CBF80010DBF80000012700F0AC
:10148000805000906B4E3068C00510D4306840F436
:1014900080703060FFF744FD009005E0FFF740FDED
:1014A0000099401A022850D83068C005F6D55E4E23
:1014B000A0686C3601280FD00528306810D020F0C5
:1014C00001003060306820F004003060A068B8B1DE
:1014D000FFF726FD00900FE0306840F00100F4E7D0
:1014E00040F004003060F7E7FFF71AFD0099411A59
:1014F00041F28830814266D830688007F4D50EE02A
:10150000FFF70EFD009007E0FFF70AFD0099411A72
:1015100041F28830814256D830688007F4D42FB128
:10152000DBF8001021F08051CBF80010A069C8B39F
:101530003D49091D0968C1F3810102294AD00228E9
:10154000504607D0C8F8600000E03CE0FFF7E8FC38
:1015500004463BE04746C8F86000FFF7E1FC06465A
:1015600005E000BFFFF7DCFC801B02282BD82868B1
:101570008001F7D4D4E907010843A16A2E4A49083B
:1015800002EB0141626A41EA8211084394F82C108F
:1015900040EA0161C9F8001001203866FFF7C0FC7D
:1015A000044606E03EE000BFFFF7BAFC001B02283D
:1015B00009D828688001F7D534E000BFFFF7B0FCF8
:1015C000001B022802D90320BDE8F88F286880019B
:1015D000F4D427E00128F7D0D9F80000E26900F43C
:1015E000800191421CD1226A00F03F01914217D143
:1015F00047F6C071626A0140B1EB821F10D1A26A46
:101600004FF0FF3300F4403103EB5202B1EB024FD5
:1016100006D194F82C1000F07060B0EB016F01D08F
:101620000120D1E70020CFE7043802400000474204
:10163000800E4742007000400000FFFF7047704777
:1016400070B590F83C20012A32D0012480F83C404B
:10165000022280F83D2003685A689D6822F07006D7
:101660000A6832435A60134B02689A4214D0B2F1AE
:10167000804F11D0104B9A420ED0104B9A420BD093
:101680000F4B9A4208D00F4B9A4205D00E4B9A420C
:1016900002D00E4B9A4204D1496825F080031943C9
:1016A000916080F83D40002180F83C10084670BDF4
:1016B000022070BD0000014000040040000800400E
:1016C000000C0040000401400040014000180040B0
:1016D00010B5040003D094F83D0010B107E00120DC
:1016E00010BD002084F83C00204600F01FF80220C6
:1016F00084F83D00211D206801F0B0F9012084F834
:10170000460084F83E0084F83F0084F8400084F8E6
:10171000410084F8420084F8430084F8440084F8CF
:10172000450084F83D00002010BD000008B50168A8
:101730001448B1F1804F14D0134A914220D101686E
:1017400041F0020101600068002200F002000090F8
:1017500011461D20FFF77EFC1D20BDE80840FFF765
:101760006BBC016841F0010101600068002200F0DB
:101770000100009011461C20FFF76CFC1C20ECE7D8
:1017800008BD0000403802400004004090F83D10C1
:10179000012901D001207047022180F83D10016825
:1017A000CA6842F00102CA6000681149884214D038
:1017B000B0F1804F11D00F4988420ED00E498842B7
:1017C0000BD00E49884208D00D49884205D00D49FA
:1017D000884202D00C49884204D1816801F0070197
:1017E000062903D0016841F0010101600020704723
:1017F000000001400004004000080040000C0040D0
:1018000000040140004001400018004070B504464B
:1018100090F83C000025012817D0012684F83C6090
:10182000022084F83D002068826822F0770222F4CA
:101830007F4282600868502838D00DDC20284FD0C5
:1018400005DC90B3102811D14AE0022070BD302889
:1018500046D040280AD13BE060282FD070280DD018
:10186000B0F5805F03D0B0F5005F12D0012584F899
:101870003D60002084F83C00284670BDCB68D1E96B
:101880000121206801F05BF92068816841F077014F
:1018900009E0CB68D1E90121206801F050F9206806
:1018A000816841F480418160E1E719E0CA684968D4
:1018B000206801F019FA5021206806E0CA684968DA
:1018C000206801F022FA6021206801F042F9CEE799
:1018D000CA684968206801F007FA40212068F4E7E7
:1018E000226801461046F0E7704770B5044600686C
:1018F00001694FF00005C943890715D4C168C94380
:10190000890711D4E91E01610120207720688069D0
:101910008007204602D0FFF7E7FF04E000F0D6F88A
:10192000204600F068F9257720680169C943490716
:1019300017D4C168C943490713D46FF0040101618A
:10194000022020772068806910F4407F204602D072
:10195000FFF7CAFF04E000F0B9F8204600F04BF9A9
:10196000257720680169C943090716D4C168C943AE
:10197000090712D46FF00801016104202077206864
:10198000C0698007204602D0FFF7AEFF04E000F0F8
:101990009DF8204600F02FF9257720680169C9439A
:1019A000C90617D4C168C943C90613D46FF0100122
:1019B0000161082020772068C06910F4407F20462C
:1019C00002D0FFF791FF04E000F080F8204600F01D
:1019D00012F9257720680169C943C90708D1C16890
:1019E000C943C90704D1891E0161204600F062F98C
:1019F00020680169C943090609D4C168C9430906B9
:101A000005D46FF0800101612046FFF717FE2068C2
:101A10000169C943490609D4C168C943490605D4C7
:101A20006FF040010161204600F09AF920680169D9
:101A3000C94389060BD4C168C943890607D46FF02E
:101A4000200101612046BDE87040FFF7F8BD70BD80
:101A500010B586B0044614216846FEF76BFD236876
:101A6000002116480222B3F1804F15D0144CA34236
:101A700010D1036843F0020303600068009200F095
:101A800002000590CDE90121CDE9031269460D4818
:101A9000FFF744F906B010BD036843F0010303608B
:101AA000006800F00100059008200090CDE90121B8
:101AB0000120CDE9031069460348E9E730380240C8
:101AC000000400400004024000000240704770B56E
:101AD000044690F83C0000260D4601280FD0012056
:101AE00084F83C006AB1042A1DD0082A2FD00C2AA1
:101AF0003FD00126002084F83C00304670BD022013
:101B000070BD206801F02EF82068816941F008015D
:101B100081612068816921F0040181612068816907
:101B20002A69114311E0206801F04CF820688169AE
:101B300041F4006181612068816921F480618161E3
:101B4000206881692A6941EA02218161D2E720681F
:101B500001F06EF82068C16941F00801C161206898
:101B6000C16921F00401C1612068C1692A6911437A
:101B700011E0206801F090F82068C16941F400612B
:101B8000C1612068C16921F48061C1612068C169B7
:101B90002A6941EA0221C161ACE710B5040003D013
:101BA00094F83D0010B107E0012010BD002084F83A
:101BB0003C00204600F01EF8022084F83D00211D64
:101BC000206800F04BFF012084F8460084F83E00B6
:101BD00084F83F0084F8400084F8410084F8420013
:101BE00084F8430084F8440084F8450084F83D00FC
:101BF000002010BD7047704770B50D0004464FF0CF
:101C0000000607D0042D0AD0082D0DD00C2D10D0C1
:101C100001263FE02068C16821F002010DE0206844
:101C2000C16821F0040108E02068C16821F00801C2
:101C300003E02068C16821F01001C160002229463C
:101C4000206800F06FFF194B41F2111120688A10D3
:101C5000984202D0164B984209D1036A0B4206D132
:101C6000036A134203D1436C23F4004343642068A6
:101C7000036A0B4206D1016A114203D1016821F0C7
:101C80000101016001203DB1042D08D0082D09D0CB
:101C900084F84100304670BD84F83E00FAE784F8CD
:101CA0003F00F7E784F84000F4E70000000001403F
:101CB0000004014070B5044600682649884201D1FD
:101CC000FFF734F9244900250A6AA2421DD1C868E9
:101CD000401CC8600B7D002B0B6901D05B1E00E02F
:101CE0005B1C0B618B6898420FD381F8305091EDEB
:101CF000040AD1ED0A0A1046B8EEC00A20EE800AA6
:101D000081ED000A496AFFF777FF1449086AA0428B
:101D10001ED1CA68521CCA600B7D002B0B6901D012
:101D20005B1E00E05B1C0B618B689A4210D381F84C
:101D3000305091ED040AD1ED0A0AB8EEC00A20EE47
:101D4000800A81ED000A496ABDE87040FFF754BF80
:101D500070BD000000080040180100204C01002068
:101D60007047704710B504460068406994F83D100C
:101D7000C0F3C010212911D180B12068143050E87F
:101D8000001F21F0800140E80012002AF5D1606BAD
:101D900008B1FEF7E3FD204601F098F8206840699D
:101DA00094F83E10C0F38010222911D180B1206830
:101DB000143050E8001F21F0400140E80012002AD2
:101DC000F5D1A06B08B1FEF7C9FD204601F057F828
:101DD000002010BD70470000F8B50168044608688F
:101DE000CA684B6910F00F0F4FF0000559D003F08F
:101DF000010602F49077374365D0C10705D0D105BD
:101E000003D5216C41F001012164410705D5D907B3
:101E100003D0216C41F002012164810705D5D90767
:101E200003D0216C41F004012164010707D502F0C1
:101E30002001314303D0216C41F008012164216C61
:101E400000293AD0800604D5900602D5204601F03C
:101E50004BF820684069216CC0F38010090700D45A
:101E600060B3204601F00BF820684069400621D598
:101E70002068143050E8001F21F0400140E80012B3
:101E8000002AF5D1A06BA8B16C490165A06BFEF7E3
:101E9000AEFD002811D0A06B016D01B0BDE8F0408F
:101EA000084783060FD593060DD52046BDE8F840B8
:101EB00001F01AB82046FFF78DFFF8BD2046FFF766
:101EC00089FF2564F8BD266B2023012E79D1C60633
:101ED00077D5D60675D508684868009048694006E9
:101EE00040D5A16B086840680004000CEAD0A28DC0
:101EF0008242E7D9E085C869B0F5807F2DD020689F
:101F00000C3050E8001F21F4807140E80012002AD4
:101F1000F5D12068143050E8001F21F0010140E89D
:101F20000012002AF5D12068143050E8001F21F07B
:101F3000400140E80012002AF5D184F83E302563C4
:101F400020680C3050E8001F21F0100140E800121A
:101F5000002AF5D1A06BFEF701FDA08DE18D401A9E
:101F600081B229E0A08DE18D401A81B2E08D002878
:101F7000A8D00029A6D020680C3050E8002F22F409
:101F8000907240E80026002EF5D12068143050E809
:101F9000002F22F0010240E80026002EF5D184F83F
:101FA0003E30256320680C3050E8002F22F01002EC
:101FB00040E80023002BF5D12046FFF7D2FEF8BD04
:101FC000FFE705062BD5150629D594F83D002128F5
:101FD000F5D1A068B0F5805F01D12069B0B1206A69
:101FE000411C2162216800784860E08C401E00049A
:101FF000000CE084E3D12068C16821F08001C16059
:102000002068C16841F04001C160D8E7206A0088BB
:10201000C0F308004860206A801C2062E5E74006A3
:10202000CDD55006CBD5CA68204622F04002CA6002
:1020300084F83D3000F00AFAC1E700003D2D0008A9
:1020400070B5040004D094F83D00002510B106E0FE
:10205000012070BD84F83C50204600F023F8242075
:1020600084F83D002068C16821F40051C160204619
:1020700000F09AFF2068016921F490410161206815
:10208000416921F02A0141612068C16841F4005191
:10209000C1602564202084F83D0084F83E000020C3
:1020A00070BD00002DE9F04F87B00446142168464A
:1020B000FEF740FAA848DFF89C8210380221D4F8D5
:1020C00000C0A54B0322DFF894A200258F06061559
:1020D0004FF04009C4456DD1D3F800C04CF4002C3A
:1020E000C3F800C01B6803F400230593036843F0A2
:1020F00001030360036803F001030593036843F0E1
:102100000403036000688B4600F004000590012082
:10211000CDE900010320CDE902504FF008086946DF
:10212000CDF810805046FEF7F9FD7000CDE9000BA8
:102130000320CDE902506946CDF810808848FEF7AB
:10214000EDFDDFF824A287495046CAF80010C0E927
:102150000175C0E90356CAF81450CAF81850CAF8F5
:102160001C50CAF82050B046CAF82450FEF722FD91
:1021700008B1FEF78CFB7D4EC4F838A0CAF8384091
:10218000C6E903587561B5617648F561356230304E
:10219000756286E881023046FEF70CFD08B1FEF755
:1021A00076FB6663002211463420B463FEF752FFCB
:1021B00034205BE0DFF8B8814FF0070EC4455AD1F8
:1021C000654B1B1DD3F800C04CF0100CC3F800C0C9
:1021D0001B6803F010030593036843F001030360D9
:1021E000006800F0010005904FF4C0608DE8230006
:1021F000CDE9032E69465046FEF790FDDFF878A141
:102200005C495046CAF80010C0E90175C0E90356A0
:10221000CAF81450CAF81850CAF81C50CAF820500E
:10222000B846CAF82450FEF7C5FC08B1FEF72FFBEC
:10223000524FC4F838A0CAF83840C7E903567D6148
:10224000BD614C48FD613D6278307D6287E80103E5
:102250003846FEF7AFFC08B1FEF719FB67630022B2
:1022600011462520BC63FEF7F5FE2520FEF7E4FEAF
:1022700007B0BDE8F08FDFF80881C445F8D1D3F886
:1022800000C04CF4003CC3F800C01B6803F40033EA
:102290000593036843F001030360036803F001033F
:1022A0000593036843F0080303600068029500F09B
:1022B000080005900420CDE900010720CDE90320A6
:1022C0008846934669465046FEF728FD0720CDF81C
:1022D0000090CDE903B0CDE9018569462948FEF7B4
:1022E0001DFDDFF8A4A01F4950466031C0E9035628
:1022F000CAF81450CAF81850CAF81C50B846CAF8A0
:1023000020508AE80203CAF82450FEF753FC08B1B3
:10231000FEF7BDFA13481D4FC4F834A04830CAF880
:1023200038403860C7E90185C7E903567D61BD6162
:10233000FD613D6238467D62FEF73CFC08B1FEF768
:10234000A6FAA763002211462620BC63FEF782FE90
:1023500026208BE7004C004040380240000002403D
:102360000008024040600240F802002058030020AC
:102370000010014040640240B8030020180400200F
:1023800000440040000C024078040020D8040020E3
:1023900090F83E30202B0ED159B152B190F83C301C
:1023A000012B08D0012380F83C300023036300F0A8
:1023B00081BE0120704702207047704770470000BF
:1023C00070B5044690F83D00202836D191B38AB309
:1023D00094F83C00012830D0012084F83C002162B0
:1023E000A284E28400252564212084F83D00636BEB
:1023F0001348D863636B13481864636B1248D8643E
:10240000606B134605652668606B321DFEF73CFC69
:1024100021686FF04000086084F83C502068143058
:1024200050E8001F41F0800140E80012002AF5D179
:10243000002070BDFFE70120FBE70220F9E7000064
:10244000332E0008752E00084D2D00080068034942
:10245000884202D1024900200870704700440040C1
:102460009A0100207047FEE7214808B5016841F451
:1024700080010160016801F480010091016841F46C
:10248000001101600068002200F400100090114665
:102490000D20FEF7DFFD0D20FEF7CEFD00221146D8
:1024A0000F20FEF7D7FD0F20FEF7C6FD00221146D4
:1024B0001020FEF7CFFD1020FEF7BEFD00221146D2
:1024C0001120FEF7C7FD1120FEF7B6FD00221146D0
:1024D0003A20FEF7BFFD3A20FEF7AEFD002211467E
:1024E0004620FEF7B7FDBDE808404620FEF7A4BD34
:1024F00030380240F0B587B014216846FEF71AF86C
:1025000026480025016841F080010160016801F062
:1025100080010591016841F004010160016801F04A
:1025200004010591016841F001010160016801F0B9
:1025300001010591016841F002010160016801F0AB
:1025400002010591016841F0080101600068144F23
:1025500000F008004FF42A760590012231463846F3
:10256000FEF7D9FC0720CDE9000502246946029454
:102570000C48FEF7D3FBCDE9004569460A480294B2
:10258000FEF7CCFB012000960394CDE901056946D6
:102590003846FEF7C3FB07B0F0BD000030380240FC
:1025A00000040240000802400000024010B58EB056
:1025B00000240794089409940A940B941C216846FB
:1025C0000C94FDF7B7FF1F484FF080410160A72131
:1025D000C0E9011440F2E731C0E903148461FFF758
:1025E00077F808B172B6FEE74FF48050079007A95C
:1025F0001448FFF70BF908B172B6FEE71148FFF770
:10260000CCFA08B172B6FEE70B940BA90D480C94F6
:10261000FFF716F808B172B6FEE7602000904FF49D
:10262000FA70CDE901040C22694606480494FFF7CC
:102630004EFA08B172B6FEE70248FFF709FA0EB08B
:1026400010BD00009C01002010B58EB0002407943E
:10265000089409940A940B941C2168460C94FDF785
:1026600069FF1F481D490160A721C0E9011440F21C
:10267000E731C0E903148461FFF72AF808B172B6A4
:10268000FEE74FF48050079007A91548FFF7BEF802
:1026900008B172B6FEE71248FFF77FFA08B172B6CA
:1026A000FEE70B940BA90E480C94FEF7C9FF08B186
:1026B00072B6FEE7602000904FF4FA70CDE9010495
:1026C0000C22694606480494FFF701FA08B172B675
:1026D000FEE70348FFF7BCF90EB010BD0004004050
:1026E000E4010020FEE70000034B1870D9701A7156
:1026F0000621184600F016B9F8000020034A1070B1
:10270000D1700521104600F005B90000D40000206A
:10271000034A1070D1700521104600F003B9000083
:10272000D9000020FEB5B5EEC00A0D46F1EE10FA54
:10273000064601D2012400E00024B0EEC00A10EEEB
:10274000100A02F011FC9FED0A1B53EC112B02F052
:1027500075F902F0CBFA0122CDE9000200210291C5
:102760000A232A462146304600F09AF8FEBD0000B2
:10277000000000C0CCCCAC3FFEB5B5EEC00A0D46A3
:10278000F1EE10FA064601D2012400E00024B0EE7A
:10279000C00A10EE100A02F0E7FB9FED0A1B53EC93
:1027A000112B02F04BF902F0A1FA0122CDE900024F
:1027B000002102910A232A462146304600F08CF877
:1027C000FEBD0000000000C0CCCCAC3FFEE7000026
:1027D0002DE9F04701262DED028B82B00C4606EB69
:1027E000E07A4FEAD179002800DA404200EE100A80
:1027F000264D9FED278AB8EEC00AD5ED080AB3EE44
:102800000E1A20EE200AF0EE480A00F054FDBCEE4D
:10281000C00A002C10EE100A87B200DA644200EE03
:10282000104AD5ED090AB3EE0E1AB8EEC00A20EE32
:10283000200AF0EE480A00F03EFDBCEEC00A4FF060
:10284000000810EE100A0204120C0AD0114C207875
:1028500038B9CDF800802B784946012000F086F881
:102860002670002F0CD00C4C2078002808D1CDF811
:1028700000802B783A465146012000F065F826701A
:1028800002B0BDEC028BBDE8F0870000AC00002078
:10289000000000009D0000209C000020FDF712BDFC
:1028A000F0B40C4CDDE90457069E2070A170100AAC
:1028B000E07022716371280EA071280CE071280A63
:1028C00020726572A772E6722046F0BC0D2100F0FE
:1028D00021B8000080010020F0B40C4CDDE9045761
:1028E000069E2070A170100AE07022716371280E9C
:1028F000A071280CE071280A20726572A772E67236
:102900002046F0BC0D2100F00DB800008D01002024
:10291000FDF7AABC0A4601460148FFF751BD000079
:10292000B40200200A4601460148FFF749BD0000F5
:102930002C020020034A1070D17005211046FFF7C9
:10294000F1BF0000E300002030B4074C029D20706E
:10295000A170100AE07022716371A571204630BC2D
:102960000821FFF7D7BF0000FE00002030B4074C5D
:10297000029D2070A170100AE07022716371A57130
:10298000204630BC0821FFF7CDBF00000601002023
:1029900001F0A2BC30B593B030216846FDF7CAFD06
:1029A00014210CA8FDF7C6FD1D480025016841F063
:1029B00080510160006800F0805011901948016852
:1029C00041F4804101600068022400F480401190CD
:1029D0000120039010200490009406940820CDE973
:1029E0000750A820CDE9090404200B906846FEF7A3
:1029F0006FFC08B172B6FEE70CA90F2081E8310028
:102A00004FF4A0500F904FF48050109005210CA867
:102A1000FEF752FB002801D072B6FEE713B030BDBE
:102A200040380240007000400248016841F47001E3
:102A30000160704788ED00E00148FEF756BF0000D6
:102A40009C0100200148FEF750BF0000E401002077
:102A50000148FEF74ABF000038050020F0B50268C3
:102A6000254C264D264E274F274B4FF0804CA04239
:102A700009D0604507D0A84205D0B04203D0B84283
:102A800001D0984204D122F0700E4A6842EA0E0248
:102A9000A0421BD0604519D0A84217D0B04215D033
:102AA000B84213D0984211D0184DA8420ED0184DFC
:102AB000A8420BD0174DA84208D0174DA84205D008
:102AC000164DA84202D0164DA84203D122F44075FB
:102AD000CA682A434D6922F080022A4302608A684C
:102AE000C2620A688262A04201D0984201D109699B
:102AF000016301214161F0BD00000140000400407C
:102B000000080040000C004000040140004001406B
:102B1000004401400048014000180040001C0040F3
:102B20000020004010B501F01F030121046A994004
:102B30008C430462016A9A401143016210BD10B5D2
:102B4000846842EA032224F47F440A4322438260D9
:102B500010BD826822F070020A4342F007018160D2
:102B600070470000F0B5026A22F001020262036AB7
:102B700042688469124E24F073050C682C4323F0DC
:102B800002058B682B430D4DA84201D0B04205D100
:102B900023F00807CB683B4323F00403A84201D08D
:102BA000B04205D14D6922F4407215438A692A4327
:102BB00042608461496841630362F0BD00000140E6
:102BC00000040140F0B5026A22F010020262026ABB
:102BD000436884690D6824F4E64444EA05248D685A
:102BE00022F0200242EA05120F4D104EA84201D0F9
:102BF000B04206D1CF6822F0800242EA071222F0EA
:102C00004002A84201D0B04207D14D6923F440638D
:102C100043EA85038D6943EA85034360846149681B
:102C200081630262F0BD0000000001400004014029
:102C3000F0B5026A22F480720262026A4368C469D3
:102C400022F4007224F073050C68124E2C438D6838
:102C500042EA05220E4DA84201D0B04206D1CF680B
:102C600022F4006242EA072222F48062A84201D0E4
:102C7000B04207D14D6923F4405343EA05138D69EF
:102C800043EA05134360C4614968C1630262F0BD51
:102C9000000001400004014030B5026A22F4805275
:102CA0000262046A4268C3690D6823F4E64343EA9A
:102CB00005238D6824F4005444EA0534084DA842E5
:102CC00002D0084DA84204D14D6922F4804242EA64
:102CD00085124260C36149680164046230BD00002E
:102CE000000001400004014010B5036A046A24F0AA
:102CF00001040462846924F0F00444EA021423F01D
:102D00000A020A438461026210BD10B5036A23F00F
:102D1000100303628369046A23F4704343EA0232B6
:102D200024F0A00343EA01118261016210BD00009A
:102D30000148FFF751B800002C02002010B5806B4D
:102D40000021C185C184FFF745F810BD70B5846BC3
:102D50002068406994F83D10C0F3C0100025212977
:102D600004D118B1E584204600F0B0F8206840692D
:102D700094F83E10C0F38010222904D118B1E585E3
:102D8000204600F07CF8206C40F0100020642046C3
:102D9000FFF720F870BD10B50146806B096809681F
:102DA000C9052FD40021C18501680C3151E8002FDD
:102DB00022F4807241E80023002BF5D10168143120
:102DC00051E8002F22F0010241E80023002BF5D149
:102DD0000168143151E8002F22F0400241E800233D
:102DE000002BF5D1202180F83E10016B012909D17B
:102DF00001680C3151E8002F22F0100241E8002355
:102E0000002BF5D1016B012902D0FFF7D6FA10BDD6
:102E1000818DFEF7A6FF10BD10B5806B016B0129F7
:102E200002D0FFF7CBFA10BD818D4908FEF799FF5C
:102E300010BD10B50146806B09680968C90516D434
:102E40000021C1840168143151E8002F22F0800272
:102E500041E80023002BF5D101680C3151E8002F27
:102E600042F0400241E80023002BF5D110BDFFF7EE
:102E7000EDFA10BD10B5806BFFF7F4FA10BD0168D4
:102E80000C3151E8002F22F4907241E80023002B0E
:102E9000F5D10168143151E8002F22F0010241E818
:102EA0000023002BF5D1016B012909D101680C31F8
:102EB00051E8002F22F0100241E80023002BF5D149
:102EC000202180F83E1000210163704701680C3119
:102ED00051E8002F22F0C00241E80023002BF5D179
:102EE000202180F83D10704708B590F83E10222947
:102EF00001D0022008BD82684FF480539A4201D16C
:102F0000016921B1816A9A421BD04AB10AE0026884
:102F1000816A5268C2F308020A80816A891C08E04B
:102F2000026972B10268526802F07F020A70816A17
:102F3000491C8162C18D491E0904090CC18503D059
:102F400019E002685268F1E70168CA6822F02002BD
:102F5000CA600168CA6822F48072CA6001684A695E
:102F600022F001024A61202180F83E10016B012904
:102F700003D0FFF722FA002008BD00210163016899
:102F80000C3151E8002F22F0100241E80023002B01
:102F9000F5D101680A68D20602D50A68496800912D
:102FA000818DFEF7DEFEE6E770B504460068016934
:102FB000E26821F44051114301612169A068E2698E
:102FC00008436169114308432168CA6849F20C63E8
:102FD0009A430243CA6020684169A26921F44071A2
:102FE0001143416131492068884202D0304988420A
:102FF00002D1FEF72BF901E0FEF718F9E269002390
:10300000192164253226B2F5004F626828D0A0FB52
:103010000101930F9200FDF7A7F90146B0FBF5F00F
:103020006FF01802504301EB800006EB0010B0FB7C
:10303000F5F000F0F002B1FBF5F002EB0012B1FB8D
:10304000F5F06FF01803584301EB800006EB001019
:10305000B0FBF5F000F00F0021681044886070BDEF
:10306000A0FB010192185B41FDF77EF90146B0FB20
:10307000F5F00201B1FBF5F06FF01803584301EBD6
:10308000800006EBC000B0FBF5F000F0F80002EBAA
:103090004002B1FBF5F0584301EB800006EBC000A5
:1030A000B0FBF5F000F00700D6E70000001001408B
:1030B0000014014038B5816282850025134604461C
:1030C0000564222084F83E00A26B1C48D063A26BEA
:1030D0001B481064A26B1B48D064A06B0A460565B0
:1030E0002168A06B091DFDF7CFFD206801684068CD
:1030F000009084F83C50206948B120680C3050E8BA
:10310000001F41F4807140E80012002AF5D12068C8
:10311000143050E8001F41F0010140E80012002A7D
:10312000F5D12068143050E8001F41F0400140E81C
:103130000012002AF5D1002038BD0000972D0008AC
:10314000192E00084D2D000810B50C46802900D915
:103150008024014622460548FDF77DF92246BDE858
:10316000104002490248FFF72BB90000EC3501205E
:103170007002002010B50348FEF72EFEBDE8104097
:1031800000F008B8700200200148FEF725BE0000DC
:10319000B402002038B5364800680168C943C90642
:1031A0001CD40168406800903148FEF7DBFD3148CF
:1031B000006840683049C0F18000C4B2802201F14B
:1031C0008000FDF748F9FDF7C1FA21462A48FDF7CE
:1031D0008FF9802228492648FFF7DAF82748006847
:1031E0000168C943C9061CD401684068009023489F
:1031F000FEF7B8FD2248006840682249C0F180000F
:10320000C4B2802201F18000FDF725F9FDF7E6FA4E
:1032100021461C48FDF76CF980221A491748FFF730
:10322000B7F8194800680168C943C9061ED4016887
:10323000406800901448FEF795FD14480068406807
:103240001349C0F18000C4B2802201F18000FDF773
:1032500002F9FDF7EFFA21460D48FDF749F9BDE8FF
:103260003840802207490848FFF792B838BD00006F
:1032700070020020B8030020EC320120B4020020CC
:10328000D8040020EC3301202C020020F80200209A
:10329000EC340120FEE70907090E002804DB00F1E9
:1032A000E02080F80014704700F00F0000F1E020EB
:1032B00080F8141D7047B4EEE00AF1EE10FA02D265
:1032C000B0EE600A7047B4EEC10AF1EE10FAF9DD13
:1032D000B0EE410A70470A2000F0A2FEFBE70A2088
:1032E00000F09EFEFBE7000010B5104C02212046C6
:1032F000FDF70CFE012818D1642000F091FE022198
:103300002046FDF703FE012809D10949087001464E
:10331000074800F039F902E0012000F081FE0221A7
:103320002046FDF7F3FD0128F6D010BD0000024055
:10333000A400002010B5134C02212046FDF7E6FD45
:1033400001281DD1642000F06BFE02212046FDF70C
:10335000DDFD01280ED11E219FED0B0AFFF70CFAAF
:103360001421B3EE040A0120FFF7DCF902E001208A
:1033700000F056FE02212046FDF7C8FD0128F6D0D8
:1033800010BD0000000802400000484210B50F4C7C
:1033900001212046FDF7BAFD012816D1642000F076
:1033A0003FFE01212046FDF7B1FD012807D1002293
:1033B0001146FFF799F902E0012000F031FE0121EA
:1033C0002046FDF7A3FD0128F6D010BD00080240FD
:1033D00010B50C4C04212046FDF798FD012810D1B2
:1033E000642000F01DFE04212046FDF78FFD02E061
:1033F000012000F015FE04212046FDF787FD01287D
:10340000F6D010BD000802401CB5FDF797FDFFF790
:10341000C1FAFFF76FF8FFF727F8FFF7C7F8FFF7D4
:1034200013F9364834494FF4E13600240160C0E90D
:1034300001640C25C460C0E904458461C461FEF7E1
:10344000FFFD08B172B6FEE72C482D4944300160FB
:10345000C0E90164C460C0E904458461C461FEF749
:10346000EFFD08B172B6FEE72448264944380160F2
:10347000C0E90164C460C0E904458461C461FEF729
:10348000DFFD08B172B6FEE700F074FC6420FDF7C2
:1034900033FC01210846FFF74DFA02201A49C50105
:1034A000CDE9000100232A4618A11C4801F08CF840
:1034B000154901200839CDE900010023802218A117
:1034C0001A4801F081F810480324001FCDE900409C
:1034D00000232A4616A1194801F076F80A4800236D
:1034E000001DCDE90040802215A1184801F06CF8BC
:1034F00000F00AFEFEE7000000100140700200200C
:1035000000440040004C00400800002064656369EE
:1035100073696F6E5F7461736B000000D7320008CF
:1035200075736172745F7461736B0000053E00080F
:103530006D6F746F725F7461736B000051350008BA
:10354000647261775F7461736B000000DF320008A2
:103550000B4C0C4DB4F90000B5F9001050EA010213
:1035600002D0FFF735F907E000210120FFF7C6F888
:1035700000210120FFF7CCF80A2000F051FDE9E717
:10358000A0000020A200002038B50C46012915D863
:103590000B4A55218DF8001091788DF80110491CC7
:1035A0009170014622460DF10200FCF754FF0D20F8
:1035B0008DF80300E11C6846FFF7C6FD38BD00002A
:1035C0009C0000202DE9F0411E4C0F460546E668A0
:1035D0002068001D00F028FC38B9206890F82C10F5
:1035E00001208840216981432161681C15D1A7B160
:1035F000154922684868906023688268DA6022680A
:103600008368121D5A602268121D82602068416121
:103610000868401C0860BDE8F08120683544B54268
:103620004560216805D2E06BBDE8F041091D00F05E
:103630001CBCA06B091D00F018FCA06A8542EAD2F0
:10364000A562E8E720000020740600202DE9F04183
:10365000054600F023FC364CA068401CA0602068A2
:10366000344F10B1606940B32DE02560A068012897
:1036700029D1002606EB860007EB800000F0E7FB6F
:10368000761C052EF6D32B48643000F0E0FB294869
:10369000783000F0DCFB27488C3000F0D8FB254860
:1036A000A03000F0D4FB2348B43000F0D0FB214818
:1036B0006430A0631430E06305E02068E96AC06A02
:1036C000884200D82560606A401C60622864E96A0C
:1036D0000120226988401043206101EB810007EB43
:1036E00080004068A8608168E9608268291D516097
:1036F0008160E86A00EB800007EB8001696157F8A0
:103700002010491C47F8201000F0E8FB60690028F1
:103710000CD02068E96AC06A884207D206494FF097
:1037200080500860BFF34F8FBFF36F8FBDE8F0810B
:1037300020000020C005002004ED00E010B500F0DE
:10374000ADFB0E4C2068A0B90D4800F080FB0C4882
:10375000143000F07CFB0A48E06014302061002245
:103760000C210A2000F0CEFD206010B105A100F070
:103770000DFCBDE8104000F0B1BB0000600000206F
:1037800088060020546D72510000000030B4026CB5
:103790000B46002A0BD0C1681144C1608468A14265
:1037A00001D30168C16030BC1846FCF754BE30BC80
:1037B000704710B50446006B00F0A4FB2046BDE83E
:1037C000104000F09FBB00000E484FF496314207B6
:1037D00006D0C01D0B4920F00700411AC1F59631F3
:1037E000094A00230144C2E900030839143A21F0D0
:1037F000070111604B600B600B1AC0E90013936066
:1038000053607047B006002094000020144E154C01
:10381000A6F1A0074FF08058DFF84C9012E000BFEF
:1038200000F03CFBF068C568281D00F0FDFAA068B8
:10383000401EA0606068401E606000F04FFB28469C
:10384000FFF7B7FF60680028EAD138680128F9D986
:10385000C9F80080BFF34F8FBFF36F8FF2E700000E
:10386000600600202000002004ED00E02DE9F04774
:103870000D46DDE909841746824691009946089E67
:10388000A522206BFCF72CFE6FF00301206B01EBEF
:103890008701084420F00707780707D0502080F3FD
:1038A0001188BFF34F8FBFF36F8FFEE765B1002024
:1038B0002218295C82F83410295C11B1401C0A28B6
:1038C000F6D3002084F83D00052E07D3502080F366
:1038D0001188BFF34F8FBFF36F8FFEE7E662201DA5
:1038E000A66400F0BFFA04F1180000F0BBFA2461EE
:1038F000C6F105006462A0614A465146384600F0B0
:1039000023FA2060B8F1000F01D0C8F80040BDE8EC
:10391000F087000030B5114900E011460A68824284
:10392000FBD34B685C18844203D14068184448605C
:10393000084643681C18944209D1084C143C24687A
:10394000A24209D052681A4442600A6812680260B2
:10395000814200D0086030BD0460F9E79400002087
:1039600070B5002441600B4D0061914206D8D11A18
:103970008269914206D2011D286907E09A4203D26A
:10398000994201D3012403E0011DE86800F06DFABB
:10399000204670BD6000002010B5044600F07EFA9D
:1039A000A06B28B15FF0000400F098FA204610BD2B
:1039B0000124F9E770B506460D480D46C068C06899
:1039C000C468201D00F030FA94F82800410705D59E
:1039D0002A463146204600F0B5F803E000F0FE002C
:1039E00084F828002046216ABDE87040084700009E
:1039F000600000207FB5374E63E00098002860DB50
:103A0000029C606910B1201D00F00EFA03A800F0BE
:103A1000BBF8054600980A2853D2DFE800F05205AB
:103A200005282E460505282E94F828002A4640F041
:103A3000010084F828000199A069019B01442046F7
:103A4000FFF78EFF40B394F82800410707D501988F
:103A5000A1692A460144204600F074F803E000F012
:103A6000FE0084F82800216A2046884729E014F8DF
:103A7000280F00F0FE00207023E094F8280040F0AA
:103A8000010084F828000198A06130B141192B464B
:103A90001A462046FFF764FF13E0502080F3118898
:103AA000BFF34F8FBFF36F8FFEE794F828008107B5
:103AB00003D4204600F026FA03E000F0FE0084F86C
:103AC000280000226946306800F0A4FC002894D148
:103AD0007FBD000060000020F8B50D46064600F0EE
:103AE0004BFB684600F050F80446009810B100F017
:103AF000B7FEF8BD1148ADB101690968D9B100251B
:103B0000311B2A46006800F069FA00F0A9FE00287F
:103B1000EFD10B494FF080500860BFF34F8FBFF3D8
:103B20006F8FF8BDA642EBD800F09AFE21463046D2
:103B3000FFF740FFF8BD0125E2E70000600000202C
:103B400004ED00E070B516460C46054604E0A86991
:103B5000296A044428468847A86923460119324641
:103B60002846FFF7FDFE0028F1D170BD0548816BA6
:103B7000096821B1816BC9680968816270474FF09B
:103B8000FF31FAE7200000202DE9F041064600F061
:103B900057FD0E4C0546A068854214D24FF0FF3702
:103BA00004E0C06839460068FFF704FFE068016878
:103BB0000029F6D12169C4E90310012030602846AC
:103BC000A560BDE8F0810020F8E70000600000205B
:103BD00008484068401C4FF0500080F3118804D022
:103BE000BFF34F8FBFF36F8FFEE7BFF34F8FBFF36E
:103BF0006F8FFEE774000020074CE068016841B158
:103C0000C0680021D0F80000FFF766FFFFF7F2FE62
:103C1000F3E701210020F7E7600000202DE9F041E3
:103C2000044600F03BF994F9455004F1240609E0FC
:103C3000606A48B1304600F0A5FD08B100F01EFAF8
:103C40006D1E6DB2002DF3DC4FF0FF3684F8456039
:103C500000F044F900F022F994F9445004F11007FF
:103C600009E0206948B1384600F08CFD08B100F049
:103C700005FA6D1E6DB2002DF3DC84F84460BDE8DA
:103C8000F04100F02BB9000070B50446002600F0AA
:103C900073FA2C4D286808B9FFF796FD7CB304F041
:103CA0000700C0F11000C1438C423DD82118002903
:103CB0003ADD6868814237D82248143002461468D9
:103CC00001E02046144662688A4202D22268002A35
:103CD000F7D12A68944227D006682268026060689B
:103CE0000836421A102A0FD96018430708D050200E
:103CF00080F31188BFF34F8FBFF36F8FFEE713E0A0
:103D000042606160FFF706FE61686868401A68609B
:103D1000AA68904200D2A86041F000406060002094
:103D20002060E868401CE86000F09AFD700707D04A
:103D3000502080F31188BFF34F8FBFF36F8FFEE7E2
:103D4000304670BD8000002010B5031F4FF0807416
:103D50001C601B1F21F001011960191F044B0B602F
:103D600014390A60091F6FF0020244380A6010BD5E
:103D7000D13B00081A4810B50068C16841F0100135
:103D8000C16018480068016841F01001016080229C
:103D900015491348FEF7FCFA14480068C16841F061
:103DA0001001C16012480068016841F01001016013
:103DB000802210490D48FEF7EBFA0F480068C168F1
:103DC00041F01001C1600D480068016841F0100128
:103DD0000160BDE81040802209490748FEF7D8BAC3
:103DE0007002002018040020EC320120B4020020F0
:103DF00078040020EC3301202C020020580300201E
:103E0000EC340120074C206838B9FFF76DFAFFF752
:103E100091FAFFF7BBFAFFF7DBFA0A2000F000F98E
:103E2000F1E70000A8000020D0E9013201699A60A2
:103E3000D0E901235A604A68824201D182684A600F
:103E4000002202610868401E08600868704700F19F
:103E500008014FF0FF32C0E90112C1600161002189
:103E60000160704700210161704730B50B685A1C32
:103E700002D000F1080202E0026904E02246546820
:103E800025689D42FAD953684B6099608A605160F9
:103E900008610168491C016030BD0000502080F3BA
:103EA0001188BFF34F8FBFF36F8F0A494868401CDA
:103EB000486001280CD10848006810F0FF0F07D0B7
:103EC000502080F31188BFF34F8FBFF36F8FFEE751
:103ED000704700007400002004ED00E008494868C5
:103EE00028B1401E486001D180F3118870475020EE
:103EF00080F31188BFF34F8FBFF36F8FFEE7000091
:103F00007400002070B500282AD0A0F10804606871
:103F1000002807DB502080F31188BFF34F8FBFF3D9
:103F20006F8FFEE7216839B1502080F31188BFF30D
:103F30004F8FBFF36F8FFEE720F00040606000F00E
:103F40001BF9084D60686968084468602046FFF7FF
:103F5000E1FC2869401C2861BDE8704000F080BC8D
:103F600070BD0000800000204FF0E02000210161C2
:103F7000816105494FF47A720968B1FBF2F1491E7B
:103F800041610721016170471C00002070B50022CB
:103F900060B100291ED0104C002300BF04EBC30504
:103FA0006E6886420AD104EBC3020FE0502080F312
:103FB0001188BFF34F8FBFF36F8FFEE71AB954F824
:103FC000336006B92A465B1C082BE7D3002A01D0D0
:103FD000C2E9001070BD00008005002070B51546D4
:103FE0000E460446FFF75AFF94F944100020491C7E
:103FF00001D184F8440094F94510491C01D184F89A
:104000004500FFF76BFFA06B28B92A46314604F143
:10401000240000F051F82046BDE87040FFF7FEBDD7
:1040200010B5020014D00F48406B38B1502080F317
:104030001188BFF34F8FBFF36F8FFEE700F09CF83E
:1040400000211046FFF7BEFA00F00AFC002807D155
:1040500005494FF080500860BFF34F8FBFF36F8F5B
:1040600010BD00002000002004ED00E002490A6AB3
:104070000260C968416070472000002001490120AA
:10408000C86170472000002010B50C4650B10949A6
:1040900009681831FFF7E9FE2046BDE8104001210C
:1040A000FFF790BA502080F31188BFF34F8FBFF312
:1040B0006F8FFEE720000020F0B40C46D0B111490C
:1040C00043680D68EB619D680E6835620D689E68F7
:1040D000183575600D6818359D600968886201683B
:1040E000491C01600AB14FF0FF342046F0BC114674
:1040F000FFF768BA502080F31188BFF34F8FBFF3EA
:104100006F8FFEE7200000207CB517480025CDE921
:1041100000502B46822215A1164800F055FA124C89
:104120002C3C012803D100F031FC012802D0401CB6
:1041300011D00EE0502080F31188BFF34F8FBFF3F2
:104140006F8F4FF0FF30A06201206061E56000F0EA
:1041500049F8206B7CBD502080F31188BFF34F8F4E
:10416000BFF36F8FFEE700004C00002049444C4530
:10417000000000000D3800080248416B491C4163F3
:1041800070470000200000201448416B11B101214C
:10419000C16170470021C1610169B1FA81F1C1F1CA
:1041A0001F0101EB81020E4951F822306BB101EB86
:1041B000820101F108034A6852684A609A4201D1BB
:1041C00052684A60D16801607047502080F31188BE
:1041D000BFF34F8FBFF36F8FFEE70000200000207A
:1041E000C00500201CB537480168374A914207D105
:1041F000502080F31188BFF34F8FBFF36F8FFEE71E
:1042000000683149491E884207D1502080F3118847
:10421000BFF34F8FBFF36F8FFEE72C4908780190F3
:10422000FF20087008788DF800009DF800009DF8C8
:10423000002000F0F000904207D0502080F3118859
:10424000BFF34F8FBFF36F8FFEE79DF80000204C48
:1042500000F0500020700720A06005E09DF80020CD
:1042600052008DF80020401E9DF800201206F5D463
:10427000A060032807D0502080F31188BFF34F8F30
:10428000BFF36F8FFEE74FF44070A0600198087095
:104290000C482030016841F470010160016841F070
:1042A00070410160FFF760FE00206060FCF700F8DD
:1042B0000848016841F040410160FBF7E5FF00203C
:1042C0001CBD000000ED00E071C20F4100E400E001
:1042D0007400002034EF00E010B5502080F3118806
:1042E000BFF34F8FBFF36F8F00F0B0F918B10449DF
:1042F0004FF080500860002080F3118810BD00004E
:1043000004ED00E02DE9F04117460E46050020D0EF
:104310004FF0FF30B0FBF5F0B0421AD305FB06F0CA
:1043200010F1510F15D85030FFF7AEFC04000CD03F
:1043300004F150005EB12060C4E90F56204601210F
:1043400000F010F8204684F84C70BDE8F08124603D
:10435000F2E7502080F31188BFF34F8FBFF36F8FC8
:10436000FEE700002DE9F0410F4604004FF0010682
:104370002DD0E06B98B3B51EB5FBF0F1206C8142F7
:104380003ED3FFF78BFDD4E90F20216802FB00111B
:10439000A1600021A163216861600A46D4E90F0190
:1043A000401E00FB01212046E16000F8445F45709B
:1043B00004F11000A7B1FFF74AFD04F12400FFF754
:1043C00046FD00BFFFF78AFD3046BDE8F081502072
:1043D00080F31188BFF34F8FBFF36F8FFEE70FE0BD
:1043E00021690029EED000F0CDF90028EAD0084973
:1043F0004FF080500860BFF34F8FBFF36F8FE1E73E
:10440000502080F31188BFF34F8FBFF36F8FFEE70B
:1044100004ED00E02DE9F747002683B08A4604004A
:1044200003D0BAF1000F08D011E0502080F31188BA
:10443000BFF34F8FBFF36F8FFEE7206C38B1502072
:1044400080F31188BFF34F8FBFF36F8FFEE700F04B
:10445000E9F8DFF8F4804FF000094FF0805748B9D1
:10446000059838B1502080F31188BFF34F8FBFF308
:104470006F8FFEE7FFF712FDA56BC5B151462046D1
:10448000FFF784F96D1EA563206950B104F1100097
:1044900000F078F928B1C8F80070BFF34F8FBFF370
:1044A0006F8FFFF71BFD012006B0BDE8F087059870
:1044B00008B11EB106E0FFF711FD27E06846FFF7DF
:1044C000D5FD0126FFF70AFDFFF756FEFFF7E6FCD4
:1044D00094F94400401C01D184F8449094F94500BB
:1044E000401C01D184F84590FFF7F8FC05A9684607
:1044F00000F02CF8002820460AD0FFF78FFB00F0D0
:10450000AFF92046FFF748FA0028B3D00020CBE7E8
:10451000FFF742FA90B104F124000599FFF7B4FDCA
:104520002046FFF77BFB00F09BF90028A2D1C8F8DA
:104530000070BFF34F8FBFF36F8F9BE72046FFF7ED
:104540006DFB00F08DF995E704ED00E02DE9F041F9
:104550000C46050014D0DCB1FFF7A0FC194EF26840
:104560006B682068D11A471C1AD02F68D6F820C073
:104570000026674516D0934214D8012526601BE01B
:10458000502080F31188BFF34F8FBFF36F8FFEE78A
:10459000502080F31188BFF34F8FBFF36F8FFEE77A
:1045A000002509E0884205D9401A20602846FFF717
:1045B0005DFDF5E701252660FFF790FC2846BDE884
:1045C000F0810000200000202DE9FF5F8346DDE937
:1045D0000E87994616468A469000FFF755FB050060
:1045E0001DD05820FFF750FB040015D05821FBF7D1
:1045F000A1FF25630021CDE90241CDE900874B46AB
:10460000324651465846FFF731F92046FFF71EF86B
:10461000012004B0BDE8F09F2846FFF773FC4FF07F
:10462000FF30F6E70548416919B1406B18B1002029
:1046300070470120704702207047000020000020D2
:104640000148C06870470000200000202DE9F041BB
:104650004A4C0026606B28B1A069401CA06130461E
:10466000BDE8F081E5686D1CE56013D1A06B0068C2
:1046700038B1502080F31188BFF34F8FBFF36F8F95
:10468000FEE7A06BE16BA163E063206A401C20623F
:10469000FFF76CFAA16A3A488D420FD34FF0000E33
:1046A000A16B096839B1A16BC968C9684A689542AC
:1046B00012D2A26202E04FF0FF31A1622168C96A02
:1046C00001EB810150F82100012800D90126E069A1
:1046D0000028C4D00126C2E7D1E902724B69BA6052
:1046E000D1E902277A605F680A1D974201D1CF683D
:1046F0005F60C1F814E01F687F1E1F60D1F828C0FA
:10470000BCF1000F15D0D1E907379F60D1E9073719
:104710007B60DCF8047001F118039F4202D10B6A40
:10472000CCF80430C1F828E0DCF800305B1ECCF88F
:104730000030CB6A0127D4F810C09F4047EA0C072D
:10474000276103EB830300EB83035B688B609F6847
:10475000CF609F687A609A60CA6A02EB820200EBBF
:1047600082034B6150F822305B1C40F82230C96A4A
:104770002268D26A914293D9012691E72000002055
:10478000C005002070B5C068C06850B3D0E90732DA
:10479000816A9A60D0E907235A604A6800F11803D9
:1047A0009A4201D1026A4A60002585620A68521E57
:1047B0000A6029494A6B0124DAB1284D6A68C2614E
:1047C0009668066296687360936085622A68521CD8
:1047D0002A60C06A0A68D26A90423AD90120CC6144
:1047E00070BD502080F31188BFF34F8FBFF36F8FE0
:1047F000FEE7D0E902634269B360D0E90236736034
:104800005668031D9E4201D1C66856604561156811
:104810006D1E1560C26A0E6904FA02F535430D611A
:104820000E4D02EB82028C3D05EB820252688260E3
:104830009668C660966873609360C26A02EB8202F3
:1048400005EB8203436155F822305B1C45F82230AA
:10485000BFE7002070BD0000200000204C060020B3
:104860002DE9F041464D00242746686B38B1FFF72B
:1048700015FB686B401E6863686B40B17AE050209E
:1048800080F31188BFF34F8FBFF36F8FFEE7A868E7
:104890003C4B00264FF00108F0BB6BE0D868C468C1
:1048A000D4E90721A06A9160D4E9071251604268F7
:1048B00004F118018A4201D1216A4160A6620168AF
:1048C000491E0160D4E9022160699160D4E90212B5
:1048D00051604268211D8A4201D1E26842606661EE
:1048E0000268521E0260E26AD5F810C008FA02F0AF
:1048F00040EA0C00286102EB8200224A8C3A02EB6B
:1049000080004068A060D0F808C0C4F80CC0D0F89F
:1049100008C0CCF8041000E012E08160E06A00EB0F
:10492000800002EB8001616152F82010491C42F8BE
:104930002010E06A2968C96A884201D3C5F81C8042
:1049400018680028AAD10CB1FFF710F9AC693CB186
:10495000FFF77CFE08B1C5F81C80641EF8D1AE617B
:10496000E86938B10849012738070860BFF34F8F5D
:10497000BFF36F8FFFF7B2FA3846BDE8F081000051
:10498000200000204C06002004ED00E01CB5FEF7DE
:10499000D5FE0D48006868B10B490220091DCDE91C
:1049A000000100234FF4827208A10A48FFF70CFEB1
:1049B000002807D1502080F31188BFF34F8FBFF339
:1049C0006F8FFEE71CBD000060000020546D722058
:1049D00053766300F93B000821F00042A2F16052D7
:1049E000B2F5801F01F0004328BFD2F17F6C0BD9D4
:1049F0005FEA001C43EAC20242EB507018BF7047E6
:104A000028BF20F001007047B2F5801FBCBF1846D8
:104A100070474FEA410C1CF5001F02D2084600F017
:104A200019BB70B500F04CFA00000089FFF7F6BF23
:104A30004FF00040A0F58000704700002DE9C04114
:104A400030B4DFF8A0C23CEA111418BF3CEA1314DA
:104A500000F0EC8081EA03051CEA111444EAD574E5
:104A600018BF1CEA131500F0C780A4EB05044FF033
:104A7000004545EAC12145EAC32341EA505143EAD2
:104A8000525304F17F74994204F500344FEAC02078
:104A90004FEAC22208BF904200F09C804FEA1365A3
:104AA0000FF24016765D4FEA134506FB05F7C7F196
:104AB000807706FB07F74FEAD737A7FB03687642F4
:104AC000C8F58038A7FB06CE38BFA8F1010807FB60
:104AD00008E64FF0000EA6FB028CE6FB03CEDCF1ED
:104AE000000CCEF1004E38BFAEF1010EA6FB0C5803
:104AF0004FF000074FF00005E6FB0E87A1FB08C64C
:104B0000A0FB07CE16EB0E0645F10005E1FB07659D
:104B100015F1E04E7EBFA4F580345FEA46066D4194
:104B200016F1800745F100054FEA17274FEA0666A0
:104B300047EA0567A6F1DE46B6F1805F4FEA152524
:104B40001FD9384624F0010C05EBC471BCF1FE6F8F
:104B500001EB0C1102D8F0BCBDE8008124425CBF1F
:104B600001F5801E9EEAC47F02D4F0BCBDE800813E
:104B7000244238D4F0BCA1F1C041BDE8004100F0AE
:104B8000EDB94FEAD22242EA43524FEAD323A7FBC0
:104B900002864FEAD02040EA415007FB03661EEA36
:104BA0000E0F4FEAD12105FB026658BFA6EB005657
:104BB000B6EB00564FEA520E4EEAC37E18EB0E0ECD
:104BC00056EB530EBDD518EB02085E417F1C55F124
:104BD0000005B6E74FF480154FF000074FF00006D0
:104BE0004FF00008ADE7F0BC4FF0000001F1C0410C
:104BF00001F00041BDE8008111EA0C1F0CEA131519
:104C000000D00CE013EA0C1F00F025804FF00000EC
:104C1000F0BC81EA030101F00041BDE80081F0BC75
:104C2000BDE8004181EA030100F098B9F0BCBDE89D
:104C3000004170B500F044F9097EFC3E00F007B871
:104C400081EA03014FF0000001F00041704781EA62
:104C5000030100F083B9F0BCBDE800414FF0000053
:104C600021497047FFFDFBF9F7F5F4F2F0EEEDEBAB
:104C7000E9E8E6E4E3E1E0DEDDDBDAD8D7D5D4D35A
:104C8000D1D0CFCDCCCBCAC8C7C6C5C4C2C1C0BFA6
:104C9000BEBDBCBBBAB9B8B7B6B5B4B3B2B1B0AFAC
:104CA000AEADACABAAA9A8A8A7A6A5A4A3A3A2A190
:104CB000A09F9F9E9D9C9C9B9A999998979796954B
:104CC00095949393929191908F8F8E8E8D8C8C8BE7
:104CD0008B8A89898888878786858584848383826F
:104CE000828181800000FF070000F87F4FEA1153A6
:104CF000A3F58063D3F11E03A8BFD3F1200C08DB1A
:104D00004FF0004242EAC12252EA505232FA03F016
:104D1000704709420BD4102BC4BF0020704703F525
:104D2000787CBCF1FF3F05D04FF0FF3070474FF06B
:104D30000000704770B500F0C3F800BF49922480AE
:104D400000207047F0E7B0FA80F310FA03F10AD0C0
:104D5000C3F11D0303F580634FEA41504FEA03524C
:104D600002EBD12170474FF000007047DFF848C1D7
:104D700070B51CEA111E1EBF1CEA13159EEA0C0F2B
:104D800095EA0C0F00F06F8081EA030423EA4C13CC
:104D90004EEAD47E21EA4C1141F4801143F4801391
:104DA000AE44A1FB024CA0FB0365AEF17F7E361939
:104DB00055EB0C05A1FB034C4CF10003A0FB021CBE
:104DC00016EB0C06654153F10003094218BF46F08B
:104DD000010613F4007F0BD14FEA03314FEA05308F
:104DE000340341EA155140EA16506FF003020AE01D
:104DF0004FEAC3214FEAC520F40241EA555140EA87
:104E000056506FF0020202EB2E4201EB025585EA8A
:104E1000CE710AD05FEA440C18BF24F0004450F170
:104E2000000041F1000120EAD47040F2FE7C6245AE
:104E300000D270BDA84214BF4FF080444FF04044F0
:104E4000002E08BF0024BEF1806FA8BFA1F1C041B1
:104E5000BDE8704080F282804FF0000001F1C04157
:104E600001F0004170479EEA0C0F0CEA131518BFC1
:104E700095EA0C0F06D04FF0000081EA030E0EF009
:104E8000004170BD00F01CF88900013E00F007B839
:104E900000F009B84FEA430C5FEA5C5C08D081EA95
:104EA000030100F05BB84FEA410C5FEA5C5CF6D1AD
:104EB0004FF00000014970470000FF070000F87F35
:104EC0000EF1020E2EF0030E5EF8046B364205D48E
:104ED000012A43EB030515F5001F12D8012841EB09
:104EE000010C1CF5001F0CD80ED14FEAD17C15F532
:104EF000001F0CEB4C0C0CF1020C08BF4CEBD37CEC
:104F000004E04FF0080C01E04FEAD37C0CEB4C05B9
:104F100026FA05F606F00706B6F1040C06D20EEBEB
:104F2000860CBDE870404CF0010C6047DFE80CF0E7
:104F3000090B02024FF000414FF00000A1F50021E3
:104F400070BD19461046012851EB010418BFD4F575
:104F5000001484BF002001F0004170BD0808A0F5D6
:104F600000114FEA3101704743004FEAD30C4FEA7A
:104F70003C0C43401FBF40070CF1605113F0FE4F43
:104F800070471CF0006F03D100200CF00041704707
:104F90000CF0004343EA507010B540EACC0000F03A
:104FA0000EF800BF000000924FEA0001FFF7D6BFE5
:104FB0004FF000414FF00000A1F5002170470EF1C5
:104FC000020E2EF0030E5EF8044B244204D44FEA86
:104FD0004102B2F17F4F11D84FEA4003B3F17F4F46
:104FE0000CD80ED14FEAD07CB2F17F4F0CEB4C0CB9
:104FF0000CF1020C08BF4CEBD17C04E04FF0080C24
:1050000001E04FEAD17C0CEB4C0324FA03F404F0EA
:105010000704B4F1040C06D20EEB840CBDE810407A
:105020004CF0010C6047DFE80CF0070802024FF07B
:105030000040A0F5800010BD0846420018BFD2F124
:10504000807288BF00F0004010BD4FF04070E1EE6C
:10505000100A7047FF2141EAD050C0057047000692
:1050600010160006101600000000000000000102EB
:105070000304060708090000000001020304000001
:10508000A0500008000000209C010000C40100089E
:10509000085100089C010020343B01002002000858
:1050A000011032018210033124F40227041AAA01EC
:1050B0000122298E690621120A2B356B033A360329
:1050C0004BFF66044B9C4804413B803F0413FE9811
:1050D0004A6B056B938805229A5905EBF3AB0621C1
:1050E00069080921E134024080139C0133200C0F30
:1050F000206666663D204E341122020A12E434A274
:08510000FDCA6B0D1100000057
:040000050800018965
:00000001FF
