:020000040800F2
:10000000D83C0120290300080B2800086F250008B0
:10001000092800085F06000861320008000000009F
:10002000000000000000000000000000712800082F
:10003000A9080008000000006D2800083929000800
:100040004303000843030008430300084303000878
:100050004303000843030008430300084303000868
:100060004303000843030008430300084303000858
:100070004303000861060008430300086D060008FA
:1000800079060008850600084303000843030008BA
:100090004303000843030008430300084303000828
:1000A0004303000843030008430300084303000818
:1000B000E1290008ED290008F92900084303000898
:1000C00043030008430300084303000843030008F8
:1000D00043030008293100084131000843030008A8
:1000E00043030008430300084303000843030008D8
:1000F00043030008430300084303000843030008C8
:1001000043030008430300084303000843030008B7
:10011000D92C0008430300084303000843030008E8
:100120004303000843030008910600084303000846
:100130004303000843030008430300084303000887
:100140004303000843030008430300084303000877
:1001500043030008430300089D060008430300080A
:100160004303000843030008430300084303000857
:100170004303000843030008430300080000000095
:10018000430300084303000800F002F800F05CF8A5
:100190000AA090E8000C82448344AAF10107DA45E2
:1001A00001D100F051F8AFF2090EBAE80F0013F0D8
:1001B000010F18BFFB1A43F001031847F84A00006B
:1001C000184B00000A444FF0000C10F8013B13F0EC
:1001D000070408BF10F8014B1D1108BF10F8015BA0
:1001E000641E05D010F8016B641E01F8016BF9D193
:1001F00013F0080F1EBF10F8014BAD1C0C1B09D1EA
:100200006D1E58BF01F801CBFAD505E014F8016B5B
:1002100001F8016B6D1EF9D59142D6D370470000ED
:100220000023002400250026103A28BF78C1FBD8FF
:10023000520728BF30C148BF0B6070471FB504F09C
:100240001FFD1FBD10B510BD00F0D4F91146FFF71A
:10025000F5FF03F073F800F0F2F903B4FFF7F2FFD3
:1002600003BC00F0F5F900002C4B19680868B0E8F1
:10027000F04F80F30988BFF36F8F4FF0000080F3D9
:10028000118870470000000008480068006880F38B
:1002900008884FF0000080F3148862B661B6BFF39F
:1002A0004F8FBFF36F8F00DF00BF00BF08ED00E08E
:1002B000DFF80C00016841F470010160704700BF75
:1002C00088ED00E0EFF30980BFF36F8F134B1A68DE
:1002D0001EF0100F08BF20ED108A20E9F04F1060CB
:1002E00009B44FF0500080F31188BFF34F8FBFF374
:1002F0006F8F03F05BFF4FF0000080F3118809BCA3
:1003000019680868B0E8F04F1EF0100F08BFB0EC95
:10031000108A80F30988BFF36F8F70472000002098
:10032000EFF30580704700000948804709480047FF
:10033000FEE7FEE7FEE7FEE7FEE7FEE7FEE7FEE795
:10034000FEE7FEE704480549054A064B70470000F2
:10035000D129000889010008D8360120D83C0120A5
:10036000D8380120D838012053EA020C00F0698007
:100370002DE9F04B4FF00006002B1FBFB3FA83F5B9
:1003800003FA05F424FA05F65E4012BF1643B2FAEA
:1003900082F502FA05F4C5F120051EBF22FA05FC1C
:1003A00044EA0C04203556EA044C4FEA144418BFC2
:1003B000641C4FF000084FF00009904271EB030CF1
:1003C00039D3002919BFB1FA81F701FA07F6B0FA5B
:1003D00080F700FA07F6C7F120071EBF20FA07FCD6
:1003E00046EA0C062037B6FBF4FCA7EB0507103FE6
:1003F00007F01F0BCBF120060CFA0BFB2CFA06F6CC
:1004000044BFB3460026202FA4BF5E464FF0000B2A
:100410005BEA060C08BF4FF0010B19EB0B09ABFBB5
:10042000027C48EB0608C01B06FB02CC0BFB03CC8E
:1004300071EB0C01C1E70B46024641464846BDE858
:10044000F08B13B54FF000004FF00001AFF30080C8
:10045000BDE81C407047032A40F2308010F0030CC6
:1004600000F0158011F8013BBCF1020F624498BF07
:1004700011F801CB00F8013B38BF11F8013BA2F1A4
:10048000040298BF00F801CB38BF00F8013B11F01F
:10049000030300F07980083AC0F0088051F8043B6B
:1004A000083A51F804CBA0E80810F5E7121D5CBF2C
:1004B00051F8043B40F8043BAFF30080D20724BF5F
:1004C00011F8013B11F801CB48BF11F8012B24BFF3
:1004D00000F8013B00F801CB48BF00F8012B704742
:1004E00002F0FF0343EA032242EA024200F002B8AC
:1004F0004FF000020429C0F0128010F0030C00F04D
:100500001B80CCF1040CBCF1020F18BF00F8012BCA
:10051000A8BF20F8022BA1EB0C0100F00DB85FEA98
:10052000C17C24BF00F8012B00F8012B48BF00F864
:10053000012B70474FF0000200B5134694469646D3
:10054000203922BFA0E80C50A0E80C50B1F12001E6
:10055000BFF4F7AF090728BFA0E80C5048BF0CC094
:100560005DF804EB890028BF40F8042B08BF7047F2
:1005700048BF20F8022B11F0804F18BF00F8012B64
:10058000704770477047704710B5203AC0F00B8035
:10059000B1E81850203AA0E81850B1E81850A0E887
:1005A0001850BFF4F5AF5FEA027C24BFB1E81850E1
:1005B000A0E8185044BF18C918C0BDE810405FEA51
:1005C000827C24BF51F8043B40F8043B08BF7047CD
:1005D000D20728BF31F8023B48BF11F8012B28BFD2
:1005E00020F8023B48BF00F8012B704700487047D5
:1005F000743601207546FFF7F9FFAE4605006946DF
:10060000534620F00700854618B020B5FFF79AFE44
:10061000BDE820404FF000064FF000074FF0000803
:100620004FF0000B21F00701AC46ACE8C009ACE884
:10063000C009ACE8C009ACE8C0098D46704710B5E8
:100640000446AFF300802046BDE81040FFF705BE2A
:1006500001491820ABBEFEE7260002007047FEE706
:10066000014800F0E5B9000000030020014800F057
:10067000DFB9000060030020014800F0D9B9000094
:10068000E0040020014800F0D3B9000080040020FD
:10069000014800F0CDB90000C0030020014800F07F
:1006A000C7B900002004002001681823CAB2103A1C
:1006B000B2FBF3F2054B6FF30901032A9B5CC365A0
:1006C00000D9091D8165084670470000944C000858
:1006D00010B5014600208B698A6A4FF0C07453B18F
:1006E000B3F5005F15D072B1012A0CD0022A0AD0EE
:1006F000032A09D104E01AB1012A06D0022A03D143
:10070000C96AC90100D5012010BDC96AA142FAD049
:1007100010BD002AF7D0012AF2D0022AF3D0032A12
:10072000F3D010BD30B50468256825F48025256018
:10073000046863608368402B036803D09960006895
:10074000C26030BD9A600068C16030BDF0B523481A
:1007500000684068C0F1800007043F0C3DD0204A8B
:1007600000252B462846D47892F800C01D492FE07A
:100770001D4E365C25B1012D08D0022D26D112E088
:10078000552E23D155250D7001251FE0062B1DD2B6
:1007900001EB030E5B1CDBB28EF80160062B15D358
:1007A0000225002312E00D2E0FD10D258D744D78FA
:1007B000A5420AD0B1F8034091F802C064BAD480CF
:1007C000B1F8054064BA14812C460025401C80B263
:1007D000B842CDD382F800C0D470F0BDC003002071
:1007E0009C000020B832012074330120F0B5154878
:1007F00000684068C0F180000404240C20D000236D
:100800001A461846104E114F18E0315C23B1012BE7
:1008100006D0022B10D10BE055290DD101230BE09E
:10082000521C0D4612F0FF0206D00223002203E004
:100830000D2900D13D710023401C80B2A042E4D3B9
:10084000F0BD0000E0040020743301209C00002073
:10085000124800684068C0F180000004000C13D00A
:100860000F484178352910D0362912D0F6290BD1FE
:100870008178022908D1C1786B2905D10078012837
:1008800002D108490020487070470549012000F056
:100890003FB80349012000F00BB80000000300201E
:1008A000743501209C000020704772B6FEE70000FE
:1008B000CA796B2A23D100EB800211488B7800EBB8
:1008C0008202DFED100A1372B1F803004B7940BACF
:1008D000000440EA03208B79184300EE100AD06030
:1008E0008978B8EE400A11B19FED071A01E09FED3B
:1008F000071A20EE010A20EE200A82ED040A704752
:10090000CC320120000080370000B4C30000B443A3
:1009100010B54A796B2A23D1124A00EB80038C78F8
:1009200002F82340B1F8030002EB830440BA608070
:10093000897831B104F093F841EC100B9FED0A1B5C
:1009400005E004F08CF841EC100B9FED091B51EC15
:10095000100B53EC112B04F095F804F04FF8606085
:1009600010BD0000CC32012000000000000018C0C3
:1009700000000000000018402DE9F0410446876D9A
:1009800000F0D8FA064694F835000025022806D073
:100990008020606584F834500120BDE8F081206833
:1009A000016821F0160101602068416921F0800191
:1009B0004161206C08B9A06C20B12068016821F069
:1009C000080101602068016821F0010101600CE06C
:1009D00000F0B0FA801B052807D9202060650320AD
:1009E00084F8350084F83450D7E720680068C007E1
:1009F000EED194F85C103F208840B860012084F864
:100A0000350084F834500020C7E790F835100229EB
:100A100003D08021416501207047052180F8351001
:100A20000068016821F001010160002070470000AA
:100A30002DE9F84304464FF00009CDF800906348D3
:100A40004FF41651A56D0068B0FBF1F72E6894F8CD
:100A50005C10082000FA01F131420FD021680A68C9
:100A600052070BD50A6822F004020A6094F85C1061
:100A70008840A860606D40F00100606594F85C10EB
:100A80004FF0010808FA01F0304208D021684969A6
:100A9000090604D5A860606D40F00200606594F816
:100AA0005C1004208840304208D02168096889071A
:100AB00004D5A860606D40F00400606594F85C1097
:100AC00010208840304218D021680968090714D5E1
:100AD000A86020680168490304D50068000308D5B0
:100AE000A16C07E00168C90503D4016821F0080181
:100AF0000160216C09B12046884794F85C102020E1
:100B00008840304231D021680968C9062DD5A860D7
:100B100094F8350005282068016806D0490347D5B8
:100B2000006800031DD4616C1CE021F01601016017
:100B30002068416921F080014161206C08B9A06CF6
:100B400020B12068016821F00801016094F85C1070
:100B50003F208840A86084F8358084F83490216D67
:100B60001FE0E16B09B120468847606D00282BD05B
:100B7000606DC00714D0052084F835002068016836
:100B800021F0010101600098401C0090B84203D898
:100B900020680068C007F6D184F8358084F8349066
:100BA000E16C002910D001B02046BDE8F0430847B1
:100BB0000168C905D5D4016821F01001016084F8ED
:100BC000358084F83490CCE7BDE8F8831C00002021
:100BD0002DE9F041044600F0ADF906465CB1022073
:100BE00084F83500002584F834502068016821F02D
:100BF000010101600DE00120BDE8F08100F09AF9EB
:100C0000801B052805D920206065032084F8350065
:100C1000F2E720680068C007F0D122681168204818
:100C20000140D4E901031843D4E9033633431843A0
:100C300063691843A3691843E3691843236A184397
:100C40000843616A042903D1D4E90B13194308430B
:100C5000106020684069666A20F0070130460E4344
:100C6000012704280CD1A06A0643E06A40B120465F
:100C7000FFF72EFD20B14020606584F83570BAE79B
:100C8000206846612046FFF70FFD94F85C203F2165
:100C900091408160656584F835700020ACE7000004
:100CA0003F8010F02DE9F0410446866D90F8340045
:100CB000002501280DD0012084F8340094F8357007
:100CC0000020012F07D084F8340002252846BDE813
:100CD000F0810220FBE7022784F83570606520462A
:100CE000FFF720FD94F85C103F208840B06020683A
:100CF000016841F016010160206C20B12068016894
:100D000041F0080101602068016841F001010160C3
:100D1000DCE7000070B5044600F00CF90546601CE5
:100D200002D004480078044400F004F9401BA042BB
:100D3000FAD370BD100000202DE9F84FDFF8BCA1F8
:100D40000022012503264FF00F090AF1040BAAF136
:100D5000040E00BF0B6805FA02F42340A34270D1D1
:100D60000F7907F00307012F01D0022F16D18768F2
:100D70004FEA420806FA08FC27EA0C07D1F80CC033
:100D80000CFA08FC4CEA070CC0F808C04768A743F7
:100D90000C79C4F3001494403C4344600C79E44360
:100DA000A4070AD0C4684FEA420C06FA0CF7BC4309
:100DB0008F6807FA0CF72743C7600C7904F0030427
:100DC000022C12D1D40800EB840CDCF82040570729
:100DD000FF0E09FA07F824EA0804D1F8108008FA8F
:100DE00007F848EA0408CCF8208004684FEA420C6F
:100DF00006FA0CF7BC430F7907F0030707FA0CF764
:100E0000274307604C6814F4403F70D03C4C27687F
:100E100047F480472760246822F0030704F48044E5
:100E20000094384C07EB040CDCF8084897074FEAAD
:100E3000177809FA08F7BC43334FB84202D10027AC
:100E400024E054E0314FB84201D101271EE0304F79
:100E5000B84201D1022719E02E4FB84201D1032731
:100E600014E02D4FB84201D104270FE02B4FB842B8
:100E700001D105270AE02A4FB84201D1062705E033
:100E8000284FB84201D1072700E0082707FA08F7E2
:100E90002743CCF80878DAF800405746D1F804C068
:100EA0009C435FEACC2C00D51C433C60DBF800403F
:100EB0005F46D1F804C09C435FEA8C2C00D51C43EC
:100EC0003C60DEF800407746D1F804C09C435FEAFE
:100ED0008C3C00D51C433C60084F083F3C68D1F86F
:100EE00004C09C435FEACC3C00D51C433C60521CD0
:100EF000102AFFF42FAFBDE8F88F0000083C014036
:100F0000443802400030014000000240000402402A
:100F100000080240000C0240001002400014024091
:100F200000180240001C02400AB1816170470904A8
:100F3000FBE70000014880687047000010000020B7
:100F400002488168027811448160704710000020D7
:100F50000B4810B5016841F400710160016841F46B
:100F600080610160016841F480710160032000F03C
:100F70009BF80F2000F006F800F050F8002010BD9C
:100F8000003C024030B505461F4887B00024016888
:100F900041F004010160006806A900F0040000901F
:100FA00001A800F02DF90498A8B100F049F940001B
:100FB0001649174AB0FBF1F11648491E026040F28B
:100FC000E732C0E90324C0E90114846100F08AFB20
:100FD000040003D015E000F033F9E9E70D4800F014
:100FE000DFFB04000DD11E2000F030F8102D07D2D9
:100FF000002229461E2000F037F80748056000E06F
:10100000012407B0204630BD4038024040420F0066
:101010000008004040050020140000200A4808B5E0
:10102000016841F480410160006800F48040009054
:101030000548001F016841F080510160006800F020
:101040008050009008BD000044380240002809DBB1
:1010500000F01F02012191404009800000F1E020D2
:10106000C0F8001170470000F0B40E4B1B680C462E
:10107000C3F30223C3F10705042D00D90425191D6C
:10108000072901D2002300E0DB1E012606FA05F144
:10109000491E214099409E40761E16403143F0BCC7
:1010A00002F0DFB80CED00E0064900F00702086826
:1010B0004FF6FF03184040EA0220034A104308603D
:1010C000704700000CED00E00000FA052DE9F04744
:1010D0000E46050065D0DFF81481D8F80000F7B29D
:1010E00000F00700B04207D288F80070D8F800007E
:1010F00000F00700B04254D128683D4C810712D55A
:10110000400703D5206840F4E050206028780007AD
:1011100003D5206840F4604020602068A96820F072
:10112000F000084320602878C0072DD03049686857
:101130000839012812D0022813D0032811D00968D9
:10114000890700292DDA216821F00301014321607C
:10115000FFF7F0FE814641F2883A0EE00968890304
:10116000EFE709688901ECE7FFF7E4FEA0EB09016E
:10117000514502D90320BDE8F0872068696800F076
:101180000C00B0EB810FEFD1D8F80010404601F011
:101190000701B14207D90770006800F00700B042AC
:1011A00001D00120E7E72878400705D52068E968E5
:1011B00020F4E050084320602878000706D5206816
:1011C000296920F4604040EAC100206000F058F82E
:1011D0002168084AC1F30311515CC8400649086000
:1011E00006480068FFF7CEFE0020C4E7003C02403E
:1011F000083802409C4C00081C000020140000200D
:101200000F2202600C4A136803F003034360136863
:1012100003F0F0038360136803F4E053C3601268C3
:101220004FF4E05303EAD20202610448006800F080
:10123000070008607047000008380240003C024088
:101240000448054900680968044AC1F38221515CD9
:10125000C84070471C00002008380240AC4C000811
:101260000448054900680968044AC1F34231515CE9
:10127000C84070471C00002008380240AC4C0008F1
:10128000154810B5006810F00C02144813D014492A
:10129000042A0FD0082A0ED10F4C241F226823687D
:1012A00002F03F025B0207D52068C0F38810A0FB64
:1012B000010106E0084610BD2168C1F38811A1FBB9
:1012C00000010023FFF750F82168C1F30141491CD8
:1012D0004900B0FBF1F010BD083802400024F400D2
:1012E00040787D012DE9F84F04006ED02078DFF8BA
:1012F0004C93C007A9F104054AD009F10400016824
:10130000C1F38101012908D00068C0F381000228DF
:101310000AD1D9F80000400206D52868800337D5E5
:1013200060680028E1D033E06068B0F5803F10D0FD
:10133000B0F5A02F286810D020F4803028602868ED
:1013400020F4802028606068A8B1FFF7F3FD06460E
:101350000DE0286840F48030F4E740F480202860F5
:10136000F7E700BFFFF7E6FD801B642873D8286805
:101370008003F7D50CE0FFF7DDFD064605E000BF72
:10138000FFF7D8FD801B6428F0D828688003F7D4C5
:101390002078DFF8AC8280074FF0000A3ED5A748DE
:1013A000001D016811F00C0F08D00068C0F3810027
:1013B00002280BD1D9F80000400207D42868800722
:1013C00016D5E068012800D112E033E1E068B8B139
:1013D0000120C8F80000FFF7ADFD064605E000BF9C
:1013E000FFF7A8FD801B0228C0D828688007F7D522
:1013F0002868216920F0F80040EAC10028600DE06B
:10140000C8F800A0FFF796FD064604E0FFF792FD3E
:10141000801B02281FD828688007F7D4207800078F
:1014200022D5864F87486169703771B1012101600B
:10143000FFF780FD064604E0FFF77CFD801B0228D5
:1014400009D838688007F7D50EE0C0F800A0FFF78C
:1014500071FD064605E082E0FFF76CFD801B022867
:101460007DD838688007F7D42078400768D5DFF842
:10147000CCB100270BF13C0BDBF80000C0000BD413
:10148000DBF8001041F08051CBF80010DBF80000D1
:10149000012700F0805000906B4E3068C00510D4DA
:1014A000306840F480703060FFF744FD009005E044
:1014B000FFF740FD0099401A022850D83068C00557
:1014C000F6D55E4EA0686C3601280FD0052830682E
:1014D00010D020F001003060306820F0040030604F
:1014E000A068B8B1FFF726FD00900FE0306840F02B
:1014F0000100F4E740F004003060F7E7FFF71AFD61
:101500000099411A41F28830814266D830688007DC
:10151000F4D50EE0FFF70EFD009007E0FFF70AFD9F
:101520000099411A41F28830814256D830688007CC
:10153000F4D42FB1DBF8001021F08051CBF800106B
:10154000A069C8B33D49091D0968C1F38101022999
:101550004AD00228504607D0C8F8600000E03CE0BE
:10156000FFF7E8FC04463BE04746C8F86000FFF799
:10157000E1FC064605E000BFFFF7DCFC801B02280B
:101580002BD828688001F7D4D4E907010843A16A61
:101590002E4A490802EB0141626A41EA821108437E
:1015A00094F82C1040EA0161C9F800100120386657
:1015B000FFF7C0FC044606E03EE000BFFFF7BAFCC0
:1015C000001B022809D828688001F7D534E000BF45
:1015D000FFF7B0FC001B022802D90320BDE8F88FFA
:1015E00028688001F4D427E00128F7D0D9F800005A
:1015F000E26900F4800191421CD1226A00F03F01AF
:10160000914217D147F6C071626A0140B1EB821F67
:1016100010D1A26A4FF0FF3300F4403103EB5202C5
:10162000B1EB024F06D194F82C1000F07060B0EBD3
:10163000016F01D00120D1E70020CFE7043802403C
:1016400000004742800E4742007000400000FFFF4C
:101650007047704770B590F83C20012A32D00124C1
:1016600080F83C40022280F83D2003685A689D685B
:1016700022F070060A6832435A60134B02689A429D
:1016800014D0B2F1804F11D0104B9A420ED0104BB3
:101690009A420BD00F4B9A4208D00F4B9A4205D07A
:1016A0000E4B9A4202D00E4B9A4204D1496825F063
:1016B00080031943916080F83D40002180F83C1080
:1016C000084670BD022070BD0000014000040040CB
:1016D00000080040000C00400004014000400140B0
:1016E0000018004010B5040003D094F83D0010B17C
:1016F00007E0012010BD002084F83C00204600F0E7
:101700001FF8022084F83D00211D206801F07AF9BD
:10171000012084F8460084F83E0084F83F0084F8F5
:10172000400084F8410084F8420084F8430084F8C3
:10173000440084F8450084F83D00002010BD0000FE
:1017400008B501681448B1F1804F14D0134A914292
:1017500020D1016841F0020101600068002200F020
:101760000200009011461D20FFF77EFC1D20BDE801
:101770000840FFF76BBC016841F00101016000689F
:10178000002200F00100009011461C20FFF76CFCC5
:101790001C20ECE708BD0000403802400004004077
:1017A00090F83D10012901D001207047022180F8F6
:1017B0003D100168CA6842F00102CA600068114920
:1017C000884214D0B0F1804F11D00F4988420ED01A
:1017D0000E4988420BD00E49884208D00D498842F4
:1017E00005D00D49884202D00C49884204D1816855
:1017F00001F00701062903D0016841F001010160F1
:101800000020704700000140000400400008004034
:10181000000C00400004014000400140001800405E
:1018200070B5044690F83C000025012817D0012629
:1018300084F83C60022084F83D002068826822F031
:10184000770222F47F4282600868502838D00DDC8D
:1018500020284FD005DC90B3102811D14AE0022097
:1018600070BD302846D040280AD13BE060282FD0F8
:1018700070280DD0B0F5805F03D0B0F5005F12D0B6
:10188000012584F83D60002084F83C00284670BDA6
:10189000CB68D1E90121206801F025F92068816831
:1018A00041F0770109E0CB68D1E90121206801F01E
:1018B0001AF92068816841F480418160E1E719E00C
:1018C000CA684968206801F0E3F95021206806E001
:1018D000CA684968206801F0ECF96021206801F0CD
:1018E0000CF9CEE7CA684968206801F0D1F94021B7
:1018F0002068F4E7226801461046F0E7704770B5AB
:101900000446006801694FF00005C943890715D4F2
:10191000C168C943890711D4E91E016101202077FC
:10192000206880698007204602D0FFF7E7FF04E0C7
:1019300000F0D6F8204600F068F9257720680169A4
:10194000C943490717D4C168C943490713D46FF085
:1019500004010161022020772068806910F4407F33
:10196000204602D0FFF7CAFF04E000F0B9F8204695
:1019700000F04BF9257720680169C943090716D49F
:10198000C168C943090712D46FF00801016104203E
:1019900020772068C0698007204602D0FFF7AEFF9D
:1019A00004E000F09DF8204600F02FF9257720682C
:1019B0000169C943C90617D4C168C943C90613D40C
:1019C0006FF010010161082020772068C06910F4D1
:1019D000407F204602D0FFF791FF04E000F080F83E
:1019E000204600F012F9257720680169C943C9072C
:1019F00008D1C168C943C90704D1891E01612046C5
:101A000000F0DCF920680169C943090609D4C168FE
:101A1000C943090605D46FF0800101612046FFF734
:101A200017FE20680169C943490609D4C168C94342
:101A3000490605D46FF040010161204600F014FA18
:101A400020680169C94389060BD4C168C943890666
:101A500007D46FF0200101612046BDE87040FFF718
:101A6000F8BD70BD10B586B0044614216846FEF777
:101A700061FD2368002116480222B3F1804F15D082
:101A8000144CA34210D1036843F0020303600068C2
:101A9000009200F002000590CDE90121CDE903128A
:101AA00069460D48FFF748F906B010BD036843F0DA
:101AB00001030360006800F0010005900820009019
:101AC000CDE901210120CDE9031069460348E9E78A
:101AD0003038024000040040000402400000024090
:101AE000704770B5044690F83C0000260D4601286A
:101AF0000FD0012084F83C006AB1042A1DD0082AC6
:101B00002FD00C2A3FD00126002084F83C0030461C
:101B100070BD022070BD206800F0F8FF2068816968
:101B200041F0080181612068816921F0040181612F
:101B3000206881692A69114311E0206801F016F8D4
:101B40002068816941F4006181612068816921F424
:101B500080618161206881692A6941EA022181618D
:101B6000D2E7206801F038F82068C16941F0080127
:101B7000C1612068C16921F00401C1612068C169A7
:101B80002A69114311E0206801F05AF82068C16900
:101B900041F40061C1612068C16921F48061C161C3
:101BA0002068C1692A6941EA0221C161ACE710B528
:101BB000040003D094F83D0010B107E0012010BDEF
:101BC000002084F83C00204600F01EF8022084F833
:101BD0003D00211D206800F015FF012084F846001B
:101BE00084F83E0084F83F0084F8400084F8410007
:101BF00084F8420084F8430084F8440084F84500E7
:101C000084F83D00002010BD7047704730B50025B6
:101C10000446022249B1042912D008294CD094F874
:101C20004100012853D0012030BD94F83E00012826
:101C3000F9D184F83E202068C26842F0020209E02F
:101C400094F83F000128EED184F83F202068C26854
:101C500042F00402C2600122206800F037FF2149EF
:101C60002068214A884201D0904203D1436C43F45A
:101C7000004343642068884213D0B0F1804F10D0F5
:101C80001A4988420DD01A4988420AD01949884217
:101C900007D0904205D01849884202D0174988429F
:101CA00004D1816801F00701062903D0016841F0E1
:101CB00001010160284630BD94F840000128B2D1EE
:101CC00084F840202068C26842F00802C2E784F825
:101CD00041200C2901D00125ECE72068C26842F0C0
:101CE0001002B7E70000014000040140000400407A
:101CF00000080040000C0040004001400018004077
:101D000070B50D0004464FF0000607D0042D0AD030
:101D1000082D0DD00C2D10D001263FE02068C168A1
:101D200021F002010DE02068C16821F0040108E003
:101D30002068C16821F0080103E02068C16821F033
:101D40001001C16000222946206800F0BFFE194B37
:101D500041F2111120688A10984202D0164B984225
:101D600009D1036A0B4206D1036A134203D1436CC3
:101D700023F4004343642068036A0B4206D1016ADE
:101D8000114203D1016821F00101016001203DB140
:101D9000042D08D0082D09D084F84100304670BDCC
:101DA00084F83E00FAE784F83F00F7E784F8400043
:101DB000F4E70000000001400004014070B5044653
:101DC00000682649884201D1FFF7BAF82449002566
:101DD0000A6AA2421DD1C868401CC8600B7D002B56
:101DE0000B6901D05B1E00E05B1C0B618B689842A5
:101DF0000FD381F8305091ED040AD1ED0A0A104654
:101E0000B8EEC00A20EE800A81ED000A496AFFF7A9
:101E100077FF1449086AA0421ED1CA68521CCA60E2
:101E20000B7D002B0B6901D05B1E00E05B1C0B617E
:101E30008B689A4210D381F8305091ED040AD1EDAD
:101E40000A0AB8EEC00A20EE800A81ED000A496A4B
:101E5000BDE87040FFF754BF70BD000000080040AF
:101E600020010020540100207047704710B504463F
:101E70000068406994F83D10C0F3C010212911D1C9
:101E800080B12068143050E8001F21F0800140E844
:101E90000012002AF5D1606B08B1FEF76DFD2046F7
:101EA00000F0EEFF2068406994F83E10C0F3801007
:101EB000222911D180B12068143050E8001F21F090
:101EC000400140E80012002AF5D1A06B08B1FEF7EE
:101ED00053FD204600F0ADFF002010BD704700000C
:101EE000F8B5016804460868CA684B6910F00F0F1E
:101EF0004FF0000559D003F0010602F49077374304
:101F000065D0C10705D0D10503D5216C41F0010191
:101F10002164410705D5D90703D0216C41F00201A6
:101F20002164810705D5D90703D0216C41F0040154
:101F30002164010707D502F02001314303D0216C51
:101F400041F008012164216C00293AD0800604D5B3
:101F5000900602D5204600F0A1FF20684069216C60
:101F6000C0F38010090700D460B3204600F061FF81
:101F700020684069400621D52068143050E8001FD1
:101F800021F0400140E80012002AF5D1A06BA8B171
:101F90006C490165A06BFEF738FD002811D0A06BDD
:101FA000016D01B0BDE8F040084783060FD59306E8
:101FB0000DD52046BDE8F84000F070BF2046FFF781
:101FC0008DFFF8BD2046FFF789FF2564F8BD266B1D
:101FD0002023012E79D1C60677D5D60675D5086897
:101FE000486800904869400640D5A16B0868406881
:101FF0000004000CEAD0A28D8242E7D9E085C869CE
:10200000B0F5807F2DD020680C3050E8001F21F4FF
:10201000807140E80012002AF5D12068143050E8A1
:10202000001F21F0010140E80012002AF5D12068CC
:10203000143050E8001F21F0400140E80012002A4F
:10204000F5D184F83E30256320680C3050E8001F3D
:1020500021F0100140E80012002AF5D1A06BFEF734
:102060008BFCA08DE18D401A81B229E0A08DE18D1D
:10207000401A81B2E08D0028A8D00029A6D020689F
:102080000C3050E8002F22F4907240E80026002E19
:10209000F5D12068143050E8002F22F0010240E80A
:1020A0000026002EF5D184F83E30256320680C30E0
:1020B00050E8002F22F0100240E80023002BF5D159
:1020C0002046FFF7D2FEF8BDFFE705062BD5150623
:1020D00029D594F83D002128F5D1A068B0F5805F9E
:1020E00001D12069B0B1206A411C216221680078C9
:1020F0004860E08C401E0004000CE084E3D12068BE
:10210000C16821F08001C1602068C16841F04001D0
:10211000C160D8E7206A0088C0F308004860206AE0
:10212000801C2062E5E74006CDD55006CBD5CA68B5
:10213000204622F04002CA6084F83D3000F00AFADE
:10214000C1E70000F12C000870B5040004D094F839
:102150003D00002510B106E0012070BD84F83C5020
:10216000204600F023F8242084F83D002068C16850
:1021700021F40051C160204600F0F0FE20680169A2
:1021800021F4904101612068416921F02A014161F7
:102190002068C16841F40051C1602564202084F8A2
:1021A0003D0084F83E00002070BD00002DE9F04F96
:1021B00087B0044614216846FEF7BCF9A848DFF84A
:1021C0009C8210380221D4F800C0A54B0322DFF80E
:1021D00094A200258F0606154FF04009C4456DD125
:1021E000D3F800C04CF4002CC3F800C01B6803F403
:1021F00000230593036843F001030360036803F0C1
:1022000001030593036843F00403036000688B46F1
:1022100000F0040005900120CDE900010320CDE984
:1022200002504FF008086946CDF810805046FEF77E
:1022300083FD7000CDE9000B0320CDE90250694613
:10224000CDF810808848FEF777FDDFF824A2874993
:102250005046CAF80010C0E90175C0E90356CAF833
:102260001450CAF81850CAF81C50CAF82050B0468A
:10227000CAF82450FEF7ACFC08B1FEF716FB7D4E01
:10228000C4F838A0CAF83840C6E903587561B5618A
:102290007648F56135623030756286E881023046F5
:1022A000FEF796FC08B1FEF700FB666300221146BC
:1022B0003420B463FEF7D8FE34205BE0DFF8B88149
:1022C0004FF0070EC4455AD1654B1B1DD3F800C013
:1022D0004CF0100CC3F800C01B6803F0100305930A
:1022E000036843F001030360006800F001000590FB
:1022F0004FF4C0608DE82300CDE9032E69465046B7
:10230000FEF71AFDDFF878A15C495046CAF80010C4
:10231000C0E90175C0E90356CAF81450CAF818504C
:10232000CAF81C50CAF82050B846CAF82450FEF724
:102330004FFC08B1FEF7B9FA524FC4F838A0CAF8FA
:102340003840C7E903567D61BD614C48FD613D627F
:1023500078307D6287E801033846FEF739FC08B122
:10236000FEF7A3FA6763002211462520BC63FEF73F
:102370007BFE2520FEF76AFE07B0BDE8F08FDFF890
:102380000881C445F8D1D3F800C04CF4003CC3F830
:1023900000C01B6803F400330593036843F0010396
:1023A0000360036803F001030593036843F0080327
:1023B00003600068029500F0080005900420CDE954
:1023C00000010720CDE90320884693466946504620
:1023D000FEF7B2FC0720CDF80090CDE903B0CDE9BF
:1023E000018569462948FEF7A7FCDFF8A4A01F492C
:1023F00050466031C0E90356CAF81450CAF8185064
:10240000CAF81C50B846CAF820508AE80203CAF835
:102410002450FEF7DDFB08B1FEF747FA13481D4FC5
:10242000C4F834A04830CAF838403860C7E901859C
:10243000C7E903567D61BD61FD613D6238467D623D
:10244000FEF7C6FB08B1FEF730FAA763002211467B
:102450002620BC63FEF708FE26208BE7004C0040D8
:102460004038024000000240000802404060024044
:10247000000300206003002000100140406402407F
:10248000C00300202004002000440040000C024053
:1024900080040020E004002090F83E30202B0ED174
:1024A00059B152B190F83C30012B08D0012380F88B
:1024B0003C300023036300F0D7BD012070470220A9
:1024C000704770477047000070B5044690F83D00B3
:1024D000202836D191B38AB394F83C00012830D03B
:1024E000012084F83C002162A284E2840025256456
:1024F000212084F83D00636B1348D863636B134855
:102500001864636B1248D864606B134605652668CF
:10251000606B321DFEF7C6FB21686FF0400008605B
:1025200084F83C502068143050E8001F41F08001CE
:1025300040E80012002AF5D1002070BDFFE701201D
:10254000FBE70220F9E70000E72D0008292E00082C
:10255000012D000800680349884202D10249002089
:102560000870704700440040A20100207047FEE759
:10257000214808B5016841F480010160016801F457
:1025800080010091016841F400110160006800229F
:1025900000F40010009011460D20FEF765FD0D209F
:1025A000FEF754FD002211460F20FEF75DFD0F20BF
:1025B000FEF74CFD002211461020FEF755FD1020BD
:1025C000FEF744FD002211461120FEF74DFD1120BB
:1025D000FEF73CFD002211463A20FEF745FD3A2069
:1025E000FEF734FD002211464620FEF73DFDBDE812
:1025F00008404620FEF72ABD303802402DE9F04160
:1026000086B014216846FDF795FF2D480024016827
:1026100041F080010160016801F0800105910168CD
:1026200041F004010160016801F0040105910168B5
:1026300041F001010160016801F0010105910168AB
:1026400041F002010160016801F002010591016899
:1026500041F0080101600068DFF8688000F00800C0
:102660004FF42A770590012239464046FEF75CFC7C
:10267000002210214046FEF757FC072001258DE877
:10268000310069461048FEF757FB0226009669465E
:102690000E48CDE90145FEF74FFB00970396CDE9C3
:1026A000015469464046FEF747FB102003948DE82D
:1026B000610069464046FEF73FFB06B0BDE8F08189
:1026C000303802400004024000080240000002408E
:1026D00010B58EB000240794089409940A940B94C2
:1026E0001C2168460C94FDF725FF1F484FF08041E0
:1026F0000160A721C0E9011440F2E731C0E90314E9
:102700008461FEF7EFFF08B172B6FEE74FF4805028
:10271000079007A91448FFF783F808B172B6FEE7DF
:102720001148FFF744FA08B172B6FEE70B940BA903
:102730000D480C94FEF78EFF08B172B6FEE76020DC
:1027400000904FF4FA70CDE901040C226946064866
:102750000494FFF7C6F908B172B6FEE70248FFF726
:1027600081F90EB010BD0000A401002010B58EB09C
:1027700000240794089409940A940B941C21684639
:102780000C94FDF7D7FE1F481D490160A721C0E941
:10279000011440F2E731C0E903148461FEF7A2FF9F
:1027A00008B172B6FEE74FF48050079007A91548AC
:1027B000FFF736F808B172B6FEE71248FFF7F7F9EF
:1027C00008B172B6FEE70B940BA90E480C94FEF705
:1027D00041FF08B172B6FEE7602000904FF4FA7036
:1027E000CDE901040C22694606480494FFF779F903
:1027F00008B172B6FEE70348FFF734F90EB010BD1A
:1028000000040040EC010020FEE7FEE7C20F0028B4
:1028100000DA404201B20848642901DD052104E0E4
:10282000322901DD022100E00121C16102484FF49B
:10283000FA63643000F094BEBC000020C20F002890
:1028400000DA404201B20848322901DD022104E0E9
:10285000082901DD012100E00021C16102484FF497
:102860007A73643000F07CBEBC000020FDF72ABD06
:10287000FDF7FABC0A4601460148FFF725BE0000F5
:1028800034020020017521B10022818B8069FEF79E
:102890004BBB0122F9E70000034A1070D1700521FB
:1028A0001046FFF7E7BF0000EB000020C26A8A4233
:1028B00000D21146104A036AB2FBF1F11B684A1EAE
:1028C000DA62036ADA60426A4AB1042A0CD0006A0A
:1028D000082A4FEA510100680BD001647047006A72
:1028E0004908006841637047006A490800688163CD
:1028F0007047C1637047000040420F0010B50446A6
:10290000D4E90801FFF7FCF9206A0068016A41F286
:102910001112114207D1016A9210114203D10168CC
:1029200021F001010160216A002009684862216AE2
:10293000801E0968086110BD01F0E0BC30B593B09D
:1029400030216846FDF7F6FD14210CA8FDF7F2FDD5
:102950001D480025016841F080510160006800F0C9
:10296000805011901948016841F48041016000686D
:10297000022400F480401190012003901020049064
:10298000009406940820CDE90750A820CDE9090459
:1029900004200B906846FEF7A5FC08B172B6FEE76E
:1029A0000CA90F2081E831004FF4A0500F904FF494
:1029B0008050109005210CA8FEF788FB002801D05C
:1029C00072B6FEE713B030BD4038024000700040E0
:1029D0000248016841F470010160704788ED00E031
:1029E0000148FEF78CBF0000A40100200148FEF75B
:1029F00086BF0000EC0100200148FEF780BF000008
:102A000040050020F0B50268254C264D264E274F84
:102A1000274B4FF0804CA04209D0604507D0A84218
:102A200005D0B04203D0B84201D0984204D122F080
:102A3000700E4A6842EA0E02A0421BD0604519D0CF
:102A4000A84217D0B04215D0B84213D0984211D046
:102A5000184DA8420ED0184DA8420BD0174DA842D1
:102A600008D0174DA84205D0164DA84202D0164DE9
:102A7000A84203D122F44075CA682A434D6922F066
:102A800080022A4302608A68C2620A688262A042A7
:102A900001D0984201D10969016301214161F0BD72
:102AA000000001400004004000080040000C00400D
:102AB0000004014000400140004401400048014042
:102AC00000180040001C00400020004010B501F03C
:102AD0001F030121046A99408C430462016A9A40F1
:102AE0001143016210BD10B5846842EA032224F448
:102AF0007F440A432243826010BD826822F0700244
:102B00000A4342F00701816070470000F0B5026A95
:102B100022F001020262036A42688469124E24F0C4
:102B200073050C682C4323F002058B682B430D4D75
:102B3000A84201D0B04205D123F00807CB683B433F
:102B400023F00403A84201D0B04205D14D6922F41C
:102B5000407215438A692A4342608461496841632F
:102B60000362F0BD0000014000040140F0B5026ABC
:102B700022F010020262026A436884690D6824F43C
:102B8000E64444EA05248D6822F0200242EA051258
:102B90000F4D104EA84201D0B04206D1CF6822F0AE
:102BA000800242EA071222F04002A84201D0B0425D
:102BB00007D14D6923F4406343EA85038D6943EAF5
:102BC000850343608461496881630262F0BD00004F
:102BD0000000014000040140F0B5026A22F4807256
:102BE0000262026A4368C46922F4007224F0730529
:102BF0000C68124E2C438D6842EA05220E4DA84205
:102C000001D0B04206D1CF6822F4006242EA072226
:102C100022F48062A84201D0B04207D14D6923F46A
:102C2000405343EA05138D6943EA05134360C461C9
:102C30004968C1630262F0BD000001400004014028
:102C400030B5026A22F480520262046A4268C369A3
:102C50000D6823F4E64343EA05238D6824F4005409
:102C600044EA0534084DA84202D0084DA84204D1D8
:102C70004D6922F4804242EA85124260C36149688C
:102C80000164046230BD0000000001400004014006
:102C900010B5036A046A24F001040462846924F014
:102CA000F00444EA021423F00A020A438461026237
:102CB00010BD10B5036A23F0100303628369046A30
:102CC00023F4704343EA023224F0A00343EA0111E3
:102CD0008261016210BD000010B50448FFF700F9E1
:102CE000BDE81040014800F037BA0000340200206F
:102CF00010B5806B0021C185C184FFF7EFF810BDCE
:102D000070B5846B2068406994F83D10C0F3C01022
:102D10000025212904D118B1E584204600F0B0F83F
:102D20002068406994F83E10C0F38010222904D135
:102D300018B1E585204600F07CF8206C40F01000CA
:102D400020642046FFF7CAF870BD10B50146806BBD
:102D500009680968C9052FD40021C18501680C31B3
:102D600051E8002F22F4807241E80023002BF5D1B6
:102D70000168143151E8002F22F0010241E80023DC
:102D8000002BF5D10168143151E8002F22F04002E8
:102D900041E80023002BF5D1202180F83E10016B83
:102DA000012909D101680C3151E8002F22F01002ED
:102DB00041E80023002BF5D1016B012902D0FFF778
:102DC00080FB10BD818DFFF750F810BD10B5806BF2
:102DD000016B012902D0FFF775FB10BD818D4908F9
:102DE000FFF743F810BD10B50146806B096809680C
:102DF000C90516D40021C1840168143151E8002F9F
:102E000022F0800241E80023002BF5D101680C314B
:102E100051E8002F42F0400241E80023002BF5D199
:102E200010BDFFF797FB10BD10B5806BFFF79EFB41
:102E300010BD01680C3151E8002F22F4907241E876
:102E40000023002BF5D10168143151E8002F22F046
:102E5000010241E80023002BF5D1016B012909D1C2
:102E600001680C3151E8002F22F0100241E80023E4
:102E7000002BF5D1202180F83E100021016370471E
:102E800001680C3151E8002F22F0C00241E8002314
:102E9000002BF5D1202180F83D10704708B590F83F
:102EA0003E10222901D0022008BD82684FF48053D1
:102EB0009A4201D1016921B1816A9A421BD04AB17B
:102EC0000AE00268816A5268C2F308020A80816AD5
:102ED000891C08E0026972B10268526802F07F0240
:102EE0000A70816A491C8162C18D491E0904090C5E
:102EF000C18503D019E002685268F1E70168CA6829
:102F000022F02002CA600168CA6822F48072CA6096
:102F100001684A6922F001024A61202180F83E10CE
:102F2000016B012903D0FFF7CCFA002008BD002176
:102F3000016301680C3151E8002F22F0100241E8D2
:102F40000023002BF5D101680A68D20602D50A6871
:102F500049680091818DFEF788FFE6E770B5044669
:102F600000680169E26821F440511143016121695F
:102F7000A068E26908436169114308432168CA688F
:102F800049F20C639A430243CA6020684169A2690E
:102F900021F440711143416131492068884202D0D7
:102FA0003049884202D1FEF75BF901E0FEF748F9AB
:102FB000E2690023192164253226B2F5004F6268C8
:102FC00028D0A0FB0101930F9200FDF7CDF9014637
:102FD000B0FBF5F06FF01802504301EB800006EBF8
:102FE0000010B0FBF5F000F0F002B1FBF5F002EBE1
:102FF0000012B1FBF5F06FF01803584301EB8000AD
:1030000006EB0010B0FBF5F000F00F002168104453
:10301000886070BDA0FB010192185B41FDF7A4F927
:103020000146B0FBF5F00201B1FBF5F06FF01803BB
:10303000584301EB800006EBC000B0FBF5F000F058
:10304000F80002EB4002B1FBF5F0584301EB8000C1
:1030500006EBC000B0FBF5F000F00700D6E700007B
:10306000001001400014014038B5816282850025BE
:10307000134604460564222084F83E00A26B1C48D7
:10308000D063A26B1B481064A26B1B48D064A06B7A
:103090000A4605652168A06B091DFDF703FE20683F
:1030A00001684068009084F83C50206948B120686D
:1030B0000C3050E8001F41F4807140E80012002AF3
:1030C000F5D12068143050E8001F41F0010140E8BC
:1030D0000012002AF5D12068143050E8001F41F09A
:1030E000400140E80012002AF5D1002038BD000060
:1030F0004B2D0008CD2D0008012D000810B50C4601
:10310000802900D98024014622460548FDF7A3F90D
:103110002246BDE8104002490248FFF7D5B9000039
:10312000F43501207802002010B50448FEF7D8FEDF
:10313000BDE81040014800F00FB800007802002000
:1031400010B50448FEF7CCFEBDE81040014800F081
:1031500003B80000BC02002038B53849884220D1AD
:1031600009680A68D243D2061BD4086848680090F0
:103170003248FEF77BFE3248006840683149C0F1B2
:103180008000C4B2802201F18000FDF764F9FDF7F0
:10319000DDFA21462B48FDF7ABF980222949274863
:1031A00046E02949884220D109680A68D243D206FC
:1031B0001BD40868486800902348FEF757FE234850
:1031C000006840682249C0F18000C4B2802201F149
:1031D0008000FDF740F9FDF709FB21461C48FDF78B
:1031E00087F980221A49184822E01A49884223D1D7
:1031F00008680168C943C9061ED401684068009088
:103200001448FEF733FE1448006840681349C0F1C3
:103210008000C4B2802201F18000FDF71CF9FDF7A7
:1032200017FB21460D48FDF763F90949094880223B
:10323000BDE83840FFF730B938BD00007802002003
:10324000C0030020F4320120BC020020E004002072
:10325000F43301203402002000030020F434012064
:10326000FEE70907090E002804DB00F1E02080F8E2
:103270000014704700F00F0000F1E02080F8141DEA
:1032800070470A2000F0DEFEFBE70A2000F0DAFEBD
:10329000FBE70000044B08B1012200E000221021EE
:1032A0001846FDF741BE00000004024010B5074C6F
:1032B0006068012809D120700146204600F076F9A7
:1032C0000020FFF7E7FF0020606010BDB000002085
:1032D00010B5074C6068022809D1207001212046F2
:1032E00000F064F90020FFF7D5FF0020606010BDFA
:1032F000B000002010B5074C6068032809D1207089
:103300000121204600F052F90020FFF7C3FF002002
:10331000606010BDB000002010B5074C6068042844
:1033200009D120700121204600F040F90020FFF76C
:10333000B1FF0020606010BDB00000201CB5FDF79B
:1033400007FEFFF7FBFAFFF759F9FFF711F9FFF74F
:10335000BFF9FFF70BFA364834494FF4E136002441
:103360000160C0E901640C25C460C0E904458461C2
:10337000C461FEF7E9FE08B172B6FEE72C482D499C
:1033800044300160C0E90164C460C0E9044584615F
:10339000C461FEF7D9FE08B172B6FEE7244826499B
:1033A00044380160C0E90164C460C0E90445846137
:1033B000C461FEF7C9FE08B172B6FEE700F0ECFC8E
:1033C0006420FDF7A7FC01210846FFF765FA0220FB
:1033D0001A49C501CDE9000100232A4618A11C485D
:1033E00001F004F9154901200839CDE90001002355
:1033F000802218A11A4801F0F9F810480324001F90
:10340000CDE9004000232A4616A1194801F0EEF844
:103410000A480023001DCDE90040802215A118486C
:1034200001F0E4F800F082FEFEE700000010014029
:103430007802002000440040004C004008000020BA
:103440006465636973696F6E5F7461736B0000001C
:103450008332000875736172745F7461736B00006E
:10346000293E00086D6F746F725F7461736B0000AA
:1034700085340008647261775F7461736B000000CB
:103480008B320008314D324CDFF8C890324E334F4A
:103490004FF00008287840B1012823D002282ED010
:1034A000032839D0042840D04CE0217829B120707D
:1034B0002848FFF723FA89F83080B6F90000B7F9F9
:1034C000001050EA010202D0FFF7A0F93AE02148CB
:1034D000FFF714FA89F830800120FFF7DBFEFF20A8
:1034E00028702FE00020FFF7D5FE287820704FF4D9
:1034F0007A710B460022174800F032F822E021785A
:10350000022905D020701348FFF7F8F989F83080B8
:103510000120FFF7BFFE0FE0002007E020700D48FC
:10352000FFF7ECF989F8308006E00120FFF7B2FEE2
:10353000217828788142F1D1B7F90010B6F900005E
:10354000FFF77CF90A2000F07DFDA3E79C00002036
:10355000AD00002020010020A2000020A4000020D7
:1035600070B5044690F830001E460D4600281CD168
:10357000002D1AD011462046FFF784F90020C4E937
:10358000025031462046FFF791F9012084F83000BF
:10359000216AC01E09680861206AFEF701F9D4E9B2
:1035A0000801BDE87040FEF731BB70BD70B50D4637
:1035B0000146012D14D80B4C5520A4F10D022070AA
:1035C00090786070401C90702A46A01CFCF743FF66
:1035D0000D20E070E91C2046BDE87040FFF78EBD6D
:1035E00070BD0000A90000202DE9F0411E4C0F46DF
:1035F0000546E6682068001D00F028FC38B9206800
:1036000090F82C1001208840216981432161681CB9
:1036100015D1A7B11549226848689060236882686F
:10362000DA6022688368121D5A602268121D826067
:10363000206841610868401C0860BDE8F08120688E
:103640003544B5424560216805D2E06BBDE8F041E4
:10365000091D00F01CBCA06B091D00F018FCA06A3D
:103660008542EAD2A562E8E7200000207C0600201F
:103670002DE9F041054600F023FC364CA068401CC3
:10368000A0602068344F10B1606940B32DE0256020
:10369000A068012829D1002606EB860007EB8000F0
:1036A00000F0E7FB761C052EF6D32B48643000F0C3
:1036B000E0FB2948783000F0DCFB27488C3000F034
:1036C000D8FB2548A03000F0D4FB2348B43000F0EC
:1036D000D0FB21486430A0631430E06305E020682B
:1036E000E96AC06A884200D82560606A401C60624E
:1036F0002864E96A0120226988401043206101EBB7
:10370000810007EB80004068A8608168E9608268FA
:10371000291D51608160E86A00EB800007EB8001A1
:10372000696157F82010491C47F8201000F0E8FBA9
:10373000606900280CD02068E96AC06A884207D214
:1037400006494FF080500860BFF34F8FBFF36F8F73
:10375000BDE8F08120000020C805002004ED00E055
:1037600010B500F0ADFB0E4C2068A0B90D4800F07C
:1037700080FB0C48143000F07CFB0A48E0601430F9
:10378000206100220C210A2000F0CEFD206010B143
:1037900005A100F00DFCBDE8104000F0B1BB000039
:1037A0006000002090060020546D7251000000005F
:1037B00030B4026C0B46002A0BD0C1681144C160C2
:1037C0008468A14201D30168C16030BC1846FCF78F
:1037D00042BE30BC704710B50446006B00F0A4FB3D
:1037E0002046BDE8104000F09FBB00000E484FF49B
:1037F0009631420706D0C01D0B4920F00700411A40
:10380000C1F59631094A00230144C2E90003083991
:10381000143A21F0070111604B600B600B1AC0E9EC
:103820000013936053607047B80600209400002096
:10383000144E154CA6F1A0074FF08058DFF84C90BD
:1038400012E000BF00F03CFBF068C568281D00F0E6
:10385000FDFAA068401EA0606068401E606000F035
:103860004FFB2846FFF7B7FF60680028EAD13868A9
:103870000128F9D9C9F80080BFF34F8FBFF36F8FCC
:10388000F2E70000680600202000002004ED00E0C0
:103890002DE9F0470D46DDE909841746824691007F
:1038A0009946089EA522206BFCF71AFE6FF00301D3
:1038B000206B01EB8701084420F00707780707D049
:1038C000502080F31188BFF34F8FBFF36F8FFEE757
:1038D00065B100202218295C82F83410295C11B1EE
:1038E000401C0A28F6D3002084F83D00052E07D39B
:1038F000502080F31188BFF34F8FBFF36F8FFEE727
:10390000E662201DA66400F0BFFA04F1180000F082
:10391000BBFA2461C6F105006462A0614A465146C3
:10392000384600F023FA2060B8F1000F01D0C8F843
:103930000040BDE8F087000030B5114900E01146B5
:103940000A688242FBD34B685C18844203D140680A
:1039500018444860084643681C18944209D1084C32
:10396000143C2468A24209D052681A4442600A6892
:1039700012680260814200D0086030BD0460F9E73F
:103980009400002070B5002441600B4D006191420D
:1039900006D8D11A8269914206D2011D286907E032
:1039A0009A4203D2994201D3012403E0011DE86841
:1039B00000F06DFA204670BD6000002010B504468E
:1039C00000F07EFAA06B28B15FF0000400F098FAD6
:1039D000204610BD0124F9E770B506460D480D4696
:1039E000C068C068C468201D00F030FA94F8280050
:1039F000410705D52A463146204600F0B5F803E0D8
:103A000000F0FE0084F828002046216ABDE87040DE
:103A100008470000600000207FB5374E63E0009843
:103A2000002860DB029C606910B1201D00F00EFAD6
:103A300003A800F0BBF8054600980A2853D2DFE837
:103A400000F0520505282E460505282E94F828007A
:103A50002A4640F0010084F828000199A069019BE2
:103A600001442046FFF78EFF40B394F82800410739
:103A700007D50198A1692A460144204600F074F850
:103A800003E000F0FE0084F82800216A2046884701
:103A900029E014F8280F00F0FE00207023E094F8CD
:103AA000280040F0010084F828000198A06130B19E
:103AB00041192B461A462046FFF764FF13E05020B9
:103AC00080F31188BFF34F8FBFF36F8FFEE794F839
:103AD0002800810703D4204600F026FA03E000F016
:103AE000FE0084F8280000226946306800F0A4FC3B
:103AF000002894D17FBD000060000020F8B50D467D
:103B0000064600F04BFB684600F050F8044600986B
:103B100010B100F0B7FEF8BD1148ADB101690968F8
:103B2000D9B10025311B2A46006800F069FA00F07F
:103B3000A9FE0028EFD10B494FF080500860BFF379
:103B40004F8FBFF36F8FF8BDA642EBD800F09AFEFF
:103B500021463046FFF740FFF8BD0125E2E70000AF
:103B60006000002004ED00E070B516460C460546E6
:103B700004E0A869296A044428468847A8692346BE
:103B8000011932462846FFF7FDFE0028F1D170BD2D
:103B90000548816B096821B1816BC9680968816238
:103BA00070474FF0FF31FAE7200000202DE9F04187
:103BB000064600F057FD0E4C0546A068854214D21B
:103BC0004FF0FF3704E0C06839460068FFF704FF94
:103BD000E06801680029F6D12169C4E903100120D9
:103BE00030602846A560BDE8F0810020F8E70000BD
:103BF0006000002008484068401C4FF0500080F3EF
:103C0000118804D0BFF34F8FBFF36F8FFEE7BFF370
:103C10004F8FBFF36F8FFEE774000020074CE06802
:103C2000016841B1C0680021D0F80000FFF766FFCD
:103C3000FFF7F2FEF3E701210020F7E76000002024
:103C40002DE9F041044600F03BF994F9455004F1A8
:103C5000240609E0606A48B1304600F0A5FD08B1CD
:103C600000F01EFA6D1E6DB2002DF3DC4FF0FF3632
:103C700084F8456000F044F900F022F994F94450CA
:103C800004F1100709E0206948B1384600F08CFDC6
:103C900008B100F005FA6D1E6DB2002DF3DC84F85A
:103CA0004460BDE8F04100F02BB9000070B5044657
:103CB000002600F073FA2C4D286808B9FFF796FD2E
:103CC0007CB304F00700C0F11000C1438C423DD822
:103CD000211800293ADD6868814237D8224814301B
:103CE0000246146801E02046144662688A4202D205
:103CF0002268002AF7D12A68944227D006682268F1
:103D0000026060680836421A102A0FD9601843070B
:103D100008D0502080F31188BFF34F8FBFF36F8F0F
:103D2000FEE713E042606160FFF706FE61686868C5
:103D3000401A6860AA68904200D2A86041F0004032
:103D4000606000202060E868401CE86000F09AFD98
:103D5000700707D0502080F31188BFF34F8FBFF357
:103D60006F8FFEE7304670BD8000002010B5031F46
:103D70004FF080741C601B1F21F001011960191F96
:103D8000044B0B6014390A60091F6FF002024438BB
:103D90000A6010BDF53B00081A4810B50068C168FC
:103DA00041F01001C16018480068016841F010013D
:103DB0000160802215491348FEF76EFB1448006825
:103DC000C16841F01001C16012480068016841F00B
:103DD00010010160802210490D48FEF75DFB0F487D
:103DE0000068C16841F01001C1600D4800680168B9
:103DF00041F010010160BDE81040802209490748E8
:103E0000FEF74ABB7802002020040020F432012093
:103E1000BC02002080040020F43301203402002082
:103E200060030020F4340120074C206838B9FFF704
:103E30003DFAFFF74DFAFFF75DFAFFF76DFA0A203A
:103E400000F000F9F1E70000B8000020D0E90132ED
:103E500001699A60D0E901235A604A68824201D11F
:103E600082684A60002202610868401E0860086893
:103E7000704700F108014FF0FF32C0E90112C16044
:103E8000016100210160704700210161704730B578
:103E90000B685A1C02D000F1080202E0026904E03B
:103EA0002246546825689D42FAD953684B60996050
:103EB0008A60516008610168491C016030BD0000E2
:103EC000502080F31188BFF34F8FBFF36F8F0A49E3
:103ED0004868401C486001280CD10848006810F070
:103EE000FF0F07D0502080F31188BFF34F8FBFF32F
:103EF0006F8FFEE7704700007400002004ED00E0C3
:103F00000849486828B1401E486001D180F31188F3
:103F10007047502080F31188BFF34F8FBFF36F8F2E
:103F2000FEE700007400002070B500282AD0A0F140
:103F300008046068002807DB502080F31188BFF375
:103F40004F8FBFF36F8FFEE7216839B1502080F3A8
:103F50001188BFF34F8FBFF36F8FFEE720F0004053
:103F6000606000F01BF9084D60686968084468608B
:103F70002046FFF7E1FC2869401C2861BDE870403D
:103F800000F080BC70BD0000800000204FF0E020F9
:103F900000210161816105494FF47A720968B1FB22
:103FA000F2F1491E41610721016170471C000020A8
:103FB00070B5002260B100291ED0104C002300BF54
:103FC00004EBC3056E6886420AD104EBC3020FE01E
:103FD000502080F31188BFF34F8FBFF36F8FFEE740
:103FE0001AB954F8336006B92A465B1C082BE7D38C
:103FF000002A01D0C2E9001070BD00008805002031
:1040000070B515460E460446FFF75AFF94F9441062
:104010000020491C01D184F8440094F94510491C42
:1040200001D184F84500FFF76BFFA06B28B92A4641
:10403000314604F1240000F051F82046BDE87040FC
:10404000FFF7FEBD10B5020014D00F48406B38B129
:10405000502080F31188BFF34F8FBFF36F8FFEE7BF
:1040600000F09CF800211046FFF7BEFA00F00AFCB1
:10407000002807D105494FF080500860BFF34F8FEB
:10408000BFF36F8F10BD00002000002004ED00E0A2
:1040900002490A6A0260C968416070472000002036
:1040A00001490120C86170472000002010B50C466E
:1040B00050B1094909681831FFF7E9FE2046BDE80B
:1040C00010400121FFF790BA502080F31188BFF310
:1040D0004F8FBFF36F8FFEE720000020F0B40C4637
:1040E000D0B1114943680D68EB619D680E68356277
:1040F0000D689E68183575600D6818359D600968F3
:1041000088620168491C01600AB14FF0FF34204603
:10411000F0BC1146FFF768BA502080F31188BFF356
:104120004F8FBFF36F8FFEE7200000207CB517484C
:104130000025CDE900502B46822215A1164800F03B
:1041400055FA124C2C3C012803D100F031FC012817
:1041500002D0401C11D00EE0502080F31188BFF334
:104160004F8FBFF36F8F4FF0FF30A062012060616F
:10417000E56000F049F8206B7CBD502080F3118889
:10418000BFF34F8FBFF36F8FFEE700004C0000209E
:1041900049444C4500000000313800080248416B9A
:1041A000491C416370470000200000201448416B07
:1041B00011B10121C16170470021C1610169B1FAEA
:1041C00081F1C1F11F0101EB81020E4951F822304A
:1041D0006BB101EB820101F108034A6852684A6041
:1041E0009A4201D152684A60D168016070475020FC
:1041F00080F31188BFF34F8FBFF36F8FFEE700008E
:1042000020000020C80500201CB537480168374A47
:10421000914207D1502080F31188BFF34F8FBFF335
:104220006F8FFEE700683149491E884207D1502050
:1042300080F31188BFF34F8FBFF36F8FFEE72C49D8
:1042400008780190FF20087008788DF800009DF82C
:1042500000009DF8002000F0F000904207D05020B0
:1042600080F31188BFF34F8FBFF36F8FFEE79DF888
:104270000000204C00F0500020700720A06005E0F6
:104280009DF8002052008DF80020401E9DF800206F
:104290001206F5D4A060032807D0502080F31188BF
:1042A000BFF34F8FBFF36F8FFEE74FF44070A060F6
:1042B000019808700C482030016841F470010160D9
:1042C000016841F070410160FFF760FE002060600E
:1042D000FBF7EEFF0848016841F040410160FBF741
:1042E000D3FF00201CBD000000ED00E071C20F41B3
:1042F00000E400E07400002034EF00E010B550202E
:1043000080F31188BFF34F8FBFF36F8F00F0B0F9C8
:1043100018B104494FF080500860002080F31188E4
:1043200010BD000004ED00E02DE9F04117460E46F7
:10433000050020D04FF0FF30B0FBF5F0B0421AD3AB
:1043400005FB06F010F1510F15D85030FFF7AEFC09
:1043500004000CD004F150005EB12060C4E90F5697
:104360002046012100F010F8204684F84C70BDE88A
:10437000F0812460F2E7502080F31188BFF34F8F63
:10438000BFF36F8FFEE700002DE9F0410F460400F8
:104390004FF001062DD0E06B98B3B51EB5FBF0F1E0
:1043A000206C81423ED3FFF78BFDD4E90F202168BA
:1043B00002FB0011A1600021A163216861600A462F
:1043C000D4E90F01401E00FB01212046E16000F806
:1043D000445F457004F11000A7B1FFF74AFD04F1F6
:1043E0002400FFF746FD00BFFFF78AFD3046BDE819
:1043F000F081502080F31188BFF34F8FBFF36F8F90
:10440000FEE70FE021690029EED000F0CDF9002889
:10441000EAD008494FF080500860BFF34F8FBFF3D8
:104420006F8FE1E7502080F31188BFF34F8FBFF308
:104430006F8FFEE704ED00E02DE9F747002683B01B
:104440008A46040003D0BAF1000F08D011E05020D2
:1044500080F31188BFF34F8FBFF36F8FFEE7206C9F
:1044600038B1502080F31188BFF34F8FBFF36F8FA7
:10447000FEE700F0E9F8DFF8F4804FF000094FF0B4
:10448000805748B9059838B1502080F31188BFF3A0
:104490004F8FBFF36F8FFEE7FFF712FDA56BC5B11E
:1044A00051462046FFF784F96D1EA563206950B17F
:1044B00004F1100000F078F928B1C8F80070BFF3DB
:1044C0004F8FBFF36F8FFFF71BFD012006B0BDE8D4
:1044D000F087059808B11EB106E0FFF711FD27E04F
:1044E0006846FFF7D5FD0126FFF70AFDFFF756FEE8
:1044F000FFF7E6FC94F94400401C01D184F8449095
:1045000094F94500401C01D184F84590FFF7F8FC70
:1045100005A9684600F02CF8002820460AD0FFF7CD
:104520008FFB00F0AFF92046FFF748FA0028B3D020
:104530000020CBE7FFF742FA90B104F1240005997F
:10454000FFF7B4FD2046FFF77BFB00F09BF9002846
:10455000A2D1C8F80070BFF34F8FBFF36F8F9BE7F6
:104560002046FFF76DFB00F08DF995E704ED00E0C4
:104570002DE9F0410C46050014D0DCB1FFF7A0FC9A
:10458000194EF2686B682068D11A471C1AD02F6840
:10459000D6F820C00026674516D0934214D80125CE
:1045A00026601BE0502080F31188BFF34F8FBFF3CC
:1045B0006F8FFEE7502080F31188BFF34F8FBFF35A
:1045C0006F8FFEE7002509E0884205D9401A206078
:1045D0002846FFF75DFDF5E701252660FFF790FC13
:1045E0002846BDE8F0810000200000202DE9FF5F93
:1045F0008346DDE90E87994616468A469000FFF706
:1046000055FB05001DD05820FFF750FB040015D0C6
:104610005821FBF78FFF25630021CDE90241CDE949
:1046200000874B46324651465846FFF731F920463F
:10463000FFF71EF8012004B0BDE8F09F2846FFF701
:1046400073FC4FF0FF30F6E70548416919B1406B44
:1046500018B1002070470120704702207047000009
:10466000200000200148C0687047000020000020A2
:104670002DE9F0414A4C0026606B28B1A069401C2E
:10468000A0613046BDE8F081E5686D1CE56013D19E
:10469000A06B006838B1502080F31188BFF34F8FB2
:1046A000BFF36F8FFEE7A06BE16BA163E063206A4D
:1046B000401C2062FFF76CFAA16A3A488D420FD382
:1046C0004FF0000EA16B096839B1A16BC968C968C8
:1046D0004A68954212D2A26202E04FF0FF31A16215
:1046E0002168C96A01EB810150F82100012800D935
:1046F0000126E0690028C4D00126C2E7D1E9027290
:104700004B69BA60D1E902277A605F680A1D974257
:1047100001D1CF685F60C1F814E01F687F1E1F6081
:10472000D1F828C0BCF1000F15D0D1E907379F6040
:10473000D1E907377B60DCF8047001F118039F4270
:1047400002D10B6ACCF80430C1F828E0DCF8003064
:104750005B1ECCF80030CB6A0127D4F810C09F4014
:1047600047EA0C07276103EB830300EB83035B68D5
:104770008B609F68CF609F687A609A60CA6A02EB1C
:10478000820200EB82034B6150F822305B1C40F840
:104790002230C96A2268D26A914293D9012691E7F0
:1047A00020000020C805002070B5C068C06850B364
:1047B000D0E90732816A9A60D0E907235A604A68D3
:1047C00000F118039A4201D1026A4A60002585620D
:1047D0000A68521E0A6029494A6B0124DAB1284D41
:1047E0006A68C261966806629668736093608562C3
:1047F0002A68521C2A60C06A0A68D26A90423AD972
:104800000120CC6170BD502080F31188BFF34F8F21
:10481000BFF36F8FFEE7D0E902634269B360D0E96E
:10482000023673605668031D9E4201D1C668566009
:10483000456115686D1E1560C26A0E6904FA02F5BD
:1048400035430D610E4D02EB82028C3D05EB820279
:10485000526882609668C660966873609360C26AA8
:1048600002EB820205EB8203436155F822305B1CA8
:1048700045F82230BFE7002070BD00002000002076
:10488000540600202DE9F041464D00242746686B70
:1048900038B1FFF715FB686B401E6863686B40B169
:1048A0007AE0502080F31188BFF34F8FBFF36F8FF2
:1048B000FEE7A8683C4B00264FF00108F0BB6BE018
:1048C000D868C468D4E90721A06A9160D4E90712C6
:1048D0005160426804F118018A4201D1216A4160A5
:1048E000A6620168491E0160D4E9022160699160F5
:1048F000D4E9021251604268211D8A4201D1E26866
:10490000426066610268521E0260E26AD5F810C019
:1049100008FA02F040EA0C00286102EB8200224A09
:104920008C3A02EB80004068A060D0F808C0C4F860
:104930000CC0D0F808C0CCF8041000E012E0816090
:10494000E06A00EB800002EB8001616152F8201008
:10495000491C42F82010E06A2968C96A884201D3DC
:10496000C5F81C8018680028AAD10CB1FFF710F90F
:10497000AC693CB1FFF77CFE08B1C5F81C80641E31
:10498000F8D1AE61E86938B10849012738070860F5
:10499000BFF34F8FBFF36F8FFFF7B2FA3846BDE812
:1049A000F0810000200000205406002004ED00E00B
:1049B0001CB5FEF7D5FE0D48006868B10B49022012
:1049C000091DCDE9000100234FF4827208A10A48B5
:1049D000FFF70CFE002807D1502080F31188BFF3A9
:1049E0004F8FBFF36F8FFEE71CBD000060000020FB
:1049F000546D7220537663001D3C000821F0004284
:104A0000A2F16052B2F5801F01F0004328BFD2F13D
:104A10007F6C0BD95FEA001C43EAC20242EB507084
:104A200018BF704728BF20F001007047B2F5801F03
:104A3000BCBF184670474FEA410C1CF5001F02D25C
:104A4000084600F022B970B500F0C6F800000089F1
:104A5000FFF7F6BF4FF00040A0F580007047B0FAB6
:104A600080F310FA03F10AD0C3F11D0303F580634C
:104A70004FEA41504FEA035202EBD12170474FF009
:104A800000007047DFF848C170B51CEA111E1EBF58
:104A90001CEA13159EEA0C0F95EA0C0F00F06F80CC
:104AA00081EA030423EA4C134EEAD47E21EA4C1136
:104AB00041F4801143F48013AE44A1FB024CA0FBEF
:104AC0000365AEF17F7E361955EB0C05A1FB034C57
:104AD0004CF10003A0FB021C16EB0C06654153F1E0
:104AE0000003094218BF46F0010613F4007F0BD102
:104AF0004FEA03314FEA0530340341EA155140EAE9
:104B000016506FF003020AE04FEAC3214FEAC520B6
:104B1000F40241EA555140EA56506FF0020202EBAE
:104B20002E4201EB025585EACE710AD05FEA440CB1
:104B300018BF24F0004450F1000041F1000120EAC8
:104B4000D47040F2FE7C624500D270BDA84214BF12
:104B50004FF080444FF04044002E08BF0024BEF1C7
:104B6000806FA8BFA1F1C041BDE8704080F2828093
:104B70004FF0000001F1C04101F0004170479EEA92
:104B80000C0F0CEA131518BF95EA0C0F06D04FF066
:104B9000000081EA030E0EF0004170BD00F01CF829
:104BA0008900013E00F007B800F009B84FEA430C55
:104BB0005FEA5C5C08D081EA030100F05BB84FEA71
:104BC000410C5FEA5C5CF6D14FF000000149704790
:104BD0000000FF070000F87F0EF1020E2EF0030E1A
:104BE0005EF8046B364205D4012A43EB030515F544
:104BF000001F12D8012841EB010C1CF5001F0CD836
:104C00000ED14FEAD17C15F5001F0CEB4C0C0CF1CA
:104C1000020C08BF4CEBD37C04E04FF0080C01E021
:104C20004FEAD37C0CEB4C0526FA05F606F0070696
:104C3000B6F1040C06D20EEB860CBDE870404CF0C9
:104C4000010C6047DFE80CF0090B02024FF0004155
:104C50004FF00000A1F5002170BD19461046012853
:104C600051EB010418BFD4F5001484BF002001F0FB
:104C7000004170BD0808A0F500114FEA31017047EE
:104C80004FF04070E1EE100A7047FF2141EAD0502A
:104C9000C005704700061016000610160000000040
:104CA00000000000010203040607080900000000DC
:104CB00001020304D44C000800000020A4010000FD
:104CC000C4010008384D0008A4010020343B010055
:104CD00020020008011032018210033124F402275F
:104CE000041AAA0101203AFF8EB911C9122B356BA3
:104CF000033A36034BFF66044B9C48044113FE986D
:104D00004A6B056B938805229A5905EBF3AB062194
:104D100069080921E93402408013A40133200C0FF3
:104D2000206666663D204E341122020A12EC34A23F
:084D3000FDCA6B0D110000002B
:040000050800018965
:00000001FF
