:020000040800F2
:10000000583400209D010008AB310008B5280008D5
:10001000A931000895090008593A000800000000BD
:100020000000000000000000000000002D33000868
:10003000210A000800000000293300085733000897
:10004000B7010008B7010008B7010008B7010008B0
:10005000B7010008B7010008B7010008B7010008A0
:10006000B7010008B7010008B7010008B701000890
:10007000B7010008B701000899090008A5090008A0
:10008000B7010008B7010008B7010008B701000870
:10009000B7010008B7010008B7010008B701000860
:1000A000B7010008B7010008B7010008B701000850
:1000B000B7010008B7010008BD330008B701000808
:1000C000B7010008B7010008B7010008B701000830
:1000D000B7010008F1390008B7010008B7010008AE
:1000E000B7010008B7010008B7010008DFF810D019
:1000F00000F012FC00480047654B0008AFF3008099
:1001000058340020224B19680868B0E8F00F80F3DB
:100110000988BFF36F8F4FF0000080F311884EF015
:100120000D0E70470000000006480068006880F36C
:10013000088862B661B6BFF34F8FBFF36F8F00DFE1
:1001400000BF00BF08ED00E0EFF30980BFF36F8F41
:100150000F4B1A6820E9F00F106008B54FF0BF0090
:1001600080F31188BFF34F8FBFF36F8F05F022FA32
:100170004FF0000080F31188BDE808401968086856
:10018000B0E8F00F80F30988BFF36F8F704700BFAE
:1001900054000020EFF305807047000006488047B8
:1001A00006480047FEE7FEE7FEE7FEE7FEE7FEE75C
:1001B000FEE7FEE7FEE7FEE7B9330008ED000008C2
:1001C000202A04DB203A21FA02F00021704721FAAC
:1001D00002F3D040C2F12002914008431946704713
:1001E0002DE9FE43994615468846074601AC02298B
:1001F00042D3002D40D000200290A8F101004FF022
:10020000FF36009022E000FB057201FB05701146ED
:100210004A469047002805DC54F82600304444F84C
:10022000260013E060682A4600FB057154F8040CB0
:1002300000FB057007E00B7890F800C001F801CBD7
:1002400000F8013B521E002AF5D1764254F8040C06
:1002500061688842D7DC4B462A463846FFF7C0FF24
:1002600054F8040C4B46A8EB0001401C00FB057041
:100270002A46491EFFF7B4FFBDE8FE8340EA0103AA
:100280009B0703D009E008C9121F08C0042AFAD24C
:1002900003E011F8013B00F8013B521EF9D2704710
:1002A000D2B201E000F8012B491EFBD270470022B8
:1002B000F6E710B513460A4604461946FFF7F0FF65
:1002C000204610BD421C10F8011B0029FBD1801AEA
:1002D00070472DE9FE4F804681EA0300C00F0C46AF
:1002E000009021F0004123F00045B8EB0200A94145
:1002F00005D24046214690461C460B46024623F056
:100300000040104347D0270DC7F30A00C3F30A513A
:100310000290401A019040286BDAC3F3130040F4B6
:10032000801B0098924620B10023D2EB030A63EBB6
:100330000B0B01985946C0F14002504600F01FFADD
:1003400006460D4650465946019A00F027FA10EB32
:1003500008006141002487EA115284EAE7731A43D6
:1003600040D0009A62B3019A012A4FEA075215DC85
:10037000001B61EB02014FF0004202EA0752CDE997
:100380000042001C41F5801132462B4600F05EFA17
:1003900003B0BDE8F08F40462146F9E7001B61EB52
:1003A0000201001C41F5801300185B412018A2F5E2
:1003B000001747EB030140EAD570B6196D4111E013
:1003C0006D084FEA360645EAC0754FEA0752001B32
:1003D00061EB0201001C41F5801149084FEA300031
:1003E0000019514132462B4603B0BDE8F04F00F0F2
:1003F0001EBA0098012240000023D0EB020263EBFA
:10040000E073009821464FEAE074B8EB000061EB1E
:100410000401E9E783F000435BE781F0004158E71E
:100420002DE9FE4F81EA030404F0004421F000416D
:1004300000944FF0000B23F0004350EA01045ED01B
:1004400052EA03045BD0C3F30A54C1F30A552C44A7
:10045000A4F2F3340194A0FB0254C1F3130141F45C
:100460008011C3F3130343F4801301FB024400FB28
:10047000034E840A970A44EA815447EA8357A4FB4F
:10048000076802958D0A05FB07854FEA932C04FB4C
:100490000C542705029D4FEA065847EA1637B5EB7C
:1004A00008056EEB070C870E920E47EA811742EAA9
:1004B0008312A7FB0201B6EB0B0164EB00042B0DCA
:1004C00043EA0C335E1844EB1C50DA465146E7FB16
:1004D0000201C5F313044FEA0B3343EA14534FEA06
:1004E0000432019C43EA0603A4F10C040294009C2C
:1004F000CDE900B400F0AAF903B0BDE8F08F002008
:100500000146F9E72DE9F04D81EA030404F0004BC0
:1005100021F0004514464FF0000A23F0004150EA54
:10052000050220D054EA01021DD0C5F30A57024645
:10053000C5F31303C1F31300C1F30A5640F4801549
:1005400043F48013A7EB0608101BD64608F2FD38CB
:1005500073EB050002D308F1010801E092185B413A
:10056000B8F1000F03DA00200146BDE8F08D00204D
:100570004FF48011064684460EE0171B73EB050707
:1005800005D3121B63EB050306434CEA010C490833
:100590004FEA300092185B4150EA0107EDD152EA70
:1005A000030012D082EA040083EA0501084305D063
:1005B000101BAB4106D20122002306E000224FF0BF
:1005C000004302E06FF0010253101AEB06004CEBFF
:1005D000085110EB0A0041EB0B01BDE8F04D00F0B3
:1005E00026B970B521F0004303430CD0C1F30A557E
:1005F0000024D5EB040564EB0403D617AD1AB34110
:1006000002DB0020014670BD201841EB025170BD95
:100610000EB5C10F80EAE0700844CA07002140F21D
:1006200033438DE80E000A460B4600F00FF903B085
:1006300000BD00F0004230F000400AD0C10D01F5CD
:100640006071C0F3160042EA0151C208400711432D
:10065000704700200146704730B5041E71F1000458
:1006600004DB4FF00044404264EB0101141E73F1BF
:10067000000405DB1C464FF00043524263EB0403C9
:100680008B4208BF824230BD30B5041E71F10004B8
:1006900004DB4FF00044404264EB0101141E73F18F
:1006A000000405DB1C464FF00043524263EB040399
:1006B000994208BF904230BD01F0004330B421F0B0
:1006C000004150EA010206D00A0DA2F56072C1F3A2
:1006D0001301002A02DC30BC00207047440F44EABA
:1006E000C104C100E01830BC00EBC25000F068B893
:1006F00030B50B46014600202022012409E021FAF2
:1007000002F59D4205D303FA02F5491B04FA02F5EE
:100710002844151EA2F10102F1DC30BD2DE9F05F85
:100720000546002092469B46884606468146402460
:100730001BE02846414647462246FFF741FD534607
:100740005A46C01A914110D311461846224600F06D
:1007500016F82D1A67EB01084F46224601200021AA
:1007600000F00DF817EB00094E41201EA4F1010422
:10077000DFDC484631462A464346BDE8F09F202A42
:1007800004DB203A00FA02F1002070479140C2F1E8
:10079000200320FA03F3194390407047202A06DB18
:1007A000CB17203A41FA02F043EAE07306E041FA3F
:1007B00002F3D040C2F1200291400843194670472D
:1007C0000029A8BF7047401C490008BF20F0010065
:1007D000704710B4B0FA80FC00FA0CF050EA010443
:1007E00004BF10BC704749B1CCF1200421FA04F4D5
:1007F00011FA0CF118BF012121430843A3EB0C01AE
:10080000CB1D4FEA00614FEA102042BF002010BC10
:10081000704700EBC35010440029A4BF10BC7047C0
:10082000401C490008BF20F0010010BC704710B503
:10083000141E73F1000408DA401C41F10001921803
:100840005B411A4301D120F0010010BD2DE9F04DAC
:1008500092469B4611B1B1FA81F202E0B0FA80F201
:1008600020329046FFF78BFF04460F4640EA0A000D
:1008700041EA0B0153465A46084313D0114653EA46
:10088000010019D0C8F140025046FFF799FC054617
:100890000E46504659464246FFF771FF084305D0C1
:1008A000012004E020463946BDE8F08D00200543D4
:1008B00046EAE0762C4337430A986305E40AA0EB46
:1008C00008000022FD0A44EA47540A3002D50020FD
:1008D0000146E9E7010510196941DDE908450019FC
:1008E0006941BDE8F04DA2E7C1F30A52C1F313011B
:1008F00040F2FF3341F480119A4202DA00200146AF
:10090000704740F233439A42A2F2334202DC524231
:10091000FFF756BCFFF733BF064C074D06E0E06813
:1009200040F0010394E8070098471034AC42F6D336
:10093000FFF7E0FBA8650008C86500080EB540F2A7
:10094000334102910021CDE900110A460B46FFF721
:100950007DFF03B000BD70B5C1F30A5201F0004540
:100960000024C1F3130140F2FF3341F480119A4295
:1009700001DA002070BD40F233439A42A2F23342C2
:1009800003DC5242FFF71CFC00E090402C43F1D006
:10099000404270BDFEE70000014800F0B3B800001F
:1009A00050020020014800F0ADB800000C02002009
:1009B00030B590F840500124AC40C56B6C600468C1
:1009C00063604368102B036803D099600068C260BD
:1009D00030BD9A600068C16030BD000010B50B4C9E
:1009E00020784F2805D160784B280DD108A004F05D
:1009F00039F820784E2807D160784F2804D1BDE817
:100A0000104005A004F02EB810BD000042000020E8
:100A100052494748540D0A004552524F520D0A00A0
:100A2000704772B6FEE710B590F821100022022937
:100A300005D00421816380F82020012010BD0168C9
:100A40000B6823F00E030B6001680B6823F00103B1
:100A50000B6090F84030C46B012101FA03F363602E
:100A600080F8211080F82020104610BD10B590F8B5
:100A700021100024022903D00421816301243DE0D8
:100A800001680A6822F00E020A6001680A6822F012
:100A900001020A601A4A0168914201D1012121E054
:100AA000174A1432914201D110211BE0144A283216
:100AB000914201D1891515E0114A3C32914201D190
:100AC00089140FE00E4A5032914202D14FF4803126
:100AD00008E00B4A6432914202D14FF4801101E0E8
:100AE0004FF08071064A083A5160012180F82110C8
:100AF000002180F82010416B01B18847204610BDCD
:100B0000080002402DE9F05FC16B0C6801680B68BA
:100B1000D0F840C0042202FA0CF2494DDFF824A1BB
:100B2000494E4A4FDFF828B1DFF828E122422CD0A5
:100B30005A072AD50A68920603D40A6822F00402EA
:100B40000A600168A94201D1042219E0514501D18E
:100B5000402215E0B14202D14FF4806210E0B94268
:100B600002D14FF480420BE0594502D14FF480226C
:100B700006E0714502D14FF4800201E04FF080623F
:100B80002F4908394A60C16A3BE04FF0020808FA71
:100B90000CF818EA040F4FF000094FF0010235D0AD
:100BA0005FEA837832D50B689B0605D40B6823F087
:100BB0000A030B6080F821200168A94201D10222BA
:100BC00019E0514501D1202215E0B14202D14FF484
:100BD000007210E0B94202D14FF400520BE05945C7
:100BE00002D14FF4003206E0714502D14FF40012F9
:100BF00001E04FF00072124908394A6080F82090F5
:100C0000816A00291AD0BDE8F05F0847082505FA77
:100C10000CF5254212D01B0710D50B6823F00E03EC
:100C20000B6090F84010C36B02FA01F159608263C7
:100C300080F8212080F82090016BE2E7BDE8F09F6A
:100C4000080002401C000240300002404400024004
:100C5000580002406C00024030B528B308C8134960
:100C600014221944B1FBF2F18900C1631049816378
:100C7000022141771A6843F6F0718A43D0E90014E3
:100C80002143D0E902452C432143046921434469AF
:100C900021438469214311431960002141630122EA
:100CA00042770177084630BD012030BDF8FFFDBF17
:100CB0000000024070B5044690F82000002501288D
:100CC0000CD0012084F8200094F821600020012E2F
:100CD00006D084F820000225284670BD022070BD91
:100CE000022684F82160A0632068066826F00106C9
:100CF00006602046FFF75CFEE06A00282068016875
:100D000002D041F00E0106E021F0040101602068EC
:100D1000016841F00A0101602068016841F00101A9
:100D20000160D9E770B5044600F00CF90546601C77
:100D300002D004480078044400F004F9401BA042AB
:100D4000FAD370BD440000202DE9F84FDFF8B891C8
:100D50000024A9F1040B23460F2709F1040AABF183
:100D6000040EC9E00125A5402A40AA427DD1674E64
:100D7000D1F804C0ACEB0608B44532D014DCBCF1A9
:100D8000030F3AD009DCBCF1000F2AD0BCF1010FEF
:100D90001CD0BCF1020F31D11DE0BCF1110F17D0F6
:100DA000BCF1120F2AD119E0B8F5881F19D006DC62
:100DB000B8F5803F15D0B8F5801F1FD111E0B8F508
:100DC000001F0ED0B8F5041F18D10AE0CB6815E05B
:100DD000CB681B1D12E0CB6808330FE0CB680C33E7
:100DE0000CE08B682BB1012B4FF0080303D0456159
:100DF00004E0042302E0056100E00023FF2A01D89B
:100E0000064601E000F104064FEA840501D9A5F188
:100E10002005D6F8008007FA05FC28EA0C0803FA3A
:100E200005F548EA0508C6F800804D68ED0062D572
:100E3000374DAE6946F00106AE61AD6924F0030698
:100E400005F001050095334D06EB050CDCF8085064
:100E5000A607360F07FA06F825EA0805DFF8B88076
:100E6000404503D14FF0000817E044E0DFF8AC80C4
:100E7000404502D14FF001080FE0DFF8A480404563
:100E800002D14FF0020808E0DFF89880404502D117
:100E90004FF0030801E04FF0040808FA06F848EAAA
:100EA0000508CCF808804D68D9F80060ED024D4681
:100EB00001D5164300E096432E604D68DAF80060D5
:100EC000AD02554601D5164300E096432E604D68AD
:100ED000DBF80060AD035D4601D5164300E09643A4
:100EE0002E604D68DEF80060ED03754601D51643AF
:100EF00000E096432E60641C0D682A46E5407FF4AE
:100F000031AFBDE8F88F0000080401400000111067
:100F1000001002400000014000080140000C0140A8
:100F20000010014000140140C26821EA02030A4097
:100F300043EA0241016170470AB101617047090447
:100F4000FBE7000001488068704700004400002073
:100F500070B5040025D094F83D00002520B984F830
:100F60003C50204600F0CAFB242084F83D00206855
:100F7000016821F0010101602068016841F400412D
:100F800001602068016821F40041016000F072FDF9
:100F90004D4A6168914201D84C4900E04C49884271
:100FA00001D2012070BD4B492368B0FBF1F15E68AE
:100FB00026F03F060E435E606368934206D94FF405
:100FC000967359434FF47A73B1FBF3F12368491CCC
:100FD0001E6A26F03F06314319626168914210D8BB
:100FE0004900401EB0FBF1F2521CC2F30B02042A6E
:100FF00001D2042022E0B0FBF1F0401CC0F30B0052
:101000001CE0A268F2B301EBC10303EB0116431E1F
:10101000B3FBF6F35B1C43F480431B0549D092B34A
:1010200001EBC10202EB0111401EB0FBF1F0401CCC
:10103000C0F30B0040F4804040F400402168CA69CE
:101040004CF6FF739A431043C861D4E9071001437B
:101050002068026822F0C00211430160D4E9030154
:1010600001432068826848F2FF339A43114381604C
:10107000D4E9050108432168CA6822F0FF02104341
:10108000C86001E00EE016E02068016841F001014F
:1010900001602564202084F83D00256384F83E50DB
:1010A000002070BD01EB4106431EB3FBF6F35B1C51
:1010B000B3E70120C2E701EB4101401EB0FBF1F0B4
:1010C000401CC0F30B00B7E7A086010080841E001F
:1010D00000093D0040420F002DE9FF4F81B08946D5
:1010E0000446FFF72FFF054694F83D004FF0000837
:1010F00020287DD11923012250492046009501F076
:101100003DFD002874D194F83C00012870D00120E6
:1011100084F83C0020680168C90703D1016841F0E8
:10112000010101602068016821F400610160242050
:1011300084F83D00002626644148E0624FF0011B20
:1011400020272068016841F4807101600095002229
:1011500059462046049B01F011FD50B120680068FB
:10116000C00502D54FF400702064032005B0BDE82F
:10117000F08F216809F0FE000861FFF7E3FE2168A7
:10118000054648694969C0F34000C1F380214FF02A
:10119000A00A0FE0FFF7D6FE411B0498814200D859
:1011A00008B984F83DA0216848694969C0F3400046
:1011B000C1F3802194F83D20A02A02D008B900296B
:1011C000E8D084F83D7020684169C943890716D486
:1011D000016841F400710160206841698069192348
:1011E000012216492046009501F0C8FCB8B900E07C
:1011F00021E084F83D7084F83C600020B6E7016887
:1012000041F40071016021686FF480604861192326
:1012100001220A492046009501F0B0FC08B10120E6
:10122000A4E7039808F1010880458AD384F83D704B
:1012300084F83C60F3E7022098E700000200100009
:101240000000FFFF2DE9F84F1F4690468A460446EE
:10125000DDF82890FFF776FE054694F83D0020283B
:101260007FD11923012240492046009501F086FCD8
:10127000002876D194F83C00012872D0012084F82F
:101280003C0020680168C90703D1016841F00101F1
:1012900001602068016821F400610160212084F868
:1012A0003D00102084F83E0000262664C4F8248007
:1012B0006785608D20852D48E0622B464A46514661
:1012C000204601F00FFB90B92068416980690090C9
:1012D00036E02A464946204601F02EFD50B1206CEA
:1012E000042804D12068016841F4007101600120E4
:1012F000BDE8F88F606A216800780861606A401C68
:101300006062618D491E6185218D491E89B22185EA
:1013100022685369DB435B070BD451B1007810613D
:10132000606A401C6062608D401E6085208D401E9A
:1013300020852A464946204601F0F4FB0028CED1FC
:10134000208D0028C5D154F83D0B016841F400718F
:101350000160202004F81E09E67766770020C7E7C1
:10136000FFE70220C4E70000020010000000FFFFBA
:101370002DE9FF4F83B00025DDE910799A469346A9
:101380000446DDF848800095FFF7DCFD064694F83A
:101390003D0020287CD1192301228849204600964F
:1013A00001F0ECFB0028F5D194F83C0001286FD047
:1013B000012084F83C0020680168C90703D1016856
:1013C00041F0010101602068016821F400610160C1
:1013D000222084F83D00402084F83E0025646762A6
:1013E000A4F82A90608D20857548E062CDE90086DA
:1013F00053465A462046049901F0C2FA00287CD18F
:10140000208DDFF8C091202768B1012814D0022870
:10141000206801681ED041F4806101602068416944
:1014200080690090BCE02068416981690091016891
:1014300041F400710160B3E02068016821F480612B
:10144000016072B62068416981690091016841F4C8
:1014500000710AE041F40061016072B620684169E0
:1014600081690091016821F48061016062B697E0B2
:10147000032865D801280CD0022843464FF000020B
:101480004946204600960BD001F078FBA8BB0CE043
:1014900091E032464146204601F016FC68BB72E0FE
:1014A00001F06CFB48BB72B633E02068016821F4A0
:1014B0008061016072B620680069616A0870606AC4
:1014C000401C6062208D401E2085608D401E60851E
:1014D0003D4846F2A8110068B0FBF1F0C0EBC00037
:1014E00000EB80000090401E009007D0206840690B
:1014F000C04340070DD50098F5E727E044F8305F7A
:101500006773A573206940F02000206162B62573DF
:101510001CE02068016841F40071016020680069E6
:10152000616A0870606A401C6062218D491E2185D5
:10153000618D491E618562B621680969017026E0E6
:1015400032464146204601F0BFFB18B1012007B0EA
:10155000BDE8F08F20680069616A0870606A401C0D
:101560006062208D401E81B22185608D401E6085A5
:1015700020684269D243520712D4032903D101687B
:1015800021F48061016020680069616A0870606A06
:10159000401C6062208D401E2085608D401E60854D
:1015A000208D00287FF464AF84F83D7084F83E50AD
:1015B00084F83C50CBE70220C9E70000020010008D
:1015C0000000FFFF04000100500000202DE9FF4F44
:1015D00083B09A46DDE9119793460446DDF84080D2
:1015E000FFF7B0FC054694F83D0020287FD1192371
:1015F000012240492046009501F0C0FA002876D12A
:1016000094F83C00012872D0012084F83C00206846
:101610000168C90703D1016841F001010160206838
:10162000016821F400610160212084F83D00402020
:1016300084F83E0000262664C4F82480A4F82A908A
:10164000608D20852C48E062CDE9007553465A46EE
:101650002046049901F012FA70B930E02A46394662
:10166000204601F069FB58B1206C042804D12068A1
:10167000016841F400710160012007B0BDE8F08FFE
:10168000606A216800780861606A401C6062218D90
:10169000491E89B22185628D521E62852268536976
:1016A000DB435B070BD469B100781061606A401CB2
:1016B0006062208D401E2085608D401E6085208DDB
:1016C0000028CBD12A463946204601F02BFA0028C3
:1016D000CAD154F83D0B016841F40071016020202B
:1016E00004F81E09E67766770020C6E7FFE70220C8
:1016F000C3E70000020010000000FFFF10B586B035
:1017000000210091019102910391006811498842E2
:101710001DD1114CA06940F00800A061A069694684
:1017200000F0080004904FF44060009012200190F7
:1017300003200390012002900848FFF705FBE069B1
:1017400040F48000E061E06900F48000049006B09D
:1017500010BD00000058004000100240000C014085
:101760001CB502238DF804000A208DF805100090A6
:1017700001AA78210148FFF765FD1CBD2801002062
:10178000024881680278114481607047440000205B
:10179000074810B5016841F010010160032000F016
:1017A000A1F80F2000F006F800F050F8002010BD5E
:1017B0000020024030B505461F4887B0C16941F09E
:1017C0000401C161C06906A900F00400009001A8ED
:1017D00000F030F90498B0B100F04CF9400017491E
:1017E000174AB0FBF1F11748491E0260416040F210
:1017F000E7320021C0E903218160816100F070FBC4
:10180000040003D015E000F035F9E8E70D4800F0DA
:10181000A9FB04000DD11E2000F036F8102D07D2D0
:10182000002229461E2000F03DF80748056000E030
:10183000012407B0204630BD0010024040420F0096
:101840000008004014030020480000200C4808B5A0
:10185000816941F001018161816901F0010100911B
:10186000C16941F08051C161C06900F080500090B1
:101870000448416821F0E06141F00071416008BD19
:101880000010024000000140002809DB00F01F02A8
:10189000012191404009800000F1E020C0F80011D2
:1018A00070470000F0B40E4B1B680C46C3F30223D4
:1018B000C3F10705042D00D90425191D072901D2FC
:1018C000002300E0DB1E012606FA05F1491E214037
:1018D00099409E40761E16403143F0BC02F00EB98E
:1018E0000CED00E0064900F0070208684FF6FF0320
:1018F000184040EA0220034A104308607047000085
:101900000CED00E00000FA052DE9F0470F46050058
:1019100061D0434E306800F00700B84209D2306809
:1019200020F0070038433060306800F00700B8420C
:1019300051D128683B4C810712D5400703D5606818
:1019400040F4E06060602878000703D5606840F4E8
:10195000605060606068A96820F0F0000843606033
:101960002878C00728D06868012810D0216802288C
:1019700010D0890700292EDA616821F003010143A4
:101980006160FFF7DFFA804641F288390DE0216897
:101990008903EFE78901EDE7FFF7D4FAA0EB08012F
:1019A000494502D90320BDE8F0876068696800F006
:1019B0000C00B0EB810FEFD1306800F00700B842A7
:1019C0000BD9306820F0070038433060306800F0F1
:1019D0000700B84201D00120E5E72878400705D587
:1019E0006068E96820F4E0600843606028780007D8
:1019F00006D56068296920F4605040EAC100606043
:101A000000F058F86168084AC1F30311515CC840FE
:101A10000649086006480068FFF7CCFE0020C2E7D0
:101A20000020024000100240F65B00085000002039
:101A3000480000200F2202600C4A536803F00303A1
:101A40004360536803F0F0038360536803F4E0637A
:101A5000C36052684FF4E06303EAD20202610448B3
:101A6000006800F0070008607047000000100240A6
:101A7000002002400448054900684968044AC1F34F
:101A80000221515CC8407047500000200010024005
:101A9000065C00080448054900684968044AC1F327
:101AA000C221515CC8407047500000200010024025
:101AB000065C00080E4A51680E4801F00C03042B26
:101AC00011D0082B0FD10C48C1F38343C903C05C6C
:101AD0000AD55168084AC1F34041921E515C054A3B
:101AE0005043B0FBF1F07047044948437047000091
:101AF0000010024000127A00E65B000800093D0079
:101B00002DE9F84F040070D02078C04DC00749D0AF
:101B10006868C0F38100012807D06868C0F38100BD
:101B2000022809D16868C00306D52868800339D522
:101B300060680028E7D035E06068B0F5803F0BD0E2
:101B400010B1B0F5A02F11D0286820F480302860A3
:101B5000286820F4802002E0286840F48030286063
:101B6000606890B1FFF7EEF906460AE0286840F495
:101B700080202860F0E700BFFFF7E4F9801B6428AD
:101B800073D828688003F7D50CE0FFF7DBF9064629
:101B900005E000BFFFF7D6F9801B6428F0D828685D
:101BA0008003F7D420789A4E80074FF001094FF058
:101BB000000839D5686810F00C0F07D06868C0F3CA
:101BC0008100022809D16868C00306D4286880070C
:101BD00014D52069012808D110E02069B0B1C6F8F9
:101BE0000090FFF7AFF9074605E00AE1FFF7AAF911
:101BF000C01B0228C4D828688007F7D52868616907
:101C000020F0F80040EAC10028600DE0C6F800802E
:101C1000FFF798F9074604E0FFF794F9C01B022884
:101C200023D828688007F7D4207800072CD5794876
:101C3000A169D9B1C0F80090FFF784F9074604E024
:101C4000FFF780F9C01B02280FD8686A8007F7D514
:101C500071484FF4FA510068B0FBF1F0009000BFFA
:101C60000098411E0091FAD20EE080E0C0F800809A
:101C7000FFF768F9074604E0FFF764F9C01B022884
:101C800075D8686A8007F7D42078400760D5E8697E
:101C90000027C00008D4E86940F08050E861E86996
:101CA000012700F0805000905C480168C90513D4FA
:101CB0000168834641F480710160FFF743F9824671
:101CC00006E000BFFFF73EF9A0EB0A0064284ED8FB
:101CD000DBF80000C005F5D5E06801280AD008B19E
:101CE000052813D0286A20F001002862286A20F015
:101CF000040002E0286A40F001002862E06841F236
:101D0000883B98B1FFF71EF982460BE0286A40F045
:101D100004002862EEE700BFFFF714F9A0EB0A0108
:101D200059455AD8286A8007F6D50CE0FFF70AF91A
:101D3000824605E0FFF706F9A0EB0A0159454CD8A9
:101D4000286A8007F6D41FB1E86920F08050E86166
:101D5000E06988B36968C1F38101022944D002288F
:101D6000C6F8608004D0FFF7EDF8044638E034E0B0
:101D7000FFF7E8F8074604E0FFF7E4F8C01B022885
:101D80002BD828688001F7D4206AB0F5803F05D1B0
:101D90006868A16820F4003008436860D4E908014D
:101DA0000843696821F4741108436860C6F86090BC
:101DB000FFF7C8F8044606E025E000BFFFF7C2F8C9
:101DC000001B022809D828688001F7D51BE000BF56
:101DD000FFF7B8F8001B022802D90320BDE8F88FEE
:101DE00028688001F4D40EE00128F7D06868226AE0
:101DF00000F48031914204D1616A00F4701088428D
:101E000001D00120EAE70020E8E7000000100240CE
:101E10000000424280044242500000200070004016
:101E20007047704710B590F83C20012A22D001225B
:101E300080F83C20CA688C6822F4407222434C68C7
:101E400022F4806222430C6822F4006222430C696F
:101E500022F4805222434C6922F400522243C96981
:101E6000002322F480420A4301684A6480F83C302F
:101E7000002010BD022010BD70B590F83C20012A52
:101E800026D0012480F83C40022280F83D200368DF
:101E90005A689D6822F070060A6832435A600D4BFA
:101EA00002689A4208D0B2F1804F05D00A4B9A429C
:101EB00002D00A4B9A4204D1496825F080031943A5
:101EC000916080F83D40002180F83C10084670BDCC
:101ED000022070BD002C01400004004000080040BA
:101EE00010B5040003D094F83D0010B107E00120C4
:101EF00010BD002084F83C00204600F01FF80220AE
:101F000084F83D00211D206801F05EFA012084F86C
:101F1000460084F83E0084F83F0084F8400084F8CE
:101F2000410084F8420084F8430084F8440084F8B7
:101F3000450084F83D00002010BD000008B5006891
:101F40000649884208D10648816941F400618161EF
:101F5000806900F40060009008BD0000002C014082
:101F60000010024090F83D10012901D00120704777
:101F7000022180F83D100168CA6842F00102CA607F
:101F800000680B49884208D0B0F1804F05D009495C
:101F9000884202D00849884204D1816801F00701D3
:101FA000062903D0016841F001010160002070475B
:101FB000002C0140000400400008004070B50446B9
:101FC00090F83C000025012817D0012684F83C60D9
:101FD000022084F83D002068826822F0770222F413
:101FE0007F4282600868502838D00DDC20284FD00E
:101FF00005DC90B3102811D14AE0022070BD3028D2
:1020000046D040280AD13BE060282FD070280DD060
:10201000B0F5805F03D0B0F5005F12D0012584F8E1
:102020003D60002084F83C00284670BDCB68D1E9B3
:102030000121206801F011FA2068816841F07701E0
:1020400009E0CB68D1E90121206801F006FA206897
:10205000816841F480418160E1E719E0CA6849681C
:10206000206801F0AFFA5021206806E0CA6849688C
:10207000206801F0B8FA6021206801F0F8F9CEE795
:10208000CA684968206801F09DFA40212068F4E799
:10209000226801461046F0E770472DE9F0410446FA
:1020A0000068C66805694FF00007A90713D5B10796
:1020B00011D5F91E01610120207720688069800711
:1020C000204602D0FFF7E8FF04E000F0A5F8204624
:1020D00000F037F92777680716D5700714D52168FF
:1020E0006FF004000861022020772068806910F4F6
:1020F000407F204602D0FFF7CFFF04E000F08CF8CD
:10210000204600F01EF92777280715D5300713D58C
:1021100021686FF008000861042020772068C069FA
:102120008007204602D0FFF7B7FF04E000F074F804
:10213000204600F006F92777E80616D5F00614D5F4
:1021400021686FF010000861082020772068C069BE
:1021500010F4407F204602D0FFF79EFF04E000F01D
:102160005BF8204600F0EDF82777E80708D0F00785
:1021700006D021686FF001000861204600F030F9B8
:10218000280608D5300606D521686FF08000086162
:102190002046FFF745FE680608D5700606D521687B
:1021A0006FF040000861204600F024F9A8060AD527
:1021B000B00608D521686FF0200008612046BDE810
:1021C000F041FFF72EBEBDE8F081000000B585B0FC
:1021D0000021009101910291039100680B4988420E
:1021E00012D10B48816941F004018161806969461F
:1021F00000F0040004904FF48070009002200190E1
:1022000003900448FEF7A0FD05B000BD002C01407E
:102210000010024000080140704770B5044690F875
:102220003C0000260D4601280FD0012084F83C0018
:102230006AB1042A1DD0082A2FD00C2A3FD00126CB
:10224000002084F83C00304670BD022070BD20683C
:1022500001F016F92068816941F008018161206868
:10226000816921F004018161206881692A69114333
:1022700011E0206801F02CF92068816941F40061C7
:1022800081612068816921F48061816120688169B0
:102290002A6941EA02218161D2E7206801F044F90C
:1022A0002068C16941F00801C1612068C16921F05D
:1022B0000401C1612068C1692A69114311E02068E5
:1022C00001F05EF92068C16941F40061C1612068D4
:1022D000C16921F48061C1612068C1692A6941EA4C
:1022E0000221C161ACE710B5040003D094F83D00B1
:1022F00010B107E0012010BD002084F83C0020460A
:1023000000F01EF8022084F83D00211D206801F035
:102310005BF8012084F8460084F83E0084F83F0012
:1023200084F8400084F8410084F8420084F84300B7
:1023300084F8440084F8450084F83D00002010BD76
:102340007047704710B50446022249B104290ED0E7
:10235000082913D094F84100012816D0012010BD9F
:1023600094F83E000128F9D184F83E200FE094F85B
:102370003F000128F2D184F83F2008E094F84000A3
:102380000128EBD184F8402001E084F841200122AB
:10239000206801F055F80F492068884203D1426C4B
:1023A00042F4004242642068884208D0B0F1804F75
:1023B00005D00949884202D00849884204D1816881
:1023C00001F00701062903D0016841F00101016015
:1023D000002010BD002C0140000400400008004017
:1023E00000680349884201D1FFF7CAB9704700006D
:1023F000000800407047704710B504460068406907
:1024000094F84110C0F3C010212911D180B1206887
:10241000143050E8001F21F0800140E80012002A2B
:10242000F5D1A06B08B1FEF7FEFA204601F0B9F92C
:102430002068406994F84210C0F38010222911D11D
:1024400080B12068143050E8001F21F0400140E8BE
:102450000012002AF5D1E06B08B1FEF7E4FA20463D
:1024600001F078F9002010BD70470000F8B5016850
:1024700004460868CA684B6910F00F0F4FF000055A
:1024800059D003F0010602F49077374365D0C107B5
:1024900005D0D10503D5616C41F0010161644107AC
:1024A00005D5D90703D0616C41F002016164810751
:1024B00005D5D90703D0616C41F0040161640107BF
:1024C00007D502F02001314303D0616C41F00801CF
:1024D0006164616C00293AD0800604D5900602D56B
:1024E000204601F06CF920684069616CC0F38010EF
:1024F000090700D460B3204601F02CF92068406938
:10250000400621D52068143050E8001F21F040011A
:1025100040E80012002AF5D1E06BA8B16D49416393
:10252000E06BFEF7A3FA002811D0E06B416B01B01D
:10253000BDE8F040084783060FD593060DD5204629
:10254000BDE8F84001F03BB92046FFF78DFFF8BD2C
:102550002046FFF789FF6564F8BD266B2023012E16
:102560007CD1C6067AD5D60678D50868486800902A
:1025700048694FF00206400640D5E16B08684068A4
:102580000004000CE8D0A28D8242E5D9E08588697C
:1025900020282DD020680C3050E8001F21F48071D5
:1025A00040E80012002AF5D12068143050E8001FDE
:1025B00021F0010140E80012002AF5D12068143012
:1025C00050E8001F21F0400140E80012002AF5D138
:1025D00084F84230256320680C3050E8001F21F059
:1025E000100140E80012002AF5D1E06BFEF71BFA5B
:1025F0006663A08DE18D401A81B22AE0A08DE18D45
:10260000401A81B2E08D0028A6D00029A4D022680B
:102610000C3252E8000F20F4907042E80007002FBF
:10262000F5D12068143050E8002F22F0010240E874
:102630000027002FF5D184F84230256320680C3044
:1026400050E8002F22F0100240E80023002BF5D1C3
:1026500066632046FFF7CFFEF8BDFFE705062BD5E2
:10266000150629D594F841002128F5D1A068B0F5C8
:10267000805F01D12069B0B1206A411C21622168CC
:1026800000784860E08C401E0004000CE084E3D138
:102690002068C16821F08001C1602068C16841F0F4
:1026A0004001C160D8E7206A0088C0F30800486094
:1026B000206A801C2062E5E74006CDD55006CBD5C8
:1026C000CA68204622F04002CA6084F8413000F017
:1026D000EFF8C1E70B36000870B5040004D094F899
:1026E0004100002510B106E0012070BD84F8405083
:1026F000204600F023F8242084F841002068C168B7
:1027000021F40051C160204601F0BAF82068016947
:1027100021F4904101612068416921F02A01416161
:102720002068C16841F40051C1606564202084F8CC
:10273000410084F842006563002070BDF0B585B0AB
:1027400000240646009401940294039400682D49E5
:10275000884254D12C48816941F48041816181696A
:1027600001F480410491816941F004018161806933
:10277000264D00F0040004904FF4007000900220F9
:1027800001900320039069462846FEF7DDFA2815DC
:10279000CDE90004694628460294FEF7D5FA1D4D9E
:1027A0001B488027C5E90004C5E902472C616C611C
:1027B000AC612846EC61FEF74FFA08B1FEF731F93B
:1027C000F5636E62134D12484435143801C510206C
:1027D00091C5104845F8104944306C61AC61EC611A
:1027E000FEF73AFA08B1FEF71CF9B563002211466C
:1027F00025206E62FFF756F82520FFF745F805B053
:10280000F0BD000000380140001002400008014007
:10281000580002400C02002090F84230202B01D0DA
:102820000220704721B11AB10023036301F084B87C
:10283000012070477047704770B5044690F841001A
:10284000202801D0022070BD49B342B32162A28486
:10285000E28400206064212384F84130A56B114B91
:10286000AB62A56B104BEB62A56B104B2B63A36B9C
:102870005863256813462A1DA06BFEF71BFA2168D2
:102880006FF0400008602068143050E8001F41F0ED
:10289000800140E80012002AF5D1002070BD01201F
:1028A00070BD0000093700084B3700081B360008D0
:1028B00070477047FEE701684A69D24352050FD45A
:1028C0006FF480624A61002140F8301F2022427379
:1028D0008173026942F004020261017301207047B2
:1028E00000207047F8B50446C06A1E460D461746DC
:1028F000082807D0012805D010F5803F02D0206BB2
:10290000122804D12068016841F4807101601346E7
:1029100000224FF001112046009600F02FF940B13F
:1029200020680068C00502D54FF4007020640320C1
:10293000F8BD2069B0F5804F0ED00620216800EA6E
:10294000D51040F0F000086133463A460B49204666
:1029500000F05CF978B902E005F0FE0000E0E8B2B2
:1029600021680861054933463A46891F204600F030
:102970004DF90028DCD00120F8BD0000080001005E
:102980002DE9F84F0446006889460B9D016898467A
:10299000174641F4806101602068016841F480714C
:1029A000016000954FF0011B0022594620460A9B0A
:1029B00000F0E4F84FF4007A40B120680068C005E8
:1029C00001D5C4F840A00320BDE8F88F216809F0C4
:1029D000FE0008612B46284920460A9A00F016F9A5
:1029E000F0BB20684169806900902A4620460A9918
:1029F00000F0A2F940B1206C04283AD120680168A7
:102A000041F40071016034E0FEB2B8F1010F09D069
:102A10002168380A08612A4620460A9900F08CF994
:102A20000028E8D1206806612A4620460A9900F06D
:102A300083F90028DFD12068016841F480710160CA
:102A400000950022594620460A9B00F097F800287E
:102A5000B3D1216809F0FF0040F00100086100E0F7
:102A600007E02B46044920460A9A00F0CFF80028D8
:102A7000AAD00120A8E70000020001002DE9F843D8
:102A8000044600680D46DDE9089701689846164639
:102A900041F4807101604B4600224FF00111204645
:102AA000009700F06BF848B120680068C00502D5B7
:102AB0004FF4007020640320BDE8F883216805F01E
:102AC000FE0008613B464A461549204600F09EF844
:102AD00088B920684169806900903A464946204695
:102AE00000F02AF948B1206C042804D1206801685C
:102AF00041F4007101600120DEE7F5B2B8F1010F89
:102B000009D02168300A08613A464946204600F05B
:102B100013F90028E7D1206805610020CCE7000008
:102B20000200010070B516460D4604461EE0204620
:102B3000FFF7C1FE08B1012070BD681C16D0FEF77A
:102B400001FA801BA84200D885B920684069C043BB
:102B500040070BD5002044F8300F20216173A0738B
:102B6000216941F0200121612073E4E72068406978
:102B7000C0434007DBD4002070BD00002DE9F047C2
:102B8000984617460D460446C1F30746DDF82090E7
:102B90002AE000BFB8F1FF3F26D0FEF7D3F9A0EB43
:102BA0000901414502D8B8F1000F1DD12068012E5E
:102BB00016D0806925EA00000004000C12D0002025
:102BC000B84211D1002044F8300F20216173A07366
:102BD000216941F02001216120730120BDE8F087C7
:102BE0004069E7E70120EBE72068012E0AD0806901
:102BF00025EA00000004000C06D00020B842C9D02D
:102C00000020EBE74069F3E70120F7E72DE9F04703
:102C1000984616460D4604464FF000094FF0200A2C
:102C2000C1F3074723E020684069C043400515D43D
:102C30002068016841F40071016021686FF48060D0
:102C40004861C4F8309084F83DA084F83E90216C2F
:102C500041F00401216484F83C9021E0701C06D00E
:102C6000FEF770F9A0EB0800B04203D816B1012FAF
:102C70001FD021E02068012F15D0806925EA0000CF
:102C80000004000C18D000BF44F8309F84F80DA059
:102C900084F80E90216941F02001216184F80C90A4
:102CA0000120BDE8F087406925EA00000004000C1F
:102CB000EAD12068406901E02068806925EA0000C7
:102CC0000004000CAFD1ECE72DE9F041002590465F
:102CD0000E460446202728E04069C043C0060CD4B5
:102CE00054F8301B6FF01000486144F810596777B2
:102CF000A577206A2062257714E0FEF723F9A0EB80
:102D00000800B04200D886B920684069C043400638
:102D10000BD544F8305F6773A573206940F020003D
:102D2000206125730120BDE8F08120684169C94315
:102D30004906D1D40020F6E770B516460D46044684
:102D40001EE02046FFF7B7FD08B1012070BD681CEA
:102D500016D0FEF7F7F8801BA84200D885B9206886
:102D60004069C04300060BD5002044F8300F2021F5
:102D70006173A073216941F0200121612073E4E7B0
:102D800020684069C0430006DBD4002070BD00000D
:102D900070B586B064230322D2213048FEF79CF937
:102DA000002857D101244FF47A7604A88DE8510009
:102DB00023467522D2212948FEF7DAFAF0BB9DF8A6
:102DC0001000682846D103AD8020CDE900548DF86D
:102DD0000C0001236B22D22120480296FEF7F6FB5D
:102DE00060BB6420FDF79EFFCDE900548DF80C40D8
:102DF00001236B22D22119480296FEF7E7FBE8B9BE
:102E00001020CDE900548DF80C0001231C22D221A2
:102E100012480296FEF7DAFB80B91820CDE900547B
:102E20008DF80C0001231B22D2210C480296FEF7DC
:102E3000CDFB18B906208DF80C0000E00AE0CDE9C2
:102E4000005401231A22D22104480296FEF7BEFB49
:102E5000002800D0012006B070BD0000280100202D
:102E6000F0B585B004464FF47A72062103A88DE8C8
:102E7000070001233B2269211648FEF779FABDF8C5
:102E80000E10BDF80C0049BA0EB2BDF8101040BAD1
:102E900049BA00B20DB2FDF7BBFB6FF00B073A4623
:102EA000FDF79FFBFDF708FC20603046FDF7B0FB07
:102EB0003A46FDF796FBFDF7FFFB60602846FDF7FD
:102EC000A7FB3A46FDF78DFBFDF7F6FBA06005B0CA
:102ED000F0BD0000280100202DE9F04186B0044635
:102EE0004FF47A72062103A88DE8070001234322DC
:102EF00069211948FEF73CFABDF80E10BDF80C0028
:102F000049BA0EB2BDF8101040BA49BA00B20DB2BB
:102F1000FDF77EFBDFF844804FF066373A464346C4
:102F2000FDF7F0FAFDF7C8FB20603046FDF770FBB7
:102F30003A464346FDF7E6FAFDF7BEFB60602846D9
:102F4000FDF766FB3A464346FDF7DCFAFDF7B4FBB6
:102F5000A06006B0BDE8F081280100206666304020
:102F60000D4808B5416941F0010141614069002205
:102F700000F00100009011460E20FEF793FC0E2099
:102F8000FEF782FC002211460F20FEF78BFCBDE805
:102F900008400F20FEF778BC0010024070B586B0E4
:102FA000002418480094019402940394816941F02C
:102FB00020018161816901F020010491816941F062
:102FC00008018161816901F008010491816941F082
:102FD0000401816180690C4E00F004004FF400454B
:102FE0000490002229463046FDF7A6FF01200095F7
:102FF000CDE901040320039069463046FDF7A4FEA5
:1030000006B070BD00100240000801400D4810B528
:103010000B4901600C49416000214FF480428160FE
:10302000C0E9031241618161C1610162FDF790FF56
:10303000002803D0BDE81040FDF7F3BC10BD000030
:103040000058004028010020801A060010B596B0F4
:1030500000240F9410941194129413941C2108A826
:103060001494FDF724F920216846FDF720F929483A
:10307000274901604721C0E9011444F61F61C0E9F6
:1030800003148021C0E90541FEF72AFF08B1FDF7CE
:10309000C8FC4FF480500F900FA91E48FEF78EFF1A
:1030A00008B1FDF7BEFC1B48FFF71DF908B1FDF79D
:1030B000B8FC139413A917481494FEF7DDFE08B169
:1030C000FDF7AFFC6020CDE908040A940B940C9442
:1030D0000D94002208A90F480E94FFF79EF808B13E
:1030E000FDF79FFC00944FF40050CDE9044002949A
:1030F00001940394694607480794FEF793FE08B1CC
:10310000FDF78FFC0348FFF761F816B010BD000013
:10311000002C01407C0100200C4810B50A490160D8
:103120004FF4E1314160002181600C22C160C0E9AF
:1031300004128161C161FFF7CFFA002803D0BDE816
:103140001040FDF76EBC10BD00380140C4010020E6
:1031500030B590F8504095B0E500641C80F85040C0
:1031600044190021C4E9002390F850200A2A02D310
:10317000002280F850206B4600EBC10203EBC10532
:10318000D2E90042C5E90042491CC9B20A29F3D379
:10319000044B08220A216846FDF722F8DDE90A01FE
:1031A00015B030BD294A0008FEE7FEE7002000F018
:1031B00001B8000030B4094C002202EB8213002158
:1031C00004EB43035854491C89B28229FAD3521C98
:1031D00092B2082AF1D330BC00F002B8442C00208F
:1031E0002DE9F0410F4F002404F1B000C0B200F00F
:1031F00034FC002000F031FC102000F02EFC04EB29
:103200008410002507EB4006705D00F02AFC6D1C61
:10321000ADB2822DF8D3641CA4B2082CE4D3BDE86F
:10322000F0810000442C002010B50446B031C8B233
:1032300000F013FC102040EA141000F00EFC04F023
:103240000F00BDE8104040F0010000F006BC000097
:103250002DE9F047002591468A460446012B22D0ED
:10326000DFF8BC80022B24D155E02038C7B27E2C79
:1032700004D90AF10100002400F0FF0A514620465B
:10328000FFF7D2FF07EB4700002608EB4007B85DC9
:1032900000F0E7FB761CF6B2062EF8D3A41D6D1CD9
:1032A000E4B2EDB201E0DFF87C8019F805000028F7
:1032B000DBD1BDE8F0872038C7B2782C04D90AF1F9
:1032C0000100002400F0FF0A51462046FFF7ACFF42
:1032D0005FF0000606EB071118F8010000F0C1FBD3
:1032E000761CF6B2082EF5D30AF10100C1B22046D1
:1032F000FFF79AFF5FF0000606EB071101EB0800ED
:10330000007A00F0AEFB761CF6B2082EF4D3083437
:103310006D1CE4B2EDB219F805000028CBD1C8E766
:10332000965E00086E5C0008FCF70EBFFCF7EABE74
:1033300041B1042909D008290AD00C2901D100681B
:103340000264704700684263704700688263704798
:103350000068C263704702F067B930B58FB02821AA
:103360006846FCF7A4FF14210AA8FCF7A0FF01217E
:103370000804CDE900100024029402250491CDE94F
:1033800007504FF4E01009906846FEF7B9FB08B10A
:1033900072B6FEE70F20CDE90A054FF48060CDE953
:1033A0000C4002210AA80E94FEF7AEFA002801D0C4
:1033B00072B6FEE70FB030BD704700000148FEF75F
:1033C0006CBE000014030020F0B50268194B1A4CC3
:1033D0001A4D4FF08047984205D0B84203D0A04222
:1033E00001D0A84203D122F070064A6832439842C5
:1033F00005D0B84203D0A04201D0A84203D122F4A4
:103400004074CA6822434C6922F080022243026061
:103410008A68C2620A688262984201D109690163BE
:10342000012141610169C90703D0016921F001014E
:103430000161F0BD002C0140000400400008004084
:1034400010B501F01F030121046A99408C43046206
:10345000016A9A401143016210BD10B5846842EAC6
:10346000032224F47F440A432243826010BD826811
:1034700022F070020A4342F00701816070470000A9
:1034800030B5036A026A22F001020262426884696E
:1034900024F073050C682C4323F002058B682B4342
:1034A0000A4DA8420BD123F00805CB6822F44072E4
:1034B0002B434D6923F0040315438A692A43426074
:1034C000846149684163036230BD0000002C014003
:1034D00030B5026A036A23F010030362436884690B
:1034E0000D6824F4E64444EA05248D6822F02002A5
:1034F00042EA05120B4DA8420ED1CD6822F080029F
:1035000042EA05124D6923F4406343EA85038D695D
:1035100022F0400243EA8503436084614968816385
:10352000026230BD002C014030B5036A026A22F409
:10353000807202624268C46923F4007324F0730548
:103540000C682C438D6843EA05230C4DA8420ED12C
:10355000CD6823F4006343EA05234D6922F4405209
:1035600042EA05128D6923F4806342EA0512426043
:10357000C4614968C163036230BD0000002C014092
:1035800030B5046A026A22F4805202624268C3695A
:103590000D6823F4E64343EA05238D6824F40054C0
:1035A00044EA0534064DA84204D14D6922F4804214
:1035B00042EA85124260C36149680164046230BD19
:1035C000002C014010B5036A046A24F0010404626F
:1035D000846924F0F00444EA021423F00A020A4346
:1035E0008461026210BD10B5036A046A24F01004FD
:1035F0000462846923F0A00324F4704444EA023294
:1036000043EA01118261016210BD10B5406A0021D8
:10361000C185C184FEF728FF10BD70B5446A2068DB
:10362000406994F84110C0F3C0100025212904D14D
:1036300018B1E584204600F0B4F82068406994F899
:103640004210C0F38010222904D118B1E58520462C
:1036500000F080F8606C40F0100060642046FEF7D7
:1036600003FF70BD10B50146406A096809684FF054
:10367000000289062ED4C28501680C3151E8003F52
:1036800023F4807341E80034002CF5D10168143133
:1036900051E8003F23F0010341E80034002CF5D14C
:1036A0000168143151E8003F23F0400341E8003441
:1036B000002CF5D1202180F84210016B012909D19D
:1036C00001680C3151E8003F23F0100341E8003459
:1036D000002CF5D14263016B012902D0FFF7AAF853
:1036E00010BD818DFEF787FE10BD10B5406A012127
:1036F0004163016B012902D0FFF79DF810BD818D58
:103700004908FEF778FE10BD10B50146406A096809
:103710000968890616D40021C1840168143151E872
:10372000002F22F0800241E80023002BF5D1016830
:103730000C3151E8002F42F0400241E80023002BF9
:10374000F5D110BDFFF7B4F810BD10B5406AFFF712
:10375000B0F810BD01680C3151E8002F22F49072CE
:1037600041E80023002BF5D10168143151E8002F06
:1037700022F0010241E80023002BF5D1016B012961
:1037800009D101680C3151E8002F22F0100241E804
:103790000023002BF5D1202180F842100021016385
:1037A000704701680C3151E8002F22F0C00241E857
:1037B0000023002BF5D1202180F84110704708B577
:1037C00090F84210222901D0022008BD82684FF4EF
:1037D00080539A4201D1016921B1816A9A421BD07A
:1037E0004AB10AE00268816A5268C2F308020A809C
:1037F000816A891C08E0026972B10268526802F0AD
:103800007F020A70816A491C8162C18D491E0904C8
:10381000090CC18503D01BE002685268F1E701681A
:10382000CA6822F02002CA600168CA6822F4807265
:10383000CA6001684A6922F001024A61202180F8C9
:10384000421000214163026B012A03D0FEF7F2FF10
:10385000002008BD016301680C3151E8002F22F0FF
:10386000100241E80023002BF5D101680A68D20656
:1038700002D50A6849680091818DFEF7BCFDE7E733
:1038800070B5044600680169E26821F440511143B3
:1038900001612169A0680843616908432168CA6819
:1038A00041F20C639A430243CA6020684169A269ED
:1038B00021F44071114341611E492068884202D1C0
:1038C000FEF7E8F801E0FEF7D5F800EBC00101EBE8
:1038D0000012606864218000B2FBF0F3B3FBF1F3E7
:1038E0006FF018067343B2FBF0F5B2FBF0F605EB90
:1038F0008305322303EB0515B5FBF1F5B6FBF1F6B5
:1039000005F0F00505EB0615B2FBF0F6B2FBF0F0A2
:10391000B0FBF1F06FF01802504306EB800003EBB0
:103920000010B0FBF1F0216800F00F00284488601F
:1039300070BD00000038014038B5816204468285C0
:10394000002013466064222284F84220E56B1B4A63
:10395000AA62E56B1A4AEA62E56B1A4A2A63E26BCD
:1039600050630A462168E06B091DFDF7A3F9206842
:10397000016840680090206948B120680C3050E828
:10398000001F41F4807140E80012002AF5D1206840
:10399000143050E8001F41F0010140E80012002AF5
:1039A000F5D12068143050E8001F41F0400140E894
:1039B0000012002AF5D1002038BD0000653600084D
:1039C000EB3600081B36000810B50C46802900D9DC
:1039D0008024014622460548FCF750FC2246034954
:1039E000BDE81040A1F1D000FEF726BF94020020F0
:1039F00010B50348FEF73AFDBDE8104000F002B8EC
:103A0000C401002038B5124800680168C943C906DE
:103A10001CD40168406800900D48FEF7EDFC0C488E
:103A2000483000684068C0F10200C4B2094801880B
:103A30004180FCF7D3FF21460648FCF738FCBDE87F
:103A40003840022203490248FEF7E6BE38BD0000B6
:103A5000C401002040000020FEE701460020FDF7E1
:103A60007FBE01464020FDF77BBE00000FB47CB551
:103A70000C0009AD01D0611E00E00021CDE900017C
:103A8000064B6A462946089800F040FC002C02D0FC
:103A9000009A002111707CBC5DF814FB134A0008E9
:103AA0007CB50C001D461646014601D0601E00E0A4
:103AB0000020CDE90010064B6A462946304600F04A
:103AC00025FC002C02D0009A002111707CBD000062
:103AD000134A0008490050EAC12018BF04204A0DCB
:103AE00018BF40F0010040F2FF72B2EB515F08BF17
:103AF00040F00200012808BF052070470907090EA1
:103B0000002804DB00F1E02080F80014704700F08A
:103B10000F0000F1E02080F8141D70472DE9F74FE9
:103B2000144694B00021C4E902111599079121F0BF
:103B30000045C9498D4206DC1599C4E9000117B05A
:103B40000020BDE8F08FC549DFF814A3A9423CDD91
:103B50000799C44E0029C44FC44A1599534619DD2C
:103B6000FCF758FC554506D0C14AC24BFCF752FC45
:103B7000C4E900010AE04FF0D352BE4BFCF74AFC07
:103B800032463B46FCF746FCC4E9000117B0012071
:103B9000BDE8F08FFCF79DFB554506D0B44AB54B08
:103BA000FCF797FBC4E900010AE04FF0D352B14B98
:103BB000FCF78FFB32463B46FCF78BFBC4E9000168
:103BC00017B04FF0FF30BDE8F08FAB49A94215990F
:103BD00078DB21F0004183468846A84AA84BFCF7D1
:103BE0001FFC0022A74BFCF774FBFCF7B4FE099006
:103BF000FCF70EFD06460F469C4A5346FCF710FCA8
:103C000043465A46FCF709FC80468A46984A994B37
:103C100030463946FCF704FC2A0D01250B9242463A
:103C20005346FCF7FAFB032DC4E9000139D00B9889
:103C3000C1F30A51401A05EB45111139814230DABE
:103C40009148C346784400EB0510CDF80CA00C90C9
:103C5000D0E9002330463946FCF7E2FB02460B462A
:103C60000491069058460399FCF7D4FB80468A4697
:103C700002460B4658460399FCF7CCFB049B069A78
:103C8000FCF7C8FB83460C9803913946D0E9022320
:103C90003046FCF7C5FB5A46039BFCF7BBFB6D1C8B
:103CA000BDE707980028A2BF099817B0BDE8F08FBC
:103CB000616881F000416160099817B04042BDE839
:103CC000F08FFFE784461598C1F31301C0F30A5043
:103CD000A0F2F5304FEA601800F01F06C6F1200090
:103CE000139000200690079041F4801E05206D4639
:103CF00076B1664A08EB00017A4452F8213002EBB3
:103D00008101B3404A68139922FA01F1194305E091
:103D10005F4908EB0002794451F82210A1FB0E27FD
:103D2000A1FB0C131A449A4234BF0123002303EB76
:103D3000070A05EB8003D3E901B70F448F4234BF74
:103D40000121002193448B4411B1934502D903E032
:103D5000934501D2012100E00021C3E901B751449C
:103D600045F82010011EA0F10100C1DC0298059F5A
:103D700000F10050800F12900298DDE90356800098
:103D8000FCF746FC834628460D91FCF7D7FD6FF003
:103D90001D02FCF726FCCDE90E013046FCF7CEFDF6
:103DA0006FF03D02FCF71DFC80468A463846FCF762
:103DB000C5FD6FF05D02FCF714FC07464246534612
:103DC0001191FCF786FADDE90E23FCF782FA5A46D8
:103DD0000D9BFCF77EFA00250E465A4628460D9BA1
:103DE000FCF718FBDDE90E23FCF714FB42465346B3
:103DF000FCF710FB3A46119BFCF70FFBDFF898A08D
:103E0000244A5346FCF70CFB07468846234A244BBA
:103E100031462846FCF704FB3A464346FCF759FA7C
:103E2000074688464FF0A842534631462846FCF7DD
:103E3000F7FA3A464346FCF74CFA159A12F0004F4F
:103E400004D0129A81F0004152421292C4E900015A
:103E5000129817B0BDE8F08FFB21E93F7CD90240F2
:103E6000FB21F93F7370032E8A19A33B00004054D5
:103E70003163621A61B4D03DFB21394183C8C96DF9
:103E8000305FE43F0000E03F70280000EC270000B6
:103E9000CE270000182D4454FB21F93D3326A611EE
:103EA000460B113C2DE9FF4D21F0004807460C461A
:103EB000B8F1795F08DAFCF74EFD002801BF002059
:103EC000324904B0BDE8F08D3A4623461046194603
:103ED000FCF7A6FA054602462D480E460B4606217B
:103EE000784400F05DF82A463346FCF799FADDE99C
:103EF000022382468B4638462146FCF791FA044657
:103F00000F4652465B4628463146FCF789FA224660
:103F10003B46FCF77FFA07468A464FF0FF322846B9
:103F20003146FCF75EFB1B4A90450ADA3A46534697
:103F3000FCF770FA04B00022BDE8F04D134BFCF71B
:103F40006CBA154A4245A8BFA8F500154FF0000409
:103F5000B8BF124D22462B46FCF75CFA064688464F
:103F600022462B4600200949FCF754FA04460D4628
:103F70003A46534630464146FCF74CFA04B02246D6
:103F80002B46BDE8F04DFCF748BA00000000F03FBA
:103F9000A42500003333D33F0000E93F0000D23FA7
:103FA0002DE9F0414F1E00EBC7010446D1E90001A5
:103FB00015461E4637F006020DD02A463346FCF75A
:103FC0002FFA7F1E04EBC703D3E90023FCF781F926
:103FD00037F00602F1D1022F25D0042F13D0062F7F
:103FE00018BFBDE8F0812A463346FCF719FAD4E938
:103FF0000A23FCF76EF92A463346FCF711FAD4E996
:104000000823FCF766F92A463346FCF709FAD4E997
:104010000623FCF75EF92A463346FCF701FAD4E999
:104020000423FCF756F92A463346FCF7F9F9D4E99C
:104030000223FCF74EF92A463346FCF7F1F9D4E99E
:104040000023BDE8F041FCF744B900002DE9FF4D25
:10405000054621F0004084B00C46B0F1795F0BDAE0
:104060002846FFF737FD042808BF00F06FF8284600
:1040700008B02146BDE8F08D2A460B461046FCF7F5
:10408000CFF906460F462A462346FCF7C9F9804673
:1040900026488A4632463B4605217844FFF780FF92
:1040A00083461098029160B3214A224B4046514604
:1040B000FCF7B6F9CDE900015A4640465146029B4D
:1040C000FCF7AEF982468846DDE906014FF0FF3283
:1040D000FCF787FA52464346FCF79CF932463B46CA
:1040E000FCF79EF9DDE90623FCF794F9DDE90023EE
:1040F000FCF790F908B02A462346BDE8F04DFCF7DE
:104100008CB90B465A4630463946FCF789F9084ABD
:10411000084BFCF7DEF842465346FCF781F908B03D
:104120002A462346BDE8F04DFCF7D3B8E224000050
:10413000495555555555C5BF0122FCF752BA0022C5
:10414000134610461146FCF7DDB90000024A002074
:104150001107FCF746BA000001FDFFFF02E008C8A6
:10416000121F08C1002AFAD170477047002001E0F1
:1041700001C1121F002AFBD17047000001490860ED
:1041800070470000B40000202DE9FF5F82B00021DD
:10419000DDE90430020DDDF840B0034318D044F6E9
:1041A0001050A2F2FF3242431514119801281FD07B
:1041B000A5EB0B00401C5FEA000A4FF000064E4FD3
:1041C000DFF83891B046504615D5CAF1000413E027
:1041D000119801244AA3012801D16FEA0B0102982A
:1041E000119AC0E90031C0E9024206B0BDE8F09F73
:1041F000CBF10000DFE704460021404A491842EBBA
:104200000450CDE9001012E0E00707D032463B46EB
:1042100040464946FCF704F98046894632463B460B
:1042200010461946FCF7FCF806460F466410002CB1
:10423000EAD1DDE90401DDE90023BAF1000F06DA75
:10424000FCF7EEF842464B46FCF7EAF805E0FCF7CF
:1042500059F942464B46FCF755F904460E460022F2
:10426000284BFCF711FA03D84FF0FF30014607E066
:104270000022254B20463146FCF72BF8FCF734FB97
:10428000102409E0002C0ADB0A220023FCF746FA7E
:10429000039B30321A55641E50EA0102F2D1641CAD
:1042A000039AC4F111031444119A012A03D0012284
:1042B00008430DD10AE0084304D000204FF0110B51
:1042C000119072E7A3EB0B056D1E0DE05B4504DD5D
:1042D0004FF0000205F1010504E003DA4FF000029F
:1042E000A5F10105002AECD002981199C0E902312C
:1042F000C0E9004579E70000000014400000F03FED
:10430000300000000000F0430000E03F2DE9FF4FC7
:1043100095B09A46884606460025EEE1252877D1D5
:1043200000242746F94A0121039400E0044316F8CB
:10433000013F203B01FA03F01042F7D130782A28E0
:1043400011D06FF02F033078A0F13002092A16D86F
:10435000039A44F0020402EB820203EB420210448F
:10436000761C0390EFE758F8042B0392002A03DA37
:10437000504244F40054039044F00204761C307818
:104380002E2816D116F8010F44F004042A280DD067
:104390006FF02F023078A0F13003092B09D807EB1A
:1043A000870302EB4303C718761CF3E758F8047B36
:1043B000761C30786C280FD006DC4C2817D0682883
:1043C0000DD06A2814D104E0742810D07A280FD1B7
:1043D0000DE044F400140AE044F4801401E044F4D5
:1043E00040147278824202D104F58014761C761C47
:1043F000307866280BD013DC582877D009DC0028E9
:1044000075D04528F6D04628F4D047281AD193E134
:1044100018E0632835D0642879D0652812D18BE163
:10442000702873D008DC6728F1D069286FD06E2817
:104430000DD06F2806D1ACE073282CD0752874D02D
:10444000782853D05246179990476D1C54E1C4F315
:104450000250022809D003280DD0D8F800100428F3
:104460000DD00D6008F1040846E1D8F80010EA17F5
:10447000C1E90052F6E7D8F800100D80F2E70D70A0
:10448000F0E718F8041B8DF8001000208DF80100EB
:10449000EB46012003E058F804BB4FF0FF30610702
:1044A0004FF0000102D40DE009F101018946B94243
:1044B0000FDA8145F8DB1BF809100029F4D108E078
:1044C00009F1010189468142FADB1BF80910002934
:1044D000F6D103985346A0EB090721463846179AB0
:1044E00000F080FA284400EB090507E044E008E109
:1044F0000DE01BF8010B524617999047B9F10109DD
:10450000F7D2534621463846179AF2E039E00A219D
:10451000C4F302524FF0000B0091022A06D058F863
:10452000040BC117032A09D00AE023E008F10700B1
:1045300020F00702F2E80201904605E000B2C11740
:10454000042A01D140B2C117002906DA0A46002127
:10455000404261EB02012D2202E0220504D52B220C
:104560008DF80420012203E0E20701D02022F7E7C2
:10457000914657E00A2100E010214FF0000B009116
:104580000BE010214FF0000B44F0040408270091C9
:1045900003E008204FF0000B0090C4F30252022AFF
:1045A00005D058F8040B0021032A08D008E008F1D0
:1045B000070020F00702F2E80201904603E080B213
:1045C000042A00D1C0B24FF0000922072AD5327860
:1045D000702A07D0DDF800C08CF0100C5CEA0B0CE0
:1045E00005D00EE040228DF80420012208E050EAB8
:1045F000010306D030238DF804308DF80520022207
:104600009146009B83F0080353EA0B030AD150EA5A
:10461000010201D1620705D530228DF804204FF048
:1046200001097F1E3278582A04D039A20C920CAAB4
:1046300002920BE03BA2F9E75B46009AFCF76EF8AA
:104640000C9B9B5C029A521E0292137050EA01026C
:10465000F2D1029804A9081A00F1200B600702D5D4
:1046600024F4803400E001275F4502DDA7EB0B0056
:1046700000E0002000EB0B01009003984944401A31
:104680000390E00306D453462146179A039800F09E
:10469000A9F90544002706E001A85246C05D179914
:1046A00090476D1C7F1C4F45F6DBE0030CD553464D
:1046B0002146179A039800F095F9054404E030204C
:1046C0005246179990476D1C0099481E009000298A
:1046D000F5DC08E00298029952460078491C0291E4
:1046E000179990476D1CBBF10001ABF1010BF1DC98
:1046F0005BE100F065F90544761C307800287FF412
:104700000DAE19B02846BDE8F08F00000928010061
:104710003031323334353637383961626364656637
:1047200000000000303132333435363738394142F9
:104730004344454600000000600700D4062708F106
:10474000070020F00700F0E80223804603F0004C49
:104750005FEA0C0001D097A009E0200501D596A0E2
:1047600005E0E00701D095A001E0AFF24C00139006
:10477000307823F0004365280CD006DC452809D0AA
:1047800046281DD047287FD13BE0662818D06728EF
:104790007AD136E00021112F01DB112000E0781CD6
:1047A000CDE9000104A90CA8FFF7EEFCDDE90D013D
:1047B0000C9A4FF0000B07F10109109200914EE0A6
:1047C0004FF000400097CDE9011004A90CA8FFF7B5
:1047D000DBFCDDE90D020C9B0F994FF0000B9146BD
:1047E0001093009211B9791C00EB0109B7EB090095
:1047F00003D4C0F1FF3B07F10109A9EB07000190C9
:1048000042E0012F00DA01270021112F01DD1120E4
:1048100000E03846CDE9000104A90CA8FFF7B4FC7C
:10482000DDE90D010C9A00914FF0000BB946109292
:1048300021070FD4009A4A4503DA914601E0A9F115
:104840000109B9F1010F05DD109AA9F10101515CCF
:104850003029F4D0B84202DA10F1040F03DA012152
:10486000CDE9011010E0002803DC8344A9EB00012E
:1048700002E0411C494500DD8946A0EB0B00401CCD
:1048800001904FF000400290200705D40198484560
:1048900002DB4FF0FF30019000208DF84B000298B2
:1048A0000DF14B07B0F1004F25D002200C902B20CA
:1048B0000D90029800280CDA404202902D200D90B5
:1048C00007E00A210298FBF713FF3031029007F846
:1048D000011D0C99481E0C900029F2DC029800285A
:1048E000EFD1791E0D980870307800F0200040F06C
:1048F000450007F8020D11A8C01BC01D02901398B7
:10490000007800B1012000EB0901019801EBE07192
:10491000029801440398401A401E0390E00306D415
:1049200053462146179A039800F05CF80544139803
:10493000007818B15246179990476D1CE00323D5B3
:1049400053462146179A039800F04CF805441BE0A3
:10495000BBF1000F07DB0098584504DD109817994C
:1049600010F80B0001E0179930205246904701984B
:104970000BF1010B401E05F10105019004D12E2021
:104980005246179990476D1CB9F10001A9F1010930
:10499000DEDC05E017F8010B5246179990476D1CB5
:1049A0000299481E02900029F4DC53462146179ACA
:1049B00003989EE62D0000002B0000002000000060
:1049C0002DE9F041044600251E461746880404D40C
:1049D00005E039462020B0476D1C641EF9D52846F5
:1049E000BDE8F0812DE9F041044600251E469046C1
:1049F000C80301D5302700E02027880404D505E04E
:104A000041463846B0476D1C641EF9D52846BDE8BE
:104A1000F0814A68002A06D00A68531C0B601070A7
:104A20004868401E486070472DE9F041D0E90060B9
:104A3000D1E9004380461D46224630464146FBF7F9
:104A400023FE01D2012700E0002722462B463046F4
:104A50004146FBF701FE01D2012000E00020381A98
:104A6000BDE8F0810FB4802100B5A1B023AB68464A
:104A7000229AFFF715F86846FBF724FC81B26846D6
:104A8000FEF7A2FF21B05DF814FB0000DFF8909064
:104A9000DFF890B0244CDFF894A04A46D4E90C012A
:104AA0005B46FBF7BDFC00F039FC07468846D4E9BD
:104AB0000C014A465346FBF7B3FC00F02FFC0546B9
:104AC0000E46D4E90C011A4A1A4BFBF7A9FC00F078
:104AD00025FC2A463346FBF7FCFB3A464346FBF7E8
:104AE000F8FBC4E90801D4E90C014A465346FBF738
:104AF00097FC00F013FCC4E90E01D4E908230E482A
:104B0000FEF726FBC4E90A01D4E90C010B4A0C4B61
:104B1000FBF7DFFBC4E90C01322000F0E5FCBCE749
:104B200009944A702F8BC840000000202F8BB8409A
:104B30003B43D5598CA28340D00000202D431CEB71
:104B4000E2361A3F064D4FF400444FF4FA66214610
:104B50002846FCF7E9F9304600F0C6FCF7E700000C
:104B6000000801401CB5FCF713FEFEF7F6FBFEF74C
:104B700015FAFEF7F5F9FEF7CFFAFEF767FAFEF73A
:104B800045FA00211F48FDF7DDFB00F017FC1E4928
:104B90000220CDE90001002380221CA11E4800F064
:104BA00071FE19490320091DCDE900014FF48074FD
:104BB0000023224619A11C4800F064FE124904207B
:104BC0000831CDE900010023224618A11A4800F05F
:104BD00059FE0D4905200C31CDE90001002380224A
:104BE00016A1194800F04EFE074907201031CDE903
:104BF00000010023802215A1184800F043FE00F0B8
:104C0000A9FCFEE77C010020040000206C656432F2
:104C10005F7461736B000000454B000866696C743B
:104C200065725F7461736B008D4A000873657276FC
:104C30006F5F7461736B0000E55200086F6C656410
:104C40005F7461736B000000CD4C00086D707536A9
:104C50003035305F7461736B00000000614C0008F8
:104C600086B0FEF795F8174C00B1FEE7164F4FF0EF
:104C7000FF396D4603AE07F10C086846FEF7F0F801
:104C800003A8FEF729F94946A06900F05FFD012855
:104C900013D100204FEA080155F8202047F82020C2
:104CA00056F8202041F82020401C0328F4DB002384
:104CB0001A461946A06900F0CDFC142000F014FC3F
:104CC000DBE7000000000020B800002098B0434C53
:104CD0004FF0FF352946A06900F038FD012816D1B4
:104CE0003F4B002012A915AA03F10C0653F82070BF
:104CF00041F8207056F8207042F82070401C0328BC
:104D0000F4DB00231A461946A06900F0A3FCFEF765
:104D10004DFA1298FBF78DFCCDE9000131A240213C
:104D200002A8FEF7A3FE0021012302AA0846FEF70F
:104D30008FFA1398FBF77DFCCDE900012CA24021EE
:104D400002A8FEF793FE012302AA0A210020FEF723
:104D50007FFA1498FBF76DFCCDE9000127A24021F2
:104D600002A8FEF783FE012302AA14210020FEF709
:104D70006FFA1598FBF75DFCCDE9000122A24021F6
:104D800002A8FEF773FE012302AA23210020FEF7EA
:104D90005FFA1698FBF74DFCCDE900011DA24021FA
:104DA00002A8FEF763FE012302AA2D210020FEF7D0
:104DB0004FFA1798FBF73DFCCDE9000118A24021FE
:104DC00002A8FEF753FE012302AA37210020FEF7B6
:104DD0003FFAC82000F088FB7CE7000000000020BC
:104DE000B8000020412E583A252E32666700000098
:104DF000412E593A252E326667000000412E5A3A5C
:104E0000252E326667000000472E583A252E32665E
:104E10002F730000472E593A252E32662F7300005B
:104E2000472E5A3A252E32662F7300002DE9F041A5
:104E30001E4C0F460546E6682068001D00F0D4FAB7
:104E400038B9206890F82C100120884021698143EE
:104E50002161681C15D1A7B1154922684868906086
:104E600023688268DA6022688368121D5A602268AB
:104E7000121D8260206841610868401C0860BDE81E
:104E8000F08120683544B5424560216805D2E06B69
:104E9000BDE8F041091D00F0C8BAA06B091D00F083
:104EA000C4FAA06A8542EAD2A562E8E7540000206D
:104EB000100400202DE9F041054600F0CFFA364CF1
:104EC000A068401CA0602068344F10B1606940B3F6
:104ED0002DE02560A068012829D1002606EB860078
:104EE00007EB800000F093FA761C052EF6D32B48D2
:104EF000643000F08CFA2948783000F088FA2748AE
:104F00008C3000F084FA2548A03000F080FA234865
:104F1000B43000F07CFA21486430A0631430E063C0
:104F200005E02068E96AC06A884200D82560606AA6
:104F30000121401C6062E86A2269814011432161BD
:104F400000EB800007EB80004068A8608168E960A2
:104F50008268291D51608160E86A00EB800007EBE0
:104F60008001696157F82010491C47F8201000F0B3
:104F700083FA606900280CD02068E96AC06A884218
:104F800007D207494FF080500860BFF34F8FBFF33F
:104F90006F8FBDE8F0810000540000205C0300200A
:104FA00004ED00E02DE9F041856B1646044600272C
:104FB000026CFAB17EB1E068FBF760F9E168206C41
:104FC000091AE1602268914202D2A168081AE060E1
:104FD000022E0DD00EE06068FBF750F9216C60687E
:104FE00008446060A168884204D32068606001E0E2
:104FF00005B16D1E6D1CA5633846BDE8F08110B586
:105000000446006B00F042FA2046BDE8104000F074
:105010003DBA00000E484FF42051420706D0C01D93
:105020000B4920F00700411AC1F52051094A00231D
:105030000144C2E900030839143A21F00701116064
:105040004B600B600B1AC0E900139360536070470C
:1050500024040020AC000020144E154CA6F1A0073B
:105060004FF08058DFF84C9012E000BF00F0F6F9E6
:10507000F068C568281D00F0B7F9A068401EA06060
:105080006068401E606000F0F7F92846FFF7B7FF40
:1050900060680028EAD138680128F9D9C9F8008089
:1050A000BFF34F8FBFF36F8FF2E70000FC030020C8
:1050B0005400002004ED00E02DE9F0479946DDE9B9
:1050C000096480466FF00303206B03EB8202089DA6
:1050D000104420F0070761B1002023180A5C83F810
:1050E00034200A5C12B1401C1028F6D3002084F84A
:1050F0004300052D00D30425201DE56200F092F940
:1051000004F1180000F08EF92461C5F10500646215
:10511000A0614A464146384600F0D2F82060002E91
:1051200000D03460BDE8F08730B5114900E0114689
:105130000A688242FBD34B685C18844203D1406802
:1051400018444860084643681C18944209D1084C2A
:10515000143C2468A24209D052681A4442600A688A
:1051600012680260814200D0086030BD0460F9E737
:10517000AC00002010B5044600F070F9A06B28B117
:105180005FF0000400F078F9204610BD0124F9E733
:105190000548816B096821B1816BC9680968816222
:1051A00070474FF0FF31FAE754000020BF2080F332
:1051B0001188BFF34F8FBFF36F8FFEE72DE9F041EA
:1051C000044600F04BF994F9455004F1240609E037
:1051D000606A48B1304600F015FC08B100F0A4F94F
:1051E0006D1E6DB2002DF3DC4FF0FF3684F8456084
:1051F00000F042F900F032F994F9445004F110073C
:1052000009E0206948B1384600F0FCFB08B100F025
:105210008BF96D1E6DB2002DF3DC84F84460BDE89F
:10522000F04100F029B9000070B50446002600F0F6
:10523000B9F9224D286808B9FFF7ECFECCB304F0A9
:105240000700C0F11000C1438C4232D82118002958
:105250002FDD686881422CD8184814300246146843
:1052600001E02046144662688A4202D22268002A7F
:10527000F7D12A6894421CD00668226802606068F0
:105280000836421A102A04D9601842606160FFF79C
:105290004BFF61686868401A6860AA68904200D253
:1052A000A86041F00040606000202060E868401C79
:1052B000E86000F00BFC304670BD00009800002054
:1052C00010B5031F4FF080741C601B1F21F00101FB
:1052D0001960191F024B0B60143940380A6010BD69
:1052E000AD5100080024012544F61F662246002126
:1052F0000948FEF71DF82DB16434A4B2B44206D3B8
:10530000002504E0643C2404240C00D101250A207B
:1053100000F0EAF8EAE700007C01002000B5254B28
:1053200021F0004287B09A4203DC0022134600922B
:105330002BE0214B9A4208D140B94FF00100FEF713
:105340001DFFFEF7FCFE07B000BD03DBFEF7F4FE19
:1053500007B000BD02AAFEF7E1FB10F003014FF019
:1053600001000DD0012914D002291AD00DF1080C2A
:105370009CE80F00FEF796FD07B081F0004100BDEC
:105380000DF1080C00909CE80F00FEF75FFE07B0DF
:1053900000BD0DF1080C9CE80F00FEF783FD07B07F
:1053A00000BD0DF1080C00909CE80F00FEF74EFECA
:1053B000E2E70000FB21E93F0000F07F08480068B9
:1053C000C16841F01001C16005488C300068016877
:1053D00041F002010160022202490148FDF71CBAB6
:1053E000C401002040000020D0E9013201699A6028
:1053F000D0E901235A604A68824201D182684A603A
:10540000002202610868401E08600868704700F1C9
:1054100008014FF0FF32C0E90112C16001610021B3
:105420000160704700210161704730B50B685A1C5C
:1054300002D000F1080202E0026904E0224654684A
:1054400025689D42FAD953684B6099608A60516023
:1054500008610168491C016030BD0000BF2080F375
:105460001188BFF34F8FBFF36F8F02480168491C4B
:10547000016070479400002003490868401E0860DE
:1054800001D180F3118870479400002070B5002886
:105490001BD0A0F108046068002816DA21680029F2
:1054A00013D120F00040606000F07CF8074D606888
:1054B0006968084468602046FFF736FE2869401C8A
:1054C0002861BDE8704000F001BB70BD980000206D
:1054D0004FF0E02000210161816102494161072113
:1054E000016170473F19010010B5020009D000F0BA
:1054F00059F800211046FFF799FC00F0E7FA002860
:1055000007D104494FF080500860BFF34F8FBFF3BD
:105510006F8F10BD04ED00E002490A6A0260C9689D
:10552000416070475400002001490120C861704764
:105530005400002010B50C46054909681831FFF7E2
:1055400074FF2046BDE810400121FFF76FBC00004A
:10555000540000207CB50F480025CDE900502B46B3
:1055600080220DA10E4800F08DF90A4C2C3C012838
:105570000ED1BF2080F31188BFF34F8FBFF36F8F21
:105580004FF0FF30A06201206061E56000F034F868
:10559000206B7CBD8000002049444C450000000089
:1055A000595000080248416B491C41637047000094
:1055B000540000200E48416B11B10121C1617047B8
:1055C0000021C16101690B4AB1FA81F1C1F11F01EA
:1055D00001EB810102EB810101F108034A68526885
:1055E0004A609A4201D152684A60D16801607047AE
:1055F000540000205C030020094810B5016841F404
:105600007F010160016841F07F410160FFF760FFA9
:10561000044900200860FAF787FD002010BD000053
:1056200020ED00E09400002010B5BF2080F3118829
:10563000BFF34F8FBFF36F8F00F052F918B10449D9
:105640004FF080500860002080F3118810BD0000EA
:1056500004ED00E02DE9FF4700273B4E82B099465C
:105660008A460446B8464FF0805500BFFFF7F6FE65
:10567000A06BE16B884206D3B9F1020F03D0049806
:10568000C0B1D7B11DE04A4651462046FFF78AFC1B
:10569000616A19B104F1240000F0B4F920B1356059
:1056A000BFF34F8FBFF36F8FFFF7E6FE012006B009
:1056B000BDE8F087FFF7E0FE21E06846FFF72CFF2A
:1056C0000127FFF7D9FEFFF76DFFFFF7C7FE94F93B
:1056D0004400401C01D184F8448094F94500401CEA
:1056E00001D184F84580FFF7C7FE04A9684600F0A1
:1056F0009DF830B12046FFF761FD00F0E7F900208A
:10570000D5E7FFF7ABFEA06BE16B884213D1FFF743
:10571000B3FE04F110000499FFF70CFF2046FFF7D9
:105720004DFD00F0D3F90028A0D13560BFF34F8FB5
:10573000BFF36F8F9AE7FFF79FFE2046FFF73EFD0E
:1057400000F0C4F992E7000004ED00E02DE9F34118
:105750000025354F82B00446A8464FF0805600BF62
:10576000FFF77CFEA06B98B1401EA063206948B192
:1057700004F1100000F046F920B13E60BFF34F8FF6
:10578000BFF36F8FFFF778FE012004B0BDE8F08112
:10579000039808B11DB106E0FFF76EFE27E06846EA
:1057A000FFF7BAFE0125FFF767FEFFF7FBFEFFF7E5
:1057B00055FE94F94400401C01D184F8448094F9CA
:1057C0004500401C01D184F84580FFF755FE03A930
:1057D000684600F02BF8002820460AD0FFF7EEFCC0
:1057E00000F074F92046FFF7C5FC0028B8D000206F
:1057F000CBE7FFF7BFFC88B104F124000399FFF762
:1058000099FE2046FFF7DAFC00F060F90028A7D1E6
:105810003E60BFF34F8FBFF36F8FA1E72046FFF7C6
:10582000CDFC00F053F99BE704ED00E02DE9F041D9
:105830000C460546FFF712FE114EF2686B682168B0
:10584000D01A4F1C0AD02F68D6F820C00026674512
:1058500006D0934204D8012526600BE0002509E01C
:10586000814205D9081A20602846FFF755FEF5E762
:1058700001252660FFF700FE2846BDE8F081000004
:10588000540000202DE9FF5F8346DDE90E8799462D
:1058900016468A469000FFF7C7FC05001DD04C2035
:1058A000FFF7C2FC040015D04C21FAF700FD256378
:1058B0000021CDE90241CDE900874B4632465146F1
:1058C0005846FFF7F9FB2046FFF7F4FA012004B031
:1058D000BDE8F09F2846FFF7D9FD4FF0FF30F6E70F
:1058E0002DE9F041454C0026606B28B1A069401CB1
:1058F000A0613046BDE8F081E5686D1CE56008D127
:10590000A06BE16BA163E063206A401C2062FFF79B
:105910003FFCA16A3A488D420FD34FF0000EA16BB5
:10592000096839B1A16BC968C9684A68954212D241
:10593000A26202E04FF0FF31A1622168C96A01EB67
:10594000810150F82100012800D90126E0690028D2
:10595000CFD00126CDE7D1E902724B69BA60D1E917
:1059600002277A605F680A1D974201D1CF685F60A5
:10597000C1F814E01F687F1E1F60D1F828C0BCF179
:10598000000F15D0D1E907379F60D1E907377B6059
:10599000DCF8047001F118039F4202D10B6ACCF8C5
:1059A0000430C1F828E0DCF800305B1ECCF8003091
:1059B000CB6A0127D4F810C09F4047EA0C07276143
:1059C00003EB830300EB83035B688B609F68CF600E
:1059D0009F687A609A60CA6A02EB820200EB8203D7
:1059E0004B6150F822305B1C40F82230C96A2268B3
:1059F000D26A914293D9012691E700005400002019
:105A00005C03002070B5C068C068D0E90732816AC5
:105A10009A60D0E907235A604B6800F1180293425C
:105A200001D1036A4B60002383620C68641E0C6022
:105A300024494D6B01249DB1234D6B68C3619E6861
:105A400006629E6872609A6085622A68521C2A60AB
:105A5000C06A0A68D26A904232D90120CC6170BD16
:105A6000D0E902654269B560D0E9025675605668B2
:105A7000051DAE4201D1C6685660436113685B1EC6
:105A80001360C26A0E6904FA02F333430B610E4BD2
:105A900002EB82028C3B03EB8202526882609668C2
:105AA000C660966875609560C26A02EB820203EB7D
:105AB0008205456153F822506D1C43F82250C7E718
:105AC000002070BD54000020E80300202DE9F041C3
:105AD00000242746FFF7C2FC3F4D686B401E6863F9
