:020000040800F2
:10000000283000209D010008732D0008AD25000850
:10001000712D00086F090008A534000800000000D9
:10002000000000000000000000000000792D000822
:10003000F909000800000000752D0008A32D000834
:10004000B7010008B7010008B7010008B7010008B0
:10005000B7010008B7010008B7010008B7010008A0
:10006000B7010008B7010008B7010008B701000890
:10007000B7010008B7010008710900087D090008F0
:10008000B7010008B7010008B7010008B701000870
:10009000B7010008B7010008B7010008B701000860
:1000A000B7010008B7010008B7010008B701000850
:1000B000B7010008B7010008092E0008B7010008C1
:1000C000B7010008B7010008B7010008B701000830
:1000D000B70100083D340008B7010008B701000867
:1000E000B7010008B7010008B7010008DFF810D019
:1000F00000F00CFC004800476D450008AFF300809D
:1001000028300020224B19680868B0E8F00F80F30F
:100110000988BFF36F8F4FF0000080F311884EF015
:100120000D0E70470000000006480068006880F36C
:10013000088862B661B6BFF34F8FBFF36F8F00DFE1
:1001400000BF00BF08ED00E0EFF30980BFF36F8F41
:100150000F4B1A6820E9F00F106008B54FF0BF0090
:1001600080F31188BFF34F8FBFF36F8F04F006FE4B
:100170004FF0000080F31188BDE808401968086856
:10018000B0E8F00F80F30988BFF36F8F704700BFAE
:100190004C000020EFF305807047000006488047C0
:1001A00006480047FEE7FEE7FEE7FEE7FEE7FEE75C
:1001B000FEE7FEE7FEE7FEE7052E0008ED0000087B
:1001C000202A04DB203A21FA02F00021704721FAAC
:1001D00002F3D040C2F12002914008431946704713
:1001E0002DE9FE43994615468846074601AC02298B
:1001F00042D3002D40D000200290A8F101004FF022
:10020000FF36009022E000FB057201FB05701146ED
:100210004A469047002805DC54F82600304444F84C
:10022000260013E060682A4600FB057154F8040CB0
:1002300000FB057007E00B7890F800C001F801CBD7
:1002400000F8013B521E002AF5D1764254F8040C06
:1002500061688842D7DC4B462A463846FFF7C0FF24
:1002600054F8040C4B46A8EB0001401C00FB057041
:100270002A46491EFFF7B4FFBDE8FE8340EA0103AA
:100280009B0703D009E008C9121F08C0042AFAD24C
:1002900003E011F8013B00F8013B521EF9D2704710
:1002A000D2B201E000F8012B491EFBD270470022B8
:1002B000F6E710B513460A4604461946FFF7F0FF65
:1002C000204610BD421C10F8011B0029FBD1801AEA
:1002D00070472DE9FE4F804681EA0300C00F0C46AF
:1002E000009021F0004123F00045B8EB0200A94145
:1002F00005D24046214690461C460B46024623F056
:100300000040104347D0270DC7F30A00C3F30A513A
:100310000290401A019040286BDAC3F3130040F4B6
:10032000801B0098924620B10023D2EB030A63EBB6
:100330000B0B01985946C0F14002504600F019FAE3
:1003400006460D4650465946019A00F021FA10EB38
:1003500008006141002487EA115284EAE7731A43D6
:1003600040D0009A62B3019A012A4FEA075215DC85
:10037000001B61EB02014FF0004202EA0752CDE997
:100380000042001C41F5801132462B4600F058FA1D
:1003900003B0BDE8F08F40462146F9E7001B61EB52
:1003A0000201001C41F5801300185B412018A2F5E2
:1003B000001747EB030140EAD570B6196D4111E013
:1003C0006D084FEA360645EAC0754FEA0752001B32
:1003D00061EB0201001C41F5801149084FEA300031
:1003E0000019514132462B4603B0BDE8F04F00F0F2
:1003F00018BA0098012240000023D0EB020263EB00
:10040000E073009821464FEAE074B8EB000061EB1E
:100410000401E9E783F000435BE781F0004158E71E
:100420002DE9FE4F81EA030404F0004421F000416D
:1004300000944FF0000B23F0004350EA01045ED01B
:1004400052EA03045BD0C3F30A54C1F30A552C44A7
:10045000A4F2F3340194A0FB0254C1F3130141F45C
:100460008011C3F3130343F4801301FB024400FB28
:10047000034E840A970A44EA815447EA8357A4FB4F
:10048000076802958D0A05FB07854FEA932C04FB4C
:100490000C542705029D4FEA065847EA1637B5EB7C
:1004A00008056EEB070C870E920E47EA811742EAA9
:1004B0008312A7FB0201B6EB0B0164EB00042B0DCA
:1004C00043EA0C335E1844EB1C50DA465146E7FB16
:1004D0000201C5F313044FEA0B3343EA14534FEA06
:1004E0000432019C43EA0603A4F10C040294009C2C
:1004F000CDE900B400F0A4F903B0BDE8F08F00200E
:100500000146F9E72DE9F04D81EA030404F0004BC0
:1005100021F0004514464FF0000A23F0004150EA54
:10052000050220D054EA01021DD0C5F30A57024645
:10053000C5F31303C1F31300C1F30A5640F4801549
:1005400043F48013A7EB0608101BD64608F2FD38CB
:1005500073EB050002D308F1010801E092185B413A
:10056000B8F1000F03DA00200146BDE8F08D00204D
:100570004FF48011064684460EE0171B73EB050707
:1005800005D3121B63EB050306434CEA010C490833
:100590004FEA300092185B4150EA0107EDD152EA70
:1005A000030012D082EA040083EA0501084305D063
:1005B000101BAB4106D20122002306E000224FF0BF
:1005C000004302E06FF0010253101AEB06004CEBFF
:1005D000085110EB0A0041EB0B01BDE8F04D00F0B3
:1005E00020B970B521F0004303430CD0C1F30A5584
:1005F0000024D5EB040564EB0403D617AD1AB34110
:1006000002DB0020014670BD201841EB025170BD95
:100610000EB5C10F80EAE0700844CA07002140F21D
:1006200033438DE80E000A460B4600F009F903B08B
:1006300000BD0EB540F2334102910021CDE9001119
:100640000A460B4600F0FCF803B000BD30B5041EAE
:1006500071F1000404DB4FF00044404264EB0101FF
:10066000141E73F1000405DB1C464FF00043524298
:1006700063EB04038B4208BF824230BD30B5041ED9
:1006800071F1000404DB4FF00044404264EB0101CF
:10069000141E73F1000405DB1C464FF00043524268
:1006A00063EB0403994208BF904230BD01F0004360
:1006B00030B421F0004150EA010206D00A0DA2F543
:1006C0006072C1F31301002A02DC30BC00207047C5
:1006D000440F44EAC104C100E01830BC00EBC25032
:1006E00000F068B830B50B460146002020220124F6
:1006F00009E021FA02F59D4205D303FA02F5491BF0
:1007000004FA02F52844151EA2F10102F1DC30BD05
:100710002DE9F05F0546002092469B468846064636
:10072000814640241BE02846414647462246FFF7C3
:1007300047FD53465A46C01A914110D311461846F8
:10074000224600F016F82D1A67EB01084F462246A4
:100750000120002100F00DF817EB00094E41201E8A
:10076000A4F10104DFDC484631462A464346BDE891
:10077000F09F202A04DB203A00FA02F100207047A3
:100780009140C2F1200320FA03F3194390407047CF
:10079000202A06DBCB17203A41FA02F043EAE07345
:1007A00006E041FA02F3D040C2F120029140084332
:1007B000194670470029A8BF7047401C490008BF70
:1007C00020F00100704710B4B0FA80FC00FA0CF081
:1007D00050EA010404BF10BC704749B1CCF12004B9
:1007E00021FA04F411FA0CF118BF01212143084346
:1007F000A3EB0C01CB1D4FEA00614FEA102042BF72
:10080000002010BC704700EBC35010440029A4BF67
:1008100010BC7047401C490008BF20F0010010BC0C
:10082000704710B5141E73F1000408DA401C41F142
:10083000000192185B411A4301D120F0010010BD64
:100840002DE9F04D92469B4611B1B1FA81F202E0DA
:10085000B0FA80F220329046FFF78BFF04460F4635
:1008600040EA0A0041EA0B0153465A46084313D0B6
:10087000114653EA010019D0C8F140025046FFF773
:100880009FFC05460E46504659464246FFF771FF0B
:10089000084305D0012004E020463946BDE8F08D2C
:1008A0000020054346EAE0762C4337430A98630567
:1008B000E40AA0EB08000022FD0A44EA47540A308B
:1008C00002D500200146E9E7010510196941DDE97B
:1008D000084500196941BDE8F04DA2E7C1F30A528D
:1008E000C1F3130140F2FF3341F480119A4202DA5E
:1008F00000200146704740F233439A42A2F233424D
:1009000002DC5242FFF75CBCFFF733BF064C074DD9
:1009100006E0E06840F0010394E8070098471034CF
:10092000AC42F6D3FFF7E6FB005200082052000865
:1009300070B5C1F30A5201F000450024C1F3130160
:1009400040F2FF3341F480119A4201DA002070BD79
:1009500040F233439A42A2F2334203DC5242FFF7A1
:100960002FFC00E090402C43F1D0404270BDFEE7E8
:10097000014800F0B3B8000050020020014800F028
:10098000ADB800000C02002030B590F840500124B2
:10099000AC40C56B6C60046863604368102B0368EF
:1009A00003D099600068C26030BD9A600068C16081
:1009B00030BD000010B50B4C20784F2805D1607871
:1009C0004B280DD108A003F051FD20784E2807D107
:1009D00060784F2804D1BDE8104005A003F046BD63
:1009E00010BD00003A00002052494748540D0A004B
:1009F0004552524F520D0A00704772B6FEE710B5CD
:100A000090F821100022022905D00421816380F88A
:100A10002020012010BD01680B6823F00E030B603D
:100A200001680B6823F001030B6090F84030C46B41
:100A3000012101FA03F3636080F8211080F820207F
:100A4000104610BD10B590F821100024022903D0E3
:100A50000421816301243DE001680A6822F00E024E
:100A60000A6001680A6822F001020A601A4A0168F5
:100A7000914201D1012121E0174A1432914201D162
:100A800010211BE0144A2832914201D1891515E04A
:100A9000114A3C32914201D189140FE00E4A503282
:100AA000914202D14FF4803108E00B4A6432914206
:100AB00002D14FF4801101E04FF08071064A083AEC
:100AC0005160012180F82110002180F82010416B35
:100AD00001B18847204610BD080002402DE9F05FB3
:100AE000C16B0C6801680B68D0F840C0042202FAA0
:100AF0000CF2494DDFF824A1494E4A4FDFF828B1E6
:100B0000DFF828E122422CD05A072AD50A6892063B
:100B100003D40A6822F004020A600168A94201D1E4
:100B2000042219E0514501D1402215E0B14202D121
:100B30004FF4806210E0B94202D14FF480420BE0E2
:100B4000594502D14FF4802206E0714502D14FF49D
:100B5000800201E04FF080622F4908394A60C16A83
:100B60003BE04FF0020808FA0CF818EA040F4FF0C7
:100B700000094FF0010235D05FEA837832D50B6867
:100B80009B0605D40B6823F00A030B6080F8212034
:100B90000168A94201D1022219E0514501D1202268
:100BA00015E0B14202D14FF4007210E0B94202D117
:100BB0004FF400520BE0594502D14FF4003206E0E9
:100BC000714502D14FF4001201E04FF0007212495A
:100BD00008394A6080F82090816A00291AD0BDE85F
:100BE000F05F0847082505FA0CF5254212D01B07CF
:100BF00010D50B6823F00E030B6090F84010C36B08
:100C000002FA01F15960826380F8212080F8209077
:100C1000016BE2E7BDE8F09F080002401C000240C3
:100C20003000024044000240580002406C00024084
:100C300030B528B308C8134914221944B1FBF2F1A6
:100C40008900C16310498163022141771A6843F624
:100C5000F0718A43D0E900142143D0E902452C43C6
:100C60002143046921434469214384692143114399
:100C7000196000214163012242770177084630BDA7
:100C8000012030BDF8FFFDBF0000024070B50446F2
:100C900090F82000002501280CD0012084F82000C5
:100CA00094F821600020012E06D084F8200002254F
:100CB000284670BD022070BD022684F82160A06322
:100CC0002068066826F0010606602046FFF75CFEF5
:100CD000E06A00282068016802D041F00E0106E0B9
:100CE00021F0040101602068016841F00A010160FF
:100CF0002068016841F001010160D9E72DE9F84F52
:100D0000DFF8B8910024A9F1040B23460F2709F15D
:100D1000040AABF1040EC9E00125A5402A40AA420D
:100D20007DD1674ED1F804C0ACEB0608B44532D093
:100D300014DCBCF1030F3AD009DCBCF1000F2AD05F
:100D4000BCF1010F1CD0BCF1020F31D11DE0BCF190
:100D5000110F17D0BCF1120F2AD119E0B8F5881F76
:100D600019D006DCB8F5803F15D0B8F5801F1FD12B
:100D700011E0B8F5001F0ED0B8F5041F18D10AE035
:100D8000CB6815E0CB681B1D12E0CB6808330FE081
:100D9000CB680C330CE08B682BB1012B4FF00803B0
:100DA00003D0456104E0042302E0056100E0002374
:100DB000FF2A01D8064601E000F104064FEA840547
:100DC00001D9A5F12005D6F8008007FA05FC28EA2C
:100DD0000C0803FA05F548EA0508C6F800804D68D6
:100DE000ED0062D5374DAE6946F00106AE61AD69E2
:100DF00024F0030605F001050095334D06EB050CC4
:100E0000DCF80850A607360F07FA06F825EA0805A9
:100E1000DFF8B880404503D14FF0000817E044E008
:100E2000DFF8AC80404502D14FF001080FE0DFF859
:100E3000A480404502D14FF0020808E0DFF8988016
:100E4000404502D14FF0030801E04FF0040808FAD2
:100E500006F848EA0508CCF808804D68D9F8006023
:100E6000ED024D4601D5164300E096432E604D68D5
:100E7000DAF80060AD02554601D5164300E096430E
:100E80002E604D68DBF80060AD035D4601D516436A
:100E900000E096432E604D68DEF80060ED03754675
:100EA00001D5164300E096432E60641C0D682A4667
:100EB000E5407FF431AFBDE8F88F00000804014041
:100EC0000000111000100240000001400008014025
:100ED000000C01400010014000140140C26821EAEA
:100EE00002030A4043EA0241016170470AB101610D
:100EF00070470904FBE70000014880687047000064
:100F00003C00002070B5040025D094F83D00002579
:100F100020B984F83C50204600F07EFA242084F862
:100F20003D002068016821F001010160206801682E
:100F300041F4004101602068016821F40041016032
:100F400000F014FC4D4A6168914201D84C4900E020
:100F50004C49884201D2012070BD4B492368B0FB47
:100F6000F1F15E6826F03F060E435E6063689342CF
:100F700006D94FF4967359434FF47A73B1FBF3F1EA
:100F80002368491C1E6A26F03F06314319626168D6
:100F9000914210D84900401EB0FBF1F2521CC2F33E
:100FA0000B02042A01D2042022E0B0FBF1F0401C25
:100FB000C0F30B001CE0A268F2B301EBC10303EB2A
:100FC0000116431EB3FBF6F35B1C43F480431B0581
:100FD00049D092B301EBC10202EB0111401EB0FBFC
:100FE000F1F0401CC0F30B0040F4804040F400409E
:100FF0002168CA694CF6FF739A431043C861D4E96B
:10100000071001432068026822F0C002114301600A
:10101000D4E9030101432068826848F2FF339A4310
:1010200011438160D4E9050108432168CA6822F0B0
:10103000FF021043C86001E00EE016E0206801687E
:1010400041F0010101602564202084F83D00256302
:1010500084F83E50002070BD01EB4106431EB3FBF7
:10106000F6F35B1CB3E70120C2E701EB4101401E30
:10107000B0FBF1F0401CC0F30B00B7E7A086010005
:1010800080841E0000093D0040420F002DE9FF4F03
:1010900083B00025DDE910799A4693460446DDF8D1
:1010A00048800095FFF728FF064694F83D00202869
:1010B0007CD11923012288492046009601F08CFB3F
:1010C0000028F5D194F83C0001286FD0012084F865
:1010D0003C0020680168C90703D1016841F00101A3
:1010E00001602068016821F400610160222084F819
:1010F0003D00402084F83E0025646762A4F82A90F1
:10110000608D20857548E062CDE9008653465A46D9
:101110002046049901F062FA00287CD1208DDFF886
:10112000C091202768B1012814D0022820680168E6
:101130001ED041F48061016020684169806900909F
:10114000BCE02068416981690091016841F4007147
:101150000160B3E02068016821F48061016072B62B
:101160002068416981690091016841F400710AE0D9
:1011700041F40061016072B62068416981690091A3
:10118000016821F48061016062B697E0032865D8A8
:1011900001280CD0022843464FF000024946204661
:1011A00000960BD001F018FBA8BB0CE091E0324692
:1011B0004146204601F0B6FB68BB72E001F00CFB33
:1011C00048BB72B633E02068016821F48061016099
:1011D00072B620680069616A0870606A401C6062CB
:1011E000208D401E2085608D401E60853D4846F262
:1011F000A8110068B0FBF1F0C0EBC00000EB80006C
:101200000090401E009007D020684069C04340070E
:101210000DD50098F5E727E044F8305F6773A573B4
:10122000206940F02000206162B625731CE0206830
:10123000016841F40071016020680069616A08700A
:10124000606A401C6062218D491E2185618D491EA6
:10125000618562B621680969017026E0324641461F
:10126000204601F05FFB18B1012007B0BDE8F08F08
:1012700020680069616A0870606A401C6062208DA5
:10128000401E81B22185608D401E608520684269C4
:10129000D243520712D4032903D1016821F480619B
:1012A000016020680069616A0870606A401C6062C1
:1012B000208D401E2085608D401E6085208D002879
:1012C0007FF464AF84F83D7084F83E5084F83C505D
:1012D000CBE70220C9E70000020010000000FFFF7A
:1012E00004000100480000202DE9FF4F83B09A461A
:1012F000DDE9119793460446DDF84080FFF7FCFDD9
:10130000054694F83D0020287FD119230122404949
:101310002046009501F060FA002876D194F83C0050
:10132000012872D0012084F83C0020680168C907B8
:1013300003D1016841F0010101602068016821F4D6
:1013400000610160212084F83D00402084F83E00C7
:1013500000262664C4F82480A4F82A90608D208595
:101360002C48E062CDE9007553465A462046049960
:1013700001F0B2F970B930E02A463946204601F052
:1013800009FB58B1206C042804D12068016841F49D
:1013900000710160012007B0BDE8F08F606A21682C
:1013A00000780861606A401C6062218D491E89B224
:1013B0002185628D521E628522685369DB435B077B
:1013C0000BD469B100781061606A401C6062208DA6
:1013D000401E2085608D401E6085208D0028CBD169
:1013E0002A463946204601F0CBF90028CAD154F8E4
:1013F0003D0B016841F400710160202004F81E09D2
:10140000E67766770020C6E7FFE70220C3E7000023
:10141000020010000000FFFF10B586B0002100910F
:101420000191029103910068104988421BD1104C30
:10143000A06940F00800A061A069694600F00800BA
:1014400004904FF44060009012200190032003901C
:101450000848FFF753FCE06940F48000E061E06970
:1014600000F48000049006B010BD00000058004059
:1014700000100240000C01400248816802781144CB
:10148000816070473C000020074810B5016841F0BA
:1014900010010160032000F0A1F80F2000F006F811
:1014A00000F050F8002010BD0020024030B5054685
:1014B0001F4887B0C16941F00401C161C06906A934
:1014C00000F00400009001A800F030F90498B0B1D9
:1014D00000F04CF940001749174AB0FBF1F11748EA
:1014E000491E0260416040F2E7320021C0E9032159
:1014F0008160816100F070FB040003D015E000F012
:1015000035F9E8E70D4800F0A9FB04000DD11E20D5
:1015100000F036F8102D07D2002229461E2000F0D8
:101520003DF80748056000E0012407B0204630BDC3
:101530000010024040420F00000800401403002049
:10154000400000200C4808B5816941F0010181612B
:10155000816901F001010091C16941F08051C161CF
:10156000C06900F0805000900448416821F0E061BB
:1015700041F00071416008BD0010024000000140D0
:10158000002809DB00F01F02012191404009800082
:1015900000F1E020C0F8001170470000F0B40E4BDD
:1015A0001B680C46C3F30223C3F10705042D00D9C1
:1015B0000425191D072901D2002300E0DB1E0126A6
:1015C00006FA05F1491E214099409E40761E1640BC
:1015D0003143F0BC01F096BF0CED00E0064900F08D
:1015E000070208684FF6FF03184040EA0220034A4A
:1015F00010430860704700000CED00E00000FA05A1
:101600002DE9F0470F46050061D0434E306800F0E9
:101610000700B84209D2306820F007003843306034
:10162000306800F00700B84251D128683B4C810770
:1016300012D5400703D5606840F4E0606060287808
:10164000000703D5606840F4605060606068A96876
:1016500020F0F000084360602878C00728D0686850
:10166000012810D02168022810D0890700292EDA1D
:10167000616821F0030101436160FFF73DFC804692
:1016800041F288390DE021688903EFE78901EDE730
:10169000FFF732FCA0EB0801494502D90320BDE861
:1016A000F0876068696800F00C00B0EB810FEFD143
:1016B000306800F00700B8420BD9306820F007000E
:1016C00038433060306800F00700B84201D0012094
:1016D000E5E72878400705D56068E96820F4E06010
:1016E000084360602878000706D56068296920F4FF
:1016F000605040EAC100606000F058F86168084A34
:10170000C1F30311515CC8400649086006480068EF
:10171000FFF7CCFE0020C2E700200240001002408C
:10172000C650000848000020400000200F22026040
:101730000C4A536803F003034360536803F0F0035B
:101740008360536803F4E063C36052684FF4E0635E
:1017500003EAD20202610448006800F00700086052
:101760007047000000100240002002400448054974
:1017700000684968044AC1F30221515CC8407047BF
:101780004800002000100240D650000804480549D7
:1017900000684968044AC1F3C221515CC8407047DF
:1017A0004800002000100240D65000080E4A516840
:1017B0000E4801F00C03042B11D0082B0FD10C485C
:1017C000C1F38343C903C05C0AD55168084AC1F319
:1017D0004041921E515C054A5043B0FBF1F0704706
:1017E00004494843704700000010024000127A008C
:1017F000B650000800093D002DE9F84F040070D0F4
:101800002078C04DC00749D06868C0F38100012826
:1018100007D06868C0F38100022809D16868C00356
:1018200006D52868800339D560680028E7D035E000
:101830006068B0F5803F0BD010B1B0F5A02F11D08B
:10184000286820F480302860286820F4802002E096
:10185000286840F480302860606890B1FFF74CFB46
:1018600006460AE0286840F480202860F0E700BFC0
:10187000FFF742FB801B642873D828688003F7D5E4
:101880000CE0FFF739FB064605E000BFFFF734FB2D
:10189000801B6428F0D828688003F7D420789A4EFB
:1018A00080074FF001094FF0000839D5686810F043
:1018B0000C0F07D06868C0F38100022809D168685E
:1018C000C00306D42868800714D52069012808D1F0
:1018D00010E02069B0B1C6F80090FFF70DFB074695
:1018E00005E00AE1FFF708FBC01B0228C4D82868FE
:1018F0008007F7D52868616920F0F80040EAC10048
:1019000028600DE0C6F80080FFF7F6FA074604E00D
:10191000FFF7F2FAC01B022823D828688007F7D403
:10192000207800072CD57948A169D9B1C0F800907A
:10193000FFF7E2FA074604E0FFF7DEFAC01B0228D1
:101940000FD8686A8007F7D571484FF4FA510068DC
:10195000B0FBF1F0009000BF0098411E0091FAD258
:101960000EE080E0C0F80080FFF7C6FA074604E00A
:10197000FFF7C2FAC01B022875D8686A8007F7D43F
:101980002078400760D5E8690027C00008D4E869DE
:1019900040F08050E861E869012700F08050009035
:1019A0005C480168C90513D40168834641F480711D
:1019B0000160FFF7A1FA824606E000BFFFF79CFA3C
:1019C000A0EB0A0064284ED8DBF80000C005F5D56E
:1019D000E06801280AD008B1052813D0286A20F051
:1019E00001002862286A20F0040002E0286A40F022
:1019F00001002862E06841F2883B98B1FFF77CFA69
:101A000082460BE0286A40F004002862EEE700BF3F
:101A1000FFF772FAA0EB0A0159455AD8286A8007E5
:101A2000F6D50CE0FFF768FA824605E0FFF764FAA6
:101A3000A0EB0A0159454CD8286A8007F6D41FB19B
:101A4000E86920F08050E861E06988B36968C1F313
:101A50008101022944D00228C6F8608004D0FFF733
:101A60004BFA044638E034E0FFF746FA074604E054
:101A7000FFF742FAC01B02282BD828688001F7D450
:101A8000206AB0F5803F05D16868A16820F4003075
:101A900008436860D4E908010843696821F47411B7
:101AA00008436860C6F86090FFF726FA044606E02F
:101AB00025E000BFFFF720FA001B022809D828689C
:101AC0008001F7D51BE000BFFFF716FA001B0228C4
:101AD00002D90320BDE8F88F28688001F4D40EE015
:101AE0000128F7D06868226A00F48031914204D15D
:101AF000616A00F47010884201D00120EAE70020FA
:101B0000E8E7000000100240000042428004424228
:101B100048000020007000407047704710B590F8F2
:101B20003C20012A22D0012280F83C20CA688C681F
:101B300022F4407222434C6822F4806222430C68F3
:101B400022F4006222430C6922F4805222434C6941
:101B500022F400522243C969002322F480420A433E
:101B600001684A6480F83C30002010BD022010BD9E
:101B700070B590F83C20012A26D0012480F83C4022
:101B8000022280F83D2003685A689D6822F07006A2
:101B90000A6832435A600D4B02689A4208D0B2F18B
:101BA000804F05D00A4B9A4202D00A4B9A4204D188
:101BB000496825F080031943916080F83D40002179
:101BC00080F83C10084670BD022070BD002C01401A
:101BD000000400400008004010B5040003D094F851
:101BE0003D0010B107E0012010BD002084F83C004A
:101BF000204600F01FF8022084F83D00211D2068D7
:101C000001F008F9012084F8460084F83E0084F8C9
:101C10003F0084F8400084F8410084F8420084F8D2
:101C2000430084F8440084F8450084F83D00002017
:101C300010BD000008B500680649884208D1064872
:101C4000816941F400618161806900F40060009065
:101C500008BD0000002C01400010024090F83D102B
:101C6000012901D001207047022180F83D10016850
:101C7000CA6842F00102CA6000680B49884208D075
:101C8000B0F1804F05D00949884202D00849884206
:101C900004D1816801F00701062903D0016841F0F1
:101CA0000101016000207047002C01400004004049
:101CB0000008004070B5044690F83C00002501285B
:101CC00017D0012684F83C60022084F83D0020688B
:101CD000826822F0770222F47F42826008685028EE
:101CE00038D00DDC20284FD005DC90B3102811D15E
:101CF0004AE0022070BD302846D040280AD13BE09F
:101D000060282FD070280DD0B0F5805F03D0B0F5DB
:101D1000005F12D0012584F83D60002084F83C006B
:101D2000284670BDCB68D1E90121206801F0BBF8DD
:101D30002068816841F0770109E0CB68D1E9012191
:101D4000206801F0B0F82068816841F4804181602A
:101D5000E1E719E0CA684968206801F059F95021A3
:101D6000206806E0CA684968206801F062F96021CD
:101D7000206801F0A2F8CEE7CA684968206801F03F
:101D800047F940212068F4E7226801461046F0E751
:101D900070472DE9F04104460068C66805694FF0B8
:101DA0000007A90713D5B10711D5F91E016101205C
:101DB0002077206880698007204602D0FFF7E8FF7F
:101DC00004E000F0A5F8204600F037F9277768070F
:101DD00016D5700714D521686FF004000861022041
:101DE00020772068806910F4407F204602D0FFF7FA
:101DF000CFFF04E000F08CF8204600F01EF92777B2
:101E0000280715D5300713D521686FF00800086141
:101E1000042020772068C0698007204602D0FFF7A1
:101E2000B7FF04E000F074F8204600F006F92777C9
:101E3000E80616D5F00614D521686FF01000086189
:101E4000082020772068C06910F4407F204602D027
:101E5000FFF79EFF04E000F05BF8204600F0EDF88D
:101E60002777E80708D0F00706D021686FF0010057
:101E70000861204600F030F9280608D5300606D55E
:101E800021686FF0800008612046FFF745FE680674
:101E900008D5700606D521686FF04000086120461D
:101EA00000F024F9A8060AD5B00608D521686FF01D
:101EB000200008612046BDE8F041FFF72EBEBDE8D6
:101EC000F081000000B585B00021009101910291E0
:101ED000039100680B49884212D10B48816941F097
:101EE000040181618069694600F0040004904FF4A8
:101EF000807000900220019003900448FEF7FEFEDF
:101F000005B000BD002C0140001002400008014057
:101F1000704770B5044690F83C0000260D46012835
:101F20000FD0012084F83C006AB1042A1DD0082A91
:101F30002FD00C2A3FD00126002084F83C003046E8
:101F400070BD022070BD206800F0C0FF206881696C
:101F500041F0080181612068816921F004018161FB
:101F6000206881692A69114311E0206800F0D6FFDA
:101F70002068816941F4006181612068816921F4F0
:101F800080618161206881692A6941EA0221816159
:101F9000D2E7206800F0EEFF2068C16941F0080137
:101FA000C1612068C16921F00401C1612068C16973
:101FB0002A69114311E0206801F008F82068C1691E
:101FC00041F40061C1612068C16921F48061C1618F
:101FD0002068C1692A6941EA0221C161ACE710B5F4
:101FE000040003D094F83D0010B107E0012010BDBB
:101FF000002084F83C00204600F01EF8022084F8FF
:102000003D00211D206800F005FF012084F84600F6
:1020100084F83E0084F83F0084F8400084F84100D2
:1020200084F8420084F8430084F8440084F84500B2
:1020300084F83D00002010BD7047704710B504467D
:10204000022249B104290ED0082913D094F8410086
:10205000012816D0012010BD94F83E000128F9D1C6
:1020600084F83E200FE094F83F000128F2D184F874
:102070003F2008E094F840000128EBD184F840208C
:1020800001E084F841200122206800F0FFFE0F49A2
:102090002068884203D1426C42F4004242642068C6
:1020A000884208D0B0F1804F05D00949884202D05B
:1020B0000849884204D1816801F00701062903D04C
:1020C000016841F001010160002010BD002C0140B9
:1020D000000400400008004000680349884201D124
:1020E000FFF7CAB97047000000080040704770470A
:1020F00010B504460068406994F84110C0F3C01060
:10210000212911D180B12068143050E8001F21F03E
:10211000800140E80012002AF5D1A06B08B1FEF75B
:102120006EFC204601F063F82068406994F8421084
:10213000C0F38010222911D180B12068143050E8FA
:10214000001F21F0400140E80012002AF5D1E06BA9
:1021500008B1FEF754FC204601F022F8002010BD23
:1021600070470000F8B5016804460868CA684B6902
:1021700010F00F0F4FF0000559D003F0010602F4E4
:102180009077374365D0C10705D0D10503D5616C81
:1021900041F001016164410705D5D90703D0616CA5
:1021A00041F002016164810705D5D90703D0616C54
:1021B00041F004016164010707D502F020013143B9
:1021C00003D0616C41F008016164616C00293AD070
:1021D000800604D5900602D5204601F016F8206846
:1021E0004069616CC0F38010090700D460B32046D9
:1021F00000F0D6FF20684069400621D520681430E1
:1022000050E8001F21F0400140E80012002AF5D1FB
:10221000E06BA8B16D494163E06BFEF713FC002849
:1022200011D0E06B416B01B0BDE8F0400847830678
:102230000FD593060DD52046BDE8F84000F0E5BF68
:102240002046FFF78DFFF8BD2046FFF789FF656444
:10225000F8BD266B2023012E7CD1C6067AD5D60682
:1022600078D508684868009048694FF00206400633
:1022700040D5E16B086840680004000CE8D0A28DEE
:102280008242E5D9E085886920282DD020680C306D
:1022900050E8001F21F4807140E80012002AF5D1B7
:1022A0002068143050E8001F21F0010140E80012BE
:1022B000002AF5D12068143050E8001F21F04001B9
:1022C00040E80012002AF5D184F8423025632068E6
:1022D0000C3050E8001F21F0100140E80012002AE5
:1022E000F5D1E06BFEF78BFB6663A08DE18D401AA4
:1022F00081B22AE0A08DE18D401A81B2E08D0028E4
:10230000A6D00029A4D022680C3252E8000F20F495
:10231000907042E80007002FF5D12068143050E893
:10232000002F22F0010240E80027002FF5D184F8A9
:102330004230256320680C3050E8002F22F0100254
:1023400040E80023002BF5D166632046FFF7CFFE5F
:10235000F8BDFFE705062BD5150629D594F84100F1
:102360002128F5D1A068B0F5805F01D12069B0B116
:10237000206A411C2162216800784860E08C401E80
:102380000004000CE084E3D12068C16821F08001E2
:10239000C1602068C16841F04001C160D8E7206A8F
:1023A0000088C0F308004860206A801C2062E5E7CE
:1023B0004006CDD55006CBD5CA68204622F0400253
:1023C000CA6084F8413000F0EFF8C1E757300008E8
:1023D00070B5040004D094F84100002510B106E067
:1023E000012070BD84F84050204600F023F82420DE
:1023F00084F841002068C16821F40051C160204682
:1024000000F064FF2068016921F4904101612068B7
:10241000416921F02A0141612068C16841F40051FD
:10242000C1606564202084F8410084F8420065633F
:10243000002070BDF0B585B00024064600940194DC
:102440000294039400682D49884254D12C48816934
:1024500041F480418161816901F480410491816985
:1024600041F0040181618069264D00F00400049070
:102470004FF4007000900220019003200390694601
:102480002846FEF73BFC2815CDE90004694628469E
:102490000294FEF733FC1D4D1B488027C5E900045C
:1024A000C5E902472C616C61AC612846EC61FEF71E
:1024B000BFFB08B1FEF7A1FAF5636E62134D124837
:1024C0004435143801C5102091C5104845F810490D
:1024D00044306C61AC61EC61FEF7AAFB08B1FEF719
:1024E0008CFAB5630022114625206E62FFF756F87C
:1024F0002520FFF745F805B0F0BD00000038014089
:102500000010024000080140580002400C02002068
:1025100090F84230202B01D00220704721B11AB12F
:102520000023036300F02EBF0120704770477047FF
:1025300070B5044690F84100202801D0022070BDFB
:1025400049B342B32162A284E28400206064212363
:1025500084F84130A56B114BAB62A56B104BEB625D
:10256000A56B104B2B63A36B5863256813462A1D7C
:10257000A06BFEF78BFB21686FF0400008602068BD
:10258000143050E8001F41F0800140E80012002A9A
:10259000F5D1002070BD012070BD0000553100084C
:1025A000973100086730000870477047FEE7016800
:1025B0004A69D24352050FD46FF480624A61002108
:1025C00040F8301F202242738173026942F00402F6
:1025D0000261017301207047002070472DE9F84F18
:1025E0000446006889460B9D01689846174641F4E9
:1025F000806101602068016841F48071016000958C
:102600004FF0011B0022594620460A9B00F0E4F8D7
:102610004FF4007A40B120680068C00501D5C4F8C5
:1026200040A00320BDE8F88F216809F0FE00086192
:102630002B46284920460A9A00F016F9F0BB20687C
:102640004169806900902A4620460A9900F0A2F963
:1026500040B1206C04283AD12068016841F400712F
:10266000016034E0FEB2B8F1010F09D02168380AE8
:1026700008612A4620460A9900F08CF90028E8D122
:10268000206806612A4620460A9900F083F900284E
:10269000DFD12068016841F480710160009500225B
:1026A000594620460A9B00F097F80028B3D12168CC
:1026B00009F0FF0040F00100086100E007E02B4650
:1026C000044920460A9A00F0CFF80028AAD0012039
:1026D000A8E70000020001002DE9F8430446006865
:1026E0000D46DDE9089701689846164641F4807169
:1026F00001604B4600224FF001112046009700F088
:102700006BF848B120680068C00502D54FF400702E
:1027100020640320BDE8F883216805F0FE0008610D
:102720003B464A461549204600F09EF888B9206885
:102730004169806900903A464946204600F02AF9EE
:1027400048B1206C042804D12068016841F400716C
:1027500001600120DEE7F5B2B8F1010F09D0216870
:10276000300A08613A464946204600F013F900282D
:10277000E7D1206805610020CCE7000002000100DD
:1027800070B516460D4604461EE02046FFF70FFFC3
:1027900008B1012070BD681C16D0FEF7ADFB801B90
:1027A000A84200D885B920684069C04340070BD5CE
:1027B000002044F8300F20216173A073216941F09B
:1027C000200121612073E4E720684069C04340078D
:1027D000DBD4002070BD00002DE9F0479846174675
:1027E0000D460446C1F30746DDF820902AE000BFFD
:1027F000B8F1FF3F26D0FEF77FFBA0EB0901414572
:1028000002D8B8F1000F1DD12068012E16D08069C2
:1028100025EA00000004000C12D00020B84211D1BB
:10282000002044F8300F20216173A073216941F02A
:102830002001216120730120BDE8F0874069E7E7AE
:102840000120EBE72068012E0AD0806925EA00000C
:102850000004000C06D00020B842C9D00020EBE7ED
:102860004069F3E70120F7E72DE9F047984616465F
:102870000D4604464FF000094FF0200AC1F3074708
:1028800023E020684069C043400515D420680168F2
:1028900041F40071016021686FF480604861C4F800
:1028A000309084F83DA084F83E90216C41F0040102
:1028B000216484F83C9021E0701C06D0FEF71CFBDC
:1028C000A0EB0800B04203D816B1012F1FD021E0C1
:1028D0002068012F15D0806925EA00000004000C53
:1028E00018D000BF44F8309F84F80DA084F80E90F3
:1028F000216941F02001216184F80C900120BDE89C
:10290000F087406925EA00000004000CEAD1206845
:10291000406901E02068806925EA00000004000C9D
:10292000AFD1ECE72DE9F041002590460E46044674
:10293000202728E04069C043C0060CD454F8301B5F
:102940006FF01000486144F810596777A577206A46
:102950002062257714E0FEF7CFFAA0EB0800B04222
:1029600000D886B920684069C04340060BD544F8BA
:10297000305F6773A573206940F0200020612573E4
:102980000120BDE8F08120684169C9434906D1D4DE
:102990000020F6E770B516460D4604461EE02046B8
:1029A000FFF705FE08B1012070BD681C16D0FEF7C8
:1029B000A3FA801BA84200D885B920684069C043AB
:1029C00000060BD5002044F8300F20216173A0735E
:1029D000216941F0200121612073E4E7206840690A
:1029E000C0430006DBD4002070BD00003EB50220CD
:1029F0000B49CDE900100A2401236B220294D02157
:102A00000848FEF771FC06480421801C8DE813007D
:102A100001231922D0210348FEF766FC3EBD0000C9
:102A2000AC00002028010020F0B585B0044642F239
:102A30001072062103A88DE8070001233B22D02154
:102A40001648FEF723FBBDF80E10BDF80C0049BA7E
:102A50000EB2BDF8101040BA49BA00B20DB2FDF77F
:102A6000D7FD6FF00B073A46FDF7BBFDFDF71EFEE5
:102A700020603046FDF7CCFD3A46FDF7B2FDFDF78C
:102A800015FE60602846FDF7C3FD3A46FDF7A9FD37
:102A9000FDF70CFEA06005B0F0BD0000280100208D
:102AA0002DE9F04186B0044642F21072062103A8D7
:102AB0008DE8070001234322D0211948FEF7E6FAEA
:102AC000BDF80E10BDF80C0049BA0EB2BDF81010DA
:102AD00040BA49BA00B20DB2FDF79AFDDFF8448062
:102AE0004FF066373A464346FDF70CFDFDF7DEFD35
:102AF00020603046FDF78CFD3A464346FDF702FD67
:102B0000FDF7D4FD60602846FDF782FD3A46434656
:102B1000FDF7F8FCFDF7CAFDA06006B0BDE8F08146
:102B200028010020666630400D4808B5416941F033
:102B3000010141614069002200F00100009011464E
:102B40000E20FEF72BFD0E20FEF71AFD0022114687
:102B50000F20FEF723FDBDE808400F20FEF710BD53
:102B60000010024070B586B000241848009401940B
:102B700002940394816941F020018161816901F02F
:102B800020010491816941F008018161816901F0AE
:102B900008010491816941F00401816180690C4E52
:102BA00000F004004FF4004504900022294630460E
:102BB000FEF79CF901200095CDE901040320039064
:102BC00069463046FEF79AF806B070BD0010024024
:102BD000000801400D4810B50B4901600C494160E7
:102BE00000214FF480428160C0E90312416181619C
:102BF000C1610162FEF786F9002803D0BDE81040EC
:102C0000FDF7FBBE10BD0000005800402801002069
:102C1000801A060010B596B000240F9410941194F9
:102C2000129413941C2108A81494FDF740FB202152
:102C30006846FDF73CFB2948274901604721C0E968
:102C4000011444F61F61C0E903148021C0E9054165
:102C5000FEF7C2FF08B1FDF7D0FE4FF480500F9091
:102C60000FA91E48FFF726F808B1FDF7C6FE1B485E
:102C7000FFF7B5F908B1FDF7C0FE139413A9174883
:102C80001494FEF775FF08B1FDF7B7FE6020CDE99B
:102C900008040A940B940C940D94002208A90F4880
:102CA0000E94FFF736F908B1FDF7A7FE00944FF434
:102CB0000050CDE90440029401940394694607480A
:102CC0000794FEF72BFF08B1FDF797FE0348FFF7C7
:102CD000F9F816B010BD0000002C01407C01002066
:102CE0000C4810B50A4901604FF4E1314160002100
:102CF00081600C22C160C0E904128161C161FFF7EB
:102D000067FB002803D0BDE81040FDF776BE10BD7C
:102D100000380140C401002030B590F8504095B013
:102D2000E500641C80F8504044190021C4E90023E8
:102D300090F850200A2A02D3002280F850206B46D7
:102D400000EBC10203EBC105D2E90042C5E9004234
:102D5000491CC9B20A29F3D3044B08220A21684648
:102D6000FDF73EFADDE90A0115B030BD3144000837
:102D7000FEE7FEE7FDF7E8B9FDF7C4B941B1042964
:102D800009D008290AD00C2901D1006802647047D3
:102D90000068426370470068826370470068C263DE
:102DA000704702F025B830B58FB028216846FDF78E
:102DB0007EFA14210AA8FDF77AFA01210804CDE968
:102DC00000100024029402250491CDE907504FF42D
:102DD000E01009906846FEF70FFD08B172B6FEE7F5
:102DE0000F20CDE90A054FF48060CDE90C400221A7
:102DF0000AA80E94FEF704FC002801D072B6FEE784
:102E00000FB030BD704700000148FEF7C2BF0000A0
:102E100014030020F0B50268194B1A4C1A4D4FF0FC
:102E20008047984205D0B84203D0A04201D0A842C2
:102E300003D122F070064A683243984205D0B84266
:102E400003D0A04201D0A84203D122F44074CA6842
:102E500022434C6922F08002224302608A68C262E7
:102E60000A688262984201D10969016301214161C6
:102E70000169C90703D0016921F001010161F0BDB9
:102E8000002C0140000400400008004010B501F093
:102E90001F030121046A99408C430462016A9A402D
:102EA0001143016210BD10B5846842EA032224F484
:102EB0007F440A432243826010BD826822F0700280
:102EC0000A4342F0070181607047000030B5036A91
:102ED000026A22F0010202624268846924F07305EA
:102EE0000C682C4323F002058B682B430A4DA84243
:102EF0000BD123F00805CB6822F440722B434D69B7
:102F000023F0040315438A692A43426084614968B7
:102F10004163036230BD0000002C014030B5026AFD
:102F2000036A23F010030362436884690D6824F484
:102F3000E64444EA05248D6822F0200242EA0512A4
:102F40000B4DA8420ED1CD6822F0800242EA051254
:102F50004D6923F4406343EA85038D6922F0400202
:102F600043EA85034360846149688163026230BD3E
:102F7000002C014030B5036A026A22F480720262BA
:102F80004268C46923F4007324F073050C682C4371
:102F90008D6843EA05230C4DA8420ED1CD6823F479
:102FA000006343EA05234D6922F4405242EA0512C8
:102FB0008D6923F4806342EA05124260C461496866
:102FC000C163036230BD0000002C014030B5046ACB
:102FD000026A22F4805202624268C3690D6823F4D7
:102FE000E64343EA05238D6824F4005444EA05349B
:102FF000064DA84204D14D6922F4804242EA85126E
:103000004260C36149680164046230BD002C014024
:1030100010B5036A046A24F001040462846924F090
:10302000F00444EA021423F00A020A4384610262B3
:1030300010BD10B5036A046A24F0100404628469A8
:1030400023F0A00324F4704444EA023243EA01115D
:103050008261016210BD10B5406A0021C185C18442
:10306000FFF77EF810BD70B5446A2068406994F897
:103070004110C0F3C0100025212904D118B1E58406
:10308000204600F0B4F82068406994F84210C0F37C
:103090008010222904D118B1E585204600F080F87F
:1030A000606C40F0100060642046FFF759F870BD76
:1030B00010B50146406A096809684FF000028906A8
:1030C0002ED4C28501680C3151E8003F23F480738F
:1030D00041E80034002CF5D10168143151E8003F7B
:1030E00023F0010341E80034002CF5D101681431CC
:1030F00051E8003F23F0400341E80034002CF5D1B3
:10310000202180F84210016B012909D101680C319E
:1031100051E8003F23F0100341E80034002CF5D1C2
:103120004263016B012902D0FFF700FA10BD818DC7
:10313000FEF7DDFF10BD10B5406A01214163016B50
:10314000012902D0FFF7F3F910BD818D4908FEF780
:10315000CEFF10BD10B50146406A096809688906AE
:1031600016D40021C1840168143151E8002F22F0E7
:10317000800241E80023002BF5D101680C3151E8B1
:10318000002F42F0400241E80023002BF5D110BD92
:10319000FFF70AFA10BD10B5406AFFF706FA10BD36
:1031A00001680C3151E8002F22F4907241E80023AD
:1031B000002BF5D10168143151E8002F22F00102F3
:1031C00041E80023002BF5D1016B012909D10168E9
:1031D0000C3151E8002F22F0100241E80023002BAF
:1031E000F5D1202180F84210002101637047016869
:1031F0000C3151E8002F22F0C00241E80023002BDF
:10320000F5D1202180F84110704708B590F84210A0
:10321000222901D0022008BD82684FF480539A42CF
:1032200001D1016921B1816A9A421BD04AB10AE0F9
:103230000268816A5268C2F308020A80816A891CA6
:1032400008E0026972B10268526802F07F020A70F7
:10325000816A491C8162C18D491E0904090CC1851E
:1032600003D01BE002685268F1E70168CA6822F0E7
:103270002002CA600168CA6822F48072CA600168CC
:103280004A6922F001024A61202180F8421000219F
:103290004163026B012A03D0FFF748F9002008BD03
:1032A000016301680C3151E8002F22F0100241E85F
:1032B0000023002BF5D101680A68D20602D50A68FE
:1032C00049680091818DFEF712FFE7E770B504466B
:1032D00000680169E26821F44051114301612169EC
:1032E000A0680843616908432168CA6841F20C6319
:1032F0009A430243CA6020684169A26921F440717F
:10330000114341611E492068884202D1FEF73EFA0E
:1033100001E0FEF72BFA00EBC00101EB0012606840
:1033200064218000B2FBF0F3B3FBF1F36FF01806F9
:103330007343B2FBF0F5B2FBF0F605EB83053223E5
:1033400003EB0515B5FBF1F5B6FBF1F605F0F0055D
:1033500005EB0615B2FBF0F6B2FBF0F0B0FBF1F0B6
:103360006FF01802504306EB800003EB0010B0FB37
:10337000F1F0216800F00F002844886070BD000063
:103380000038014038B5816204468285002013462A
:103390006064222284F84220E56B1B4AAA62E56B36
:1033A0001A4AEA62E56B1A4A2A63E26B50630A46DC
:1033B0002168E06B091DFDF769FC20680168406821
:1033C0000090206948B120680C3050E8001F41F49B
:1033D000807140E80012002AF5D12068143050E8CE
:1033E000001F41F0010140E80012002AF5D12068D9
:1033F000143050E8001F41F0400140E80012002A5C
:10340000F5D1002038BD0000B13000083731000888
:103410006730000810B50C46802900D98024014689
:1034200022460548FCF72AFF22460349BDE8104022
:10343000A1F1D000FFF77CB89402002010B503483A
:10344000FEF790FEBDE8104000F002B8C401002075
:1034500038B5124800680168C943C9061CD4016820
:10346000406800900D48FEF743FE0C484830006865
:103470004068C0F10200C4B2094801884180FDF7EC
:1034800099FA21460648FCF712FFBDE838400222AF
:1034900003490248FFF73CB838BD0000C4010020D2
:1034A00038000020FEE700007CB50C001D461646E3
:1034B000014601D0601E00E00020CDE90010064B5F
:1034C0006A462946304600F025FC002C02D0009ABE
:1034D000002111707CBD00001B440008490050EA27
:1034E000C12018BF04204A0D18BF40F0010040F26F
:1034F000FF72B2EB515F08BF40F00200012808BF25
:10350000052070470907090E002804DB00F1E020C0
:1035100080F80014704700F00F0000F1E02080F800
:10352000141D70472DE9F74F144694B00021C4E9EB
:1035300002111599079121F00045C9498D4206DC19
:103540001599C4E9000117B00020BDE8F08FC54906
:10355000DFF814A3A9423CDD0799C44E0029C44FEB
:10356000C44A1599534619DDFCF754FF554506D05A
:10357000C14AC24BFCF74EFFC4E900010AE04FF01C
:10358000D352BE4BFCF746FF32463B46FCF742FFA8
:10359000C4E9000117B00120BDE8F08FFCF799FEE7
:1035A000554506D0B44AB54BFCF793FEC4E900017B
:1035B0000AE04FF0D352B14BFCF78BFE32463B464C
:1035C000FCF787FEC4E9000117B04FF0FF30BDE8FB
:1035D000F08FAB49A942159978DB21F00041834671
:1035E0008846A84AA84BFCF71BFF0022A74BFCF714
:1035F00070FEFDF79DF90990FDF70AF806460F46A3
:103600009C4A5346FCF70CFF43465A46FCF705FF1D
:1036100080468A46984A994B30463946FCF700FF67
:103620002A0D01250B9242465346FCF7F6FE032D68
:10363000C4E9000139D00B98C1F30A51401A05EBD7
:1036400045111139814230DA9148C346784400EB84
:103650000510CDF80CA00C90D0E900233046394677
:10366000FCF7DEFE02460B4604910690584603998D
:10367000FCF7D0FE80468A4602460B465846039920
:10368000FCF7C8FE049B069AFCF7C4FE83460C9820
:1036900003913946D0E902233046FCF7C1FE5A4671
:1036A000039BFCF7B7FE6D1CBDE707980028A2BF7F
:1036B000099817B0BDE8F08F616881F00041616042
:1036C000099817B04042BDE8F08FFFE7844615988F
:1036D000C1F31301C0F30A50A0F2F5304FEA6018AD
:1036E00000F01F06C6F120001390002006900790FE
:1036F00041F4801E05206D4676B1664A08EB000154
:103700007A4452F8213002EB8101B3404A681399A0
:1037100022FA01F1194305E05F4908EB0002794400
:1037200051F82210A1FB0E27A1FB0C131A449A4258
:1037300034BF0123002303EB070A05EB8003D3E921
:1037400001B70F448F4234BF0121002193448B44C1
:1037500011B1934502D903E0934501D2012100E064
:103760000021C3E901B7514445F82010011EA0F122
:103770000100C1DC0298059F00F10050800F1290FB
:103780000298DDE903568000FCF742FF8346284695
:103790000D91FCF74EFF6FF01D02FCF722FFCDE903
:1037A0000E013046FCF745FF6FF03D02FCF719FFB4
:1037B00080468A463846FCF73CFF6FF05D02FCF716
:1037C00010FF0746424653461191FCF782FDDDE9A2
:1037D0000E23FCF77EFD5A460D9BFCF77AFD002573
:1037E0000E465A4628460D9BFCF714FEDDE90E23D3
:1037F000FCF710FE42465346FCF70CFE3A46119B7E
:10380000FCF70BFEDFF898A0244A5346FCF708FEAD
:1038100007468846234A244B31462846FCF700FEDB
:103820003A464346FCF755FD074688464FF0A84206
:10383000534631462846FCF7F3FD3A464346FCF72B
:1038400048FD159A12F0004F04D0129A81F0004101
:1038500052421292C4E90001129817B0BDE8F08FED
:10386000FB21E93F7CD90240FB21F93F7370032E15
:103870008A19A33B000040543163621A61B4D03D01
:10388000FB21394183C8C96D305FE43F0000E03F50
:10389000C01A00003C1A00001E1A0000182D4454E3
:1038A000FB21F93D3326A611460B113C2DE9FF4DB6
:1038B00021F0004807460C46B8F1795F08DAFDF7B9
:1038C00037F8002801BF0020324904B0BDE8F08D70
:1038D0003A46234610461946FCF7A2FD0546024625
:1038E0002D480E460B460621784400F05DF82A4626
:1038F0003346FCF795FDDDE9022382468B463846C8
:103900002146FCF78DFD04460F4652465B4628468D
:103910003146FCF785FD22463B46FCF77BFD07461A
:103920008A464FF0FF3228463146FCF75AFE1B4AC2
:1039300090450ADA3A465346FCF76CFD04B0002283
:10394000BDE8F04D134BFCF768BD154A4245A8BFD2
:10395000A8F500154FF00004B8BF124D22462B46C3
:10396000FCF758FD0646884622462B4600200949AA
:10397000FCF750FD04460D463A4653463046414654
:10398000FCF748FD04B022462B46BDE8F04DFCF79D
:1039900044BD00000000F03FF41700003333D33F74
:1039A0000000E93F0000D23F2DE9F0414F1E00EB3F
:1039B000C7010446D1E9000115461E4637F006024C
:1039C0000DD02A463346FCF72BFD7F1E04EBC703C0
:1039D000D3E90023FCF77DFC37F00602F1D1022F7A
:1039E00025D0042F13D0062F18BFBDE8F0812A463A
:1039F0003346FCF715FDD4E90A23FCF76AFC2A4696
:103A00003346FCF70DFDD4E90823FCF762FC2A4697
:103A10003346FCF705FDD4E90623FCF75AFC2A4699
:103A20003346FCF7FDFCD4E90423FCF752FC2A469C
:103A30003346FCF7F5FCD4E90223FCF74AFC2A469E
:103A40003346FCF7EDFCD4E90023BDE8F041FCF778
:103A500040BC00002DE9FF4D054621F0004084B038
:103A60000C46B0F1795F0BDA2846FFF737FD0428E2
:103A700008BF00F06FF8284608B02146BDE8F08D79
:103A80002A460B461046FCF7CBFC06460F462A4654
:103A90002346FCF7C5FC804626488A4632463B460C
:103AA00005217844FFF780FF83461098029160B3A8
:103AB000214A224B40465146FCF7B2FCCDE90001B9
:103AC0005A4640465146029BFCF7AAFC824688466D
:103AD000DDE906014FF0FF32FCF783FD5246434615
:103AE000FCF798FC32463B46FCF79AFCDDE90623DE
:103AF000FCF790FCDDE90023FCF78CFC08B02A46BB
:103B00002346BDE8F04DFCF788BC0B465A463046CC
:103B10003946FCF785FC084A084BFCF7DAFB4246BD
:103B20005346FCF77DFC08B02A462346BDE8F04D1D
:103B3000FCF7CFBB32170000495555555555C5BF49
:103B40000122FCF74EBD0022134610461146FCF739
:103B5000D9BC0000024A00201107FCF742BD00005A
:103B600001FDFFFF02E008C8121F08C1002AFAD1B8
:103B700070477047002001E001C1121F002AFBD1ED
:103B8000704700000149086070470000B400002041
:103B90002DE9FF5F82B00021DDE90430020DDDF880
:103BA00040B0034318D044F61050A2F2FF32424313
:103BB0001514119801281FD0A5EB0B00401C5FEADB
:103BC000000A4FF000064E4FDFF83891B0465046DD
:103BD00015D5CAF1000413E0119801244AA3012865
:103BE00001D16FEA0B010298119AC0E90031C0E9D6
:103BF000024206B0BDE8F09FCBF10000DFE70446CB
:103C00000021404A491842EB0450CDE9001012E06F
:103C1000E00707D032463B4640464946FCF700FCE9
:103C20008046894632463B4610461946FCF7F8FB6B
:103C300006460F466410002CEAD1DDE90401DDE9F7
:103C40000023BAF1000F06DAFCF7EAFB42464B46C6
:103C5000FCF7E6FB05E0FCF755FC42464B46FCF75B
:103C600051FC04460E460022284BFCF707FD03D802
:103C70004FF0FF30014607E00022254B2046314639
:103C8000FCF727FBFCF72AFE102409E0002C0ADBD6
:103C90000A220023FCF73CFD039B30321A55641EB8
:103CA00050EA0102F2D1641C039AC4F111031444D6
:103CB000119A012A03D0012208430DD10AE00843DA
:103CC00004D000204FF0110B119072E7A3EB0B050D
:103CD0006D1E0DE05B4504DD4FF0000205F10105AE
:103CE00004E003DA4FF00002A5F10105002AECD050
:103CF00002981199C0E90231C0E9004579E7000056
:103D0000000014400000F03F300000000000F043CD
:103D10000000E03F2DE9FF4F95B09A4688460646E1
:103D20000025EEE1252877D100242746F94A012114
:103D3000039400E0044316F8013F203B01FA03F02E
:103D40001042F7D130782A2811D06FF02F03307845
:103D5000A0F13002092A16D8039A44F0020402EBBB
:103D6000820203EB42021044761C0390EFE758F8FE
:103D7000042B0392002A03DA504244F400540390C7
:103D800044F00204761C30782E2816D116F8010F64
:103D900044F004042A280DD06FF02F023078A0F1EF
:103DA0003003092B09D807EB870302EB4303C7183D
:103DB000761CF3E758F8047B761C30786C280FD01B
:103DC00006DC4C2817D068280DD06A2814D104E0EE
:103DD000742810D07A280FD10DE044F400140AE0C2
:103DE00044F4801401E044F440147278824202D119
:103DF00004F58014761C761C307866280BD013DC12
:103E0000582877D009DC002875D04528F6D04628F8
:103E1000F4D047281AD193E118E0632835D06428FC
:103E200079D0652812D18BE1702873D008DC67281F
:103E3000F1D069286FD06E280DD06F2806D1ACE084
:103E400073282CD0752874D0782853D052461799EF
:103E500090476D1C54E1C4F30250022809D0032896
:103E60000DD0D8F8001004280DD00D6008F104081A
:103E700046E1D8F80010EA17C1E90052F6E7D8F891
:103E800000100D80F2E70D70F0E718F8041B8DF8B4
:103E9000001000208DF80100EB46012003E058F8E7
:103EA00004BB4FF0FF3061074FF0000102D40DE07A
:103EB00009F101018946B9420FDA8145F8DB1BF8A7
:103EC00009100029F4D108E009F101018946814275
:103ED000FADB1BF809100029F6D103985346A0EB32
:103EE000090721463846179A00F080FA284400EB6B
:103EF000090507E044E008E10DE01BF8010B52461C
:103F000017999047B9F10109F7D25346214638462F
:103F1000179AF2E039E00A21C4F302524FF0000B85
:103F20000091022A06D058F8040BC117032A09D0C1
:103F30000AE023E008F1070020F00702F2E802019E
:103F4000904605E000B2C117042A01D140B2C11762
:103F5000002906DA0A460021404261EB02012D22C7
:103F600002E0220504D52B228DF80420012203E073
:103F7000E20701D02022F7E7914657E00A2100E04E
:103F800010214FF0000B00910BE010214FF0000BBF
:103F900044F004040827009103E008204FF0000BD0
:103FA0000090C4F30252022A05D058F8040B0021F5
:103FB000032A08D008E008F1070020F00702F2E821
:103FC0000201904603E080B2042A00D1C0B24FF053
:103FD000000922072AD53278702A07D0DDF800C000
:103FE0008CF0100C5CEA0B0C05D00EE040228DF832
:103FF0000420012208E050EA010306D030238DF8A6
:1040000004308DF8052002229146009B83F00803BE
:1040100053EA0B030AD150EA010201D1620705D528
:1040200030228DF804204FF001097F1E3278582A83
:1040300004D039A20C920CAA02920BE03BA2F9E741
:104040005B46009AFCF764FB0C9B9B5C029A521E39
:104050000292137050EA0102F2D1029804A9081AE0
:1040600000F1200B600702D524F4803400E0012722
:104070005F4502DDA7EB0B0000E0002000EB0B0129
:10408000009003984944401A0390E00306D4534635
:104090002146179A039800F0A9F90544002706E085
:1040A00001A85246C05D179990476D1C7F1C4F4573
:1040B000F6DBE0030CD553462146179A039800F02F
:1040C00095F9054404E030205246179990476D1C3D
:1040D0000099481E00900029F5DC08E0029802993A
:1040E00052460078491C0291179990476D1CBBF10C
:1040F0000001ABF1010BF1DC5BE100F065F9054477
:10410000761C307800287FF40DAE19B02846BDE843
:10411000F08F000009280100303132333435363752
:104120003839616263646566000000003031323303
:1041300034353637383941424344454600000000A3
:10414000600700D4062708F1070020F00700F0E818
:104150000223804603F0004C5FEA0C0001D097A0D8
:1041600009E0200501D596A005E0E00701D095A063
:1041700001E0AFF24C001390307823F00043652843
:104180000CD006DC452809D046281DD047287FD111
:104190003BE0662818D067287AD136E00021112F3D
:1041A00001DB112000E0781CCDE9000104A90CA876
:1041B000FFF7EEFCDDE90D010C9A4FF0000B07F163
:1041C0000109109200914EE04FF000400097CDE9B8
:1041D000011004A90CA8FFF7DBFCDDE90D020C9B24
:1041E0000F994FF0000B91461093009211B9791C72
:1041F00000EB0109B7EB090003D4C0F1FF3B07F165
:104200000109A9EB0700019042E0012F00DA012724
:104210000021112F01DD112000E03846CDE9000119
:1042200004A90CA8FFF7B4FCDDE90D010C9A00917C
:104230004FF0000BB946109221070FD4009A4A455F
:1042400003DA914601E0A9F10109B9F1010F05DD99
:10425000109AA9F10101515C3029F4D0B84202DA78
:1042600010F1040F03DA0121CDE9011010E000285C
:1042700003DC8344A9EB000102E0411C494500DD59
:104280008946A0EB0B00401C01904FF000400290CB
:10429000200705D40198484502DB4FF0FF3001901C
:1042A00000208DF84B0002980DF14B07B0F1004F44
:1042B00025D002200C902B200D90029800280CDABB
:1042C000404202902D200D9007E00A210298FCF751
:1042D00009FA3031029007F8011D0C99481E0C9024
:1042E0000029F2DC02980028EFD1791E0D980870A1
:1042F000307800F0200040F0450007F8020D11A8CA
:10430000C01BC01D02901398007800B1012000EB83
:104310000901019801EBE071029801440398401AE9
:10432000401E0390E00306D453462146179A039893
:1043300000F05CF805441398007818B152461799BC
:1043400090476D1CE00323D553462146179A0398E6
:1043500000F04CF805441BE0BBF1000F07DB0098B0
:10436000584504DD1098179910F80B0001E01799D3
:1043700030205246904701980BF1010B401E05F189
:104380000105019004D12E205246179990476D1CCB
:10439000B9F10001A9F10109DEDC05E017F8010B14
:1043A0005246179990476D1C0299481E02900029A9
:1043B000F4DC53462146179A03989EE62D00000030
:1043C0002B000000200000002DE9F04104460025EC
:1043D0001E461746880404D405E039462020B0471D
:1043E0006D1C641EF9D52846BDE8F0812DE9F04129
:1043F000044600251E469046C80301D5302700E03C
:104400002027880404D505E041463846B0476D1C96
:10441000641EF9D52846BDE8F0814A68002A06D016
:104420000A68531C0B6010704868401E4860704753
:104430002DE9F041D0E90060D1E9004380461D46F6
:10444000224630464146FCF719F901D2012700E027
:10445000002722462B4630464146FCF7F7F801D2AA
:10446000012000E00020381ABDE8F0810FB480215F
:1044700000B5A1B023AB6846229AFFF715F868464D
:10448000FBF720FF81B26846FEF7C4FF21B05DF85C
:1044900014FB0000DFF89090DFF890B0244CDFF8B8
:1044A00094A04A46D4E90A015B46FBF7B9FF00F045
:1044B00003FB07468846D4E90A014A465346FBF700
:1044C000AFFF00F0F9FA05460E46D4E90A011A4A90
:1044D0001A4BFBF7A5FF00F0EFFA2A463346FBF72D
:1044E000F8FE3A464346FBF7F4FEC4E90601D4E978
:1044F0000A014A465346FBF793FF00F0DDFAC4E990
:104500000C01D4E906230E48FEF706FCC4E90801B5
:10451000D4E90A010B4A0C4BFBF7DBFEC4E90A01A4
:10452000322000F0E3FBBCE709944A702F8BC840AF
:10453000000000202F8BB8403B43D5598CA283400C
:10454000D00000202D431CEBE2361A3F064D4FF4FD
:1045500000444FF4FA6621462846FCF7BFFC30467B
:1045600000F0C4FBF7E70000000801401CB5FCF7B1
:104570008BFFFEF718FCFEF7F5FAFEF7D5FAFEF70B
:10458000AFFBFEF747FBFEF725FB00212048FDF7B8
:1045900055FD00F0E1FAFEF729FA1E490220CDE9A7
:1045A0000001002380221CA11E4800F037FC19499D
:1045B0000320091DCDE900014FF480740023224639
:1045C00019A11C4800F02AFC124904200831CDE949
:1045D00000010023224618A11A4800F01FFC0D49D3
:1045E00006200C31CDE900010023802216A11948D4
:1045F00000F014FC074907201031CDE90001002329
:10460000802215A1184800F009FC00F087FBFEE7A6
:104610007C010020040000206C6564325F746173CB
:104620006B0000004D45000866696C7465725F742C
:1046300061736B0095440008736572766F5F7461F7
:10464000736B0000814A000875736172745F746156
:10465000736B0000854B00086D7075363035305F28
:104660007461736B000000006D46000886B00E4E4A
:104670006C4603AD06F10C076846FEF7D5F903A8B2
:10468000FEF70EFA5FF0000054F8201046F82010F4
:1046900055F8201047F82010401C0328F4DB1420A4
:1046A00000F024FBE8E70000B80000202DE9F0410D
:1046B0001E4C0F460546E6682068001D00F096FA7D
:1046C00038B9206890F82C10012088402169814376
:1046D0002161681C15D1A7B115492268486890600E
:1046E00023688268DA6022688368121D5A60226833
:1046F000121D8260206841610868401C0860BDE8A6
:10470000F08120683544B5424560216805D2E06BF0
:10471000BDE8F041091D00F08ABAA06B091D00F048
:1047200086FAA06A8542EAD2A562E8E74C0000203A
:10473000100400202DE9F041054600F091FA364CB6
:10474000A068401CA0602068344F10B1606940B37D
:104750002DE02560A068012829D1002606EB8600FF
:1047600007EB800000F055FA761C052EF6D32B4897
:10477000643000F04EFA2948783000F04AFA2748B1
:104780008C3000F046FA2548A03000F042FA234869
:10479000B43000F03EFA21486430A0631430E06386
:1047A00005E02068E96AC06A884200D82560606A2E
:1047B0000121401C6062E86A226981401143216145
:1047C00000EB800007EB80004068A8608168E9602A
:1047D0008268291D51608160E86A00EB800007EB68
:1047E0008001696157F82010491C47F8201000F03B
:1047F00045FA606900280CD02068E96AC06A8842DE
:1048000007D207494FF080500860BFF34F8FBFF3C6
:104810006F8FBDE8F08100004C0000205C03002099
:1048200004ED00E010B50446006B00F031FA2046BC
:10483000BDE8104000F02CBA0E484FF4205142075A
:1048400006D0C01D0B4920F00700411AC1F52051C8
:10485000094A00230144C2E900030839143A21F04F
:10486000070111604B600B600B1AC0E900139360E5
:104870005360704724040020A4000020144E154CFF
:10488000A6F1A0074FF08058DFF84C9012E000BF6F
:1048900000F0E6F9F068C568281D00F0A7F9A068E7
:1048A000401EA0606068401E606000F0E7F9284686
:1048B000FFF7B8FF60680028EAD138680128F9D905
:1048C000C9F80080BFF34F8FBFF36F8FF2E700008E
:1048D000FC0300204C00002004ED00E02DE9F0472F
:1048E0009946DDE9096480466FF00303206B03EB12
:1048F0008202089D104420F0070761B100202318B0
:104900000A5C83F834200A5C12B1401C1028F6D3EC
:10491000002084F84300052D00D30425201DE56206
:1049200000F082F904F1180000F07EF92461C5F16D
:1049300005006462A0614A464146384600F08EF8A0
:104940002060002E00D03460BDE8F08730B51149FA
:1049500000E011460A688242FBD34B685C1884422F
:1049600003D1406818444860084643681C189442C4
:1049700009D1084C143C2468A24209D052681A4458
:1049800042600A6812680260814200D0086030BD4F
:104990000460F9E7A40000200548816B096821B193
:1049A000816BC9680968816270474FF0FF31FAE78F
:1049B0004C000020BF2080F31188BFF34F8FBFF35E
:1049C0006F8FFEE770B50446002600F0CFF9224D48
:1049D000286808B9FFF730FFCCB304F00700C0F136
:1049E0001000C1438C4232D8211800292FDD68689D
:1049F00081422CD8184814300246146801E0204641
:104A0000144662688A4202D22268002AF7D12A68D4
:104A100094421CD006682268026060680836421A18
:104A2000102A04D9601842606160FFF78FFF616847
:104A30006868401A6860AA68904200D2A86041F095
:104A40000040606000202060E868401CE86000F0E2
:104A5000A5FA304670BD00009000002010B5031F7D
:104A60004FF080741C601B1F21F001011960191F99
:104A7000024B0B60143940380A6010BDB54900087C
:104A80000024012544F61F66224600210948FEF74E
:104A900075F92DB16434A4B2B44206D3002504E004
:104AA000643C2404240C00D101250A2000F01EF9E6
:104AB000EAE700007C01002000B5254B21F0004210
:104AC00087B09A4203DC0022134600922BE0214B70
:104AD0009A4208D140B94FF00100FFF753F8FFF7B1
:104AE00032F807B000BD03DBFFF72AF807B000BDBE
:104AF00002AAFEF717FD10F003014FF001000DD0E0
:104B0000012914D002291AD00DF1080C9CE80F00DD
:104B1000FEF7CCFE07B081F0004100BD0DF1080C9E
:104B200000909CE80F00FEF795FF07B000BD0DF167
:104B3000080C9CE80F00FEF7B9FE07B000BD0DF1B0
:104B4000080C00909CE80F00FEF784FFE2E70000ED
:104B5000FB21E93F0000F07F08480068C16841F090
:104B60001001C16005488C300068016841F0020105
:104B70000160022202490148FDF7CABCC4010020BD
:104B800038000020154D144CDFF854806E104FF49F
:104B900000574FF4FA792068401C90FBF5F1206033
:104BA00005FB110020B9002239464046FCF79EF96A
:104BB000206890FBF5F105FB1100B04204D1012201
:104BC00039464046FCF792F906A0FFF74FFC4846ED
:104BD00000F08CF8DFE700000000002000DD6D0031
:104BE000001001403132333435360A00D0E9013249
:104BF00001699A60D0E901235A604A68824201D172
:104C000082684A60002202610868401E08600868E5
:104C1000704700F108014FF0FF32C0E90112C16096
:104C2000016100210160704700210161704730B5CA
:104C30000B685A1C02D000F1080202E0026904E08D
:104C40002246546825689D42FAD953684B609960A2
:104C50008A60516008610168491C016030BD000034
:104C6000BF2080F31188BFF34F8FBFF36F8F0248CF
:104C70000168491C016070478C00002003490868E6
:104C8000401E086001D180F3118870478C0000201D
:104C900070B500281BD0A0F108046068002816DA5F
:104CA0002168002913D120F00040606000F05EF818
:104CB000074D60686968084468602046FFF746FE53
:104CC0002869401C2861BDE8704000F067B970BDDC
:104CD000900000204FF0E020002101618161024935
:104CE00041610721016170473F19010010B50200C1
:104CF00009D000F03BF800211046FFF7D7FC00F088
:104D00004DF9002807D104494FF080500860BFF3E7
:104D10004F8FBFF36F8F10BD04ED00E07CB50F48DF
:104D20000025CDE900502B4680220DA10E4800F051
:104D300075F80A4C2C3C01280ED1BF2080F3118855
:104D4000BFF34F8FBFF36F8F4FF0FF30A062012092
:104D50006061E56000F034F8206B7CBD78000020D5
:104D600049444C45000000007D4800080248416B62
:104D7000491C4163704700004C0000200E48416B05
:104D800011B10121C16170470021C16101690B4A64
:104D9000B1FA81F1C1F11F0101EB810102EB810147
:104DA00001F108034A6852684A609A4201D1526888
:104DB0004A60D168016070474C0000205C0300200D
:104DC000094810B5016841F47F010160016841F0B4
:104DD0007F410160FFF77EFF044900200860FBF778
:104DE000A3F9002010BD000020ED00E08C000020A1
:104DF00010B5BF2080F31188BFF34F8FBFF36F8FC3
:104E000000F03AF818B104494FF0805008600020D3
:104E100080F3118810BD000004ED00E02DE9FF5F74
:104E20008346DDE90E87994616468A469000FFF7CD
:104E3000C9FD05001DD04C20FFF7C4FD040015D0AE
:104E40004C21FBF734FA25630021CDE90241CDE97D
:104E500000874B46324651465846FFF73FFD2046F5
:104E6000FFF768FC012004B0BDE8F09F2846FFF77B
:104E70000FFF4FF0FF30F6E72DE9F041454C0026DB
:104E8000606B28B1A069401CA0613046BDE8F0818C
:104E9000E5686D1CE56008D1A06BE16BA163E06380
:104EA000206A401C2062FFF777FDA16A3A488D42D4
:104EB0000FD34FF0000EA16B096839B1A16BC9681F
:104EC000C9684A68954212D2A26202E04FF0FF31EF
:104ED000A1622168C96A01EB810150F82100012813
:104EE00000D90126E0690028CFD00126CDE7D1E91D
:104EF00002724B69BA60D1E902277A605F680A1DC5
:104F0000974201D1CF685F60C1F814E01F687F1E2F
:104F10001F60D1F828C0BCF1000F15D0D1E90737C8
:104F20009F60D1E907377B60DCF8047001F118035A
:104F30009F4202D10B6ACCF80430C1F828E0DCF8BB
:104F400000305B1ECCF80030CB6A0127D4F810C0CB
:104F50009F4047EA0C07276103EB830300EB8303C1
:104F60005B688B609F68CF609F687A609A60CA6A4E
:104F700002EB820200EB82034B6150F822305B1C93
:104F800040F82230C96A2268D26A914293D9012638
:104F900091E700004C0000205C0300202DE9F04167
:104FA00000242746FFF75CFE3F4D686B401E686398
:104FB000686B002872D1A8683C4B00264FF00108AE
:104FC000F0BB6BE0D868C468D4E90721A06A91609F
:104FD000D4E907125160426804F118018A4201D1F4
:104FE000216A4160A6620168491E0160D4E902217C
:104FF00060699160D4E9021251604268211D8A42C1
:1050000001D1E268426066610268521E0260E26A93
:10501000D5F810C008FA02F040EA0C00286102EB53
:105020008200224A8C3A02EB80004068A060D0F8EF
:1050300008C0C4F80CC0D0F808C0CCF8041000E0D8
:1050400012E08160E06A00EB800002EB80016161A8
:1050500052F82010491C42F82010E06A2968C96AF9
:10506000884201D3C5F81C8018680028AAD10CB169
:10507000FFF792FCAC693CB1FFF7FEFE08B1C5F842
:105080001C80641EF8D1AE61E86938B10849012777
:1050900038070860BFF34F8FBFF36F8FFFF7EEFD48
:1050A0003846BDE8F08100004C000020E8030020F5
:1050B00004ED00E0010202030405060708090A0BDB
:1050C0000C0D0E0F10100000000000000000010287
:1050D00003040607080900000000010203040000A1
:1050E0004C5555555555A53F7751C1166CC156BF06
:1050F0009015CB19A001FA3EAD529C804F7E92BE16
:10510000C4B1B4BD9EEE213ED43888BEE9FAA8BD34
:1051100000004054FB21F93F3163621A61B4D03D75
:105120000000601A61B4D03D7370032E8A19A33B4E
:105130000000002E8A19A33BC14920259A837B39A0
:1051400000000000000000006E83F9A22915444E03
:10515000D15727FCC0DD34F5999562DB4190433C83
:10516000AB6351FE61C5BBDE3A6E24B7E0D24D425F
:10517000EA2E49061C92D1091CEB1DFE3EA729B15F
:10518000F53582E88444BB2E26709CE9417E5FB4ED
:1051900039D69139F43953838B5F849C3B28F9BD10
:1051A000FF97F81F0F9805DE8B112FEF1F6D0A5A1E
:1051B000CF7E366DB709CB27663F464F2DEA5F9EFF
:1051C000C7BA27757BF1E5EBF739073DEA92528ABA
:1051D000B15FFB6B085D8D1FA6F810111111813FA7
:1051E000D561C119A0012ABF7DFEB157E31DC73E9D
:1051F000EB9C2B8AE6E55ABE7CD5CF5A3AD9E53DE1
:105200002052000800000020B8000000643B0008A5
:10521000D8520008B8000020702F0000743B00082E
:10522000000000000000000000000000000000007E
:10523000000000000000000000000000000000006E
:10524000000000000000000000000000000000005E
:10525000000000000000000000000000010000004D
:10526000100000000000000000127A0000000000A2
:10527000000000000000000000000000000000002E
:10528000000000000000000000000000000000001E
:10529000000000000000000000000000040000000A
:1052A000000000000000000000000000AAAAAAAA56
:1052B00000000000000000000000000000000000EE
:1052C00000000000000000000000000001000906CE
:0852D0001818000000000000A6
:04000005080000ED02
:00000001FF
