:020000040800F2
:10000000F84C0020CD020008DF2F0008B52E0008B4
:10001000DD2F0008BB1E00083B3400080000000074
:10002000000000000000000000000000E52F0008B4
:10003000BD1E000800000000E12F00080F3000087E
:10004000E7020008E7020008E7020008E7020008EC
:10005000E7020008E7020008E7020008E7020008DC
:10006000E7020008E7020008E7020008E7020008CC
:10007000E7020008E7020008E7020008E7020008BC
:10008000E7020008E7020008E7020008E7020008AC
:10009000E7020008E7020008E7020008E70200089C
:1000A000E7020008E7020008E7020008E70200088C
:1000B000E7020008E702000875300008E7020008C0
:1000C000E7020008E7020008E7020008E70200086C
:1000D000E7020008E7020008E7020008E70200085C
:1000E000E7020008E7020008E702000800F002F853
:1000F00000F090F80AA090E8000C82448344AAF132
:100100000107DA4501D100F085F8AFF2090EBAE82F
:100110000F0013F0010F18BFFB1A43F0010318473B
:10012000EC5200000C530000103A24BF78C878C18C
:10013000FAD8520724BF30C830C144BF04680C60ED
:10014000704700000023002400250026103A28BF35
:1001500078C1FBD8520728BF30C148BF0B60704739
:100160006E2900F01183702900F05B84662904F089
:10017000A987652904F0A687672904F0A387612968
:1001800004F0A28703681B0A28BF41F08001692997
:1001900000F0BE82642900F0BB82752900F0B882AD
:1001A0006F2900F0E883782900F02784E92900F01E
:1001B0008383E42900F08083F52900F07D83EF2913
:1001C00000F0E583F82900F026840368DB0928BFE6
:1001D00041F08001632901F02D81732901F0328102
:1001E000E32901F03D81F32901F0428100207047AD
:1001F0001FB501F093F904000020002104F078FA03
:10020000401C60600020002104F05CFAE0601FBD2B
:1002100010B510BD01F054F91146FFF7E9FF03F0E6
:100220000BFD01F031FA03B4FFF7F2FF03BC01F05C
:1002300075FA0000224B19680868B0E8F00F80F3E7
:100240000988BFF36F8F4FF0000080F311884EF0E4
:100250000D0E70470000000006480068006880F33B
:10026000088862B661B6BFF34F8FBFF36F8F00DFB0
:1002700000BF00BF08ED00E0EFF30980BFF36F8F10
:100280000F4B1A6820E9F00F106008B54FF0BF005F
:1002900080F31188BFF34F8FBFF36F8F04F076F8B0
:1002A0004FF0000080F31188BDE808401968086825
:1002B000B0E8F00F80F30988BFF36F8F704700BF7D
:1002C00040000020EFF30580704700000948804798
:1002D00009480047FEE7FEE7FEE7FEE7FEE7FEE728
:1002E000FEE7FEE7FEE7FEE704480549054A064B40
:1002F0007047000071300008ED000008F84600204B
:10030000F84C0020F8480020F84800207CB51D4635
:1003100016460C00009001D02044401E074B7B4441
:100320002A4669460190304600F047FA05461CB15E
:100330000020694600F054FA28467CBDC90400003C
:100340002DE9F04F9B4616464FF00109C1B02091B0
:100350000090A9F1010920A85DF8295050F8290062
:10036000C5E04FEA6A0070432C185FEACA7100D1F9
:10037000801B5A46214627182846904700280EDD44
:10038000304646EA0501890765D022782978401E63
:1003900005F8012B04F8011BF7D1AD1BA41B5A462D
:1003A000394620469047002823DD5A4639462846DC
:1003B000904700280EDD304646EA0501890751D0F6
:1003C0003A782978401E05F8012B07F8011BF7D170
:1003D000AD1BBF1B304646EA0401890749D03A7875
:1003E0002178401E04F8012B07F8011BF7D1A41B4C
:1003F000BF1B314646EA0402B81B920740D003787F
:100400002278491E04F8013B00F8012BF7D12C4655
:10041000871BB84634445A46414620469047002838
:10042000F8DB5A464146BF1B384690470028F8DCA7
:10043000304646EA0401A7424FEA81712ED931B312
:100440003A782178401E04F8012B07F8011BF7D1F8
:10045000A41BBF1BDEE722682968001F04C502C475
:10046000F9D19AE73A682968001F04C502C7F9D193
:10047000AEE73A682168001F04C402C7F9D1B6E7A5
:1004800003682268091F08C404C0F9D1BFE73A68AD
:100490002168001F04C402C7F9D1D9E7E1B198F877
:1004A00000202178401E04F8012B08F8011BF6D12A
:1004B000A21B501BB0FBF6F0401EAAEB0001491E28
:1004C000884216DD0A2910DD20AB4DF8295043F88B
:1004D000290009F1010918E0D8F800202168001F5F
:1004E00004C448F8041BF7D1E2E70A2810DD82466D
:1004F00037E70A2807DD4DF8292020AA42F82910FD
:1005000009F10109F3E70A2902DD15468A4628E7C1
:10051000B9F1000F7FF41DAF41B0BDE8F08F2DE9B8
:10052000F04799460F460646140039D0002F37D0C1
:100530000A2F01D9FFF704FF7F1E354607FB045839
:100540002CE02F46254400E03F1BB74205D34A4626
:100550002946384690470028F6DC44EA05003B1956
:1005600080070CD0002117E029180A1B0F6802E051
:1005700011681151121B9A42FAD2001D1751A04264
:100580000CD2F1E76818027801E007780755001BE4
:100590009842FAD2491C0255A142F3D34545D0D323
:1005A000BDE8F08710B5431C02E010F8011B71B1E3
:1005B0008107FAD14FF0013202C88C1A8C4314EA39
:1005C000C211F9D0C01A0A0603D0C01E10BDC01A4D
:1005D00010BD0A0401D0801E10BD0902FCD0401ECF
:1005E00010BD4FF0000200B51346944696462039E0
:1005F00022BFA0E80C50A0E80C50B1F12001BFF4DC
:10060000F7AF090728BFA0E80C5048BF0CC05DF841
:1006100004EB890028BF40F8042B08BF704748BF8F
:1006200020F8022B11F0804F18BF00F8012B704703
:1006300070477047704710B500F0C2FA006810BDEF
:1006400010B5044600F0BCFA046010BD70B5044655
:1006500085690068C10601D5302600E02026C00764
:1006600007D070BDD4E9012130469047206A401C74
:1006700020626D1EF6D570BD70B5044685690078A0
:10068000C00707D170BDD4E9012120209047206A1E
:10069000401C20626D1EF6D570BD09684A0501D563
:1006A00040B27047C905FCD500B2704709684A05D9
:1006B00001D5C0B27047C905FCD580B2704770B58E
:1006C0000C460546012A05D02878800600D5EA693F
:1006D000002302E0012305E05B1C934202D2E05CB0
:1006E0000028F9D1A869E618C01AA861286A184438
:1006F00028622846FFF7AAFF04E0D5E9012114F893
:10070000010B9047B442F8D32846FFF7B5FF70BD00
:100710002DE9F0410646002410687529314616A5DA
:1007200010D0FFF7BAFF002802DA404213A507E015
:1007300031688A0701D512A502E0490704D511A541
:10074000012401E0FFF7B2FF00210A2206F124078D
:1007500009E0B0FBF2FCB0FBF2F302FB1C0030300E
:1007600078541846491C0028F3D123462A463046BF
:10077000BDE8F04100F06DBA000000002D0000005F
:100780002B0000002000000011680268006A530579
:1007900001D508700AE0D30501D5088006E01306EC
:1007A00003D5C217C1E9000200E0086001207047CC
:1007B00001694A1C02610878704700B58FB0CDE925
:1007C00001310021059105497944CDE90310114615
:1007D000684600F031F90FB000BD0000E5FFFFFFF3
:1007E0000A6802F8010B0A607047D1E900239A42B7
:1007F00002D2531C0B601070704700002DE9FF5FA0
:1008000015468A460446DFF8AC80F8440027D8E94C
:1008100000103E46CDE9001010E03AF816106A4686
:1008200002A800F029FE411C07D02178890603D5D3
:10083000E269391891420DD80744761C2078800669
:1008400002D5E069B84205DDAE42E6DB3AF81600B3
:100850000028E2D1A069C01BA0612046FFF7F6FE88
:10086000D8E90010CDE90010002017E03AF8181080
:100870006A4602A800F000FEB0F1FF3F81460BD0AF
:1008800000250DF1080B05E0D4E901211BF8050056
:1008900090476D1C4D45F7D308F10100B0428046EA
:1008A000E4DB206A384420622046FFF7E5FEBDE81D
:1008B000FF9F0000DA4900002DE9F0418046D21D7B
:1008C00022F007020025D2E90002F52915A614D06E
:1008D000011E72F1000106DA0023D0EB030063EB86
:1008E000020211A608E0D8F800108B0701D50FA668
:1008F00002E0490701D50EA601251146002408F1A2
:10090000240704E000F060F930323A55641C50EAE4
:100910000102F7D12B46324621464046BDE8F04160
:1009200000F097B9000000002D0000002B0000002F
:100930002000000030B4002100F1240408E002F09F
:100940000705D208303542EA4372DB086554491C7A
:1009500052EA0305F3D10468002310A2250707D546
:10096000A40600D421B1C46901230DA2641EC46190
:1009700030BC00F06EB910B5044621461068FFF790
:1009800095FE02462046BDE810400023D2E7D21D66
:1009900022F00701D1E90023CCE7000000000000AD
:1009A00030000000F0B40D460188090502D5214C45
:1009B0007C4402E01F4C7C440E34002100F12406EC
:1009C00008E002F00F071209E75D42EA03721B0913
:1009D0007754491C52EA0307F3D102780023120727
:1009E00004D5702D06D009B1022311342246F0BC83
:1009F00000F02FB901231034F8E770B504460D4616
:100A000021461068FFF752FE024629462046BDE8FF
:100A100070400023C6E7D21D22F00703D3E900236C
:100A2000C0E70368126843F0200303600823C36132
:100A30000023B7E73C4800002DE9F05F89460446F3
:100A40004FF0000ADFF874B1FB44C0F820A0204644
:100A5000E1688847002874D0252806D0D4E9012110
:100A60009047206A401C2062F1E700265F4620463E
:100A7000E16888472028054607DB312D05D2781923
:100A800010F8200C08B10643F1E7B00701D526F0B5
:100A90000406C4F81CA00027C4F818A02A2D09D009
:100AA000284603F00FF838B304EB8708303DC8F848
:100AB000185019E059F8041B204604EB8702916195
:100AC000E1688847012F054618D1E069002820DA3F
:100AD00026F020061DE0D8F8180000EB800005EB9A
:100AE00040003038C8F818002046E16888470546BD
:100AF00002F0E8FF0028EED1012F0AD02E2D08D1F8
:100B00002046E16888477F1C0546022F46F02006F4
:100B1000C4DBA069002803DA404246F00106A06168
:100B2000F00701D026F010066C2D0BD0682D09D0EF
:100B30004C2D39D06A2D35D0742D35D07A2D33D047
:100B400016E038E0E1682F4620468847B84205465F
:100B500009D16C2F26D04FF48060E168064320460F
:100B60008847054604E06C2F1AD04FF48070064386
:100B70000DB3A5F14100192802D8203546F40066CE
:100B80004A462946204626604E46FFF7E9FA80B1DC
:100B900001280BD0F61D26F0070000F1080956E7E2
:100BA0004020E4E78020D8E70020D6E706F10409DA
:100BB0004DE7284652E7206ABDE8F09FCC47000089
:100BC000004870479846002030B5B0F10A024FEA5D
:100BD000900E71F100034EEA817EB0EB0E0061EBE6
:100BE00091014FEA101E4EEA017E10EB0E0041EB20
:100BF00011114FEA102E4EEA016E10EB0E0041EB80
:100C000011214FEA104E4EEA014E10EB0E0041EB5F
:100C10001141401841F100014FEAD00040EA417013
:100C20004FEAD10110EB80054FEA810444EA907449
:100C300044EB01046D1944EB0404521BA3414FF033
:100C4000000348BF0A3200D530BD401C41F100010D
:100C500030BD2DE9F0470D4699469246044600F115
:100C600024080168880604D5E06921F0100121609C
:100C700000E00120A84201DD471B00E00027A16938
:100C80007A1902EB0900081AA0612078C00602D484
:100C90002046FFF7DBFC002608E0D4E901211AF822
:100CA00006009047206A401C761C20624E45F4DB0B
:100CB0002078C0060AD52046FFF7C8FC06E0D4E934
:100CC000012130209047206A401C2062381EA7F185
:100CD0000107F4DC07E0D4E9012118F8050090478A
:100CE000206A401C2062281EA5F10105F3DC204685
:100CF000FFF7C2FC2078000602D50220BDE8F0878D
:100D00000120FBE770472DE9FF4F0C461E464FF0D0
:100D1000FF378BB0D2E90001DDF860800A908A4687
:100D2000C1F30A5505B93D46002108464FF00000C1
:100D3000BAF1000F00F4400005DA00EB80004FF438
:100D4000400101EA50004FEA9059B9F1010F00DD6E
:100D5000B9460A9850EA4A000ED044F61050A5F25F
:100D6000FF3545432F14B8F1000F1ED07542291EE0
:100D70001EDDC9F100021CE0B8F1010F4FF00000C8
:100D800001D0302103E0F24305E02154401CB04281
:100D9000FBDB30460022002121540B99C1F808806A
:100DA000C1E900200FB0BDE8F08FBD1B6D1CDEE770
:100DB0004A4600DA694206A800F0F4FB06AB93E865
:100DC000070003AB83E8070050460A9900F0ADFC2A
:100DD0008DE80700A0F500501F3800900398002D03
:100DE0000ADD42F21F014A460844002303A903908A
:100DF000684600F016FF09E0A0F500504A461F388B
:100E0000002303A90390684600F020FF8DE8070047
:100E10000004000C03D04FF0FF30410800E0104602
:100E2000B8F1000F03D00022009215461EE0751E97
:100E300005D4FFF7C9FE303262556D1EF9D5B346B1
:100E40000122084302D000227F1C04E020783028D1
:100E500001D100227F1E002A099784D01DE0112DA8
:100E600007DAFFF7B1FE303262556D1C50EA01021D
:100E7000F5D1084302D00098C8B10EE00021681EE9
:100E800005E0235C625C63542254401E491C81428D
:100E9000F7DBAB46A81B401E0990002004F80B00AE
:100EA0000B98099AC0F80880C0E9002B7AE7112650
:100EB0004FF0000857E72DE9F04F88460446D21D51
:100EC00022F0070191B0D1E90001CDE90A0102F059
:100ED000B5FA02460B98C00F01D02D2007E020681C
:100EE000810701D52B2002E0202101EAC000032A5E
:100EF000099001D0072A05DB03464146204600F051
:100F000011FB0BE12078800601D5E06900E00620A6
:100F1000B8F1650F814606D0B8F1660F18D0B8F168
:100F2000670F70D131E00020B9F1110F009001DBA3
:100F3000112301E009F101030AAA01A90CA8FFF796
:100F4000E2FEDDE90C70002609F10105834647E069
:100F500001204B4600904FF000470AAA01A90CA8B7
:100F6000FFF7D1FEDDE90DB00C995D46002610B902
:100F700009F101000D18B9EB050003D4C0F1FF36EB
:100F800009F10105A5EB09002BE0B9F1010F01DA28
:100F90004FF001090020B9F1110F0090484601DD22
:100FA000112300E003460AAA01A90CA8FFF7ABFE33
:100FB000DDE90C704D4600268346207800070AD4F0
:100FC000AB4500DA5D4601A8012D04DD411911F899
:100FD000011C302907D04F4502DA17F1040F04DA5B
:100FE000012082460FE06D1EEEE7002F02DCED1BB4
:100FF0003E4403E0781CA84200DD7D1CB81B00F1D4
:10100000010A4FF000472078000703D4AA4501DB0E
:101010004FF0FF3A0021B7F1004F0DF143088DF872
:10102000431024D002202B23002F01DA7F422D23EE
:101030000A21021EA0F1010000DC5FB197FBF1FC68
:1010400097FBF1F201FB1C7C17460CF1300C08F801
:1010500001CDEEE7A8F1010003702188090501D553
:10106000452100E06521A0F1010800F8011C099864
:101070000FA9A1EB0807FF1D00B10120411901EBE9
:10108000EA70A1693844081A401EA0612078C006A1
:1010900002D42046FFF7DAFA099828B1D4E90121F1
:1010A0009047206A401C20622078C00622D5204646
:1010B000FFF7CCFA1EE0002E04DBB34502DD01A8E9
:1010C000805D00E03020D4E901219047206A401C77
:1010D0002062761CAAF101005FEA000A0AD100F042
:1010E0001DFAC0680168405CD4E901219047206A7C
:1010F000401C2062281EA5F10105DCDC07E0D4E9D4
:10110000012118F8010B9047206A401C2062381E0C
:10111000A7F10107F3DC2046FFF7AEFA032011B078
:1011200041E600002DE9F04F04460D46D21D22F0A5
:10113000070089B0D0E900974846394602F07EF9A9
:101140000246F80F01D02D2307E02068810701D562
:101150002B2302E0202101EAC0038DF820300BB1DF
:10116000012000E00020032A824601D0072A04DB88
:101170002946204600F0D6F93FE12078800601D4C8
:101180000D2500E0E569C7F30A560D2D49DA002167
:101190004FEA175B08464FF00000002F00F44000B4
:1011A00007DA00EB80004FF4400100EBD07001EA59
:1011B00060008115012901DD4FF0FF3100224FEA67
:1011C000850CBCF1180F06D31346ACF118004FF094
:1011D0008052C24003E04FF4801323FA0CF30CF169
:1011E0000C0CBCF1200F04D3ACF1200C09FA0CF06C
:1011F00001E007FA0CF000294FF0004801DD18B9B2
:101200000FE00ED140450CD319EB02095F4121B923
:10121000404502D19F4329EA0209BBEB175F00D08A
:10122000761C2088000502D57B48784402E07A4885
:101230007844193808AA302302F80A30037C0AF1EE
:101240000101002E0AF1020A53546A4602DC4FF0F3
:10125000300101E04FF031014FF001088DF800102E
:1012600002D0A6F2FF3603E059EA470100D06B4EE8
:10127000002D02DC2178090704D54FF002082E2149
:101280008DF80110C44600210BE0C7F303433F0172
:10129000C35C491C6D1E02F80830052908F10108DD
:1012A00001DA002DF1DC00210CE000EB1973491C80
:1012B0001B786D1E082902F808304FEA091908F159
:1012C000010801DA002DF0DC21688B0602D516E05A
:1012D000A8F10108E04505DD02EB080313F8013C25
:1012E000302BF5D0B8F1000F09DD02EB080313F83D
:1012F000013C2E2B03D1090701D4A8F10108002DD0
:1013000005DD3E2102F808106D1E08F10108407C41
:10131000002E02F8080008F1010804DA2D207642B8
:1013200002F8080002E02B2002F808000A214FF41E
:101330007A70864208F101080BDB96FBF0F330333C
:1013400002F8083096FBF0F308F1010800FB136681
:1013500001E0642E0CDB642096FBF0F3303302F8DE
:10136000083096FBF0F308F1010800FB136601E07A
:101370000A2E06DB96FBF1F0303002F8080008F187
:10138000010896FBF1F001FB1060303002F8080014
:10139000A16908F1010808EB050202EB0A00081A2E
:1013A000A0612078C00602D42046FFF74FF9216AD9
:1013B00008AE01EB0A00206204E0D4E9012116F82E
:1013C000010B9047BAF1010AF7D22078C00602D586
:1013D0002046FFF73BF96E4609E016F8010B3E2860
:1013E0000FD0D4E901219047206A401C2062B8F157
:1013F0000108F2D22046FFF73FF909B00320BDE80B
:10140000F08F206A2844206203E0D4E901213020D3
:1014100090476D1EEBD3F8E73541000002FCFFFF5B
:1014200010B5436913B1AFF3008001E0FFF747F94E
:10143000012010BD127800F124010A7000224A70C8
:101440000122EDE711684FF0FF32E9E710B543697B
:1014500013B1AFF3008001E0FFF7D0F9012010BD18
:10146000128800F1240182840022C2840122EDE767
:1014700011684FF0FF32E9E770B516460C46054695
:1014800000F044F8036893F80101012806D0FF2C0E
:101490000FD8185D68B101202C7070BDD3F807011A
:1014A0003246214603F2071303442846BDE8704044
:1014B00018474FF0FF3070BD004870479846002035
:1014C0007546FFF7F9FFAE4605006946534620F022
:1014D0000700854618B020B5FEF706FFBDE820409E
:1014E0004FF000064FF000074FF000084FF0000BE0
:1014F00021F00701AC46ACE8C009ACE8C009ACE893
:10150000C009ACE8C0098D467047000010B500F076
:1015100005F8001D10BD00BFD9310000004870471C
:10152000B84600202DE9F0411F4604460326016815
:10153000072A01F4006004DB08B116A505E016A532
:1015400003E008B115A500E015A521F0100020600A
:10155000A069C01EA0610FB1401EA0612046FFF728
:1015600075F84FB1D4E9012138469047206A401CF4
:101570002062C01C206206E0206AFAE7D4E901215B
:1015800015F8010B9047761EF8D22046FFF774F845
:10159000BDE8F0814E414E006E616E00494E46003E
:1015A000696E66002DE9F047814616468AB03548D7
:1015B00078440DC88DE80D0032487844801C03AC97
:1015C0000DC884E80D0041F69B300844372190FB9C
:1015D000F1F290FBF1F5A5F1800501FB12041B3C33
:1015E00002D56442012000E00020DFF898A0804688
:1015F0000027FA44AAF1BE0A0EE0E0070AD03246FC
:10160000684607EB470101230AEB810100F01EFB4E
:101610008DE8070064107F1C002CEED1194F7F4429
:10162000AE3F19E0E80715D007EB04100DF1180ADA
:1016300090E80E008AE80E00C068F04201D19819C7
:1016400008903246012306A903A800F0FFFA03AB75
:1016500083E807006D10641C002DE3D14FF00103F7
:1016600032466946B8F1000F03A802D000F0D9FA5B
:1016700001E000F0EBFAC9E90001C9F808200AB05E
:10168000BDE8F087403E000010B50446AFF300808F
:101690002046BDE81040FEF7C6BD00004FF0013CFB
:1016A00050F8042B51F8043B9A4221D1A2EB0C03D1
:1016B000934313EACC1317D150F8042B51F8043B91
:1016C0009A4215D1A2EB0C03934313EACC130BD12E
:1016D00050F8042B51F8043B9A4209D1A2EB0C03B9
:1016E000934313EACC13DBD04FF00000704700BFE8
:1016F000D01A01BAB1FA81F101F0180122FA01F011
:10170000CB40C1F12001DBB2C0B2C01A2CFA01F308
:10171000D11A914311EAC311E6D17047014918204B
:10172000ABBEFEE72600020070475FEA400C08BF30
:1017300091F0000F4FEA8C234FEAC12243EA515146
:101740004FEA1C5018BF00F5F0404FEA300018BFB8
:1017500041F000415FEA6C5C00F02980BCF1FF3F82
:1017600008BF40F080407047130C06BF12044FF0D2
:10177000100C4FF0000C130E04BF12020CF1080CF9
:10178000130F04BF12010CF1040C930F04BF92005D
:101790000CF1020CD30F04BF52000CF1010C1146E6
:1017A0004FF00002A0F11F00A0EB0C00704711F0F9
:1017B000004F08BF704731F000413FF4D5AF0B0C2C
:1017C00006BF09044FF0100C4FF0000C0B0E04BFC5
:1017D00009020CF1080C0B0F04BF09010CF1040CF9
:1017E0008B0F04BF89000CF1020CCB0F04BF490022
:1017F0000CF1010CCCF12003A0EB0C0022FA03F356
:1018000002FA0CF241EA030100F10100704720F0F6
:101810007F4C80EA030023F07F47ACEB070303F51E
:101820007C5300F0004003F1FF032DE980494FEAAB
:10183000154B09B44FEA144325EA0B4E24EA03483A
:101840000FF2042606EB132749083E785FEA3202BE
:1018500003FB0667C7F5000707FB06F64FEA543798
:101860004FEAD64606F1020607FB066CCCF1005C97
:101870004FEA1C472CEA074C07FB06F40CFB06F565
:1018800004EB15464FEA961634BF00204FF0004097
:101890004FEAD13706FB07FC4FEA1C4C0CFB0BF759
:1018A000D21B03FB0CF761EB07010CFB0EF7B0EB4F
:1018B000074072EB17420CFB08F734BFA2EB07425C
:1018C000B2EB074261EB17414FEA0C444FEA910734
:1018D00006FB07FC4FEA1C4C0CFB0BF7B0EBC740B8
:1018E00072EB573203FB0CF734BFA2EBC742B2EBEB
:1018F000C74261EB57310CFB0EF7B0EBC70072EB40
:1019000057720CFB08F734BFA2EBC702B2EBC70259
:1019100061EB5771039F4FEA816141EA921104EB39
:10192000CC044FEAD1374FEA826206FB07FC42EA59
:1019300090124FEA80604FEA1C4C0CFB0BF7D21B55
:1019400003FB0CF761EB07010CFB0EF7B0EB074054
:1019500072EB17420CFB08F734BFA2EB0742B2EB65
:10196000074261EB17414FEA8C554FEA910704EBB0
:101970009C2406FB07FC4FEA1C4C0CFB0BF7B0EB5E
:10198000C74072EB573203FB0CF734BFA2EBC742E0
:10199000B2EBC74261EB57310CFB0EF7B0EBC7005F
:1019A00072EB57720CFB08F734BFA2EBC702B2EB25
:1019B000C70261EB577115EB4C254FEA816141EA93
:1019C00092114FEA82624FEAD13742EA901206FB47
:1019D00007FC44F100044FEA80604FEA1C4C0CFB0A
:1019E0000BF7D21B03FB0CF761EB07010CFB0EF7A7
:1019F000B0EB074072EB17420CFB08F734BFA2EBC9
:101A00000742B2EB074261EB174115EB1C154FEA99
:101A1000813141EA92414FEA823242EA90424FEAF2
:101A200080304FEA0C7644F1000448EA03434EEA62
:101A30000B484FF0000EB2EB080C71EB030724BF0C
:101A4000624639464EEB0E0E4FF0000B0018524125
:101A500049414BEB0B0BB2EB080C71EB03077BF12D
:101A6000000B24BF624639464EEB0E0E4FF0000BC2
:101A70000018524149414BEB0B0BB2EB080C71EBD8
:101A800003077BF1000B24BF624639464EEB0E0E76
:101A900051EA020718BF46F0010616EB0E7655F123
:101AA000000254F1000103D5BDE88901BDE80088BA
:101AB000BDE88901BDE80048B619524141EB01017A
:101AC000A3F10103704780807F7E7D7C7B7A7978EB
:101AD000777676757473727171706F6E6E6D6C6CF3
:101AE0006B6A6A6968686766666564646363626195
:101AF0006160605F5F5E5E5D5D5C5C5B5B5A5A5916
:101B00005958585757565655555554545353525281
:101B10005251515050504F4F4F4E4E4D4D4D4C4CD9
:101B20004C4B4B4B4A4A4A49494948484847474722
:101B3000474646464545454444444443434343425F
:101B4000424242414141002B9C4630D477002BD089
:101B50001CB54FEA370703B44FF010004FF01001E7
:101B6000BAF1000F06D0BCF1000FDCBF40F0080056
:101B700040F008014FF000000FBCBDE810400BF131
:101B8000010BBBF1010F08BF5FEA170722BF12F17B
:101B9000010211F101014FF0004143F1000300F097
:101BA000004043EA00007047F9D35708D0E746EAFF
:101BB000064613F1400F4FEA16461FDD13F1200FC2
:101BC000DFBF16430A46002120335B42BED0C3F17B
:101BD000200746EA064602FA07F74FEA164646EAA3
:101BE0000706C3F1200722FA03F201FA07F721FAE8
:101BF00003F14FF0000342EA0702A7E746EA0206B4
:101C000046EA06464FEA164646EA0106BCBF46EAE1
:101C10000646360C4FF000034FF000024FF0000173
:101C200094E72DE9804C9A46934670B491E83800C9
:101C300007C831EA400C48BF34EA430C03D5FFF72C
:101C4000E6FDFFF780FFF0BCBDE8008C2DE9804C7D
:101C50009A46934670B491E8380007C810F0804F58
:101C600008BF13F0804F03D100F005F8FFF76BFFBA
:101C7000F0BCBDE8008C20F07F4780EA030023F031
:101C80007F4C07EB0C03A3F57C5300F00040A3F15D
:101C9000FE0392F0000F00F0B38095F0000F00F00B
:101CA00077802DE901494FEA11404FEA144621EAB5
:101CB000004800FB06FC24EA064708FB06F607FB83
:101CC00008F800FB07F718EB06484CEB164C4FEAF8
:101CD000124B18EB07484FEA15464CEB174022EA27
:101CE0000B4E0BFB06FC25EA06470EFB06F607FB30
:101CF0000EFE0BFB07F71EEB064E4CEB164C4FF09F
:101D000000061EEB074E4CEB174B18EB0B0840F18F
:101D1000000018EB0E0B58EB000840F100008F1A82
:101D20004FF000013CBFC943661B14BFB5EB040C68
:101D300000213CBFC943F61B4FEA17444EEA8E0E02
:101D400027EA04454FEA1C4704FB07622CEA074CCC
:101D500005FB07F70CFB05F604FB0CFC16EB07462E
:101D600042EB174216EB0C4642EB1C421BEB0606FD
:101D700058EB0202414146EA9E0601D5BDE80189C1
:101D8000B619524141EB0101A3F10103BDE80189FC
:101D90004FEA14454FEA114724EA054621EA074C69
:101DA00005FB07F406FB07F70CFB06F105FB0CFC33
:101DB00011EB074144EB17444FEA124711EB0C417A
:101DC00044EB1C4422EA074C05FB07F206FB07F72D
:101DD0000CFB06F605FB0CFC16EB074642EB174224
:101DE00016EB0C4642EB1C456A1854F1000148BF43
:101DF0007047B619524141EB0101A3F1010370474D
:101E000095F0000F37D04FEA11424FEA144721EA0C
:101E1000024624EA074C02FB07F106FB07F70CFB1E
:101E200006F402FB0CFC14EB074441EB17414FEAAC
:101E3000154714EB0C4441EB1C4125EA074C02FB0F
:101E400007F506FB07F70CFB06F602FB0CFC16EB8E
:101E5000074645EB174516EB0C4645EB1C4212199D
:101E600051F1000148BF7047B619524141EB0101E1
:101E7000A3F1010370474FEA14454FEA114724EAE2
:101E8000054621EA074C05FB07F106FB07F70CFBAB
:101E900006F24FF0000605FB0CFC12EB074241EB8B
:101EA000174112EB0C4251EB1C4148BF704792188E
:101EB00041EB0101A3F101037047FEE77047000009
:101EC0002DE9F84FDFF8B8910024A9F1040B23465F
:101ED0000F2709F1040AABF1040EC9E00125A54062
:101EE0002A40AA427DD1674ED1F804C0ACEB060867
:101EF000B44532D014DCBCF1030F3AD009DCBCF19C
:101F0000000F2AD0BCF1010F1CD0BCF1020F31D15F
:101F10001DE0BCF1110F17D0BCF1120F2AD119E04E
:101F2000B8F5881F19D006DCB8F5803F15D0B8F594
:101F3000801F1FD111E0B8F5001F0ED0B8F5041FA7
:101F400018D10AE0CB6815E0CB681B1D12E0CB6806
:101F500008330FE0CB680C330CE08B682BB1012BFE
:101F60004FF0080303D0456104E0042302E005615B
:101F700000E00023FF2A01D8064601E000F1040634
:101F80004FEA840501D9A5F12005D6F8008007FAAB
:101F900005FC28EA0C0803FA05F548EA0508C6F826
:101FA00000804D68ED0062D5374DAE6946F0010600
:101FB000AE61AD6924F0030605F001050095334DCF
:101FC00006EB050CDCF80850A607360F07FA06F8F2
:101FD00025EA0805DFF8B880404503D14FF0000836
:101FE00017E044E0DFF8AC80404502D14FF0010833
:101FF0000FE0DFF8A480404502D14FF0020808E06E
:10200000DFF89880404502D14FF0030801E04FF01F
:10201000040808FA06F848EA0508CCF808804D6874
:10202000D9F80060ED024D4601D5164300E0964315
:102030002E604D68DAF80060AD02554601D51643B2
:1020400000E096432E604D68DBF80060AD035D460E
:1020500001D5164300E096432E604D68DEF800601F
:10206000ED03754601D5164300E096432E60641CCF
:102070000D682A46E5407FF431AFBDE8F88F0000D7
:10208000080401400000111000100240000001404F
:1020900000080140000C0140001001400014014004
:1020A000C26821EA02030A4043EA02410161704723
:1020B0000AB1016170470904FBE70000014880682C
:1020C0007047000030000020024881680278114407
:1020D0008160704730000020074810B5016841F06A
:1020E00010010160032000F0A1F80F2000F006F8B5
:1020F00000F050F8002010BD0020024030B5054629
:102100001F4887B0C16941F00401C161C06906A9D7
:1021100000F00400009001A800F030F90498B0B17C
:1021200000F04CF940001749174AB0FBF1F117488D
:10213000491E0260416040F2E7320021C0E90321FC
:102140008160816100F070FB040003D015E000F0B5
:1021500035F9E8E70D4800F0A9FB04000DD11E2079
:1021600000F036F8102D07D2002229461E2000F07C
:102170003DF80748056000E0012407B0204630BD67
:102180000010024040420F0000080040880100207B
:10219000340000200C4808B5816941F001018161DB
:1021A000816901F001010091C16941F08051C16173
:1021B000C06900F0805000900448416821F0E0615F
:1021C00041F00071416008BD001002400000014074
:1021D000002809DB00F01F02012191404009800026
:1021E00000F1E020C0F8001170470000F0B40E4B81
:1021F0001B680C46C3F30223C3F10705042D00D965
:102200000425191D072901D2002300E0DB1E012649
:1022100006FA05F1491E214099409E40761E16405F
:102220003143F0BC01F01EB90CED00E0064900F0AE
:10223000070208684FF6FF03184040EA0220034AED
:1022400010430860704700000CED00E00000FA0544
:102250002DE9F0470F46050061D0434E306800F08D
:102260000700B84209D2306820F0070038433060D8
:10227000306800F00700B84251D128683B4C810714
:1022800012D5400703D5606840F4E06060602878AC
:10229000000703D5606840F4605060606068A9681A
:1022A00020F0F000084360602878C00728D06868F4
:1022B000012810D02168022810D0890700292EDAC1
:1022C000616821F0030101436160FFF7F7FE80467A
:1022D00041F288390DE021688903EFE78901EDE7D4
:1022E000FFF7ECFEA0EB0801494502D90320BDE849
:1022F000F0876068696800F00C00B0EB810FEFD1E7
:10230000306800F00700B8420BD9306820F00700B1
:1023100038433060306800F00700B84201D0012037
:10232000E5E72878400705D56068E96820F4E060B3
:10233000084360602878000706D56068296920F4A2
:10234000605040EAC100606000F058F86168084AD7
:10235000C1F30311515CC840064908600648006893
:10236000FFF7CCFE0020C2E7002002400010024030
:10237000CE5100083C000020340000200F220260F3
:102380000C4A536803F003034360536803F0F003FF
:102390008360536803F4E063C36052684FF4E06302
:1023A00003EAD20202610448006800F007000860F6
:1023B0007047000000100240002002400448054918
:1023C00000684968044AC1F30221515CC840704763
:1023D0003C00002000100240DE510008044805497E
:1023E00000684968044AC1F3C221515CC840704783
:1023F0003C00002000100240DE5100080E4A5168E7
:102400000E4801F00C03042B11D0082B0FD10C48FF
:10241000C1F38343C903C05C0AD55168084AC1F3BC
:102420004041921E515C054A5043B0FBF1F07047A9
:1024300004494843704700000010024000127A002F
:10244000BE51000800093D002DE9F84F040070D08E
:102450002078C04DC00749D06868C0F381000128CA
:1024600007D06868C0F38100022809D16868C003FA
:1024700006D52868800339D560680028E7D035E0A4
:102480006068B0F5803F0BD010B1B0F5A02F11D02F
:10249000286820F480302860286820F4802002E03A
:1024A000286840F480302860606890B1FFF706FE2D
:1024B00006460AE0286840F480202860F0E700BF64
:1024C000FFF7FCFD801B642873D828688003F7D5CC
:1024D0000CE0FFF7F3FD064605E000BFFFF7EEFD59
:1024E000801B6428F0D828688003F7D420789A4E9F
:1024F00080074FF001094FF0000839D5686810F0E7
:102500000C0F07D06868C0F38100022809D1686801
:10251000C00306D42868800714D52069012808D193
:1025200010E02069B0B1C6F80090FFF7C7FD07467C
:1025300005E00AE1FFF7C2FDC01B0228C4D82868E5
:102540008007F7D52868616920F0F80040EAC100EB
:1025500028600DE0C6F80080FFF7B0FD074604E0F4
:10256000FFF7ACFDC01B022823D828688007F7D4EA
:10257000207800072CD57948A169D9B1C0F800901E
:10258000FFF79CFD074604E0FFF798FDC01B0228FB
:102590000FD8686A8007F7D571484FF4FA51006880
:1025A000B0FBF1F0009000BF0098411E0091FAD2FC
:1025B0000EE080E0C0F80080FFF780FD074604E0F1
:1025C000FFF77CFDC01B022875D8686A8007F7D426
:1025D0002078400760D5E8690027C00008D4E86982
:1025E00040F08050E861E869012700F080500090D9
:1025F0005C480168C90513D40168834641F48071C1
:102600000160FFF75BFD824606E000BFFFF756FD65
:10261000A0EB0A0064284ED8DBF80000C005F5D511
:10262000E06801280AD008B1052813D0286A20F0F4
:1026300001002862286A20F0040002E0286A40F0C5
:1026400001002862E06841F2883B98B1FFF736FD4F
:1026500082460BE0286A40F004002862EEE700BFE3
:10266000FFF72CFDA0EB0A0159455AD8286A8007CC
:10267000F6D50CE0FFF722FD824605E0FFF71EFDD0
:10268000A0EB0A0159454CD8286A8007F6D41FB13F
:10269000E86920F08050E861E06988B36968C1F3B7
:1026A0008101022944D00228C6F8608004D0FFF7D7
:1026B00005FD044638E034E0FFF700FD074604E07E
:1026C000FFF7FCFCC01B02282BD828688001F7D438
:1026D000206AB0F5803F05D16868A16820F4003019
:1026E00008436860D4E908010843696821F474115B
:1026F00008436860C6F86090FFF7E0FC044606E017
:1027000025E000BFFFF7DAFC001B022809D8286883
:102710008001F7D51BE000BFFFF7D0FC001B0228AB
:1027200002D90320BDE8F88F28688001F4D40EE0B8
:102730000128F7D06868226A00F48031914204D100
:10274000616A00F47010884201D00120EAE700209D
:10275000E8E70000001002400000424280044242CC
:102760003C000020007000407047704710B590F8A2
:102770003C20012A22D0012280F83C20CA688C68C3
:1027800022F4407222434C6822F4806222430C6897
:1027900022F4006222430C6922F4805222434C69E5
:1027A00022F400522243C969002322F480420A43E2
:1027B00001684A6480F83C30002010BD022010BD42
:1027C00070B590F83C20012A26D0012480F83C40C6
:1027D000022280F83D2003685A689D6822F0700646
:1027E0000A6832435A600D4B02689A4208D0B2F12F
:1027F000804F05D00A4B9A4202D00A4B9A4204D12C
:10280000496825F080031943916080F83D4000211C
:1028100080F83C10084670BD022070BD002C0140BD
:10282000000400400008004010B5040003D094F8F4
:102830003D0010B107E0012010BD002084F83C00ED
:10284000204600F01FF8022084F83D00211D20687A
:1028500000F016FC012084F8460084F83E0084F85D
:102860003F0084F8400084F8410084F8420084F876
:10287000430084F8440084F8450084F83D000020BB
:1028800010BD000008B500680649884208D1064816
:10289000816941F400618161806900F40060009009
:1028A00008BD0000002C01400010024090F83D10CF
:1028B000012901D001207047022180F83D100168F4
:1028C000CA6842F00102CA6000680B49884208D019
:1028D000B0F1804F05D00949884202D008498842AA
:1028E00004D1816801F00701062903D0016841F095
:1028F0000101016000207047002C014000040040ED
:102900000008004070B5044690F83C0000250128FE
:1029100017D0012684F83C60022084F83D0020682E
:10292000826822F0770222F47F4282600868502891
:1029300038D00DDC20284FD005DC90B3102811D101
:102940004AE0022070BD302846D040280AD13BE042
:1029500060282FD070280DD0B0F5805F03D0B0F57F
:10296000005F12D0012584F83D60002084F83C000F
:10297000284670BDCB68D1E90121206800F0C9FB71
:102980002068816841F0770109E0CB68D1E9012135
:10299000206800F0BEFB2068816841F480418160BE
:1029A000E1E719E0CA684968206800F067FC502137
:1029B000206806E0CA684968206800F070FC602161
:1029C000206800F0B0FBCEE7CA684968206800F0D4
:1029D00055FC40212068F4E7226801461046F0E7E4
:1029E00070472DE9F04104460068C66805694FF05C
:1029F0000007A90713D5B10711D5F91E0161012000
:102A00002077206880698007204602D0FFF7E8FF22
:102A100004E000F0A5F8204600F037F927776807B2
:102A200016D5700714D521686FF0040008610220E4
:102A300020772068806910F4407F204602D0FFF79D
:102A4000CFFF04E000F08CF8204600F01EF9277755
:102A5000280715D5300713D521686FF008000861E5
:102A6000042020772068C0698007204602D0FFF745
:102A7000B7FF04E000F074F8204600F006F927776D
:102A8000E80616D5F00614D521686FF0100008612D
:102A9000082020772068C06910F4407F204602D0CB
:102AA000FFF79EFF04E000F05BF8204600F0EDF831
:102AB0002777E80708D0F00706D021686FF00100FB
:102AC0000861204600F030F9280608D5300606D502
:102AD00021686FF0800008612046FFF745FE680618
:102AE00008D5700606D521686FF0400008612046C1
:102AF00000F024F9A8060AD5B00608D521686FF0C1
:102B0000200008612046BDE8F041FFF72EBEBDE879
:102B1000F081000000B585B0002100910191029183
:102B2000039100680B49884212D10B48816941F03A
:102B3000040181618069694600F0040004904FF44B
:102B4000807000900220019003900448FFF7B8F9CC
:102B500005B000BD002C01400010024000080140FB
:102B6000704770B5044690F83C0000260D460128D9
:102B70000FD0012084F83C006AB1042A1DD0082A35
:102B80002FD00C2A3FD00126002084F83C0030468C
:102B900070BD022070BD206800F0CEFA2068816907
:102BA00041F0080181612068816921F0040181619F
:102BB000206881692A69114311E0206800F0E4FA75
:102BC0002068816941F4006181612068816921F494
:102BD00080618161206881692A6941EA02218161FD
:102BE000D2E7206800F0FCFA2068C16941F00801D2
:102BF000C1612068C16921F00401C1612068C16917
:102C00002A69114311E0206800F016FB2068C169B1
:102C100041F40061C1612068C16921F48061C16132
:102C20002068C1692A6941EA0221C161ACE710B597
:102C3000040003D094F83D0010B107E0012010BD5E
:102C4000002084F83C00204600F01EF8022084F8A2
:102C50003D00211D206800F013FA012084F8460091
:102C600084F83E0084F83F0084F8400084F8410076
:102C700084F8420084F8430084F8440084F8450056
:102C800084F83D00002010BD7047704710B5044621
:102C9000022249B104290ED0082913D094F841002A
:102CA000012816D0012010BD94F83E000128F9D16A
:102CB00084F83E200FE094F83F000128F2D184F818
:102CC0003F2008E094F840000128EBD184F8402030
:102CD00001E084F841200122206800F00DFA0F493C
:102CE0002068884203D1426C42F40042426420686A
:102CF000884208D0B0F1804F05D00949884202D0FF
:102D00000849884204D1816801F00701062903D0EF
:102D1000016841F001010160002010BD002C01405C
:102D2000000400400008004000680349884201D1C7
:102D3000FFF7CAB97047000000080040704770B53F
:102D4000040004D094F84100002510B106E00120F1
:102D500070BD84F84050204600F024F8242084F808
:102D600041002068C16821F40051C160204600F094
:102D7000CFFA2068016921F490410161206841691E
:102D800021F02A0141612068C16841F40051C1600D
:102D90006564202084F8410084F8420065630020C7
:102DA00070BD000030B585B00024009401940294F9
:102DB000039400681449884224D11448816941F47D
:102DC00080418161816901F480410491816941F010
:102DD0000401816180690E4D00F0040004904FF4FD
:102DE000007000900220019003200390694628465D
:102DF000FFF766F82815CDE90004694628460294D5
:102E0000FFF75EF805B030BD003801400010024009
:102E1000000801402DE9F843044690F84100984627
:102E200016460D46202802D00220BDE8F88385B161
:102E30007EB100206064212084F84100FFF73EF954
:102E4000A6848146E684A0682027B0F5805F02D082
:102E500003E00120E9E7206910B12E4600250EE0CD
:102E600000260CE08021204600F0AEFAA8B9C6B1D9
:102E700016F8010B21684860E08C401EE084E08C6D
:102E80004B464FF00002CDF800800028EAD14FF009
:102E90004001204600F098FA40B184F841700320C8
:102EA000C3E735F8020BC0F30800E3E784F841708C
:102EB0000020BAE7FEE7000010B596B000240F949A
:102EC00010941194129413941C2108A81494FDF7E3
:102ED00088FB20216846FDF784FB294827490160CB
:102EE0004721C0E9011444F61F61C0E903148021A1
:102EF000C0E90541FFF798FC08B172B6FEE74FF450
:102F000080500F900FA91E48FFF7FCFC08B172B665
:102F1000FEE71B48FFF78BFE08B172B6FEE713947D
:102F200013A917481494FFF74BFC08B172B6FEE7DB
:102F30006020CDE908040A940B940C940D940022AF
:102F400008A90F480E94FFF70CFE08B172B6FEE711
:102F500000944FF40050CDE904400294019403948E
:102F6000694607480794FFF701FC08B172B6FEE70F
:102F70000348FFF7CFFD16B010BD0000002C014044
:102F8000A000002030B590F8504095B0E500641CDA
:102F900080F8504044190021C4E9002390F85020E3
:102FA0000A2A02D3002280F850206B4600EBC102AF
:102FB00003EBC105D2E90042C5E90042491CC9B290
:102FC0000A29F3D3044B08220A216846FDF7A7FA21
:102FD000DDE90A0115B030BDD33A0008FEE7FEE78F
:102FE000FDF74AB9FDF726B941B1042909D00829EE
:102FF0000AD00C2901D1006802647047006842635E
:1030000070470068826370470068C263704701F0D0
:10301000F7B930B58FB028216846FDF7E2FA1421E0
:103020000AA8FDF7DEFA01210804CDE9001000240A
:10303000029402250491CDE907504FF4E010099065
:103040006846FFF701FA08B172B6FEE70F20CDE936
:103050000A054FF48060CDE90C4002210AA80E94C5
:10306000FFF7F6F8002801D072B6FEE70FB030BDCA
:10307000704700000148FFF7B4BC00008801002041
:10308000F0B50268194B1A4C1A4D4FF08047984220
:1030900005D0B84203D0A04201D0A84203D122F00B
:1030A00070064A683243984205D0B84203D0A04225
:1030B00001D0A84203D122F44074CA6822434C696B
:1030C00022F08002224302608A68C2620A68826239
:1030D000984201D109690163012141610169C90770
:1030E00003D0016921F001010161F0BD002C014014
:1030F000000400400008004010B501F01F0301214A
:10310000046A99408C430462016A9A401143016247
:1031100010BD10B5846842EA032224F47F440A43B8
:103120002243826010BD826822F070020A4342F09E
:10313000070181607047000030B5036A026A22F01F
:10314000010202624268846924F073050C682C4312
:1031500023F002058B682B430A4DA8420BD123F0C4
:103160000805CB6822F440722B434D6923F0040319
:1031700015438A692A434260846149684163036256
:1031800030BD0000002C014030B5026A036A23F014
:1031900010030362436884690D6824F4E64444EA3A
:1031A00005248D6822F0200242EA05120B4DA84248
:1031B0000ED1CD6822F0800242EA05124D6923F457
:1031C000406343EA85038D6922F0400243EA8503A8
:1031D0004360846149688163026230BD002C014014
:1031E00030B5036A026A22F4807202624268C469DE
:1031F00023F4007324F073050C682C438D6843EAB4
:1032000005230C4DA8420ED1CD6823F4006343EA98
:1032100005234D6922F4405242EA05128D6923F4D8
:10322000806342EA05124260C4614968C163036277
:1032300030BD0000002C014030B5046A026A22F45F
:10324000805202624268C3690D6823F4E64343EA90
:1032500005238D6824F4005444EA0534064DA84241
:1032600004D14D6922F4804242EA85124260C36172
:1032700049680164046230BD002C014010B5036A46
:10328000046A24F001040462846924F0F00444EA2E
:10329000021423F00A020A438461026210BD10B5D1
:1032A000036A046A24F010040462846923F0A00312
:1032B00024F4704444EA023243EA0111826101625B
:1032C00010BD01680C3151E8002F22F4907241E8E2
:1032D0000023002BF5D10168143151E8002F22F0B2
:1032E000010241E80023002BF5D1016B012909D12E
:1032F00001680C3151E8002F22F0100241E8002350
:10330000002BF5D1202180F8421000210163704785
:1033100070B5044600680169E26821F44051114328
:1033200001612169A0680843616908432168CA688E
:1033300041F20C639A430243CA6020684169A26962
:1033400021F44071114341611E492068884202D135
:10335000FFF744F801E0FFF731F800EBC00101EBA3
:103360000012606864218000B2FBF0F3B3FBF1F35C
:103370006FF018067343B2FBF0F5B2FBF0F605EB05
:103380008305322303EB0515B5FBF1F5B6FBF1F62A
:1033900005F0F00505EB0615B2FBF0F6B2FBF0F018
:1033A000B0FBF1F06FF01802504306EB800003EB26
:1033B0000010B0FBF1F0216800F00F002844886095
:1033C00070BD0000003801402DE9F84398461746CB
:1033D0000D460446089E24E0701C22D0FEF76EFEC7
:1033E000A0EB0800B0421AD8CEB12068C1684907E6
:1033F00017D5802D15D0402D13D00168C94309077A
:103400000FD401680025406800902046FFF759FF5F
:103410000820606484F840500120BDE8F883032050
:10342000FBE72068006835EA000004D00020B842BD
:10343000D2D00020F1E70120F9E7FEE7490050EA89
:10344000C12018BF04204A0D18BF40F0010040F20F
:10345000FF72B2EB515F08BF40F00200012808BFC5
:10346000052070470907090E002804DB00F1E02061
:1034700080F80014704700F00F0000F1E02080F8A1
:10348000141D70472DE9F74F144694B00021C4E98C
:1034900002111599079121F00045C9498D4206DCBA
:1034A0001599C4E9000117B00020BDE8F08FC549A7
:1034B000DFF814A3A9423CDD0799C44E0029C44F8C
:1034C000C44A1599534619DD01F012FD554506D041
:1034D000C14AC24B01F00CFDC4E900010AE04FF003
:1034E000D352BE4B01F004FD32463B4601F000FDD5
:1034F000C4E9000117B00120BDE8F08F01F00EF91A
:10350000554506D0B44AB54B01F008F9C4E90001AD
:103510000AE04FF0D352B14B01F000F932463B467E
:1035200001F0FCF8C4E9000117B04FF0FF30BDE82E
:10353000F08FAB49A942159978DB21F00041834611
:103540008846A84AA84B01F093FB0022A74B01F044
:10355000E5F801F0F7FA099001F023FB06460F4663
:103560009C4A534601F084FB43465A4601F0B4FCA2
:1035700080468A46984A994B3046394601F078FB96
:103580002A0D01250B924246534601F0A5FC032D5E
:10359000C4E9000139D00B98C1F30A51401A05EB78
:1035A00045111139814230DA9148C346784400EB25
:1035B0000510CDF80CA00C90D0E900233046394618
:1035C00001F056FB02460B460491069058460399BB
:1035D00001F08EFC80468A4602460B465846039907
:1035E00001F086FC049B069A01F082FC83460C984D
:1035F00003913946D0E90223304601F039FB5A469F
:10360000039B01F075FC6D1CBDE707980028A2BF65
:10361000099817B0BDE8F08F616881F000416160E2
:10362000099817B04042BDE8F08FFFE7844615982F
:10363000C1F31301C0F30A50A0F2F5304FEA60184D
:1036400000F01F06C6F1200013900020069007909E
:1036500041F4801E05206D4676B1664A08EB0001F4
:103660007A4452F8213002EB8101B3404A68139941
:1036700022FA01F1194305E05F4908EB00027944A1
:1036800051F82210A1FB0E27A1FB0C131A449A42F9
:1036900034BF0123002303EB070A05EB8003D3E9C2
:1036A00001B70F448F4234BF0121002193448B4462
:1036B00011B1934502D903E0934501D2012100E005
:1036C0000021C3E901B7514445F82010011EA0F1C3
:1036D0000100C1DC0298059F00F10050800F12909C
:1036E0000298DDE90356800001F05BFA8346284624
:1036F0000D9101F06DFA6FF01D0201F019FDCDE999
:103700000E01304601F064FA6FF03D0201F010FD49
:1037100080468A46384601F05BFA6FF05D0201F0A0
:1037200007FD074642465346119100F0F7FFDDE9D9
:103730000E2300F0F3FF5A460D9B00F0EFFF00252B
:103740000E465A4628460D9B01F0D2FBDDE90E23BA
:1037500001F0CEFB4246534601F0CAFB3A46119BAC
:1037600001F0BAFBDFF898A0244A534601F080FA32
:1037700007468846234A244B3146284601F078FA0A
:103780003A46434600F0CAFF074688464FF0A84233
:1037900053463146284601F06BFA3A46434600F05C
:1037A000BDFF159A12F0004F04D0129A81F000412B
:1037B00052421292C4E90001129817B0BDE8F08F8E
:1037C000FB21E93F7CD90240FB21F93F7370032EB6
:1037D0008A19A33B000040543163621A61B4D03DA2
:1037E000FB21394183C8C96D305FE43F0000E03FF1
:1037F000B01C00002C1C00000E1C0000182D4454AE
:10380000FB21F93D3326A611460B113C2DE9FF4D56
:1038100021F0004807460C46B8F1795F08DA01F05C
:1038200091F9002801BF0020324904B0BDE8F08DB5
:103830003A4623461046194601F01AFA0546024652
:103840002D480E460B460621784400F05DF82A46C6
:10385000334601F00DFADDE9022382468B463846F5
:10386000214601F005FA04460F4652465B462846BB
:10387000314601F0FDF922463B4601F039FB07468F
:103880008A464FF0FF322846314601F051FC1B4A70
:1038900090450ADA3A46534601F02AFB04B000226A
:1038A000BDE8F04D134B01F017BB154A4245A8BFC8
:1038B000A8F500154FF00004B8BF124D22462B4664
:1038C00001F016FB0646884622462B460020094991
:1038D00001F00EFB04460D463A465346304641463B
:1038E00001F006FB04B022462B46BDE8F04D01F086
:1038F000F3BA00000000F03FE41900003333D33F77
:103900000000E93F0000D23F2DE9F0414F1E00EBDF
:10391000C7010446D1E9000115461E4637F00602EC
:103920000DD02A46334601F0A3F97F1E04EBC703EE
:10393000D3E9002300F0F2FE37F00602F1D1022FA6
:1039400025D0042F13D0062F18BFBDE8F0812A46DA
:10395000334601F08DF9D4E90A2300F0DFFE2A4650
:10396000334601F085F9D4E9082300F0D7FE2A4652
:10397000334601F07DF9D4E9062300F0CFFE2A4654
:10398000334601F075F9D4E9042300F0C7FE2A4656
:10399000334601F06DF9D4E9022300F0BFFE2A4658
:1039A000334601F065F9D4E90023BDE8F04100F0A9
:1039B000B5BE00002DE9FF4D054621F0004084B062
:1039C0000C46B0F1795F0BDA2846FFF737FD042883
:1039D00008BF00F06FF8284608B02146BDE8F08D1A
:1039E0002A460B46104601F043F906460F462A4682
:1039F000234601F03DF9804626488A4632463B463A
:103A000005217844FFF780FF83461098029160B348
:103A1000214A224B4046514601F02AF9CDE90001E6
:103A20005A4640465146029B01F022F9824688469A
:103A3000DDE906014FF0FF3201F07AFB52464346C2
:103A400001F056FA32463B4601F012F9DDE9062351
:103A500001F04EFADDE9002301F04AFA08B02A46E7
:103A60002346BDE8F04D01F037BA0B465A463046C2
:103A7000394601F0FDF8084A084B00F04FFE424677
:103A8000534601F0F5F808B02A462346BDE8F04D4C
:103A900000F044BE22190000495555555555C5BF83
:103AA000012201F045BB002213461046114600F0EA
:103AB000F1BE0000024A0020110701F039BB0000EE
:103AC00001FDFFFF30380A2801D201207047002095
:103AD00070472DE9F041D0E90060D1E9004380460C
:103AE0001D4622463046414601F0C0F901D2012769
:103AF00000E0002722462B463046414601F07CF884
:103B000001D2012000E00020381ABDE8F081000059
:103B10000FB4802100B5A1B023AB6846229AFCF710
:103B2000F5FB6846FCF73EFD82B24FF0FF33694675
:103B30000248FFF76FF921B05DF814FBE8000020A0
:103B40001CB5DFF8A490DFF8A4B0294CDFF8A4A0DE
:103B50004A46D4E908015B4601F08AF800F0FEFA13
:103B600007468846D4E908014A46534601F080F8E2
:103B700000F0F4FA05460E46D4E908011E4A1F4B30
:103B800001F076F800F0EAFA2A46334600F0C6FD66
:103B90003A46434600F0C2FDC4E90401D4E90801F5
:103BA0004A46534601F064F800F0D8FAC4E90A0125
:103BB000D4E904231248FFF7E5F9C4E906010546F4
:103BC0000E46D4E908010F4A0F4B00F0A7FDC4E9E7
:103BD0000801CDE90056D4E904230CA0FFF798FFB3
:103BE000322000F08BFBB3E709944A702F8BC8405A
:103BF000000000202F8BB8403B43D5598CA2834056
:103C0000300100202D431CEBE2361A3F252E33668F
:103C10002C252E33660A0000064D4FF400444FF465
:103C2000FA6621462846FEF73BFA304600F066FB6E
:103C3000F7E700000008014086B0FEF74DFAFFF7F5
:103C4000E8F90024314800940194029403948169B6
:103C500041F020018161816901F0200104918169B5
:103C600041F0040181618069294E00F004004FF4A5
:103C700000450490002229463046FEF719FA01203B
:103C8000CDE90050032569463046CDE90245FEF7EF
:103C900017F921481F4901604FF4E131C0E90114CF
:103CA0000C21C460C0E904418461C461FFF747F896
:103CB00008B172B6FEE7FFF7FFF817480021483851
:103CC000FEF7E4FF15490220CDE900010023802220
:103CD00013A1164800F0AAFB10484FF40074001D11
:103CE000CDE900500023224611A1144800F09EFBAC
:103CF0000A4904200831CDE900010023224610A121
:103D0000124800F093FB00F011FBFEE700100240A8
:103D10000008014000380140E800002000000020B9
:103D20006C6564325F7461736B000000193C0008BD
:103D300066696C7465725F7461736B00413B000867
:103D4000736572766F5F7461736B000025410008C4
:103D50002DE9F0411E4C0F460546E6682068001D1F
:103D600000F04CFA38B9206890F82C1001208840F7
:103D7000216981432161681C15D1A7B115492268C9
:103D80004868906023688268DA6022688368121D40
:103D90005A602268121D8260206841610868401CD8
:103DA0000860BDE8F08120683544B542456021686F
:103DB00005D2E06BBDE8F041091D00F040BAA06BF0
:103DC000091D00F03CFAA06A8542EAD2A562E8E744
:103DD00040000020840200202DE9F041054600F05B
:103DE00047FA364CA068401CA0602068344F10B1E0
:103DF000606940B32DE02560A068012829D1002624
:103E000006EB860007EB800000F00BFA761C052E0F
:103E1000F6D32B48643000F004FA2948783000F0DB
:103E200000FA27488C3000F0FCF92548A03000F05B
:103E3000F8F92348B43000F0F4F921486430A06365
:103E40001430E06305E02068E96AC06A884200D85F
:103E50002560606A0121401C6062E86A2269814035
:103E60001143216100EB800007EB80004068A860EF
:103E70008168E9608268291D51608160E86A00EB11
:103E8000800007EB8001696157F82010491C47F852
:103E9000201000F0FBF9606900280CD02068E96A66
:103EA000C06A884207D207494FF080500860BFF3CC
:103EB0004F8FBFF36F8FBDE8F081000040000020FE
:103EC000D001002004ED00E010B50446006B00F0C6
:103ED000E7F92046BDE8104000F0E2B90E484FF483
:103EE0008841420706D0C01D0B4920F00700411A47
:103EF000C1F58841094A00230144C2E90003083999
:103F0000143A21F0070111604B600B600B1AC0E9F5
:103F100000139360536070479802002098000020BF
:103F2000144E154CA6F1A0074FF08058DFF84C90C6
:103F300012E000BF00F09CF9F068C568281D00F091
:103F40005DF9A068401EA0606068401E606000F0DF
:103F50009DF92846FFF7B8FF60680028EAD1386865
:103F60000128F9D9C9F80080BFF34F8FBFF36F8FD5
:103F7000F2E70000700200204000002004ED00E0A5
:103F80002DE9F0479946DDE9096480466FF00303A7
:103F9000206B03EB8202089D104420F0070761B1FB
:103FA000002023180A5C83F834200A5C12B1401CFC
:103FB0001028F6D3002084F84300052D00D30425F3
:103FC000201DE56200F038F904F1180000F034F922
:103FD0002461C5F105006462A0614A464146384645
:103FE00000F08EF82060002E00D03460BDE8F0872D
:103FF00030B5114900E011460A688242FBD34B6894
:104000005C18844203D140681844486008464368FD
:104010001C18944209D1084C143C2468A24209D0CF
:1040200052681A4442600A6812680260814200D0F5
:10403000086030BD0460F9E7980000200548816BF6
:10404000096821B1816BC9680968816270474FF0C6
:10405000FF31FAE740000020BF2080F31188BFF352
:104060004F8FBFF36F8FFEE770B50446002600F058
:1040700085F9224D286808B9FFF730FFCCB304F06A
:104080000700C0F11000C1438C4232D8211800292A
:104090002FDD686881422CD8184814300246146815
:1040A00001E02046144662688A4202D22268002A51
:1040B000F7D12A6894421CD00668226802606068C2
:1040C0000836421A102A04D9601842606160FFF76E
:1040D0008FFF61686868401A6860AA68904200D2E1
:1040E000A86041F00040606000202060E868401C4B
:1040F000E86000F05BFA304670BD000084000020EC
:1041000010B5031F4FF080741C601B1F21F00101CC
:104110001960191F024B0B60143940380A6010BD3A
:10412000594000080024012544F61F66224600215C
:104130000948FEF759FF2DB16434A4B2B44206D346
:10414000002504E0643C2404240C00D101250A204D
:1041500000F0D4F8EAE70000A000002000B5254BED
:1041600021F0004287B09A4203DC002213460092FD
:104170002BE0214B9A4208D140B94FF00100FCF7E7
:104180005FFAFFF790FC07B000BD03DBFFF788FC88
:1041900007B000BD02AAFFF775F910F003014FF058
:1041A00001000DD0012914D002291AD00DF1080CFC
:1041B0009CE80F00FFF72AFB07B081F0004100BD2B
:1041C0000DF1080C00909CE80F00FFF7F3FB07B01F
:1041D00000BD0DF1080C9CE80F00FFF717FB07B0BE
:1041E00000BD0DF1080C00909CE80F00FFF7E2FB0A
:1041F000E2E70000FB21E93F0000F07FD0E9013257
:1042000001699A60D0E901235A604A68824201D16B
:1042100082684A60002202610868401E08600868DF
:10422000704700F108014FF0FF32C0E90112C16090
:10423000016100210160704700210161704730B5C4
:104240000B685A1C02D000F1080202E0026904E087
:104250002246546825689D42FAD953684B6099609C
:104260008A60516008610168491C016030BD00002E
:10427000BF2080F31188BFF34F8FBFF36F8F0248C9
:104280000168491C016070478000002003490868EC
:10429000401E086001D180F3118870478000002023
:1042A00070B500281BD0A0F108046068002816DA59
:1042B0002168002913D120F00040606000F05EF812
:1042C000074D60686968084468602046FFF790FE03
:1042D0002869401C2861BDE8704000F067B970BDD6
:1042E000840000204FF0E02000210161816102493B
:1042F00041610721016170473F19010010B50200BB
:1043000009D000F03BF800211046FFF721FD00F036
:104310004DF9002807D104494FF080500860BFF3E1
:104320004F8FBFF36F8F10BD04ED00E07CB50F48D9
:104330000025CDE900502B4680220DA10E4800F04B
:1043400075F80A4C2C3C01280ED1BF2080F311884F
:10435000BFF34F8FBFF36F8F4FF0FF30A06201208C
:104360006061E56000F034F8206B7CBD6C000020DB
:1043700049444C4500000000213F00080248416BC1
:10438000491C416370470000400000200E48416B0B
:1043900011B10121C16170470021C16101690B4A5E
:1043A000B1FA81F1C1F11F0101EB810102EB810141
:1043B00001F108034A6852684A609A4201D1526882
:1043C0004A60D1680160704740000020D0010020A1
:1043D000094810B5016841F47F010160016841F0AE
:1043E0007F410160FFF77EFF044900200860FBF772
:1043F00033FF002010BD000020ED00E08000002011
:1044000010B5BF2080F31188BFF34F8FBFF36F8FBC
:1044100000F03AF818B104494FF0805008600020CD
:1044200080F3118810BD000004ED00E02DE9FF5F6E
:104430008346DDE90E87994616468A469000FFF7C7
:1044400013FE05001DD04C20FFF70EFE040015D012
:104450004C21FCF7C6F825630021CDE90241CDE9E6
:1044600000874B46324651465846FFF789FD2046A5
:10447000FFF7B2FC012004B0BDE8F09F2846FFF72B
:104480000FFF4FF0FF30F6E72DE9F041454C0026D5
:10449000606B28B1A069401CA0613046BDE8F08186
:1044A000E5686D1CE56008D1A06BE16BA163E0637A
:1044B000206A401C2062FFF7C1FDA16A3A488D4284
:1044C0000FD34FF0000EA16B096839B1A16BC96819
:1044D000C9684A68954212D2A26202E04FF0FF31E9
:1044E000A1622168C96A01EB810150F8210001280D
:1044F00000D90126E0690028CFD00126CDE7D1E917
:1045000002724B69BA60D1E902277A605F680A1DBE
:10451000974201D1CF685F60C1F814E01F687F1E29
:104520001F60D1F828C0BCF1000F15D0D1E90737C2
:104530009F60D1E907377B60DCF8047001F1180354
:104540009F4202D10B6ACCF80430C1F828E0DCF8B5
:1045500000305B1ECCF80030CB6A0127D4F810C0C5
:104560009F4047EA0C07276103EB830300EB8303BB
:104570005B688B609F68CF609F687A609A60CA6A48
:1045800002EB820200EB82034B6150F822305B1C8D
:1045900040F82230C96A2268D26A914293D9012632
:1045A00091E7000040000020D00100202DE9F041FB
:1045B00000242746FFF75CFE3F4D686B401E686392
:1045C000686B002872D1A8683C4B00264FF00108A8
:1045D000F0BB6BE0D868C468D4E90721A06A916099
:1045E000D4E907125160426804F118018A4201D1EE
:1045F000216A4160A6620168491E0160D4E9022176
:1046000060699160D4E9021251604268211D8A42BA
:1046100001D1E268426066610268521E0260E26A8D
:10462000D5F810C008FA02F040EA0C00286102EB4D
:104630008200224A8C3A02EB80004068A060D0F8E9
:1046400008C0C4F80CC0D0F808C0CCF8041000E0D2
:1046500012E08160E06A00EB800002EB80016161A2
:1046600052F82010491C42F82010E06A2968C96AF3
:10467000884201D3C5F81C8018680028AAD10CB163
:10468000FFF7DCFCAC693CB1FFF7FEFE08B1C5F8F2
:104690001C80641EF8D1AE61E86938B10849012771
:1046A00038070860BFF34F8FBFF36F8FFFF7EEFD42
:1046B0003846BDE8F0810000400000205C02002088
:1046C00004ED00E010B500290AD00878002807D0D2
:1046D00005487844FCF7E2FF002801D0002010BD17
:1046E0000248784410BD00005A0D0000520D000031
:1046F00010B500290AD00878002807D0054878446A
:10470000FCF7CCFF002801D0002010BD02487844FF
:1047100010BD00004A0D0000420D000010B591EAE6
:10472000030F48BF83F0004300F1EA83841A71EB62
:10473000030C05D2121943EB0C03001B61EB0C01B7
:10474000DFF824E14FEA1154A4EB135C1EEA430F97
:1047500018BF9EEA445F73D023EA0E03DCF1200EFB
:1047600021EA045143F4801332D322FA0CFE10EBF9
:104770000E0023FA0CFE41EB0E01CCF1200E03FAE1
:104780000EFE10EB0E0051F10001B1F5801FCCF1CF
:10479000200E32D201EB045112FA0EF2BDE81040A5
:1047A00058BF7047401C38BF5FEA420218BF7047CD
:1047B000002814BF20F0010041F100014FEA41033D
:1047C00013F5001F38BF7047A1F1C04100F048BB8E
:1047D000012A43EB0302ACF1200CDCF11F0E32BFC7
:1047E0004FF0000E23FA0CF310EB030041EB0451E1
:1047F000B4EB115FD0D0A1EB045101F58011490851
:104800005FEA300001EB04510ED350F1000038BFD5
:1048100012FA0EFE08D1BDE81040C9E7401C38BFAF
:104820005FEA4202CAD1C3E7BDE810404FEA410344
:1048300013F5001F38BF7047A1F1C04100F010BB55
:104840009EEA445F08D011EA5E0FBDE8104004BF45
:1048500001F0004100207047BDE8104070B500F045
:10486000B1FA00BF64FBBE3E0000E0FF02494FF01A
:10487000000000F02BBC00BF0000F87F491058BFBB
:10488000C1F140415B1058BFC3F140438B42EFF38D
:10489000008070472DE9C04130B4DFF8A0C23CEA87
:1048A000111418BF3CEA131400F0EC8081EA0305F0
:1048B0001CEA111444EAD57418BF1CEA131500F061
:1048C000C780A4EB05044FF0004545EAC12145EA45
:1048D000C32341EA505143EA525304F17F74994291
:1048E00004F500344FEAC0204FEAC22208BF9042CC
:1048F00000F09C804FEA13650FF24016765D4FEA98
:10490000134506FB05F7C7F1807706FB07F74FEA6B
:10491000D737A7FB03687642C8F58038A7FB06CED9
:1049200038BFA8F1010807FB08E64FF0000EA6FB10
:10493000028CE6FB03CEDCF1000CCEF1004E38BF5A
:10494000AEF1010EA6FB0C584FF000074FF000052A
:10495000E6FB0E87A1FB08C6A0FB07CE16EB0E06F2
:1049600045F10005E1FB076515F1E04E7EBFA4F5BA
:1049700080345FEA46066D4116F1800745F1000577
:104980004FEA17274FEA066647EA0567A6F1DE46B3
:10499000B6F1805F4FEA15251FD9384624F0010C87
:1049A00005EBC471BCF1FE6F01EB0C1102D8F0BC39
:1049B000BDE8008124425CBF01F5801E9EEAC47FF1
:1049C00002D4F0BCBDE80081244238D4F0BCA1F18F
:1049D000C041BDE8004100F043BA4FEAD22242EAAA
:1049E00043524FEAD323A7FB02864FEAD02040EA86
:1049F000415007FB03661EEA0E0F4FEAD12105FB6B
:104A0000026658BFA6EB0056B6EB00564FEA520EB0
:104A10004EEAC37E18EB0E0E56EB530EBDD518EBC7
:104A200002085E417F1C55F10005B6E74FF4801582
:104A30004FF000074FF000064FF00008ADE7F0BC64
:104A40004FF0000001F1C04101F00041BDE80081DC
:104A500011EA0C1F0CEA131500D00CE013EA0C1F2E
:104A600000F025804FF00000F0BC81EA030101F066
:104A70000041BDE80081F0BCBDE8004181EA0301CE
:104A800000F0EEB9F0BCBDE8004170B500F09AF955
:104A9000097EFC3E00F007B881EA03014FF00000F8
:104AA00001F00041704781EA030100F0D9B9F0BC80
:104AB000BDE800414FF0000021497047FFFDFBF9C0
:104AC000F7F5F4F2F0EEEDEBE9E8E6E4E3E1E0DE41
:104AD000DDDBDAD8D7D5D4D3D1D0CFCDCCCBCAC8B3
:104AE000C7C6C5C4C2C1C0BFBEBDBCBBBAB9B8B7DA
:104AF000B6B5B4B3B2B1B0AFAEADACABAAA9A8A8CD
:104B0000A7A6A5A4A3A3A2A1A09F9F9E9D9C9C9B9A
:104B10009A99999897979695959493939291919045
:104B20008F8F8E8E8D8C8C8B8B8A898988888787D6
:104B30008685858484838382828181800000FF074B
:104B40000000F87F4FEA41034FEA5353A3F5806317
:104B5000D3F11E03C8BFD3F1210C0CDD4FF000428E
:104B600042EAC12242EA505232FA03FC8CEAE17C6A
:104B7000ACEBE1707047102BC4BF0020704703F509
:104B8000787CBCF1FF3F04D06FF0004282EA210044
:104B9000704770B500F016F94992248000207047E4
:104BA000F2E710F0004248BF4042B0FA80F310FA3A
:104BB00003F10AD0C3F11D0303F580634FEA4150AE
:104BC00002EB035202EBD12170474FF00000704717
:104BD000B0FA80F310FA03F10AD0C3F11D0303F514
:104BE00080634FEA41504FEA035202EBD1217047F4
:104BF0004FF000007047000051EA030C17D41CF579
:104C0000801F58BFBCF5801F00F10680994218BF75
:104C1000704708BF9042704707D711F5801F58BFF3
:104C200013F5801F19D499427047894270471CF5CB
:104C3000801F08D5BCF5801FF7D58B4218BF704781
:104C400008BF824270474FF4001C1CEB410F38BF75
:104C50001CEB430F01D28B42704770B500F0B2F8E5
:104C6000922449004FF000514FF08053FFF706BEE9
:104C7000DFF848C170B51CEA111E1EBF1CEA1315EF
:104C80009EEA0C0F95EA0C0F00F06F8081EA030496
:104C900023EA4C134EEAD47E21EA4C1141F48011F0
:104CA00043F48013AE44A1FB024CA0FB0365AEF1BC
:104CB0007F7E361955EB0C05A1FB034C4CF100032C
:104CC000A0FB021C16EB0C06654153F100030942E0
:104CD00018BF46F0010613F4007F0BD14FEA0331F1
:104CE0004FEA0530340341EA155140EA16506FF09F
:104CF00003020AE04FEAC3214FEAC520F40241EA69
:104D0000555140EA56506FF0020202EB2E4201EB81
:104D1000025585EACE710AD05FEA440C18BF24F030
:104D2000004450F1000041F1000120EAD47040F24B
:104D3000FE7C624500D270BDA84214BF4FF0804493
:104D40004FF04044002E08BF0024BEF1806FA8BF82
:104D5000A1F1C041BDE8704080F282804FF00000B8
:104D600001F1C04101F0004170479EEA0C0F0CEACE
:104D7000131518BF95EA0C0F06D04FF0000081EA1A
:104D8000030E0EF0004170BD00F01CF88900013EDA
:104D900000F007B800F009B84FEA430C5FEA5C5C2A
:104DA00008D081EA030100F05BB84FEA410C5FEAEA
:104DB0005C5CF6D14FF00000014970470000FF072E
:104DC0000000F87F0EF1020E2EF0030E5EF8046B69
:104DD000364205D4012A43EB030515F5001F12D80E
:104DE000012841EB010C1CF5001F0CD80ED14FEA35
:104DF000D17C15F5001F0CEB4C0C0CF1020C08BF1C
:104E00004CEBD37C04E04FF0080C01E04FEAD37C7C
:104E10000CEB4C0526FA05F606F00706B6F1040C75
:104E200006D20EEB860CBDE870404CF0010C6047DA
:104E3000DFE80CF0090B02024FF000414FF00000D8
:104E4000A1F5002170BD19461046012851EB01045F
:104E500018BFD4F5001484BF002001F0004170BDDC
:104E60000808A0F500114FEA3101704753EA010C20
:104E700017D41CF5801F58BFBCF5801F00F10680B9
:104E80008B4218BF704708BF8242704707D713F59F
:104E9000801F58BF11F5801F19D48B4270479B4269
:104EA00070471CF5801F08D5BCF5801FF7D59942C7
:104EB00018BF704708BF904270474FF4001C1CEBAE
:104EC000430F38BF1CEB410F01D2994270470FB41A
:104ED0000CBC03BCFFF7C1BE91EA030F10B581F013
:104EE00000413FF523AC83F0004300F009B8000017
:104EF00010B591EA030F48BF83F000433FF516ACAD
:104F0000841A71EB030C07D212198CF0004C43EB9E
:104F10000C03001B61EB0C01DFF8A4E14FEA115414
:104F2000A4EB135C1EEA430F18BF9EEA445F00F037
:104F3000B08023EA6E03524221EA0451C3EB6E03B0
:104F400038BF5B1EDCF1200E25D322FA0CFE10EBDD
:104F50000E0043FA0CFE41EB0E01CCF1200E03FAD9
:104F60000EFE10EB0E0051F10001CCF1200E29D401
:104F700012FA0EF201EB0451BDE8104058BF704721
:104F8000401C1CBFB2F1004F704700280CBF491CE9
:104F900020F00100704712EB020E43EB030218BF32
:104FA0004FF0010E4EEA4202ACF1200CDCF11E0E75
:104FB00054D943FA0CFE10EB0E0051F1FF31CCF145
:104FC0001E0ED5D50EF1010E12FA0EFE404141EB38
:104FD000010101EB445C5FEA5C5C10D910EBDE7010
:104FE00001EB045138BFBEF1004FBDE8104018BFBF
:104FF000704700280CBF491C20F00100704730D2D8
:105000004FEAD42C11F5001124F400641BD0B1FA3E
:1050100081F20B3AA41AA41ED2F12003914030FA77
:1050200003F31943904001EBCC71002C01EB0451C8
:10503000BDE81040A8BF704701F1C0414FF000002B
:1050400001F000417047B0FA80F310FA03F100D18B
:1050500010BDE41A173C4805C90AE4E701EB045106
:1050600010BD491001EB0451BDE810404FEA30007B
:1050700002E04FF0000170474A0008BF0042F8D03C
:10508000B2F5001F28BF704701F000414FF000004B
:1050900070479EEA445F07D011EA5E0FBDE81040FA
:1050A00004BF002100207047BDE8104070B5FFF735
:1050B00089FE00BF40DFF63E83F000411046704796
:1050C0000000E0FFFBF7F7BEFCF72CB80CF00F0375
:1050D000092B08BF082000F059800A2B0BD0082BA1
:1050E00018BF704708BF1CF0400F0AD04FF00000F7
:1050F0004FF0000170471CF0400F18BF4FF0004008
:1051000070471CF0100F08D020F0704300F07F4271
:1051100042EAD3014FEA4370704700F0604021F04B
:105120007F4242EA000201F07F4040EA727070471D
:105130004FF0FF0C4CF4E06C1CEA11531CBF9CEACE
:10514000030C9445C2BFDA4201EB02517047002BB9
:105150000DD0BCF1000F0FD0002A01F00041A4BF18
:1051600041F0E04141F07F614FF00000704701F0F5
:1051700000414FF00000704750EA01334FF09B0CA4
:1051800018BF4CF0806C7FF471AB70471CF4801F2B
:1051900011D01CF4E02F03D06FEACC3149007047E6
:1051A0004FF04050EFF3008222F0704242EA0002DA
:1051B00082F3008870474FF000007047010202033D
:1051C0000405060708090A0B0C0D0E0F101000004D
:1051D00000000000000001020304060708090000A7
:1051E00000000102030400000000000000000000B5
:1051F000303132333435363738394142434445460D
:105200004030580030313233343536373839616206
:105210006364656640307800040000080000000008
:10522000000000020001000010000000000000006B
:105230004C5555555555A53F7751C1166CC156BFB4
:105240009015CB19A001FA3EAD529C804F7E92BEC4
:10525000C4B1B4BD9EEE213ED43888BEE9FAA8BDE3
:1052600000004054FB21F93F3163621A61B4D03D24
:105270000000601A61B4D03D7370032E8A19A33BFD
:105280000000002E8A19A33BC14920259A837B394F
:1052900000000000000000006E83F9A22915444EB2
:1052A000D15727FCC0DD34F5999562DB4190433C32
:1052B000AB6351FE61C5BBDE3A6E24B7E0D24D420E
:1052C000EA2E49061C92D1091CEB1DFE3EA729B10E
:1052D000F53582E88444BB2E26709CE9417E5FB49C
:1052E00039D69139F43953838B5F849C3B28F9BDBF
:1052F000FF97F81F0F9805DE8B112FEF1F6D0A5ACD
:10530000CF7E366DB709CB27663F464F2DEA5F9EAD
:10531000C7BA27757BF1E5EBF739073DEA92528A68
:10532000B15FFB6B085D8D1FA6F810111111813F55
:10533000D561C119A0012ABF7DFEB157E31DC73E4B
:10534000EB9C2B8AE6E55ABE7CD5CF5A3AD9E53D8F
:1053500030313233343536373839616263646566EB
:105360007870003031323334353637383941424382
:10537000444546585000000002400000000000A0D4
:105380000000000005400000000000C80000000010
:105390000C4000000000409C00000000194000008C
:1053A0000020BCBE0000000034400000BFC91B8EBE
:1053B00000000004B5400000504BCFD06607E2CF9C
:1053C000010000006C4100003E8251AADFEEA734CC
:1053D00001000000D9420000DCB5A0E23A301F977E
:1053E000FFFFFFFFB4450000FD25A0C8E9A3C14FA2
:1053F000FFFFFFFFFF3F00000000008000000000F3
:10540000FF3F000000000080000000005855000829
:1054100000000020A000000028010008F855000846
:10542000A0000020584C0000440100081C000000AF
:1054300043000000F8FFFFFF0C0000000E0000001A
:105440000F0000002E0000001001000043000000CB
:10545000F8FFFFFF00404040404040404040414195
:105460004141414040404040404040404040404039
:1054700040404040400502020202020202020202D3
:1054800002020202022020202020202020202002D0
:105490000202020202029090909090901010101060
:1054A00010101010101010101010101010101010FC
:1054B0000202020202028888888888880808080890
:1054C000080808080808080808080808080808085C
:1054D0000202020240000000000000000000000084
:1054E00000000000000000000000000000000000BC
:1054F00000000000000000000000000000000000AC
:10550000000000000000000000000000000000009B
:10551000000000000000000000000000000000008B
:10552000000000000000000000000000000000007B
:10553000000000000000000000000000000000006B
:10554000000000000000000000000000000000005B
:10555000000000000000000000000000000000004B
:10556000000000000000000000000000000000003B
:10557000000000000000000000000000000000002B
:10558000000000000000000001000000100000000A
:105590000000000000127A0000000000000000007F
:1055A00000000000000000000000000000000000FB
:1055B00000000000000000000000000000000000EB
:1055C00000000000000000000400000000000000D7
:1055D0000000000000000000AAAAAAAA0000000023
:1055E00000000000000000000000000000000000BB
:0855F0000000000000000000B3
:04000005080000ED02
:00000001FF
