:020000040800F2
:10000000383400209D010008272800081523000827
:1000100025280008F1080008ED3100080000000064
:10002000000000000000000000000000C12A0008DD
:100030007D09000800000000BD2A0008EB2A000826
:10004000B7010008B7010008B7010008B7010008B0
:10005000B7010008B7010008B7010008B7010008A0
:10006000B7010008B7010008B7010008B701000890
:10007000B7010008B7010008F508000801090008E9
:10008000B7010008B7010008B7010008B701000870
:10009000B7010008B7010008B7010008B701000860
:1000A000B7010008B7010008B7010008B701000850
:1000B000B7010008B7010008512B0008B70100087C
:1000C000B7010008B7010008B7010008B701000830
:1000D000B701000885310008B7010008B701000822
:1000E000B7010008B7010008B7010008DFF810D019
:1000F00000F098FB00480047F5420008AFF300808D
:1001000038340020224B19680868B0E8F00F80F3FB
:100110000988BFF36F8F4FF0000080F311884EF015
:100120000D0E70470000000006480068006880F36C
:10013000088862B661B6BFF34F8FBFF36F8F00DFE1
:1001400000BF00BF08ED00E0EFF30980BFF36F8F41
:100150000F4B1A6820E9F00F106008B54FF0BF0090
:1001600080F31188BFF34F8FBFF36F8F04F0C0FC93
:100170004FF0000080F31188BDE808401968086856
:10018000B0E8F00F80F30988BFF36F8F704700BFAE
:100190004C000020EFF305807047000006488047C0
:1001A00006480047FEE7FEE7FEE7FEE7FEE7FEE75C
:1001B000FEE7FEE7FEE7FEE74D2B0008ED00000836
:1001C000202A04DB203A21FA02F00021704721FAAC
:1001D00002F3D040C2F12002914008431946704713
:1001E0002DE9FE43994615468846074601AC02298B
:1001F00042D3002D40D000200290A8F101004FF022
:10020000FF36009022E000FB057201FB05701146ED
:100210004A469047002805DC54F82600304444F84C
:10022000260013E060682A4600FB057154F8040CB0
:1002300000FB057007E00B7890F800C001F801CBD7
:1002400000F8013B521E002AF5D1764254F8040C06
:1002500061688842D7DC4B462A463846FFF7C0FF24
:1002600054F8040C4B46A8EB0001401C00FB057041
:100270002A46491EFFF7B4FFBDE8FE8340EA0103AA
:100280009B0703D009E008C9121F08C0042AFAD24C
:1002900003E011F8013B00F8013B521EF9D2704710
:1002A000D2B201E000F8012B491EFBD270470022B8
:1002B000F6E710B513460A4604461946FFF7F0FF65
:1002C000204610BD421C10F8011B0029FBD1801AEA
:1002D00070472DE9FE4F804681EA0300C00F0C46AF
:1002E000009021F0004123F00045B8EB0200A94145
:1002F00005D24046214690461C460B46024623F056
:100300000040104347D0270DC7F30A00C3F30A513A
:100310000290401A019040286BDAC3F3130040F4B6
:10032000801B0098924620B10023D2EB030A63EBB6
:100330000B0B01985946C0F14002504600F0DBF922
:1003400006460D4650465946019A00F0E3F910EB77
:1003500008006141002487EA115284EAE7731A43D6
:1003600040D0009A62B3019A012A4FEA075215DC85
:10037000001B61EB02014FF0004202EA0752CDE997
:100380000042001C41F5801132462B4600F0E3F993
:1003900003B0BDE8F08F40462146F9E7001B61EB52
:1003A0000201001C41F5801300185B412018A2F5E2
:1003B000001747EB030140EAD570B6196D4111E013
:1003C0006D084FEA360645EAC0754FEA0752001B32
:1003D00061EB0201001C41F5801149084FEA300031
:1003E0000019514132462B4603B0BDE8F04F00F0F2
:1003F000A3B90098012240000023D0EB020263EB76
:10040000E073009821464FEAE074B8EB000061EB1E
:100410000401E9E783F000435BE781F0004158E71E
:100420002DE9FE4F81EA030404F0004421F000416D
:1004300000944FF0000B23F0004350EA01045ED01B
:1004400052EA03045BD0C3F30A54C1F30A552C44A7
:10045000A4F2F3340194A0FB0254C1F3130141F45C
:100460008011C3F3130343F4801301FB024400FB28
:10047000034E840A970A44EA815447EA8357A4FB4F
:10048000076802958D0A05FB07854FEA932C04FB4C
:100490000C542705029D4FEA065847EA1637B5EB7C
:1004A00008056EEB070C870E920E47EA811742EAA9
:1004B0008312A7FB0201B6EB0B0164EB00042B0DCA
:1004C00043EA0C335E1844EB1C50DA465146E7FB16
:1004D0000201C5F313044FEA0B3343EA14534FEA06
:1004E0000432019C43EA0603A4F10C040294009C2C
:1004F000CDE900B400F02FF903B0BDE8F08F002083
:100500000146F9E72DE9F04D81EA030404F0004BC0
:1005100021F0004514464FF0000A23F0004150EA54
:10052000050220D054EA01021DD0C5F30A57024645
:10053000C5F31303C1F31300C1F30A5640F4801549
:1005400043F48013A7EB0608101BD64608F2FD38CB
:1005500073EB050002D308F1010801E092185B413A
:10056000B8F1000F03DA00200146BDE8F08D00204D
:100570004FF48011064684460EE0171B73EB050707
:1005800005D3121B63EB050306434CEA010C490833
:100590004FEA300092185B4150EA0107EDD152EA70
:1005A000030012D082EA040083EA0501084305D063
:1005B000101BAB4106D20122002306E000224FF0BF
:1005C000004302E06FF0010253101AEB06004CEBFF
:1005D000085110EB0A0041EB0B01BDE8F04D00F0B3
:1005E000ABB800F0004230F000400AD0C10D01F578
:1005F0006071C0F3160042EA0151C208400711437E
:10060000704700200146704730B5041E71F10004A8
:1006100004DB4FF00044404264EB0101141E73F10F
:10062000000405DB1C464FF00043524263EB040319
:100630008B4208BF824230BD30B5041E71F1000408
:1006400004DB4FF00044404264EB0101141E73F1DF
:10065000000405DB1C464FF00043524263EB0403E9
:10066000994208BF904230BD30B50B46014600208C
:100670002022012409E021FA02F59D4205D303FA64
:1006800002F5491B04FA02F52844151EA2F10102E5
:10069000F1DC30BD2DE9F05F0546002092469B4617
:1006A00088460646814640241BE028464146474688
:1006B0002246FFF785FD53465A46C01A914110D392
:1006C00011461846224600F016F82D1A67EB01086D
:1006D0004F4622460120002100F00DF817EB0009DB
:1006E0004E41201EA4F10104DFDC484631462A4673
:1006F0004346BDE8F09F202A04DB203A00FA02F1CD
:10070000002070479140C2F1200320FA03F31943FF
:1007100090407047202A06DBCB17203A41FA02F0BE
:1007200043EAE07306E041FA02F3D040C2F120024E
:10073000914008431946704710B5141E73F1000428
:1007400008DA401C41F1000192185B411A4301D1C3
:1007500020F0010010BD2DE9F04D92469B4611B1ED
:10076000B1FA81F202E0B0FA80F220329046FFF74F
:10077000C2FF04460F4640EA0A0041EA0B01534615
:100780005A46084313D0114653EA010019D0C8F164
:1007900040025046FFF714FD05460E4650465946A6
:1007A0004246FFF7A8FF084305D0012004E0204699
:1007B0003946BDE8F08D0020054346EAE0762C433B
:1007C00037430A986305E40AA0EB08000022FD0AFB
:1007D00044EA47540A3002D500200146E9E7010502
:1007E00010196941DDE9084500196941BDE8F04D7E
:1007F000A2E7C1F30A52C1F3130140F2FF3341F4FF
:1008000080119A4202DA00200146704740F23343D9
:100810009A42A2F2334202DC5242FFF7D1BCFFF708
:100820006ABF0000064C074D06E0E06840F0010397
:1008300094E8070098471034AC42F6D3FFF75AFC0F
:10084000F05700081058000870B521F0004303432A
:100850000CD0C1F30A550024D5EB040564EB040366
:10086000D617AD1AB34102DB0020014670BD201837
:1008700041EB025170BD0EB5C10F80EAE070084433
:10088000CA07002140F233438DE80E000A460B46AA
:10089000FFF761FF03B000BD0EB540F23341029196
:1008A0000021CDE900110A460B46FFF754FF03B0C3
:1008B00000BD70B5C1F30A5201F000450024C1F338
:1008C000130140F2FF3341F480119A4201DA002013
:1008D00070BD40F233439A42A2F2334203DC5242EB
:1008E000FFF76EFC00E090402C43F1D0404270BD19
:1008F000FEE70000014800F0B3B80000300200201D
:10090000014800F0ADB80000EC01002030B590F8CF
:1009100040500124AC40C56B6C6004686360436860
:10092000102B036803D099600068C26030BD9A60E4
:100930000068C16030BD000010B50B4C20784F2816
:1009400005D160784B280DD108A003F054FC207825
:100950004E2807D160784F2804D1BDE8104005A08B
:1009600003F049BC10BD00003A000020524947483E
:10097000540D0A004552524F520D0A00704772B68C
:10098000FEE710B590F821100022022905D00421BD
:10099000816380F82020012010BD01680B6823F0DE
:1009A0000E030B6001680B6823F001030B6090F8E5
:1009B0004030C46B012101FA03F3636080F8211019
:1009C00080F82020104610BD10B590F821100024AA
:1009D000022903D00421816301243DE001680A68F3
:1009E00022F00E020A6001680A6822F001020A6021
:1009F0001A4A0168914201D1012121E0174A1432BB
:100A0000914201D110211BE0144A2832914201D1B8
:100A1000891515E0114A3C32914201D189140FE049
:100A20000E4A5032914202D14FF4803108E00B4A15
:100A30006432914202D14FF4801101E04FF0807195
:100A4000064A083A5160012180F82110002180F8FF
:100A50002010416B01B18847204610BD08000240BC
:100A60002DE9F05FC16B0C6801680B68D0F840C0DD
:100A7000042202FA0CF2494DDFF824A1494E4A4FF4
:100A8000DFF828B1DFF828E122422CD05A072AD516
:100A90000A68920603D40A6822F004020A60016818
:100AA000A94201D1042219E0514501D1402215E0AB
:100AB000B14202D14FF4806210E0B94202D14FF44A
:100AC00080420BE0594502D14FF4802206E0714587
:100AD00002D14FF4800201E04FF080622F490839C3
:100AE0004A60C16A3BE04FF0020808FA0CF818EAC5
:100AF000040F4FF000094FF0010235D05FEA837810
:100B000032D50B689B0605D40B6823F00A030B60F3
:100B100080F821200168A94201D1022219E0514543
:100B200001D1202215E0B14202D14FF4007210E051
:100B3000B94202D14FF400520BE0594502D14FF4B3
:100B4000003206E0714502D14FF4001201E04FF08F
:100B50000072124908394A6080F82090816A0029A1
:100B60001AD0BDE8F05F0847082505FA0CF52542C4
:100B700012D01B0710D50B6823F00E030B6090F802
:100B80004010C36B02FA01F15960826380F82120A2
:100B900080F82090016BE2E7BDE8F09F080002407A
:100BA0001C00024030000240440002405800024055
:100BB0006C00024030B528B308C813491422194408
:100BC000B1FBF2F18900C1631049816302214177D1
:100BD0001A6843F6F0718A43D0E900142143D0E942
:100BE00002452C432143046921434469214384691C
:100BF00021431143196000214163012242770177AB
:100C0000084630BD012030BDF8FFFDBF00000240A6
:100C100070B5044690F82000002501280CD0012072
:100C200084F8200094F821600020012E06D084F87A
:100C300020000225284670BD022070BD022684F8DF
:100C40002160A0632068066826F001060660204641
:100C5000FFF75CFEE06A00282068016802D041F0DE
:100C60000E0106E021F0040101602068016841F0F6
:100C70000A0101602068016841F001010160D9E7C3
:100C800070B5044600F00CF90546601C02D004481B
:100C90000078044400F004F9401BA042FAD370BD70
:100CA0003C0000202DE9F84FDFF8B8910024A9F1AD
:100CB000040B23460F2709F1040AABF1040EC9E027
:100CC0000125A5402A40AA427DD1674ED1F804C033
:100CD000ACEB0608B44532D014DCBCF1030F3AD0BB
:100CE00009DCBCF1000F2AD0BCF1010F1CD0BCF113
:100CF000020F31D11DE0BCF1110F17D0BCF1120F62
:100D00002AD119E0B8F5881F19D006DCB8F5803F64
:100D100015D0B8F5801F1FD111E0B8F5001F0ED017
:100D2000B8F5041F18D10AE0CB6815E0CB681B1D8D
:100D300012E0CB6808330FE0CB680C330CE08B6813
:100D40002BB1012B4FF0080303D0456104E00423CD
:100D500002E0056100E00023FF2A01D8064601E019
:100D600000F104064FEA840501D9A5F12005D6F863
:100D7000008007FA05FC28EA0C0803FA05F548EAA2
:100D80000508C6F800804D68ED0062D5374DAE69A4
:100D900046F00106AE61AD6924F0030605F00105D9
:100DA0000095334D06EB050CDCF80850A607360F0E
:100DB00007FA06F825EA0805DFF8B880404503D1B0
:100DC0004FF0000817E044E0DFF8AC80404502D166
:100DD0004FF001080FE0DFF8A480404502D14FF04A
:100DE000020808E0DFF89880404502D14FF0030880
:100DF00001E04FF0040808FA06F848EA0508CCF8C4
:100E000008804D68D9F80060ED024D4601D51643C3
:100E100000E096432E604D68DAF80060AD0255465A
:100E200001D5164300E096432E604D68DBF8006064
:100E3000AD035D4601D5164300E096432E604D6834
:100E4000DEF80060ED03754601D5164300E09643D9
:100E50002E60641C0D682A46E5407FF431AFBDE882
:100E6000F88F00000804014000001110001002403B
:100E70000000014000080140000C0140001001404A
:100E800000140140C26821EA02030A4043EA024119
:100E9000016170470AB1016170470904FBE7000076
:100EA00001488068704700003C00002070B50400D5
:100EB00025D094F83D00002520B984F83C50204608
:100EC00000F04EF9242084F83D002068016821F0EC
:100ED000010101602068016841F40041016020685F
:100EE000016821F40041016000F0F4FA4D4A6168A4
:100EF000914201D84C4900E04C49884201D201207E
:100F000070BD4B492368B0FBF1F15E6826F03F06E7
:100F10000E435E606368934206D94FF4967359435B
:100F20004FF47A73B1FBF3F12368491C1E6A26F073
:100F30003F06314319626168914210D84900401E52
:100F4000B0FBF1F2521CC2F30B02042A01D20420BE
:100F500022E0B0FBF1F0401CC0F30B001CE0A268E3
:100F6000F2B301EBC10303EB0116431EB3FBF6F32F
:100F70005B1C43F480431B0549D092B301EBC102D3
:100F800002EB0111401EB0FBF1F0401CC0F30B005E
:100F900040F4804040F400402168CA694CF6FF7379
:100FA0009A431043C861D4E90710014320680268DE
:100FB00022F0C00211430160D4E90301014320681B
:100FC000826848F2FF339A4311438160D4E90501F6
:100FD00008432168CA6822F0FF021043C86001E09C
:100FE0000EE016E02068016841F00101016025640F
:100FF000202084F83D00256384F83E50002070BD19
:1010000001EB4106431EB3FBF6F35B1CB3E7012083
:10101000C2E701EB4101401EB0FBF1F0401CC0F300
:101020000B00B7E7A086010080841E0000093D0088
:1010300040420F002DE9F84F1F4690468A4604466D
:10104000DDF82890FFF72CFF054694F83D00202896
:101050007FD11923012240492046009501F0ECF987
:10106000002876D194F83C00012872D0012084F841
:101070003C0020680168C90703D1016841F0010103
:1010800001602068016821F400610160212084F87A
:101090003D00102084F83E0000262664C4F8248019
:1010A0006785608D20852D48E0622B464A46514673
:1010B000204601F047F990B92068416980690090A5
:1010C00036E02A464946204601F05CFA50B1206CD1
:1010D000042804D12068016841F4007101600120F6
:1010E000BDE8F88F606A216800780861606A401C7A
:1010F0006062618D491E6185218D491E89B22185FD
:1011000022685369DB435B070BD451B1007810614F
:10111000606A401C6062608D401E6085208D401EAC
:1011200020852A464946204601F05AF90028CED1AA
:10113000208D0028C5D154F83D0B016841F40071A1
:101140000160202004F81E09E67766770020C7E7D3
:10115000FFE70220C4E70000020010000000FFFFCC
:1011600010B586B0002100910191029103910068B1
:10117000104988421BD1104CA06940F00800A061C2
:10118000A069694600F0080004904FF440600090A8
:1011900012200190032003900848FFF783FDE069C7
:1011A00040F48000E061E06900F48000049006B043
:1011B00010BD00000058004000100240000C01402B
:1011C0001CB502238DF804000A208DF8051000904C
:1011D00001AA78210148FFF72DFF1CBD080100205E
:1011E0000248816802781144816070473C00002009
:1011F000074810B5016841F010010160032000F0BC
:10120000A1F80F2000F006F800F050F8002010BD03
:101210000020024030B505461F4887B0C16941F043
:101220000401C161C06906A900F00400009001A892
:1012300000F030F90498B0B100F04CF940001749C3
:10124000174AB0FBF1F11748491E0260416040F2B5
:10125000E7320021C0E903218160816100F070FB69
:10126000040003D015E000F035F9E8E70D4800F080
:10127000A9FB04000DD11E2000F036F8102D07D276
:10128000002229461E2000F03DF80748056000E0D6
:10129000012407B0204630BD0010024040420F003C
:1012A00000080040F4020020400000200C4808B56F
:1012B000816941F001018161816901F001010091C1
:1012C000C16941F08051C161C06900F08050009057
:1012D0000448416821F0E06141F00071416008BDBF
:1012E0000010024000000140002809DB00F01F024E
:1012F000012191404009800000F1E020C0F8001178
:1013000070470000F0B40E4B1B680C46C3F3022379
:10131000C3F10705042D00D90425191D072901D2A1
:10132000002300E0DB1E012606FA05F1491E2140DC
:1013300099409E40761E16403143F0BC01F0A2BF9A
:101340000CED00E0064900F0070208684FF6FF03C5
:10135000184040EA0220034A10430860704700002A
:101360000CED00E00000FA052DE9F0470F460500FE
:1013700061D0434E306800F00700B84209D23068AF
:1013800020F0070038433060306800F00700B842B2
:1013900051D128683B4C810712D5400703D56068BE
:1013A00040F4E06060602878000703D5606840F48E
:1013B000605060606068A96820F0F00008436060D9
:1013C0002878C00728D06868012810D02168022832
:1013D00010D0890700292EDA616821F0030101434A
:1013E0006160FFF75DFD804641F288390DE02168BC
:1013F0008903EFE78901EDE7FFF752FDA0EB080154
:10140000494502D90320BDE8F0876068696800F0AB
:101410000C00B0EB810FEFD1306800F00700B8424C
:101420000BD9306820F0070038433060306800F096
:101430000700B84201D00120E5E72878400705D52C
:101440006068E96820F4E06008436060287800077D
:1014500006D56068296920F4605040EAC1006060E8
:1014600000F058F86168084AC1F30311515CC840A4
:101470000649086006480068FFF7CCFE0020C2E776
:1014800000200240001002403A4E000848000020B0
:10149000400000200F2202600C4A536803F003034F
:1014A0004360536803F0F0038360536803F4E06320
:1014B000C36052684FF4E06303EAD2020261044859
:1014C000006800F00700086070470000001002404C
:1014D000002002400448054900684968044AC1F3F5
:1014E0000221515CC84070474800002000100240B3
:1014F0004A4E00080448054900684968044AC1F397
:10150000C221515CC84070474800002000100240D2
:101510004A4E00080E4A51680E4801F00C03042B95
:1015200011D0082B0FD10C48C1F38343C903C05C11
:101530000AD55168084AC1F34041921E515C054AE0
:101540005043B0FBF1F07047044948437047000036
:101550000010024000127A002A4E000800093D00E7
:101560002DE9F84F040070D02078C04DC00749D055
:101570006868C0F38100012807D06868C0F3810063
:10158000022809D16868C00306D52868800339D5C8
:1015900060680028E7D035E06068B0F5803F0BD088
:1015A00010B1B0F5A02F11D0286820F48030286049
:1015B000286820F4802002E0286840F48030286009
:1015C000606890B1FFF76CFC06460AE0286840F4BA
:1015D00080202860F0E700BFFFF762FC801B6428D2
:1015E00073D828688003F7D50CE0FFF759FC06464E
:1015F00005E000BFFFF754FC801B6428F0D8286882
:101600008003F7D420789A4E80074FF001094FF0FD
:10161000000839D5686810F00C0F07D06868C0F36F
:101620008100022809D16868C00306D428688007B1
:1016300014D52069012808D110E02069B0B1C6F89E
:101640000090FFF72DFC074605E00AE1FFF728FCB4
:10165000C01B0228C4D828688007F7D528686169AC
:1016600020F0F80040EAC10028600DE0C6F80080D4
:10167000FFF716FC074604E0FFF712FCC01B022828
:1016800023D828688007F7D4207800072CD579481C
:10169000A169D9B1C0F80090FFF702FC074604E049
:1016A000FFF7FEFBC01B02280FD8686A8007F7D53A
:1016B00071484FF4FA510068B0FBF1F0009000BFA0
:1016C0000098411E0091FAD20EE080E0C0F8008040
:1016D000FFF7E6FB074604E0FFF7E2FBC01B02282A
:1016E00075D8686A8007F7D42078400760D5E86924
:1016F0000027C00008D4E86940F08050E861E8693C
:10170000012700F0805000905C480168C90513D49F
:101710000168834641F480710160FFF7C1FB824696
:1017200006E000BFFFF7BCFBA0EB0A0064284ED820
:10173000DBF80000C005F5D5E06801280AD008B143
:10174000052813D0286A20F001002862286A20F0BA
:10175000040002E0286A40F001002862E06841F2DB
:10176000883B98B1FFF79CFB82460BE0286A40F06B
:1017700004002862EEE700BFFFF792FBA0EB0A012E
:1017800059455AD8286A8007F6D50CE0FFF788FB40
:10179000824605E0FFF784FBA0EB0A0159454CD8CF
:1017A000286A8007F6D41FB1E86920F08050E8610C
:1017B000E06988B36968C1F38101022944D0022835
:1017C000C6F8608004D0FFF76BFB044638E034E0D5
:1017D000FFF766FB074604E0FFF762FBC01B022829
:1017E0002BD828688001F7D4206AB0F5803F05D156
:1017F0006868A16820F4003008436860D4E90801F3
:101800000843696821F4741108436860C6F8609061
:10181000FFF746FB044606E025E000BFFFF740FB6C
:10182000001B022809D828688001F7D51BE000BFFB
:10183000FFF736FB001B022802D90320BDE8F88F12
:1018400028688001F4D40EE00128F7D06868226A85
:1018500000F48031914204D1616A00F47010884232
:1018600001D00120EAE70020E8E700000010024074
:1018700000004242800442424800002000700040C4
:101880007047704710B590F83C20012A22D0012201
:1018900080F83C20CA688C6822F4407222434C686D
:1018A00022F4806222430C6822F4006222430C6915
:1018B00022F4805222434C6922F400522243C96927
:1018C000002322F480420A4301684A6480F83C30D5
:1018D000002010BD022010BD70B590F83C20012AF8
:1018E00026D0012480F83C40022280F83D20036885
:1018F0005A689D6822F070060A6832435A600D4BA0
:1019000002689A4208D0B2F1804F05D00A4B9A4241
:1019100002D00A4B9A4204D1496825F0800319434A
:10192000916080F83D40002180F83C10084670BD71
:10193000022070BD002C014000040040000800405F
:1019400010B5040003D094F83D0010B107E0012069
:1019500010BD002084F83C00204600F01FF8022053
:1019600084F83D00211D206801F0F8F8012084F87A
:10197000460084F83E0084F83F0084F8400084F874
:10198000410084F8420084F8430084F8440084F85D
:10199000450084F83D00002010BD000008B5006837
:1019A0000649884208D10648816941F40061816195
:1019B000806900F40060009008BD0000002C014028
:1019C0000010024090F83D10012901D0012070471D
:1019D000022180F83D100168CA6842F00102CA6025
:1019E00000680B49884208D0B0F1804F05D0094902
:1019F000884202D00849884204D1816801F0070179
:101A0000062903D0016841F0010101600020704700
:101A1000002C0140000400400008004070B504465E
:101A200090F83C000025012817D0012684F83C607E
:101A3000022084F83D002068826822F0770222F4B8
:101A40007F4282600868502838D00DDC20284FD0B3
:101A500005DC90B3102811D14AE0022070BD302877
:101A600046D040280AD13BE060282FD070280DD006
:101A7000B0F5805F03D0B0F5005F12D0012584F887
:101A80003D60002084F83C00284670BDCB68D1E959
:101A90000121206801F0ABF82068816841F07701EE
:101AA00009E0CB68D1E90121206801F0A0F82068A5
:101AB000816841F480418160E1E719E0CA684968C2
:101AC000206801F049F95021206806E0CA68496899
:101AD000206801F052F96021206801F092F8CEE709
:101AE000CA684968206801F037F940212068F4E7A6
:101AF000226801461046F0E770472DE9F0410446A0
:101B00000068C66805694FF00007A90713D5B1073B
:101B100011D5F91E016101202077206880698007B6
:101B2000204602D0FFF7E8FF04E000F0A5F82046C9
:101B300000F037F92777680716D5700714D52168A4
:101B40006FF004000861022020772068806910F49B
:101B5000407F204602D0FFF7CFFF04E000F08CF872
:101B6000204600F01EF92777280715D5300713D532
:101B700021686FF008000861042020772068C069A0
:101B80008007204602D0FFF7B7FF04E000F074F8AA
:101B9000204600F006F92777E80616D5F00614D59A
:101BA00021686FF010000861082020772068C06964
:101BB00010F4407F204602D0FFF79EFF04E000F0C3
:101BC0005BF8204600F0EDF82777E80708D0F0072B
:101BD00006D021686FF001000861204600F030F95E
:101BE000280608D5300606D521686FF08000086108
:101BF0002046FFF745FE680608D5700606D5216821
:101C00006FF040000861204600F024F9A8060AD5CC
:101C1000B00608D521686FF0200008612046BDE8B5
:101C2000F041FFF72EBEBDE8F081000000B585B0A1
:101C30000021009101910291039100680B498842B3
:101C400012D10B48816941F00401816180696946C4
:101C500000F0040004904FF4807000900220019086
:101C600003900448FFF71EF805B000BD002C0140AA
:101C70000010024000080140704770B5044690F81B
:101C80003C0000260D4601280FD0012084F83C00BE
:101C90006AB1042A1DD0082A2FD00C2A3FD0012671
:101CA000002084F83C00304670BD022070BD2068E2
:101CB00000F0B0FF2068816941F00801816120686F
:101CC000816921F004018161206881692A691143D9
:101CD00011E0206800F0C6FF2068816941F40061CE
:101CE00081612068816921F4806181612068816956
:101CF0002A6941EA02218161D2E7206800F0DEFF13
:101D00002068C16941F00801C1612068C16921F002
:101D10000401C1612068C1692A69114311E020688A
:101D200000F0F8FF2068C16941F40061C1612068DA
:101D3000C16921F48061C1612068C1692A6941EAF1
:101D40000221C161ACE710B5040003D094F83D0056
:101D500010B107E0012010BD002084F83C002046AF
:101D600000F01EF8022084F83D00211D206800F0DC
:101D7000F5FE012084F8460084F83E0084F83F0018
:101D800084F8400084F8410084F8420084F843005D
:101D900084F8440084F8450084F83D00002010BD1C
:101DA0007047704710B50446022249B104290ED08D
:101DB000082913D094F84100012816D0012010BD45
:101DC00094F83E000128F9D184F83E200FE094F801
:101DD0003F000128F2D184F83F2008E094F8400049
:101DE0000128EBD184F8402001E084F84120012251
:101DF000206800F0EFFE0F492068884203D1426C52
:101E000042F4004242642068884208D0B0F1804F1A
:101E100005D00949884202D00849884204D1816826
:101E200001F00701062903D0016841F001010160BA
:101E3000002010BD002C01400004004000080040BC
:101E400000680349884201D1FFF7CAB97047000012
:101E5000000800407047704710B5044600684069AC
:101E600094F84110C0F3C010212911D180B120682D
:101E7000143050E8001F21F0800140E80012002AD1
:101E8000F5D1A06B08B1FEF77CFD204601F053F8B8
:101E90002068406994F84210C0F38010222911D1C3
:101EA00080B12068143050E8001F21F0400140E864
:101EB0000012002AF5D1E06B08B1FEF762FD204662
:101EC00001F012F8002010BD70470000F8B501685D
:101ED00004460868CA684B6910F00F0F4FF0000500
:101EE00059D003F0010602F49077374365D0C1075B
:101EF00005D0D10503D5616C41F001016164410752
:101F000005D5D90703D0616C41F0020161648107F6
:101F100005D5D90703D0616C41F004016164010764
:101F200007D502F02001314303D0616C41F0080174
:101F30006164616C00293AD0800604D5900602D510
:101F4000204601F006F820684069616CC0F38010FB
:101F5000090700D460B3204600F0C6FF206840693E
:101F6000400621D52068143050E8001F21F04001C0
:101F700040E80012002AF5D1E06BA8B16D49416339
:101F8000E06BFEF721FD002811D0E06B416B01B042
:101F9000BDE8F040084783060FD593060DD52046CF
:101FA000BDE8F84000F0D5BF2046FFF78DFFF8BD33
:101FB0002046FFF789FF6564F8BD266B2023012EBC
:101FC0007CD1C6067AD5D60678D5086848680090D0
:101FD00048694FF00206400640D5E16B086840684A
:101FE0000004000CE8D0A28D8242E5D9E085886922
:101FF00020282DD020680C3050E8001F21F480717B
:1020000040E80012002AF5D12068143050E8001F83
:1020100021F0010140E80012002AF5D120681430B7
:1020200050E8001F21F0400140E80012002AF5D1DD
:1020300084F84230256320680C3050E8001F21F0FE
:10204000100140E80012002AF5D1E06BFEF799FC80
:102050006663A08DE18D401A81B22AE0A08DE18DEA
:10206000401A81B2E08D0028A6D00029A4D02268B1
:102070000C3252E8000F20F4907042E80007002F65
:10208000F5D12068143050E8002F22F0010240E81A
:102090000027002FF5D184F84230256320680C30EA
:1020A00050E8002F22F0100240E80023002BF5D169
:1020B00066632046FFF7CFFEF8BDFFE705062BD588
:1020C000150629D594F841002128F5D1A068B0F56E
:1020D000805F01D12069B0B1206A411C2162216872
:1020E00000784860E08C401E0004000CE084E3D1DE
:1020F0002068C16821F08001C1602068C16841F09A
:102100004001C160D8E7206A0088C0F30800486039
:10211000206A801C2062E5E74006CDD55006CBD56D
:10212000CA68204622F04002CA6084F8413000F0BC
:10213000EFF8C1E79F2D000870B5040004D094F8B3
:102140004100002510B106E0012070BD84F8405028
:10215000204600F023F8242084F841002068C1685C
:1021600021F40051C160204600F054FF206801694D
:1021700021F4904101612068416921F02A01416107
:102180002068C16841F40051C1606564202084F872
:10219000410084F842006563002070BDF0B585B051
:1021A00000240646009401940294039400682D498B
:1021B000884254D12C48816941F480418161816910
:1021C00001F480410491816941F0040181618069D9
:1021D000264D00F0040004904FF40070009002209F
:1021E00001900320039069462846FEF75BFD281501
:1021F000CDE90004694628460294FEF753FD1D4DC3
:102200001B488027C5E90004C5E902472C616C61C1
:10221000AC612846EC61FEF7CDFC08B1FEF7AFFBE0
:10222000F5636E62134D12484435143801C5102011
:1022300091C5104845F8104944306C61AC61EC61BF
:10224000FEF7B8FC08B1FEF79AFBB5630022114611
:1022500025206E62FFF756F82520FFF745F805B0F8
:10226000F0BD0000003801400010024000080140AD
:1022700058000240EC01002090F84230202B01D0A1
:102280000220704721B11AB10023036300F01EBF82
:10229000012070477047704770B5044690F84100C0
:1022A000202801D0022070BD49B342B32162A2842C
:1022B000E28400206064212384F84130A56B114B37
:1022C000AB62A56B104BEB62A56B104B2B63A36B42
:1022D0005863256813462A1DA06BFEF799FC2168F8
:1022E0006FF0400008602068143050E8001F41F093
:1022F000800140E80012002AF5D1002070BD0120C5
:1023000070BD00009D2E0008DF2E0008AF2D0008D4
:1023100070477047FEE701684A69D24352050FD4FF
:102320006FF480624A61002140F8301F202242731E
:102330008173026942F00402026101730120704757
:1023400000207047F8B50446C06A1E460D46174681
:10235000082807D0012805D010F5803F02D0206B57
:10236000122804D12068016841F48071016013468D
:1023700000224FF001112046009600F05DF840B1B8
:1023800020680068C00502D54FF400702064032067
:10239000F8BD2069B0F5804F0ED00620216800EA14
:1023A000D51040F0F000086133463A460B4920460C
:1023B00000F08AF878B902E005F0FE0000E0E8B22B
:1023C00021680861054933463A46891F204600F0D6
:1023D0007BF80028DCD00120F8BD000008000100D7
:1023E00070B516460D4604461EE02046FFF793FFE3
:1023F00008B1012070BD681C16D0FEF751FD801B8E
:10240000A84200D885B920684069C04340070BD571
:10241000002044F8300F20216173A073216941F03E
:10242000200121612073E4E720684069C043400730
:10243000DBD4002070BD00002DE9F0479846174618
:102440000D460446C1F30746DDF820902AE000BFA0
:10245000B8F1FF3F26D0FEF723FDA0EB090141456F
:1024600002D8B8F1000F1DD12068012E16D0806966
:1024700025EA00000004000C12D00020B84211D15F
:10248000002044F8300F20216173A073216941F0CE
:102490002001216120730120BDE8F0874069E7E752
:1024A0000120EBE72068012E0AD0806925EA0000B0
:1024B0000004000C06D00020B842C9D00020EBE791
:1024C0004069F3E70120F7E72DE9F0479846164603
:1024D0000D4604464FF000094FF0200AC1F30747AC
:1024E00023E020684069C043400515D42068016896
:1024F00041F40071016021686FF480604861C4F8A4
:10250000309084F83DA084F83E90216C41F00401A5
:10251000216484F83C9021E0701C06D0FEF7C0FCDA
:10252000A0EB0800B04203D816B1012F1FD021E064
:102530002068012F15D0806925EA00000004000CF6
:1025400018D000BF44F8309F84F80DA084F80E9096
:10255000216941F02001216184F80C900120BDE83F
:10256000F087406925EA00000004000CEAD12068E9
:10257000406901E02068806925EA00000004000C41
:10258000AFD1ECE770B516460D4604461EE0204676
:10259000FFF7C1FE08B1012070BD681C16D0FEF720
:1025A0007FFC801BA84200D885B920684069C043E1
:1025B00000060BD5002044F8300F20216173A07372
:1025C000216941F0200121612073E4E7206840691E
:1025D000C0430006DBD4002070BD00000D4808B5E4
:1025E000416941F0010141614069002200F00100B0
:1025F000009011460E20FEF785FE0E20FEF774FEB9
:10260000002211460F20FEF77DFEBDE808400F2096
:10261000FEF76ABE0010024070B586B0002418486C
:102620000094019402940394816941F02001816136
:10263000816901F020010491816941F00801816103
:10264000816901F008010491816941F0040181610F
:1026500080690C4E00F004004FF400450490002205
:1026600029463046FEF716FC01200095CDE901040D
:102670000320039069463046FEF714FB06B070BD98
:1026800000100240000801400D4810B50B490160E0
:102690000C49416000214FF480428160C0E903127F
:1026A00041618161C1610162FEF700FC002803D035
:1026B000BDE81040FEF763B910BD000000580040AF
:1026C00008010020A086010010B596B000240F94E8
:1026D00010941194129413941C2108A81494FDF7DB
:1026E000E6FD20216846FDF7E2FD29482749016003
:1026F0004721C0E9011444F61F61C0E90314802199
:10270000C0E90541FFF71CF908B1FEF738F94FF4AD
:1027100080500F900FA91E48FFF780F908B1FEF70F
:102720002EF91B48FFF70FFB08B1FEF728F91394A9
:1027300013A917481494FFF7CFF808B1FEF71FF953
:102740006020CDE908040A940B940C940D940022A7
:1027500008A90F480E94FFF790FA08B1FEF70FF999
:1027600000944FF40050CDE9044002940194039486
:10277000694607480794FFF785F808B1FEF7FFF8A8
:102780000348FFF753FA16B010BD0000002C0140BB
:102790005C0100200C4810B50A4901604FF4E1319A
:1027A0004160002181600C22C160C0E90412816196
:1027B000C161FFF7C1FC002803D0BDE81040FEF75F
:1027C000DEB810BD00380140A401002030B590F8FB
:1027D000504095B0E500641C80F850404419002139
:1027E000C4E9002390F850200A2A02D3002280F87E
:1027F00050206B4600EBC10203EBC105D2E9004259
:10280000C5E90042491CC9B20A29F3D3044B082286
:102810000A216846FDF7E4FCDDE90A0115B030BD88
:10282000BB410008FEE7FEE730B4094C002202EB92
:102830008213002104EB43035854491C89B28229B6
:10284000FAD3521C92B2082AF1D330BC00F060B81F
:10285000242C002010B54FF4FA70FEF711FAAE20C8
:1028600000F0C5FC202000F0C2FC102000F0BFFCEE
:10287000B02000F0BCFC002000F0B9FC102000F0FB
:10288000B6FCC82000F0B3FC402000F0B0FC812072
:1028900000F0ADFCFF2000F0AAFCA12000F0A7FC96
:1028A000A62000F0A4FCA82000F0A1FC3F2000F02E
:1028B0009EFCA42000F09BFCD32000F098FC00209C
:1028C00000F095FCD52000F092FCF02000F08FFC89
:1028D000D92000F08CFC222000F089FCDA2000F0E6
:1028E00086FC122000F083FCDB2000F080FC20201E
:1028F00000F07DFC8D2000F07AFC142000F077FCC5
:10290000AF2000F074FCBDE810400020FFF78CBF42
:102910002DE9F0410F4F002404F1B000C0B200F0E7
:1029200066FC002000F063FC102000F060FC04EB6B
:102930008410002507EB4006705D00F05CFC6D1C08
:10294000ADB2822DF8D3641CA4B2082CE4D3BDE848
:10295000F0810000242C002010B50446B031C8B22C
:1029600000F045FC102040EA141000F040FC04F098
:102970000F00BDE8104040F0010000F038BC00003E
:1029800070B506461C460D461046FDF72AFE024667
:102990000B4607A1074800F033FC064A00212346F6
:1029A000115429463046BDE8704000F01BB80000C5
:1029B00025660000042C002070B50D4606461C4616
:1029C00006A1074800F01CFC054A002123461154CB
:1029D00029463046BDE8704000F004B82564000088
:1029E000142C00202DE9F047002591468A46044624
:1029F000012B22D0DFF8BC80022B24D155E02038F7
:102A0000C7B27E2C04D90AF10100002400F0FF0AAD
:102A100051462046FFF7A0FF07EB4700002608EBD2
:102A20004007B85D00F0E7FB761CF6B2062EF8D33F
:102A3000A41D6D1CE4B2EDB201E0DFF87C8019F852
:102A400005000028DBD1BDE8F0872038C7B2782C1C
:102A500004D90AF10100002400F0FF0A5146204683
:102A6000FFF77AFF5FF0000606EB071118F8010088
:102A700000F0C1FB761CF6B2082EF5D30AF1010076
:102A8000C1B22046FFF768FF5FF0000606EB0711B2
:102A900001EB0800007A00F0AEFB761CF6B2082EBF
:102AA000F4D308346D1CE4B2EDB219F80500002827
:102AB000CBD1C8E7DA500008B24E0008FDF744BB9E
:102AC000FDF720BB41B1042909D008290AD00C29FF
:102AD00001D1006802647047006842637047006873
:102AE000826370470068C263704702F03BB830B53C
:102AF0008FB028216846FDF7DAFB14210AA8FDF7FC
:102B0000D6FB01210804CDE900100024029402251F
:102B10000491CDE907504FF4E01009906846FEF7A4
:102B20001FFD08B172B6FEE70F20CDE90A054FF48C
:102B30008060CDE90C4002210AA80E94FEF714FC37
:102B4000002801D072B6FEE70FB030BD704700001C
:102B50000148FEF7D2BF0000F4020020F0B5026881
:102B6000194B1A4C1A4D4FF08047984205D0B84285
:102B700003D0A04201D0A84203D122F070064A68D7
:102B80003243984205D0B84203D0A04201D0A842B7
:102B900003D122F44074CA6822434C6922F08002B7
:102BA000224302608A68C2620A688262984201D146
:102BB00009690163012141610169C90703D0016904
:102BC00021F001010161F0BD002C01400004004032
:102BD0000008004010B501F01F030121046A99406C
:102BE0008C430462016A9A401143016210BD10B522
:102BF000846842EA032224F47F440A432243826029
:102C000010BD826822F070020A4342F00701816021
:102C10007047000030B5036A026A22F001020262C6
:102C20004268846924F073050C682C4323F0020584
:102C30008B682B430A4DA8420BD123F00805CB68C3
:102C400022F440722B434D6923F0040315438A6933
:102C50002A434260846149684163036230BD0000D9
:102C6000002C014030B5026A036A23F010030362AE
:102C7000436884690D6824F4E64444EA05248D68B9
:102C800022F0200242EA05120B4DA8420ED1CD6877
:102C900022F0800242EA05124D6923F4406343EAC0
:102CA00085038D6922F0400243EA85034360846115
:102CB00049688163026230BD002C014030B5036A6F
:102CC000026A22F4807202624268C46923F40073CB
:102CD00024F073050C682C438D6843EA05230C4DE2
:102CE000A8420ED1CD6823F4006343EA05234D6961
:102CF00022F4405242EA05128D6923F4806342EACD
:102D000005124260C4614968C163036230BD0000BE
:102D1000002C014030B5046A026A22F4805202623B
:102D20004268C3690D6823F4E64343EA05238D68CE
:102D300024F4005444EA0534064DA84204D14D69F8
:102D400022F4804242EA85124260C361496801640C
:102D5000046230BD002C014010B5036A046A24F0FF
:102D600001040462846924F0F00444EA021423F0AC
:102D70000A020A438461026210BD10B5036A046A44
:102D800024F010040462846923F0A00324F4704446
:102D900044EA023243EA01118261016210BD10B5BA
:102DA000406A0021C185C184FFF78EF810BD70B55F
:102DB000446A2068406994F84110C0F3C0100025AF
:102DC000212904D118B1E584204600F0B4F8206828
:102DD000406994F84210C0F38010222904D118B140
:102DE000E585204600F080F8606C40F010006064DB
:102DF0002046FFF769F870BD10B50146406A0968C2
:102E000009684FF0000289062ED4C28501680C3192
:102E100051E8003F23F4807341E80034002CF5D1E1
:102E20000168143151E8003F23F0010341E8003408
:102E3000002CF5D10168143151E8003F23F0400324
:102E400041E80034002CF5D1202180F84210016BBC
:102E5000012909D101680C3151E8003F23F010032A
:102E600041E80034002CF5D14263016B012902D006
:102E7000FFF710FA10BD818DFEF7EDFF10BD10B504
:102E8000406A01214163016B012902D0FFF703FA77
:102E900010BD818D4908FEF7DEFF10BD10B501465B
:102EA000406A09680968890616D40021C18401684E
:102EB000143151E8002F22F0800241E80023002B5A
:102EC000F5D101680C3151E8002F42F0400241E891
:102ED0000023002BF5D110BDFFF71AFA10BD10B575
:102EE000406AFFF716FA10BD01680C3151E8002F57
:102EF00022F4907241E80023002BF5D101681431CF
:102F000051E8002F22F0010241E80023002BF5D107
:102F1000016B012909D101680C3151E8002F22F021
:102F2000100241E80023002BF5D1202180F8421047
:102F300000210163704701680C3151E8002F22F035
:102F4000C00241E80023002BF5D1202180F8411078
:102F5000704708B590F84210222901D0022008BD20
:102F600082684FF480539A4201D1016921B1816A8C
:102F70009A421BD04AB10AE00268816A5268C2F3E1
:102F800008020A80816A891C08E0026972B102683D
:102F9000526802F07F020A70816A491C8162C18D09
:102FA000491E0904090CC18503D01BE00268526860
:102FB000F1E70168CA6822F02002CA600168CA68A5
:102FC00022F48072CA6001684A6922F001024A61F3
:102FD000202180F8421000214163026B012A03D0B6
:102FE000FFF758F9002008BD016301680C3151E872
:102FF000002F22F0100241E80023002BF5D10168D8
:103000000A68D20602D50A6849680091818DFEF7E8
:1030100022FFE7E770B5044600680169E26821F421
:103020004051114301612169A06808436169084367
:103030002168CA6841F20C639A430243CA6020685F
:103040004169A26921F44071114341611E49206820
:10305000884202D1FEF74EFA01E0FEF73BFA00EBA0
:10306000C00101EB0012606864218000B2FBF0F344
:10307000B3FBF1F36FF018067343B2FBF0F5B2FB4C
:10308000F0F605EB8305322303EB0515B5FBF1F5EF
:10309000B6FBF1F605F0F00505EB0615B2FBF0F610
:1030A000B2FBF0F0B0FBF1F06FF01802504306EB0A
:1030B000800003EB0010B0FBF1F0216800F00F007E
:1030C0002844886070BD00000038014038B5816236
:1030D00004468285002013466064222284F8422040
:1030E000E56B1B4AAA62E56B1A4AEA62E56B1A4A6B
:1030F0002A63E26B50630A462168E06B091DFDF705
:1031000087FD2068016840680090206948B1206808
:103110000C3050E8001F41F4807140E80012002A92
:10312000F5D12068143050E8001F41F0010140E85B
:103130000012002AF5D12068143050E8001F41F039
:10314000400140E80012002AF5D1002038BD0000FF
:10315000F92D00087F2E0008AF2D000810B50C4691
:10316000802900D98024014622460548FDF786F8CB
:1031700022460349BDE81040A1F1D000FFF78CB80A
:103180007402002010B50348FEF7A0FEBDE8104011
:1031900000F002B8A401002038B5124800680168A8
:1031A000C943C9061CD40168406800900D48FEF769
:1031B00053FE0C48483000684068C0F10200C4B2B9
:1031C000094801884180FDF7B7FB21460648FDF715
:1031D0006EF8BDE83840022203490248FFF74CB8B8
:1031E00038BD0000A401002038000020FEE70146A1
:1031F0000020FDF7E5BF01464020FDF7E1BF0000DC
:103200000FB4084B10B504A902AA039800F042FCC1
:10321000044602A9002000F0CBFF204610BC5DF858
:1032200014FB0000B14100087CB50C001D46164699
:10323000014601D0601E00E00020CDE90010064BE1
:103240006A462946304600F025FC002C02D0009A40
:10325000002111707CBD00009B410008490050EA2C
:10326000C12018BF04204A0D18BF40F0010040F2F1
:10327000FF72B2EB515F08BF40F00200012808BFA7
:10328000052070470907090E002804DB00F1E02043
:1032900080F80014704700F00F0000F1E02080F883
:1032A000141D70472DE9F74F144694B00021C4E96E
:1032B00002111599079121F00045C9498D4206DC9C
:1032C0001599C4E9000117B00020BDE8F08FC54989
:1032D000DFF814A3A9423CDD0799C44E0029C44F6E
:1032E000C44A1599534619DDFDF794F8554506D0A3
:1032F000C14AC24BFDF78EF8C4E900010AE04FF065
:10330000D352BE4BFDF786F832463B46FDF782F8B6
:10331000C4E9000117B00120BDE8F08FFCF7D9FF28
:10332000554506D0B44AB54BFCF7D3FFC4E90001BC
:103330000AE04FF0D352B14BFCF7CBFF32463B468D
:10334000FCF7C7FFC4E9000117B04FF0FF30BDE83C
:10335000F08FAB49A942159978DB21F000418346F3
:103360008846A84AA84BFDF75BF80022A74BFCF75C
:10337000B0FFFDF79EFA0990FDF77DFA06460F466D
:103380009C4A5346FDF74CF843465A46FDF745F82C
:1033900080468A46984A994B30463946FDF740F8B0
:1033A0002A0D01250B9242465346FDF736F8032DB0
:1033B000C4E9000139D00B98C1F30A51401A05EB5A
:1033C00045111139814230DA9148C346784400EB07
:1033D0000510CDF80CA00C90D0E9002330463946FA
:1033E000FDF71EF802460B460491069058460399D5
:1033F000FDF710F880468A4602460B465846039968
:10340000FDF708F8049B069AFDF704F883460C982C
:1034100003913946D0E902233046FDF701F85A46B8
:10342000039BFCF7F7FF6D1CBDE707980028A2BFC0
:10343000099817B0BDE8F08F616881F000416160C4
:10344000099817B04042BDE8F08FFFE78446159811
:10345000C1F31301C0F30A50A0F2F5304FEA60182F
:1034600000F01F06C6F12000139000200690079080
:1034700041F4801E05206D4676B1664A08EB0001D6
:103480007A4452F8213002EB8101B3404A68139923
:1034900022FA01F1194305E05F4908EB0002794483
:1034A00051F82210A1FB0E27A1FB0C131A449A42DB
:1034B00034BF0123002303EB070A05EB8003D3E9A4
:1034C00001B70F448F4234BF0121002193448B4444
:1034D00011B1934502D903E0934501D2012100E0E7
:1034E0000021C3E901B7514445F82010011EA0F1A5
:1034F0000100C1DC0298059F00F10050800F12907E
:103500000298DDE903568000FDF7B5F983462846A9
:103510000D91FDF7C1F96FF01D02FDF795F9CDE9A9
:103520000E013046FDF7B8F96FF03D02FDF78CF95A
:1035300080468A463846FDF7AFF96FF05D02FDF729
:1035400083F90746424653461191FCF7C2FEDDE976
:103550000E23FCF7BEFE5A460D9BFCF7BAFE002573
:103560000E465A4628460D9BFCF754FFDDE90E2314
:10357000FCF750FF42465346FCF74CFF3A46119B7E
:10358000FCF74BFFDFF898A0244A5346FCF748FFAE
:1035900007468846234A244B31462846FCF740FF1D
:1035A0003A464346FCF795FE074688464FF0A84248
:1035B000534631462846FCF733FF3A464346FCF76C
:1035C00088FE159A12F0004F04D0129A81F0004143
:1035D00052421292C4E90001129817B0BDE8F08F70
:1035E000FB21E93F7CD90240FB21F93F7370032E98
:1035F0008A19A33B000040543163621A61B4D03D84
:10360000FB21394183C8C96D305FE43F0000E03FD2
:1036100030230000AC2200008E220000182D4454FC
:10362000FB21F93D3326A611460B113C2DE9FF4D38
:1036300021F0004807460C46B8F1795F08DAFDF73B
:1036400038F9002801BF0020324904B0BDE8F08DF0
:103650003A46234610461946FCF7E2FE0546024666
:103660002D480E460B460621784400F05DF82A46A8
:103670003346FCF7D5FEDDE9022382468B46384609
:103680002146FCF7CDFE04460F4652465B462846CF
:103690003146FCF7C5FE22463B46FCF7BBFE07461B
:1036A0008A464FF0FF3228463146FDF7CDF81B4AD7
:1036B00090450ADA3A465346FCF7ACFE04B00022C5
:1036C000BDE8F04D134BFCF7A8BE154A4245A8BF14
:1036D000A8F500154FF00004B8BF124D22462B4646
:1036E000FCF798FE0646884622462B4600200949EC
:1036F000FCF790FE04460D463A4653463046414696
:10370000FCF788FE04B022462B46BDE8F04DFCF7DE
:1037100084BE00000000F03F642000003333D33F3C
:103720000000E93F0000D23F2DE9F0414F1E00EBC1
:10373000C7010446D1E9000115461E4637F00602CE
:103740000DD02A463346FCF76BFE7F1E04EBC70301
:10375000D3E90023FCF7BDFD37F00602F1D1022FBB
:1037600025D0042F13D0062F18BFBDE8F0812A46BC
:103770003346FCF755FED4E90A23FCF7AAFD2A4696
:103780003346FCF74DFED4E90823FCF7A2FD2A4698
:103790003346FCF745FED4E90623FCF79AFD2A469A
:1037A0003346FCF73DFED4E90423FCF792FD2A469C
:1037B0003346FCF735FED4E90223FCF78AFD2A469E
:1037C0003346FCF72DFED4E90023BDE8F041FCF7B9
:1037D00080BD00002DE9FF4D054621F0004084B07A
:1037E0000C46B0F1795F0BDA2846FFF737FD042865
:1037F00008BF00F06FF8284608B02146BDE8F08DFC
:103800002A460B461046FCF70BFE06460F462A4694
:103810002346FCF705FE804626488A4632463B464C
:1038200005217844FFF780FF83461098029160B32A
:10383000214A224B40465146FCF7F2FDCDE90001FA
:103840005A4640465146029BFCF7EAFD82468846AE
:10385000DDE906014FF0FF32FCF7F6FF5246434622
:10386000FCF7D8FD32463B46FCF7DAFDDDE90623DE
:10387000FCF7D0FDDDE90023FCF7CCFD08B02A46BB
:103880002346BDE8F04DFCF7C8BD0B465A4630460E
:103890003946FCF7C5FD084A084BFCF71AFD4246BD
:1038A0005346FCF7BDFD08B02A462346BDE8F04D5F
:1038B000FCF70FBDA21F0000495555555555C5BF12
:1038C0000122FCF7C1BF0022134610461146FCF747
:1038D00019BE0000024A00201107FCF7B5BF000026
:1038E00001FDFFFF02E008C8121F08C1002AFAD13B
:1038F00070477047002001E001C1121F002AFBD170
:10390000704700000149086070470000AC000020CB
:103910002DE9FF5F82B00021DDE90430020DDDF802
:1039200040B0034318D044F61050A2F2FF32424395
:103930001514119801281FD0A5EB0B00401C5FEA5D
:10394000000A4FF000064E4FDFF83891B04650465F
:1039500015D5CAF1000413E0119801244AA30128E7
:1039600001D16FEA0B010298119AC0E90031C0E958
:10397000024206B0BDE8F09FCBF10000DFE704464D
:103980000021404A491842EB0450CDE9001012E0F2
:10399000E00707D032463B4640464946FCF740FD2B
:1039A0008046894632463B4610461946FCF738FDAC
:1039B00006460F466410002CEAD1DDE90401DDE97A
:1039C0000023BAF1000F06DAFCF72AFD42464B4607
:1039D000FCF726FD05E0FCF795FD42464B46FCF75B
:1039E00091FD04460E460022284BFCF725FE03D825
:1039F0004FF0FF30014607E00022254B20463146BC
:103A0000FCF767FCFCF7F5FE102409E0002C0ADB4C
:103A10000A220023FCF73EFE039B30321A55641E37
:103A200050EA0102F2D1641C039AC4F11103144458
:103A3000119A012A03D0012208430DD10AE008435C
:103A400004D000204FF0110B119072E7A3EB0B058F
:103A50006D1E0DE05B4504DD4FF0000205F1010530
:103A600004E003DA4FF00002A5F10105002AECD0D2
:103A700002981199C0E90231C0E9004579E70000D8
:103A8000000014400000F03F300000000000F04350
:103A90000000E03F2DE9FF4F95B09A468846064664
:103AA0000025EEE1252877D100242746F94A012197
:103AB000039400E0044316F8013F203B01FA03F0B1
:103AC0001042F7D130782A2811D06FF02F033078C8
:103AD000A0F13002092A16D8039A44F0020402EB3E
:103AE000820203EB42021044761C0390EFE758F881
:103AF000042B0392002A03DA504244F4005403904A
:103B000044F00204761C30782E2816D116F8010FE6
:103B100044F004042A280DD06FF02F023078A0F171
:103B20003003092B09D807EB870302EB4303C718BF
:103B3000761CF3E758F8047B761C30786C280FD09D
:103B400006DC4C2817D068280DD06A2814D104E070
:103B5000742810D07A280FD10DE044F400140AE044
:103B600044F4801401E044F440147278824202D19B
:103B700004F58014761C761C307866280BD013DC94
:103B8000582877D009DC002875D04528F6D046287B
:103B9000F4D047281AD193E118E0632835D064287F
:103BA00079D0652812D18BE1702873D008DC6728A2
:103BB000F1D069286FD06E280DD06F2806D1ACE007
:103BC00073282CD0752874D0782853D05246179972
:103BD00090476D1C54E1C4F30250022809D0032819
:103BE0000DD0D8F8001004280DD00D6008F104089D
:103BF00046E1D8F80010EA17C1E90052F6E7D8F814
:103C000000100D80F2E70D70F0E718F8041B8DF836
:103C1000001000208DF80100EB46012003E058F869
:103C200004BB4FF0FF3061074FF0000102D40DE0FC
:103C300009F101018946B9420FDA8145F8DB1BF829
:103C400009100029F4D108E009F1010189468142F7
:103C5000FADB1BF809100029F6D103985346A0EBB4
:103C6000090721463846179A00F080FA284400EBED
:103C7000090507E044E008E10DE01BF8010B52469E
:103C800017999047B9F10109F7D2534621463846B2
:103C9000179AF2E039E00A21C4F302524FF0000B08
:103CA0000091022A06D058F8040BC117032A09D044
:103CB0000AE023E008F1070020F00702F2E8020121
:103CC000904605E000B2C117042A01D140B2C117E5
:103CD000002906DA0A460021404261EB02012D224A
:103CE00002E0220504D52B228DF80420012203E0F6
:103CF000E20701D02022F7E7914657E00A2100E0D1
:103D000010214FF0000B00910BE010214FF0000B41
:103D100044F004040827009103E008204FF0000B52
:103D20000090C4F30252022A05D058F8040B002177
:103D3000032A08D008E008F1070020F00702F2E8A3
:103D40000201904603E080B2042A00D1C0B24FF0D5
:103D5000000922072AD53278702A07D0DDF800C082
:103D60008CF0100C5CEA0B0C05D00EE040228DF8B4
:103D70000420012208E050EA010306D030238DF828
:103D800004308DF8052002229146009B83F0080341
:103D900053EA0B030AD150EA010201D1620705D5AB
:103DA00030228DF804204FF001097F1E3278582A06
:103DB00004D039A20C920CAA02920BE03BA2F9E7C4
:103DC0005B46009AFCF766FC0C9B9B5C029A521EB9
:103DD0000292137050EA0102F2D1029804A9081A63
:103DE00000F1200B600702D524F4803400E00127A5
:103DF0005F4502DDA7EB0B0000E0002000EB0B01AC
:103E0000009003984944401A0390E00306D45346B7
:103E10002146179A039800F0A9F90544002706E007
:103E200001A85246C05D179990476D1C7F1C4F45F5
:103E3000F6DBE0030CD553462146179A039800F0B1
:103E400095F9054404E030205246179990476D1CBF
:103E50000099481E00900029F5DC08E002980299BC
:103E600052460078491C0291179990476D1CBBF18E
:103E70000001ABF1010BF1DC5BE100F065F90544F9
:103E8000761C307800287FF40DAE19B02846BDE8C6
:103E9000F08F0000092801003031323334353637D5
:103EA0003839616263646566000000003031323386
:103EB0003435363738394142434445460000000026
:103EC000600700D4062708F1070020F00700F0E89B
:103ED0000223804603F0004C5FEA0C0001D097A05B
:103EE00009E0200501D596A005E0E00701D095A0E6
:103EF00001E0AFF24C001390307823F000436528C6
:103F00000CD006DC452809D046281DD047287FD193
:103F10003BE0662818D067287AD136E00021112FBF
:103F200001DB112000E0781CCDE9000104A90CA8F8
:103F3000FFF7EEFCDDE90D010C9A4FF0000B07F1E5
:103F40000109109200914EE04FF000400097CDE93A
:103F5000011004A90CA8FFF7DBFCDDE90D020C9BA6
:103F60000F994FF0000B91461093009211B9791CF4
:103F700000EB0109B7EB090003D4C0F1FF3B07F1E7
:103F80000109A9EB0700019042E0012F00DA0127A7
:103F90000021112F01DD112000E03846CDE900019C
:103FA00004A90CA8FFF7B4FCDDE90D010C9A0091FF
:103FB0004FF0000BB946109221070FD4009A4A45E2
:103FC00003DA914601E0A9F10109B9F1010F05DD1C
:103FD000109AA9F10101515C3029F4D0B84202DAFB
:103FE00010F1040F03DA0121CDE9011010E00028DF
:103FF00003DC8344A9EB000102E0411C494500DDDC
:104000008946A0EB0B00401C01904FF0004002904D
:10401000200705D40198484502DB4FF0FF3001909E
:1040200000208DF84B0002980DF14B07B0F1004FC6
:1040300025D002200C902B200D90029800280CDA3D
:10404000404202902D200D9007E00A210298FCF7D3
:104050000BFB3031029007F8011D0C99481E0C90A3
:104060000029F2DC02980028EFD1791E0D98087023
:10407000307800F0200040F0450007F8020D11A84C
:10408000C01BC01D02901398007800B1012000EB06
:104090000901019801EBE071029801440398401A6C
:1040A000401E0390E00306D453462146179A039816
:1040B00000F05CF805441398007818B1524617993F
:1040C00090476D1CE00323D553462146179A039869
:1040D00000F04CF805441BE0BBF1000F07DB009833
:1040E000584504DD1098179910F80B0001E0179956
:1040F00030205246904701980BF1010B401E05F10C
:104100000105019004D12E205246179990476D1C4D
:10411000B9F10001A9F10109DEDC05E017F8010B96
:104120005246179990476D1C0299481E029000292B
:10413000F4DC53462146179A03989EE62D000000B2
:104140002B000000200000002DE9F041044600256E
:104150001E461746880404D405E039462020B0479F
:104160006D1C641EF9D52846BDE8F0812DE9F041AB
:10417000044600251E469046C80301D5302700E0BE
:104180002027880404D505E041463846B0476D1C19
:10419000641EF9D52846BDE8F0814A68002A06D099
:1041A0000A68531C0B6010704868401E48607047D6
:1041B0000A68531C0B60107070472DE9F041D0E97C
:1041C0000060D1E9004380461D4622463046414604
:1041D000FCF732FA01D2012700E0002722462B46E5
:1041E00030464146FCF710FA01D2012000E00020E1
:1041F000381ABDE8F0810FB4802100B5A1B023AB1F
:104200006846229AFFF710F86846FCF75BF881B21F
:104210006846FEF7A3FF21B05DF814FBDFF890902D
:10422000DFF890B0244CDFF894A04A46D4E90A01A4
:104230005B46FCF7F5F800F0F9FA07468846D4E942
:104240000A014A465346FCF7EBF800F0EFFA054640
:104250000E46D4E90A011A4A1A4BFCF7E1F800F0BD
:10426000E5FA2A463346FCF734F83A464346FCF76B
:1042700030F8C4E90601D4E90A014A465346FCF77E
:10428000CFF800F0D3FAC4E90C01D4E906230E48B4
:10429000FEF79CFAC4E90801D4E90A010B4A0C4B69
:1042A000FCF717F8C4E90A01322000F0D9FBBCE79B
:1042B00009944A702F8BC840000000202F8BB84013
:1042C0003B43D5598CA28340B00000202D431CEB0A
:1042D000E2361A3F064D4FF400444FF4FA66214689
:1042E0002846FCF7CFFD304600F0BAFBF7E70000A8
:1042F000000801401CB5FCF77BFFFEF7F8FBFEF75A
:104300008BF9FEF76BF9FEF745FAFEF7DDF9FEF7DC
:10431000BBF9FEF79FFA00211F48FDF743FD00F0AF
:10432000D5FA1E490220CDE90001002380221CA1FC
:104330001E4800F02DFC19490320091DCDE900019C
:104340004FF400740023224619A11C4800F020FC01
:10435000124904200831CDE900010023224618A1AA
:104360001A4800F015FC0D4905200C31CDE900017B
:104370000023802216A1194800F00AFC07490620F4
:104380001031CDE900010023802215A1174800F06B
:10439000FFFB00F07DFBFEE75C0100200400002035
:1043A0006C6564325F7461736B000000D542000875
:1043B00066696C7465725F7461736B001D420008FE
:1043C000736572766F5F7461736B0000F547000868
:1043D0006F6C65645F7461736B000000F1430008EB
:1043E00075736172745F7461736B0000F948000843
:1043F000094C0A4D4FF47A760123224600210A2007
:10440000FEF7DAFA0A2101232A460846FEF7B8FA2F
:10441000304600F025FBEFE79CDD0900B81E834223
:104420002DE9F0411E4C0F460546E6682068001D48
:1044300000F096FA38B9206890F82C1001208840D6
:10444000216981432161681C15D1A7B115492268F2
:104450004868906023688268DA6022688368121D69
:104460005A602268121D8260206841610868401C01
:104470000860BDE8F08120683544B5424560216898
:1044800005D2E06BBDE8F041091D00F08ABAA06BCF
:10449000091D00F086FAA06A8542EAD2A562E8E723
:1044A0004C000020F00300202DE9F041054600F00B
:1044B00091FA364CA068401CA0602068344F10B1BF
:1044C000606940B32DE02560A068012829D100264D
:1044D00006EB860007EB800000F055FA761C052EEF
:1044E000F6D32B48643000F04EFA2948783000F0BB
:1044F0004AFA27488C3000F046FA2548A03000F0F0
:1045000042FA2348B43000F03EFA21486430A063F8
:104510001430E06305E02068E96AC06A884200D888
:104520002560606A0121401C6062E86A226981405E
:104530001143216100EB800007EB80004068A86018
:104540008168E9608268291D51608160E86A00EB3A
:10455000800007EB8001696157F82010491C47F87B
:10456000201000F045FA606900280CD02068E96A44
:10457000C06A884207D207494FF080500860BFF3F5
:104580004F8FBFF36F8FBDE8F08100004C0000201B
:104590003C03002004ED00E010B50446006B00F081
:1045A00031FA2046BDE8104000F02CBA0E484FF416
:1045B0002051420706D0C01D0B4920F00700411AC8
:1045C000C1F52051094A00230144C2E9000308391A
:1045D000143A21F0070111604B600B600B1AC0E91F
:1045E000001393605360704704040020A40000206F
:1045F000144E154CA6F1A0074FF08058DFF84C90F0
:1046000012E000BF00F0E6F9F068C568281D00F070
:10461000A7F9A068401EA0606068401E606000F0BE
:10462000E7F92846FFF7B8FF60680028EAD1386844
:104630000128F9D9C9F80080BFF34F8FBFF36F8FFE
:10464000F2E70000DC0300204C00002004ED00E055
:104650002DE9F0479946DDE9096480466FF00303D0
:10466000206B03EB8202089D104420F0070761B124
:10467000002023180A5C83F834200A5C12B1401C25
:104680001028F6D3002084F84300052D00D304251C
:10469000201DE56200F082F904F1180000F07EF9B7
:1046A0002461C5F105006462A0614A46414638466E
:1046B00000F08EF82060002E00D03460BDE8F08756
:1046C00030B5114900E011460A688242FBD34B68BD
:1046D0005C18844203D14068184448600846436827
:1046E0001C18944209D1084C143C2468A24209D0F9
:1046F00052681A4442600A6812680260814200D01F
:10470000086030BD0460F9E7A40000200548816B13
:10471000096821B1816BC9680968816270474FF0EF
:10472000FF31FAE74C000020BF2080F31188BFF36F
:104730004F8FBFF36F8FFEE770B50446002600F081
:10474000CFF9224D286808B9FFF730FFCCB304F049
:104750000700C0F11000C1438C4232D82118002953
:104760002FDD686881422CD818481430024614683E
:1047700001E02046144662688A4202D22268002A7A
:10478000F7D12A6894421CD00668226802606068EB
:104790000836421A102A04D9601842606160FFF797
:1047A0008FFF61686868401A6860AA68904200D20A
:1047B000A86041F00040606000202060E868401C74
:1047C000E86000F0A5FA304670BD000090000020BF
:1047D00010B5031F4FF080741C601B1F21F00101F6
:1047E0001960191F024B0B60143940380A6010BD64
:1047F000294700080024012544F61F6622460021AF
:104800000948FEF75FF92DB16434A4B2B44206D36F
:10481000002504E0643C2404240C00D101250A2076
:1048200000F01EF9EAE700005C01002000B5254B0E
:1048300021F0004287B09A4203DC00221346009226
:104840002BE0214B9A4208D140B94FF00100FFF70D
:1048500059F8FFF738F807B000BD03DBFFF730F871
:1048600007B000BD02AAFEF71DFD10F003014FF0D6
:1048700001000DD0012914D002291AD00DF1080C25
:104880009CE80F00FEF7D2FE07B081F0004100BDAA
:104890000DF1080C00909CE80F00FEF79BFF07B09D
:1048A00000BD0DF1080C9CE80F00FEF7BFFE07B03D
:1048B00000BD0DF1080C00909CE80F00FEF78AFF88
:1048C000E2E70000FB21E93F0000F07F08480068B4
:1048D000C16841F01001C16005488C300068016872
:1048E00041F002010160022202490148FDF7C4BC07
:1048F000A401002038000020154D144CDFF854802E
:104900006E104FF400574FF4FA792068401C90FB6A
:10491000F5F1206005FB110020B900223946404620
:10492000FCF7B8FA206890FBF5F105FB1100B042E6
:1049300004D1012239464046FCF7ACFA06A0FFF745
:104940005AFC484600F08CF8DFE700000000002029
:1049500000DD6D00001001403132333435360A007D
:10496000D0E9013201699A60D0E901235A604A68AE
:10497000824201D182684A60002202610868401EBA
:1049800008600868704700F108014FF0FF32C0E985
:104990000112C160016100210160704700210161C5
:1049A000704730B50B685A1C02D000F1080202E0D3
:1049B000026904E02246546825689D42FAD953688A
:1049C0004B6099608A60516008610168491C016010
:1049D00030BD0000BF2080F31188BFF34F8FBFF3BD
:1049E0006F8F02480168491C016070478C000020ED
:1049F00003490868401E086001D180F311887047A0
:104A00008C00002070B500281BD0A0F1080460685D
:104A1000002816DA2168002913D120F000406060D8
:104A200000F05EF8074D60686968084468602046D9
:104A3000FFF746FE2869401C2861BDE8704000F081
:104A400067B970BD900000204FF0E02000210161A7
:104A50008161024941610721016170473F190100ED
:104A600010B5020009D000F03BF800211046FFF716
:104A7000D7FC00F04DF9002807D104494FF08050D1
:104A80000860BFF34F8FBFF36F8F10BD04ED00E0E0
:104A90007CB50F480025CDE900502B4680220DA1A2
:104AA0000E4800F075F80A4C2C3C01280ED1BF20AE
:104AB00080F31188BFF34F8FBFF36F8F4FF0FF303C
:104AC000A06201206061E56000F034F8206B7CBDDD
:104AD0007800002049444C4500000000F1450008E2
:104AE0000248416B491C4163704700004C000020A4
:104AF0000E48416B11B10121C16170470021C161B4
:104B000001690B4AB1FA81F1C1F11F0101EB810189
:104B100002EB810101F108034A6852684A609A4237
:104B200001D152684A60D168016070474C00002092
:104B30003C030020094810B5016841F47F01016081
:104B4000016841F07F410160FFF77EFF04490020CA
:104B50000860FBF7E9FA002010BD000020ED00E03E
:104B60008C00002010B5BF2080F31188BFF34F8F59
:104B7000BFF36F8F00F03AF818B104494FF080503E
:104B80000860002080F3118810BD000004ED00E0F3
:104B90002DE9FF5F8346DDE90E87994616468A4672
:104BA0009000FFF7C9FD05001DD04C20FFF7C4FDA4
:104BB000040015D04C21FBF77AFB25630021CDE9D9
:104BC0000241CDE900874B46324651465846FFF731
:104BD0003FFD2046FFF768FC012004B0BDE8F09FD0
:104BE0002846FFF70FFF4FF0FF30F6E72DE9F041C1
:104BF000454C0026606B28B1A069401CA06130467E
:104C0000BDE8F081E5686D1CE56008D1A06BE16B43
:104C1000A163E063206A401C2062FFF777FDA16A70
:104C20003A488D420FD34FF0000EA16B096839B19D
:104C3000A16BC968C9684A68954212D2A26202E0B3
:104C40004FF0FF31A1622168C96A01EB810150F880
:104C50002100012800D90126E0690028CFD00126D3
:104C6000CDE7D1E902724B69BA60D1E902277A60D7
:104C70005F680A1D974201D1CF685F60C1F814E0F8
:104C80001F687F1E1F60D1F828C0BCF1000F15D02F
:104C9000D1E907379F60D1E907377B60DCF8047002
:104CA00001F118039F4202D10B6ACCF80430C1F81D
:104CB00028E0DCF800305B1ECCF80030CB6A01271E
:104CC000D4F810C09F4047EA0C07276103EB830329
:104CD00000EB83035B688B609F68CF609F687A609E
:104CE0009A60CA6A02EB820200EB82034B6150F8C1
:104CF00022305B1C40F82230C96A2268D26A914295
:104D000093D9012691E700004C0000203C030020CD
:104D10002DE9F04100242746FFF75CFE3F4D686B0C
:104D2000401E6863686B002872D1A8683C4B00265F
:104D30004FF00108F0BB6BE0D868C468D4E90721E4
:104D4000A06A9160D4E907125160426804F1180129
:104D50008A4201D1216A4160A6620168491E016050
:104D6000D4E9022160699160D4E90212516042687D
:104D7000211D8A4201D1E268426066610268521ECA
:104D80000260E26AD5F810C008FA02F040EA0C00AE
:104D9000286102EB8200224A8C3A02EB80004068D4
:104DA000A060D0F808C0C4F80CC0D0F808C0CCF897
:104DB000041000E012E08160E06A00EB800002EB8A
:104DC0008001616152F82010491C42F82010E06A0D
:104DD0002968C96A884201D3C5F81C801868002870
:104DE000AAD10CB1FFF792FCAC693CB1FFF7FEFE13
:104DF00008B1C5F81C80641EF8D1AE61E86938B10D
:104E00000849012738070860BFF34F8FBFF36F8F42
:104E1000FFF7EEFD3846BDE8F08100004C000020B1
:104E2000C803002004ED00E00102020304050607A8
:104E300008090A0B0C0D0E0F1010000000000000F6
:104E40000000010203040607080900000000010237
:104E500003041060028C0000FE9292929292FE0077
:104E6000000004047E01407E42427E427E42427E39
:104E700040000000FC242424FC252624FC242424B7
:104E8000040040308F80844C55252525554C80806A
:104E900080001060028C00FE929292929292FE002C
:104EA000000004047E014448507F40407F50484445
:104EB00040000000000000000000002F0000000083
:104EC0000700070000147F147F1400242A7F2A1291
:104ED0000062640813230036495522500000050380
:104EE000000000001C224100000041221C000014B0
:104EF000083E08140008083E0808000000A06000F2
:104F00000008080808080000606000000020100881
:104F10000402003E5149453E0000427F40000042ED
:104F200061514946002141454B31001814127F1050
:104F3000002745454539003C4A494930000171097F
:104F4000050300364949493600064949291E000033
:104F500036360000000056360000000814224100DA
:104F6000001414141414000041221408000201510A
:104F7000090600324959513E007C1211127C007F13
:104F800049494936003E41414122007F4141221CAE
:104F9000007F49494941007F09090901003E414913
:104FA000497A007F0808087F0000417F4100002007
:104FB00040413F01007F08142241007F40404040B3
:104FC000007F020C027F007F0408107F003E4141F9
:104FD000413E007F09090906003E4151215E007FE4
:104FE000091929460046494949310001017F01015B
:104FF000003F4040403F001F2040201F003F4038FE
:10500000403F00631408146300070870080700613C
:105010005149454300007F41410000552A552A551A
:10502000000041417F0000040201020400404040B2
:105030004040000001020400002054545478007FD6
:105040004844443800384444442000384444487FAD
:1050500000385454541800087E0901020018A4A412
:10506000A47C007F080404780000447D40000040D8
:1050700080847D00007F102844000000417F4000B4
:10508000007C04180478007C080404780038444448
:10509000443800FC242424180018242418FC007C24
:1050A0000804040800485454542000043F4440209D
:1050B000003C4040207C001C2040201C003C403034
:1050C000403C004428102844001CA0A0A07C0044C0
:1050D00064544C4414141414141400000000000010
:1050E00000000000000000000000000000F80000C8
:1050F0000000000000333000000000100C06100C0F
:105100000600000000000000000040C07840C078A9
:105110004000043F04043F040400007088FC083091
:105120000000001820FF211E0000F008F000E01829
:10513000000000211C031E211E0000F008887000E2
:1051400000001E2123241927211010160E00000034
:1051500000000000000000000000000000E0180453
:105160000200000000071820400000020418E000C0
:1051700000000040201807000000404080F0804000
:1051800040000202010F01020200000000F00000D6
:1051900000000101011F01010100000000000000EA
:1051A000000080B07000000000000000000000005F
:1051B00000000001010101010101000000000000E8
:1051C000000000303000000000000000000080609F
:1051D0001804006018060100000000E01008081024
:1051E000E000000F102020100F00001010F8000049
:1051F00000000020203F20200000007008080888E0
:1052000070000030282422213000003008888848AF
:1052100030000018202020110E000000C02010F8DF
:10522000000000070424243F240000F808888808B0
:1052300008000019212020110E0000E010888818B5
:105240000000000F112020110E0000380808C83897
:1052500008000000003F0000000000708808088877
:105260007000001C222121221C0000E01008081000
:10527000E0000000312222110F00000000C0C00039
:10528000000000000030300000000000008000003E
:10529000000000008060000000000000804020103E
:1052A0000800000102040810200040404040404037
:1052B000400004040404040404000008102040809A
:1052C00000000020100804020100007048080808CF
:1052D000F0000000003036010000C030C828E8109F
:1052E000E0000718272423140B000000C038E0005A
:1052F0000000203C23020227382008F888888870A4
:105300000000203F202020110E00C03008080808AF
:105310003800071820202010080008F80808081096
:10532000E000203F202020100F0008F88888E808BF
:105330001000203F20202320180008F88888E80863
:105340001000203F200003000000C030080808388B
:10535000000007182020221E020008F8080000089C
:10536000F808203F210101213F20000808F8080823
:1053700000000020203F2020000000000808F8085E
:105380000800C08080807F00000008F888C02818CE
:105390000800203F20012638200008F808000000FF
:1053A0000000203F20202020300008F8F800F8F806
:1053B0000800203F003F003F200008F830C00008F0
:1053C000F808203F200007183F00E01008080810E8
:1053D000E0000F10202020100F0008F8080808082F
:1053E000F000203F210101010000E0100808081032
:1053F000E0000F18242438504F0008F88888888867
:105400007000203F2000030C30200070880808083E
:1054100038000038202121221C00180808F808084C
:1054200018000000203F2000000008F808000008D5
:10543000F808001F202020201F000878880000C8DE
:105440003808000007380E010000F80800F80008CE
:10545000F800033C0700073C0300081868808068D8
:10546000180820302C03032C30200838C800C83816
:1054700008000000203F2000000010080808C8387D
:1054800008002038262120201800000000FE02021B
:1054900002000000007F40404000000C30C00000CF
:1054A0000000000000010638C00000020202FE00F9
:1054B0000000004040407F000000000004020202A3
:1054C00004000000000000000000000000000000D8
:1054D00000008080808080808080000202040000C4
:1054E00000000000000000000000000080808080BC
:1054F00000000019242222223F2008F800808000AA
:105500000000003F112020110E000000008080806C
:105510000000000E11202020110000000080808873
:10552000F800000E112020103F20000080808080B5
:105530000000001F222222221300008080F08888B1
:1055400088180020203F20200000000080808080FC
:105550008000006B94949493600008F80080808031
:105560000000203F210000203F200080989800008C
:1055700000000020203F20200000000000809898BC
:10558000000000C08080807F000008F8000080805C
:105590008000203F24022D302000000808F8000081
:1055A00000000020203F202000008080808080803C
:1055B0008000203F20003F20003F808000808080CE
:1055C0000000203F210000203F20000080808080DC
:1055D0000000001F202020201F008080008080000D
:1055E000000080FFA12020110E00000000808080BC
:1055F0008000000E112020A0FF808080800080802D
:10560000800020203F212000010000008080808059
:1056100080000033242424241900008080E080804E
:1056200000000000001F202000008080000000809B
:105630008000001F202020103F20808080000080FC
:10564000808000010E30080601008080008000800C
:1056500080800F300C030C300F00008080008080B1
:1056600080000020312E0E312000808080000080DC
:10567000808080818E70180601000080808080808C
:1056800080000021302C2221300000000000807CAE
:10569000020200000000003F404000000000FF0048
:1056A000000000000000FF0000000002027C8000FB
:1056B00000000040403F000000000006010102021F
:1056C00004040000000000000000000000000000D2
:1056D0004C5555555555A53F7751C1166CC156BF10
:1056E0009015CB19A001FA3EAD529C804F7E92BE20
:1056F000C4B1B4BD9EEE213ED43888BEE9FAA8BD3F
:1057000000004054FB21F93F3163621A61B4D03D7F
:105710000000601A61B4D03D7370032E8A19A33B58
:105720000000002E8A19A33BC14920259A837B39AA
:1057300000000000000000006E83F9A22915444E0D
:10574000D15727FCC0DD34F5999562DB4190433C8D
:10575000AB6351FE61C5BBDE3A6E24B7E0D24D4269
:10576000EA2E49061C92D1091CEB1DFE3EA729B169
:10577000F53582E88444BB2E26709CE9417E5FB4F7
:1057800039D69139F43953838B5F849C3B28F9BD1A
:10579000FF97F81F0F9805DE8B112FEF1F6D0A5A28
:1057A000CF7E366DB709CB27663F464F2DEA5F9E09
:1057B000C7BA27757BF1E5EBF739073DEA92528AC4
:1057C000B15FFB6B085D8D1FA6F810111111813FB1
:1057D000D561C119A0012ABF7DFEB157E31DC73EA7
:1057E000EB9C2B8AE6E55ABE7CD5CF5A3AD9E53DEB
:1057F0001058000800000020B0000000E438000845
:10580000C0580008B000002088330000F4380008B9
:105810000000000000000000000000000000000088
:105820000000000000000000000000000000000078
:105830000000000000000000000000000000000068
:105840000000000000000000000000000100000057
:10585000100000000000000000127A0000000000AC
:105860000000000000000000000000000000000038
:105870000000000000000000000000000000000028
:105880000000000000000000000000000400000014
:10589000000000000000000000000000AAAAAAAA60
:1058A00000000000000000000000000000000000F8
:1058B00000000000000000000000000000000000E8
:04000005080000ED02
:00000001FF
