:020000040800F2
:10000000083500209D010008EB3E00087D2E000809
:10001000E93E0008F30B0008554700080000000007
:10002000000000000000000000000000294000085F
:10003000E90F000800000000913F00084D40000853
:10004000B7010008B7010008B7010008B7010008B0
:10005000B7010008B7010008EB0F0008B70100085E
:10006000F10F0008F70F0008FD0F0008B7010008A6
:10007000B7010008B7010008FD0E0008090F0008CD
:10008000B7010008B7010008B7010008B701000870
:10009000B7010008B7010008B70100080310000805
:1000A000B7010008B7010008B7010008B701000850
:1000B000B7010008B7010008B1400008B701000807
:1000C000B7010008B7010008B7010008B701000830
:1000D000B7010008E5460008B7010008B7010008AD
:1000E000B7010008B7010008B7010008DFF810D019
:1000F00000F042FD00480047E95E0008AFF30080D1
:1001000008350020224B19680868B0E8F00F80F32A
:100110000988BFF36F8F4FF0000080F311884EF015
:100120000D0E70470000000006480068006880F36C
:10013000088862B661B6BFF34F8FBFF36F8F00DFE1
:1001400000BF00BF08ED00E0EFF30980BFF36F8F41
:100150000F4B1A6820E9F00F106008B54FF0BF0090
:1001600080F31188BFF34F8FBFF36F8F06F0FEFC53
:100170004FF0000080F31188BDE808401968086856
:10018000B0E8F00F80F30988BFF36F8F704700BFAE
:100190008C010020EFF3058070470000064880477F
:1001A00006480047FEE7FEE7FEE7FEE7FEE7FEE75C
:1001B000FEE7FEE7FEE7FEE7AF400008ED000008BF
:1001C000202A04DB203A21FA02F00021704721FAAC
:1001D00002F3D040C2F12002914008431946704713
:1001E00040EA01039B0703D009E008C9121F08C0B9
:1001F000042AFAD203E011F8013B00F8013B521E39
:10020000F9D27047D2B201E000F8012B491EFBD2AF
:1002100070470022F6E710B513460A460446194611
:10022000FFF7F0FF204610BD421C10F8011B00290B
:10023000FBD1801A7047F0B480EA0102D40F42006B
:10024000B2EB410F02D20246084611464A0042D0A4
:10025000C30DDDB2C1F3C752AD1A202D35DAC1F39B
:10026000160141F4000204B15242C5F1200602FA1F
:1002700006F12A411044B3EBD05F23D0C4B1012D65
:10028000A0EBC35009DCF0BC4FF0004202EAC352BD
:10029000DBB200F5000000F046BB400000F18070CA
:1002A00000EBC350A0F1807040EAD170490009E032
:1002B000490841EAC071A0EBC35000F500004008B6
:1002C00000EBC350F0BC00F025BB6142012202EB01
:1002D0004101001BF6E7F0BC704781F00041AAE73E
:1002E00080F00040A7E780EA010210B502F0004369
:1002F000400022D04A001FD0010E01EB1261C0F372
:100300005600C2F3560240F4000042F40002A0FB83
:10031000022000047F39140400D0401C50EA12402F
:1003200001D44000491EC2B20C0604EBD010401CA0
:100330004008802A02D003E0002010BD20F0010018
:10034000002900DA0020184310BD30B480EA010211
:1003500002F0004530F0004221F0004013D090B18F
:10036000C30DD40DC2F31601C0F31600E41A41F414
:10037000000140F400027D34914201D3641C00E08E
:100380004900002C02DA30BC002070474FF4000016
:100390000023914201D3891A034340084FEA4101E7
:1003A000F7D151B1914202D14FF0004105E002D2A4
:1003B0004FF0010101E06FF0010103EBC45028444C
:1003C00030BC00F0A7BA420005D0C0F3C752524279
:1003D000914201DC0020704700EBC15070472DE9CD
:1003E000FE4F804681EA0300C00F0C46009021F0CA
:1003F000004123F00045B8EB0200A94105D2404678
:10040000214690461C460B46024623F0004010430E
:1004100047D0270DC7F30A00C3F30A510290401AD0
:10042000019040286BDAC3F3130040F4801B00985E
:10043000924620B10023D2EB030A63EB0B0B019829
:100440005946C0F14002504600F043FA06460D46B8
:1004500050465946019A00F04BFA10EB08006141F2
:10046000002487EA115284EAE7731A4340D0009AC5
:1004700062B3019A012A4FEA075215DC001B61EBB7
:1004800002014FF0004202EA0752CDE90042001C8F
:1004900041F5801132462B4600F0A0FA03B0BDE8CA
:1004A000F08F40462146F9E7001B61EB0201001C7A
:1004B00041F5801300185B412018A2F5001747EBA7
:1004C000030140EAD570B6196D4111E06D084FEA9D
:1004D000360645EAC0754FEA0752001B61EB020180
:1004E000001C41F5801149084FEA300000195141C4
:1004F00032462B4603B0BDE8F04F00F060BA0098DA
:10050000012240000023D0EB020263EBE07300986D
:1005100021464FEAE074B8EB000061EB0401E9E723
:1005200083F000435BE781F0004158E72DE9FE4F7F
:1005300081EA030404F0004421F0004100944FF0EC
:10054000000B23F0004350EA01045ED052EA03049A
:100550005BD0C3F30A54C1F30A552C44A4F2F3341C
:100560000194A0FB0254C1F3130141F48011C3F3C1
:10057000130343F4801301FB024400FB034E840A7F
:10058000970A44EA815447EA8357A4FB0768029517
:100590008D0A05FB07854FEA932C04FB0C542705B5
:1005A000029D4FEA065847EA1637B5EB08056EEB91
:1005B000070C870E920E47EA811742EA8312A7FBC7
:1005C0000201B6EB0B0164EB00042B0D43EA0C3384
:1005D0005E1844EB1C50DA465146E7FB0201C5F3B6
:1005E00013044FEA0B3343EA14534FEA0432019CDD
:1005F00043EA0603A4F10C040294009CCDE900B484
:1006000000F0ECF903B0BDE8F08F00200146F9E7F7
:100610002DE9F04D81EA030404F0004B21F0004580
:1006200014464FF0000A23F0004150EA050220D0A2
:1006300054EA01021DD0C5F30A570246C5F313035D
:10064000C1F31300C1F30A5640F4801543F480133C
:10065000A7EB0608101BD64608F2FD3873EB050021
:1006600002D308F1010801E092185B41B8F1000FD4
:1006700003DA00200146BDE8F08D00204FF4801120
:10068000064684460EE0171B73EB050705D3121BC5
:1006900063EB050306434CEA010C49084FEA3000BE
:1006A00092185B4150EA0107EDD152EA030012D0E3
:1006B00082EA040083EA0501084305D0101BAB4120
:1006C00006D20122002306E000224FF0004302E0A0
:1006D0006FF0010253101AEB06004CEB085110EBBF
:1006E0000A0041EB0B01BDE8F04D00F068B9C10F05
:1006F00080EAE0700844CA079623002100F013B98D
:1007000096230022114600F00EB90EB5C10F80EA03
:10071000E0700844CA07002140F233438DE80E0020
:100720000A460B4600F05AF903B000BD00F0004243
:1007300020F00040C10DC0F3160040F400007F29F6
:1007400001DA00207047962903DCC1F19601C84008
:1007500001E096398840002AF4D04042704700F00A
:10076000004230F000400AD0C10D01F56071C0F3C5
:10077000160042EA0151C2084007114370470020A9
:100780000146704730B5041E71F1000404DB4FF0E0
:100790000044404264EB0101141E73F1000405DBC8
:1007A0001C464FF00043524263EB04038B4208BFE8
:1007B000824230BD30B5041E71F1000404DB4FF0FD
:1007C0000044404264EB0101141E73F1000405DB98
:1007D0001C464FF00043524263EB0403994208BFAA
:1007E000904230BD01F0004330B421F0004150EAA6
:1007F000010206D00A0DA2F56072C1F31301002AAE
:1008000002DC30BC00207047440F44EAC104C10040
:10081000E01830BC00EBC25000F07CB8002801DBCF
:10082000C0F10040002901DBC1F100418142704765
:10083000002801DBC0F10040002901DBC1F10041CB
:100840008842704730B50B46014600202022012423
:1008500009E021FA02F59D4205D303FA02F5491B8E
:1008600004FA02F52844151EA2F10102F1DC30BDA4
:100870002DE9F05F0546002092469B4688460646D5
:10088000814640241BE02846414647462246FFF762
:1008900097FC53465A46C01A914110D31146184648
:1008A000224600F016F82D1A67EB01084F46224643
:1008B0000120002100F00DF817EB00094E41201E29
:1008C000A4F10104DFDC484631462A464346BDE830
:1008D000F09F202A04DB203A00FA02F10020704742
:1008E0009140C2F1200320FA03F31943904070476E
:1008F000202A06DBCB17203A41FA02F043EAE073E4
:1009000006E041FA02F3D040C2F1200291400843D0
:10091000194670470029A8BF7047401C490008BF0E
:1009200020F00100704710B4B0FA80FC00FA0CF01F
:1009300050EA010404BF10BC704749B1CCF1200457
:1009400021FA04F411FA0CF118BF012121430843E4
:10095000A3EB0C01CB1D4FEA00614FEA102042BF10
:10096000002010BC704700EBC35010440029A4BF06
:1009700010BC7047401C490008BF20F0010010BCAB
:10098000704710B541000CD0C0F3C751962908DC60
:100990007E2909DC06DB410204D000F0004040F073
:1009A0007E5010BD002010BDC1F19604C4F120019D
:1009B00000FA01F1E040FFF7ADFFA04010BD10B517
:1009C000141E73F1000408DA401C41F10001921872
:1009D0005B411A4301D120F0010010BD2DE9F04D1B
:1009E00092469B4611B1B1FA81F202E0B0FA80F270
:1009F00020329046FFF76DFF04460F4640EA0A009A
:100A000041EA0B0153465A46084313D0114653EAB4
:100A1000010019D0C8F140025046FFF7D1FB05464E
:100A20000E46504659464246FFF753FF084305D04D
:100A3000012004E020463946BDE8F08D0020054342
:100A400046EAE0762C4337430A986305E40AA0EBB4
:100A500008000022FD0A44EA47540A3002D500206B
:100A60000146E9E7010510196941DDE9084500196A
:100A70006941BDE8F04DA2E770B521F000430343A2
:100A80000CD0C1F30A550024D5EB040564EB040334
:100A9000D617AD1AB34102DB0020014670BD201805
:100AA00041EB025170BD2DE9F04D00231A461B1A8F
:100AB0008A4103DB00200146BDE8F08DC1F30A52F4
:100AC000C1F3130141F480154FF0000BD10702D19F
:100AD00000186D41521E0027044640F2FF113846AF
:100AE00001EB620A3E468046024600204FF4801128
:100AF000FFF766FBC2197141BB1846EB0100B4EB6E
:100B0000030C75EB000C04D3E41A65EB00051746E3
:100B10000E46241908F101006D4180463428E3DDBA
:100B2000F91946EB0600091BA84103D24FF0FF322A
:100B3000134601E0002213461BEB070046EB0A5167
:100B4000BDE8F04DFFF73BBFC1F30A52C1F31301FB
:100B500040F2FF3341F480119A4202DA002001464C
:100B6000704740F233439A42A2F2334202DC5242CF
:100B7000FFF726BBFFF7ADBE064C074D06E0E06869
:100B800040F0010394E8070098471034AC42F6D3D4
:100B9000FFF7B0FAE87000080871000870B58C180B
:100BA00010F8015B15F0070301D110F8013B2A1181
:100BB00006D110F8012B03E010F8016B01F8016B6E
:100BC0005B1EF9D12B0705D40023521E0DD401F86A
:100BD000013BFAE710F8013BCB1A921C03E013F833
:100BE000015B01F8015B521EF9D5A142D8D3002068
:100BF00070BDFEE72DE9F84F8B460446C1690068D9
:100C0000FFF76BFBE060D4E90485064629464046C1
:100C1000FFF769FB014600902846FFF764FB824618
:100C200028466168FFF75FFB3146FFF704FB064685
:100C300020F000408146FFF792FD07460D46032154
:100C40004046FFF7C0FBFFF78AFD3A462B46FFF709
:100C50006DFC0D46009907460846FFF744FBFFF779
:100C60007EFD3A462B46FFF7BAFB05F0A9FDFFF7DC
:100C7000B9FD074651464846FFF7DAFD0FD2304628
:100C800003F0D4F9054638460099FFF726FB2946BC
:100C9000FFF729FB4FF0FF31FFF795FB03E03046EC
:100CA0006169FFF752FB6168FFF7C5FA054620F05E
:100CB00000400099FFF7BCFD09D2284603F0B6F9C1
:100CC0000146206980F00040FFF70DFB08E0206935
:100CD000294680F00040FFF706FB0099FFF735FB3F
:100CE00005462BF0004631466068FFF7A1FD06D3AC
:100CF00086F0004006466168FFF79AFD00D2666004
:100D00006768A66939463046FFF7EDFA2168FFF7B4
:100D100092FA8046206029463046FFF7E4FA3946C9
:100D2000FFF789FAC4E90105E1690025B1F5000F73
:100D300008DB4046FFF77CFD02D2E069C4E900050C
:100D4000BDE8F88F11F1FF4FFAD34046FFF766FD7B
:100D5000F3D3F5E7002804D000220270C0E9012196
:100D6000C260704770B5040013D005F0E1FF05467E
:100D700002E0012005F0B2FE20780028F9D105F04C
:100D800067FE012020706560E060BDE8704005F0FE
:100D90006DBE70BD10B5040016D02078002813D0A9
:100DA00005F0C6FF616881420ED1E068401EE06038
:100DB000E068002808D105F04BFE0020207060603C
:100DC000BDE8104005F052BE10BD000010B5029CF9
:100DD000A0B199B192B18BB102C0002120F8042BCF
:100DE00020F8023C20F8081B20F8061C20F8041C00
:100DF00003A10461FFF7AEFF002010BD032010BD6A
:100E000071756575655F6D757465780070B50D46B3
:100E100004001FD0F5B104F110000646FFF7A2FF51
:100E20002089C8B161892068A28801FB0201284697
:100E3000FFF7D6F96089E188401CB0FBF1F201FBB5
:100E4000120060812089401E20813046FFF7A2FFFA
:100E5000002070BD032070BD3046FFF79BFF0220CD
:100E600070BD70B50D4604000ED06DB104F11000D8
:100E70000646FFF777FF2089E188884206D330468F
:100E8000FFF788FF012070BD032070BDA189206895
:100E9000A28801FB02002946FFF7A2F9A089E18898
:100EA000401CB0FBF1F201FB1200A0812089401C24
:100EB00020813046FFF76EFF002070BD2DE9F04124
:100EC00014460F46804605F039FF05464FF47A7008
:100ED0004443064639464046FFF7C3FF012807D181
:100EE00005F02CFFB4FBF6F1401B884202D304202E
:100EF000BDE8F081012005F0F1FDEBE7014800F0CD
:100F0000F5B8000074050020014800F0EFB80000BB
:100F10003005002030B590F840500124AC40C56B3E
:100F20006C60046863604368102B036803D09960A9
:100F30000068C26030BD9A600068C16030BD0000CA
:100F40002DE9F041244888B000684068C0F1800075
:100F500007043F0C33D00025204EA846204C2CE03F
:100F600020482178405D052925D2DFE801F00308FB
:100F70000B162B00AA281ED1307001201AE07070C9
:100F8000022017E0B0700A2803D900BF84F800805F
:100F900011E084F8018003200CE0B27861788A4285
:100FA00009D97218491CD070C8B26070B1788142FA
:100FB00001D8042020706D1CADB2BD42D0D308B062
:100FC000BDE8F0815528E1D1707304486A46817804
:100FD000C01C04F0B7FCD9E7300500205C300020CD
:100FE000EC010020380600207047012000F0FEB917
:100FF000042000F0FBB9082000F0F8B9102000F040
:10100000F5B9202000F0F2B972B6FEE710B590F8FD
:1010100021100022022905D00421816380F82020BC
:10102000012010BD01680B6823F00E030B600168FE
:101030000B6823F001030B6090F84030C46B012172
:1010400001FA03F3636080F8211080F82020104635
:1010500010BD000010B590F821100024022903D023
:101060000421816301243DE001680A6822F00E0238
:101070000A6001680A6822F001020A601A4A0168DF
:10108000914201D1012121E0174A1432914201D14C
:1010900010211BE0144A2832914201D1891515E034
:1010A000114A3C32914201D189140FE00E4A50326C
:1010B000914202D14FF4803108E00B4A64329142F0
:1010C00002D14FF4801101E04FF08071064A083AD6
:1010D0005160012180F82110002180F82010416B1F
:1010E00001B18847204610BD080002402DE9F05F9D
:1010F000C16B0C6801680B68D0F840C0042202FA8A
:101100000CF2494DDFF824A1494E4A4FDFF828B1CF
:10111000DFF828E122422CD05A072AD50A68920625
:1011200003D40A6822F004020A600168A94201D1CE
:10113000042219E0514501D1402215E0B14202D10B
:101140004FF4806210E0B94202D14FF480420BE0CC
:10115000594502D14FF4802206E0714502D14FF487
:10116000800201E04FF080622F4908394A60C16A6D
:101170003BE04FF0020808FA0CF818EA040F4FF0B1
:1011800000094FF0010235D05FEA837832D50B6851
:101190009B0605D40B6823F00A030B6080F821201E
:1011A0000168A94201D1022219E0514501D1202252
:1011B00015E0B14202D14FF4007210E0B94202D101
:1011C0004FF400520BE0594502D14FF4003206E0D3
:1011D000714502D14FF4001201E04FF00072124944
:1011E00008394A6080F82090816A00291AD0BDE849
:1011F000F05F0847082505FA0CF5254212D01B07B9
:1012000010D50B6823F00E030B6090F84010C36BF1
:1012100002FA01F15960826380F8212080F8209061
:10122000016BE2E7BDE8F09F080002401C000240AD
:101230003000024044000240580002406C0002406E
:1012400030B528B308C8134914221944B1FBF2F190
:101250008900C16310498163022141771A6843F60E
:10126000F0718A43D0E900142143D0E902452C43B0
:101270002143046921434469214384692143114383
:10128000196000214163012242770177084630BD91
:10129000012030BDF8FFFDBF0000024070B50446DC
:1012A00090F82000002501280CD0012084F82000AF
:1012B00094F821600020012E06D084F82000022539
:1012C000284670BD022070BD022684F82160A0630C
:1012D0002068066826F0010606602046FFF71AFE21
:1012E000E06A00282068016802D041F00E0106E0A3
:1012F00021F0040101602068016841F00A010160E9
:101300002068016841F001010160D9E770B5044629
:1013100000F07AF90546601C02D0044800780444C5
:1013200000F072F9401BA042FAD370BD7C0100208E
:101330002DE9F04100250126294C012817D0294F1D
:10134000042823D008282FD010283BD020280CD1E7
:101350002021384600F046F900B126712021384698
:1013600000F040F9002800D12571BDE8F0811E4F42
:101370000121384600F036F900B1267001213846C7
:1013800000F030F90028F0D12570EEE7042138464E
:1013900000F028F900B166700421384600F022F907
:1013A0000028E2D16570E0E70821384600F01AF91C
:1013B00000B1A6700821384600F014F90028D4D1F5
:1013C000A570D2E71021384600F00CF900B1E670A4
:1013D0001021384600F006F90028C6D1E570C4E7B0
:1013E000B802002000080140000C0140044910B57B
:1013F0000A68024202D00860FFF79AFF10BD0000A1
:10140000140401402DE9F84FDFF8B8910024A9F148
:10141000040B23460F2709F1040AABF1040EC9E0BF
:101420000125A5402A40AA427DD1674ED1F804C0CB
:10143000ACEB0608B44532D014DCBCF1030F3AD053
:1014400009DCBCF1000F2AD0BCF1010F1CD0BCF1AB
:10145000020F31D11DE0BCF1110F17D0BCF1120FFA
:101460002AD119E0B8F5881F19D006DCB8F5803FFD
:1014700015D0B8F5801F1FD111E0B8F5001F0ED0B0
:10148000B8F5041F18D10AE0CB6815E0CB681B1D26
:1014900012E0CB6808330FE0CB680C330CE08B68AC
:1014A0002BB1012B4FF0080303D0456104E0042366
:1014B00002E0056100E00023FF2A01D8064601E0B2
:1014C00000F104064FEA840501D9A5F12005D6F8FC
:1014D000008007FA05FC28EA0C0803FA05F548EA3B
:1014E0000508C6F800804D68ED0062D5374DAE693D
:1014F00046F00106AE61AD6924F0030605F0010572
:101500000095334D06EB050CDCF80850A607360FA6
:1015100007FA06F825EA0805DFF8B880404503D148
:101520004FF0000817E044E0DFF8AC80404502D1FE
:101530004FF001080FE0DFF8A480404502D14FF0E2
:10154000020808E0DFF89880404502D14FF0030818
:1015500001E04FF0040808FA06F848EA0508CCF85C
:1015600008804D68D9F80060ED024D4601D516435C
:1015700000E096432E604D68DAF80060AD025546F3
:1015800001D5164300E096432E604D68DBF80060FD
:10159000AD035D4601D5164300E096432E604D68CD
:1015A000DEF80060ED03754601D5164300E0964372
:1015B0002E60641C0D682A46E5407FF431AFBDE81B
:1015C000F88F0000080401400000111000100240D4
:1015D0000000014000080140000C014000100140E3
:1015E000001401408068084000D001207047C268A4
:1015F00021EA02030A4043EA0241016170470AB14D
:10160000016170470904FBE70148806870470000EA
:101610007C01002070B5040025D094F83D00002521
:1016200020B984F83C50204600F07EFA242084F84B
:101630003D002068016821F0010101602068016817
:1016400041F4004101602068016821F4004101601B
:1016500000F014FC4D4A6168914201D84C4900E009
:101660004C49884201D2012070BD4B492368B0FB30
:10167000F1F15E6826F03F060E435E6063689342B8
:1016800006D94FF4967359434FF47A73B1FBF3F1D3
:101690002368491C1E6A26F03F06314319626168BF
:1016A000914210D84900401EB0FBF1F2521CC2F327
:1016B0000B02042A01D2042022E0B0FBF1F0401C0E
:1016C000C0F30B001CE0A268F2B301EBC10303EB13
:1016D0000116431EB3FBF6F35B1C43F480431B056A
:1016E00049D092B301EBC10202EB0111401EB0FBE5
:1016F000F1F0401CC0F30B0040F4804040F4004087
:101700002168CA694CF6FF739A431043C861D4E953
:10171000071001432068026822F0C00211430160F3
:10172000D4E9030101432068826848F2FF339A43F9
:1017300011438160D4E9050108432168CA6822F099
:10174000FF021043C86001E00EE016E02068016867
:1017500041F0010101602564202084F83D002563EB
:1017600084F83E50002070BD01EB4106431EB3FBE0
:10177000F6F35B1CB3E70120C2E701EB4101401E19
:10178000B0FBF1F0401CC0F30B00B7E7A0860100EE
:1017900080841E0000093D0040420F002DE9FF4FEC
:1017A00083B00025DDE910799A4693460446DDF8BA
:1017B00048800095FFF728FF064694F83D00202852
:1017C0007CD11923012288492046009601F06CFC47
:1017D0000028F5D194F83C0001286FD0012084F84E
:1017E0003C0020680168C90703D1016841F001018C
:1017F00001602068016821F400610160222084F802
:101800003D00402084F83E0025646762A4F82A90D9
:10181000608D20857548E062CDE9008653465A46C2
:101820002046049901F042FB00287CD1208DDFF88E
:10183000C091202768B1012814D0022820680168CF
:101840001ED041F480610160206841698069009088
:10185000BCE02068416981690091016841F4007130
:101860000160B3E02068016821F48061016072B614
:101870002068416981690091016841F400710AE0C2
:1018800041F40061016072B620684169816900918C
:10189000016821F48061016062B697E0032865D891
:1018A00001280CD0022843464FF00002494620464A
:1018B00000960BD001F0F8FBA8BB0CE091E032469B
:1018C0004146204601F096FC68BB72E001F0ECFB5B
:1018D00048BB72B633E02068016821F48061016082
:1018E00072B620680069616A0870606A401C6062B4
:1018F000208D401E2085608D401E60853D4846F24B
:10190000A8110068B0FBF1F0C0EBC00000EB800054
:101910000090401E009007D020684069C0434007F7
:101920000DD50098F5E727E044F8305F6773A5739D
:10193000206940F02000206162B625731CE0206819
:10194000016841F40071016020680069616A0870F3
:10195000606A401C6062218D491E2185618D491E8F
:10196000618562B621680969017026E03246414608
:10197000204601F03FFC18B1012007B0BDE8F08F10
:1019800020680069616A0870606A401C6062208D8E
:10199000401E81B22185608D401E608520684269AD
:1019A000D243520712D4032903D1016821F4806184
:1019B000016020680069616A0870606A401C6062AA
:1019C000208D401E2085608D401E6085208D002862
:1019D0007FF464AF84F83D7084F83E5084F83C5046
:1019E000CBE70220C9E70000020010000000FFFF63
:1019F00004000100880100202DE9FF4F83B09A46C2
:101A0000DDE9119793460446DDF84080FFF7FCFDC1
:101A1000054694F83D0020287FD119230122404932
:101A20002046009501F040FB002876D194F83C0058
:101A3000012872D0012084F83C0020680168C907A1
:101A400003D1016841F0010101602068016821F4BF
:101A500000610160212084F83D00402084F83E00B0
:101A600000262664C4F82480A4F82A90608D20857E
:101A70002C48E062CDE9007553465A462046049949
:101A800001F092FA70B930E02A463946204601F05A
:101A9000E9FB58B1206C042804D12068016841F4A6
:101AA00000710160012007B0BDE8F08F606A216815
:101AB00000780861606A401C6062218D491E89B20D
:101AC0002185628D521E628522685369DB435B0764
:101AD0000BD469B100781061606A401C6062208D8F
:101AE000401E2085608D401E6085208D0028CBD152
:101AF0002A463946204601F0ABFA0028CAD154F8EC
:101B00003D0B016841F400710160202004F81E09BA
:101B1000E67766770020C6E7FFE70220C3E700000C
:101B2000020010000000FFFF10B586B000210091F8
:101B30000191029103910068104988421BD1104C19
:101B4000A06940F00800A061A069694600F00800A3
:101B500004904FF440600090122001900320039005
:101B60000848FFF74FFCE06940F48000E061E0695D
:101B700000F48000049006B010BD00000058004042
:101B800000100240000C01400248816802781144B4
:101B9000816070477C010020074810B5016841F062
:101BA00010010160032000F0A1F80F2000F006F8FA
:101BB00000F050F8002010BD0020024030B505466E
:101BC0001F4887B0C16941F00401C161C06906A91D
:101BD00000F00400009001A800F030F90498B0B1C2
:101BE00000F04CF940001749174AB0FBF1F11748D3
:101BF000491E0260416040F2E7320021C0E9032142
:101C00008160816100F070FB040003D015E000F0FA
:101C100035F9E8E70D4800F0A9FB04000DD11E20BE
:101C200000F036F8102D07D2002229461E2000F0C1
:101C30003DF80748056000E0012407B0204630BDAC
:101C40000010024040420F0000080040380700200A
:101C5000800100200C4808B5816941F001018161D3
:101C6000816901F001010091C16941F08051C161B8
:101C7000C06900F0805000900448416821F0E061A4
:101C800041F00071416008BD0010024000000140B9
:101C9000002809DB00F01F0201219140400980006B
:101CA00000F1E020C0F8001170470000F0B40E4BC6
:101CB0001B680C46C3F30223C3F10705042D00D9AA
:101CC0000425191D072901D2002300E0DB1E01268F
:101CD00006FA05F1491E214099409E40761E1640A5
:101CE0003143F0BC02F079BD0CED00E0064900F094
:101CF000070208684FF6FF03184040EA0220034A33
:101D000010430860704700000CED00E00000FA0589
:101D10002DE9F0470F46050061D0434E306800F0D2
:101D20000700B84209D2306820F00700384330601D
:101D3000306800F00700B84251D128683B4C810759
:101D400012D5400703D5606840F4E06060602878F1
:101D5000000703D5606840F4605060606068A9685F
:101D600020F0F000084360602878C00728D0686839
:101D7000012810D02168022810D0890700292EDA06
:101D8000616821F0030101436160FFF73DFC80467B
:101D900041F288390DE021688903EFE78901EDE719
:101DA000FFF732FCA0EB0801494502D90320BDE84A
:101DB000F0876068696800F00C00B0EB810FEFD12C
:101DC000306800F00700B8420BD9306820F00700F7
:101DD00038433060306800F00700B84201D001207D
:101DE000E5E72878400705D56068E96820F4E060F9
:101DF000084360602878000706D56068296920F4E8
:101E0000605040EAC100606000F058F86168084A1C
:101E1000C1F30311515CC8400649086006480068D8
:101E2000FFF7CCFE0020C2E7002002400010024075
:101E3000966F000888010020800100200F220260B8
:101E40000C4A536803F003034360536803F0F00344
:101E50008360536803F4E063C36052684FF4E06347
:101E600003EAD20202610448006800F0070008603B
:101E7000704700000010024000200240044805495D
:101E800000684968044AC1F30221515CC8407047A8
:101E90008801002000100240A66F00080448054990
:101EA00000684968044AC1F3C221515CC8407047C8
:101EB0008801002000100240A66F00080E4A5168F9
:101EC0000E4801F00C03042B11D0082B0FD10C4845
:101ED000C1F38343C903C05C0AD55168084AC1F302
:101EE0004041921E515C054A5043B0FBF1F07047EF
:101EF00004494843704700000010024000127A0075
:101F0000866F000800093D002DE9F84F040070D0ED
:101F10002078C04DC00749D06868C0F3810001280F
:101F200007D06868C0F38100022809D16868C0033F
:101F300006D52868800339D560680028E7D035E0E9
:101F40006068B0F5803F0BD010B1B0F5A02F11D074
:101F5000286820F480302860286820F4802002E07F
:101F6000286840F480302860606890B1FFF74CFB2F
:101F700006460AE0286840F480202860F0E700BFA9
:101F8000FFF742FB801B642873D828688003F7D5CD
:101F90000CE0FFF739FB064605E000BFFFF734FB16
:101FA000801B6428F0D828688003F7D420789A4EE4
:101FB00080074FF001094FF0000839D5686810F02C
:101FC0000C0F07D06868C0F38100022809D1686847
:101FD000C00306D42868800714D52069012808D1D9
:101FE00010E02069B0B1C6F80090FFF70DFB07467E
:101FF00005E00AE1FFF708FBC01B0228C4D82868E7
:102000008007F7D52868616920F0F80040EAC10030
:1020100028600DE0C6F80080FFF7F6FA074604E0F6
:10202000FFF7F2FAC01B022823D828688007F7D4EC
:10203000207800072CD57948A169D9B1C0F8009063
:10204000FFF7E2FA074604E0FFF7DEFAC01B0228BA
:102050000FD8686A8007F7D571484FF4FA510068C5
:10206000B0FBF1F0009000BF0098411E0091FAD241
:102070000EE080E0C0F80080FFF7C6FA074604E0F3
:10208000FFF7C2FAC01B022875D8686A8007F7D428
:102090002078400760D5E8690027C00008D4E869C7
:1020A00040F08050E861E869012700F0805000901E
:1020B0005C480168C90513D40168834641F4807106
:1020C0000160FFF7A1FA824606E000BFFFF79CFA25
:1020D000A0EB0A0064284ED8DBF80000C005F5D557
:1020E000E06801280AD008B1052813D0286A20F03A
:1020F00001002862286A20F0040002E0286A40F00B
:1021000001002862E06841F2883B98B1FFF77CFA51
:1021100082460BE0286A40F004002862EEE700BF28
:10212000FFF772FAA0EB0A0159455AD8286A8007CE
:10213000F6D50CE0FFF768FA824605E0FFF764FA8F
:10214000A0EB0A0159454CD8286A8007F6D41FB184
:10215000E86920F08050E861E06988B36968C1F3FC
:102160008101022944D00228C6F8608004D0FFF71C
:102170004BFA044638E034E0FFF746FA074604E03D
:10218000FFF742FAC01B02282BD828688001F7D439
:10219000206AB0F5803F05D16868A16820F400305E
:1021A00008436860D4E908010843696821F47411A0
:1021B00008436860C6F86090FFF726FA044606E018
:1021C00025E000BFFFF720FA001B022809D8286885
:1021D0008001F7D51BE000BFFFF716FA001B0228AD
:1021E00002D90320BDE8F88F28688001F4D40EE0FE
:1021F0000128F7D06868226A00F48031914204D146
:10220000616A00F47010884201D00120EAE70020E2
:10221000E8E7000000100240000042428004424211
:1022200088010020007000407047704710B590F89A
:102230003C20012A22D0012280F83C20CA688C6808
:1022400022F4407222434C6822F4806222430C68DC
:1022500022F4006222430C6922F4805222434C692A
:1022600022F400522243C969002322F480420A4327
:1022700001684A6480F83C30002010BD022010BD87
:1022800070B590F83C20012A26D0012480F83C400B
:10229000022280F83D2003685A689D6822F070068B
:1022A0000A6832435A600D4B02689A4208D0B2F174
:1022B000804F05D00A4B9A4202D00A4B9A4204D171
:1022C000496825F080031943916080F83D40002162
:1022D00080F83C10084670BD022070BD002C014003
:1022E000000400400008004010B5040003D094F83A
:1022F0003D0010B107E0012010BD002084F83C0033
:10230000204600F01FF8022084F83D00211D2068BF
:1023100001F0D4FE012084F8460084F83E0084F8E1
:102320003F0084F8400084F8410084F8420084F8BB
:10233000430084F8440084F8450084F83D00002000
:1023400010BD000008B500680649884208D106485B
:10235000816941F400618161806900F4006000904E
:1023600008BD0000002C01400010024090F83D1014
:10237000012901D001207047022180F83D10016839
:10238000CA6842F00102CA6000680B49884208D05E
:10239000B0F1804F05D00949884202D008498842EF
:1023A00004D1816801F00701062903D0016841F0DA
:1023B0000101016000207047002C01400004004032
:1023C0000008004070B5044690F83C000025012844
:1023D00017D0012684F83C60022084F83D00206874
:1023E000826822F0770222F47F42826008685028D7
:1023F00038D00DDC20284FD005DC90B3102811D147
:102400004AE0022070BD302846D040280AD13BE087
:1024100060282FD070280DD0B0F5805F03D0B0F5C4
:10242000005F12D0012584F83D60002084F83C0054
:10243000284670BDCB68D1E90121206801F087FEF4
:102440002068816841F0770109E0CB68D1E901217A
:10245000206801F07CFE2068816841F48041816041
:10246000E1E719E0CA684968206801F025FF5021BA
:10247000206806E0CA684968206801F02EFF6021E4
:10248000206801F06EFECEE7CA684968206801F056
:1024900013FF40212068F4E7226801461046F0E768
:1024A0002DE9F0410D46040003D094F83D0018B129
:1024B00008E00120BDE8F081002084F83C002046BF
:1024C00000F040F8022084F83D002068816844F262
:1024D000070291438160211D206801F0EFFD226811
:1024E00090689169166A2B68AF69034340F2033024
:1024F000814341EA0721A868EF6908434FF6FC4190
:102500008843E96840EA0720014328692F6A0001EF
:1025100040EA0730084369686D6926F0220646EAFA
:102520000515294393602268906154F8460B0162B7
:10253000012004F81F09E0752076E0762077A07569
:102540000020B7E710B586B00021009101910291FB
:1025500003910368194901221948B3F1804F1AD039
:10256000184CA34215D1CB6943F00203CB61CB6970
:1025700003F0020304938B6943F004038B618969C0
:1025800001F004010491C021009102926946FEF716
:1025900039FF06B010BDCB6943F00103CB61CB69B5
:1025A00003F0010304938B6943F004038B61896991
:1025B00001F0040104910321E6E70000001002404D
:1025C000000801400004004070B590F83E600446E9
:1025D00090F83F5090F8423090F84320022021B10B
:1025E00004290ED0012E1BD114E0012E18D1012B8D
:1025F00016D184F83E0084F84200012200212068B0
:1026000020E0012D0CD1012A0AD184F83F0084F882
:10261000430014E0012D03D1012B01D1012A01D087
:10262000012070BD84F83E0084F83F0084F8420029
:1026300084F8430001220021206801F07BFD012283
:102640000421206801F076FD2068016841F0010155
:102650000160002070BD70472DE9F041044600681C
:10266000C66805694FF00007A90713D5B10711D552
:10267000F91E0161012020772068806980072046CB
:1026800002D0FFF7E8FF04E000F0A4F8204600F0D5
:1026900036F92777680716D5700714D521686FF0CB
:1026A00004000861022020772068806910F4407FD0
:1026B000204602D0FFF7CFFF04E000F08BF8204661
:1026C00000F01DF92777280715D5300713D52168A5
:1026D0006FF008000861042020772068C069800737
:1026E000204602D0FFF7B7FF04E000F073F8204661
:1026F00000F005F92777E80616D5F00614D521680D
:102700006FF010000861082020772068C06910F47D
:10271000407F204602D0FFF79EFF04E000F05AF809
:10272000204600F0ECF82777E80708D0F00706D03D
:1027300021686FF001000861204600F02FF928069B
:1027400008D5300606D521686FF080000861204664
:10275000FFF76AFD680608D5700606D521686FF098
:1027600040000861204600F023F9A8060AD5B0060B
:1027700008D521686FF0200008612046BDE8F041CF
:10278000FFF753BDBDE8F08100B585B00021009191
:1027900001910291039100680B49884212D10B48C4
:1027A000816941F0040181618069694600F004009B
:1027B00004904FF440700090022001900390044870
:1027C000FEF720FE05B000BD002C014000100240C5
:1027D00000080140704770B5044690F83C000026A0
:1027E0000D4601280FD0012084F83C006AB1042A6C
:1027F0001DD0082A2FD00C2A3FD00126002084F8B3
:102800003C00304670BD022070BD206801F0B2FC73
:102810002068816941F0080181612068816921F0A7
:1028200004018161206881692A69114311E02068EF
:1028300001F0C8FC2068816941F400618161206871
:10284000816921F480618161206881692A6941EA96
:1028500002218161D2E7206801F0E0FC2068C169B3
:1028600041F00801C1612068C16921F00401C16122
:102870002068C1692A69114311E0206801F0FAFC5F
:102880002068C16941F40061C1612068C16921F417
:102890008061C1612068C1692A6941EA0221C16180
:1028A000ACE710B5040003D094F83D0010B107E088
:1028B000012010BD002084F83C00204600F01EF8E6
:1028C000022084F83D00211D206801F0F7FB012063
:1028D00084F8460084F83E0084F83F0084F8400005
:1028E00084F8410084F8420084F8430084F84400EE
:1028F00084F8450084F83D00002010BD7047704703
:1029000010B50446022249B104290ED0082913D07B
:1029100094F84100012816D0012010BD94F83E0023
:102920000128F9D184F83E200FE094F83F000128F7
:10293000F2D184F83F2008E094F840000128EBD160
:1029400084F8402001E084F841200122206801F051
:10295000F1FB0F492068884203D1426C42F40042E7
:1029600042642068884208D0B0F1804F05D0094900
:10297000884202D00849884204D1816801F00701E9
:10298000062903D0016841F001010160002010BD5B
:10299000002C01400004004000080040006803498A
:1029A000884201D1FFF7F0B87047000000080040EE
:1029B0007047704710B504460068406994F84110AC
:1029C000C0F3C010212911D180B12068143050E823
:1029D000001F21F0800140E80012002AF5D1A06B11
:1029E00008B1FEF713FB204601F055FD2068406951
:1029F00094F84210C0F38010222911D180B12068D0
:102A0000143050E8001F21F0400140E80012002A75
:102A1000F5D1E06B08B1FEF7F9FA204601F014FD9C
:102A2000002010BD70470000F8B501680446086832
:102A3000CA684B6910F00F0F4FF0000559D003F032
:102A4000010602F49077374365D0C10705D0D10560
:102A500003D5616C41F001016164410705D5D907D7
:102A600003D0616C41F002016164810705D5D9078B
:102A700003D0616C41F004016164010707D502F0E5
:102A80002001314303D0616C41F008016164616C45
:102A900000293AD0800604D5900602D5204601F0E0
:102AA00008FD20684069616CC0F38010090700D4FC
:102AB00060B3204601F0C8FC20684069400621D57B
:102AC0002068143050E8001F21F0400140E8001257
:102AD000002AF5D1E06BA8B16D494163E06BFEF7C8
:102AE000B9FA002811D0E06B416B01B0BDE8F040AD
:102AF000084783060FD593060DD52046BDE8F8405C
:102B000001F0D7BC2046FFF78DFFF8BD2046FFF748
:102B100089FF6564F8BD266B2023012E7CD1C60693
:102B20007AD5D60678D508684868009048694FF08D
:102B30000206400640D5E16B086840680004000CBE
:102B4000E8D0A28D8242E5D9E085886920282DD081
:102B500020680C3050E8001F21F4807140E800121A
:102B6000002AF5D12068143050E8001F21F001013F
:102B700040E80012002AF5D12068143050E8001F08
:102B800021F0400140E80012002AF5D184F84230DB
:102B9000256320680C3050E8001F21F0100140E848
:102BA0000012002AF5D1E06BFEF730FA6663A08DC3
:102BB000E18D401A81B22AE0A08DE18D401A81B2E8
:102BC000E08D0028A6D00029A4D022680C3252E85B
:102BD000000F20F4907042E80007002FF5D1206824
:102BE000143050E8002F22F0010240E80027002FA7
:102BF000F5D184F84230256320680C3050E8002F6E
:102C000022F0100240E80023002BF5D16663204635
:102C1000FFF7CFFEF8BDFFE705062BD5150629D532
:102C200094F841002128F5D1A068B0F5805F01D16A
:102C30002069B0B1206A411C216221680078486097
:102C4000E08C401E0004000CE084E3D12068C168E1
:102C500021F08001C1602068C16841F04001C1607D
:102C6000D8E7206A0088C0F308004860206A801C0A
:102C70002062E5E74006CDD55006CBD5CA68204690
:102C800022F04002CA6084F8413000F0F5F8C1E754
:102C9000FF42000870B5040004D094F841000025FC
:102CA00010B106E0012070BD84F84050204600F0CD
:102CB00023F8242084F841002068C16821F40051E1
:102CC000C160204601F056FC2068016921F4904162
:102CD00001612068416921F02A0141612068C168D1
:102CE00041F40051C1606564202084F8410084F8FB
:102CF00042006563002070BDF0B585B00024064633
:102D0000009401940294039400682F49884259D199
:102D10002E48816941F480418161816901F48041DB
:102D20000491816941F0080181618069284D00F0BA
:102D3000080004904020009002200190032003909E
:102D400069462846FEF75EFB8027CDE90074694698
:102D500028460294FEF756FB1E48416841F0E061A8
:102D600041F0040141601D4D1B48C5E90004C5E95F
:102D700002472C616C61AC612846EC61FEF760FA99
:102D800008B1FEF741F9F5636E62144D12484435FF
:102D9000143801C5102091C5104845F81049443039
:102DA0006C61AC61EC61FEF74BFA08B1FEF72CF9EF
:102DB000B5630022114625206E62FEF777FF2520BD
:102DC000FEF766FF05B0F0BD00380140001002407C
:102DD000000C014000000140580002403005002076
:102DE00090F84230202B01D00220704721B11AB157
:102DF0000023036301F01ABC01207047704770473D
:102E000070B5044690F84100202801D0022070BD22
:102E100049B342B32162A284E2840020606421238A
:102E200084F84130A56B114BAB62A56B104BEB6284
:102E3000A56B104B2B63A36B5863256813462A1DA3
:102E4000A06BFEF72BFA21686FF040000860206845
:102E5000143050E8001F41F0800140E80012002AC1
:102E6000F5D1002070BD012070BD0000FD430008B9
:102E70003F4400080F43000870477047FEE70168B1
:102E80004A69D24352050FD46FF480624A6100212F
:102E900040F8301F202242738173026942F004021D
:102EA0000261017301207047002070472DE9F84F3F
:102EB0000446006889460B9D01689846174641F410
:102EC000806101602068016841F4807101600095B3
:102ED0004FF0011B0022594620460A9B00F0E4F8FF
:102EE0004FF4007A40B120680068C00501D5C4F8ED
:102EF00040A00320BDE8F88F216809F0FE000861BA
:102F00002B46284920460A9A00F016F9F0BB2068A3
:102F10004169806900902A4620460A9900F0A2F98A
:102F200040B1206C04283AD12068016841F4007156
:102F3000016034E0FEB2B8F1010F09D02168380A0F
:102F400008612A4620460A9900F08CF90028E8D149
:102F5000206806612A4620460A9900F083F9002875
:102F6000DFD12068016841F4807101600095002282
:102F7000594620460A9B00F097F80028B3D12168F3
:102F800009F0FF0040F00100086100E007E02B4677
:102F9000044920460A9A00F0CFF80028AAD0012060
:102FA000A8E70000020001002DE9F843044600688C
:102FB0000D46DDE9089701689846164641F4807190
:102FC00001604B4600224FF001112046009700F0AF
:102FD0006BF848B120680068C00502D54FF4007056
:102FE00020640320BDE8F883216805F0FE00086135
:102FF0003B464A461549204600F09EF888B92068AD
:103000004169806900903A464946204600F02AF915
:1030100048B1206C042804D12068016841F4007193
:1030200001600120DEE7F5B2B8F1010F09D0216897
:10303000300A08613A464946204600F013F9002854
:10304000E7D1206805610020CCE700000200010004
:1030500070B516460D4604461EE02046FFF70FFFEA
:1030600008B1012070BD681C16D0FEF7CDFA801B98
:10307000A84200D885B920684069C04340070BD5F5
:10308000002044F8300F20216173A073216941F0C2
:10309000200121612073E4E720684069C0434007B4
:1030A000DBD4002070BD00002DE9F047984617469C
:1030B0000D460446C1F30746DDF820902AE000BF24
:1030C000B8F1FF3F26D0FEF79FFAA0EB090141457A
:1030D00002D8B8F1000F1DD12068012E16D08069EA
:1030E00025EA00000004000C12D00020B84211D1E3
:1030F000002044F8300F20216173A073216941F052
:103100002001216120730120BDE8F0874069E7E7D5
:103110000120EBE72068012E0AD0806925EA000033
:103120000004000C06D00020B842C9D00020EBE714
:103130004069F3E70120F7E72DE9F0479846164686
:103140000D4604464FF000094FF0200AC1F307472F
:1031500023E020684069C043400515D42068016819
:1031600041F40071016021686FF480604861C4F827
:10317000309084F83DA084F83E90216C41F0040129
:10318000216484F83C9021E0701C06D0FEF73CFAE4
:10319000A0EB0800B04203D816B1012F1FD021E0E8
:1031A0002068012F15D0806925EA00000004000C7A
:1031B00018D000BF44F8309F84F80DA084F80E901A
:1031C000216941F02001216184F80C900120BDE8C3
:1031D000F087406925EA00000004000CEAD120686D
:1031E000406901E02068806925EA00000004000CC5
:1031F000AFD1ECE72DE9F041002590460E4604469C
:10320000202728E04069C043C0060CD454F8301B86
:103210006FF01000486144F810596777A577206A6D
:103220002062257714E0FEF7EFF9A0EB0800B0422A
:1032300000D886B920684069C04340060BD544F8E1
:10324000305F6773A573206940F02000206125730B
:103250000120BDE8F08120684169C9434906D1D405
:103260000020F6E770B516460D4604461EE02046DF
:10327000FFF705FE08B1012070BD681C16D0FEF7EF
:10328000C3F9801BA84200D885B920684069C043B3
:1032900000060BD5002044F8300F20216173A07385
:1032A000216941F0200121612073E4E72068406931
:1032B000C0430006DBD4002070BD00002DE9FF4FA5
:1032C000D1E9008B93B00646886801903068009081
:1032D00070680290DFF8A893B0680490D9F80010E5
:1032E00015468A464C465046FCF7FDFF0C90616837
:1032F00050460F46FCF7F7FF0A90A1685046079129
:10330000FCF7F1FF0E903946E4680846FCF7EBFF46
:103310000B9021463846FCF7E6FF0799824608469F
:10332000FCF7E1FF0D9021460798FCF7DCFF2146F2
:1033300009900846FCF7D7FF0F904FF0FF31169821
:10334000FDF741F8059059464046FCF7CCFF01993E
:10335000FCF7C9FF10F0FF4F7ED001990846FCF73B
:10336000C2FF074659460846FCF7BDFF04464146E2
:103370000846FCF7B8FF2146FCF75DFF3946FCF72D
:103380005AFF02F055FD044601464046FCF7ABFFEC
:10339000069021465846FCF7A6FF03902146019867
:1033A000FCF7A1FF834650460E99FCF796FF0121DA
:1033B000FDF709F807460E90DDE90910FCF73BFF21
:1033C0000121FDF700F88046DDE90B10FCF785FFD1
:1033D0000D99FCF782FF0F99FCF72DFF04460F9023
:1033E00041465846FCF77FFF824621460398FCF78A
:1033F0007AFF5146FCF771FF824621460698FCF79A
:1034000072FF044639465846FCF76DFF2146FCF72B
:1034100064FF834639460398FCF765FF044641463E
:103420000698FCF760FF2146FCF757FF0890954986
:103430005046FCF758FF4C46D9F81010FCF7FBFE3D
:10344000804620618F495846FCF74DFF6169FCF7C3
:10345000F2FE07468B4900E00FE160610898FCF737
:1034600042FFA169FCF7E7FE8146A0614FF07F5162
:103470005046FCF738FF0099FCF7DDFE4146FCF7AB
:10348000DAFE00904FF07F515846FCF72CFF02996E
:10349000FCF7D1FE3946FCF7CEFE83464FF07F5154
:1034A0000898FCF720FF0499FCF7C5FE4946FCF795
:1034B000C2FE82460146E0680390FCF714FF814695
:1034C000A06859460790FCF70EFF6768804687F0B2
:1034D00000400099FCF707FF4146FCF7FEFE494615
:1034E000FCF7FBFE0599FCF7FEFE2168FCF7A3FE46
:1034F0008146206059460398FCF7F5FE0690514638
:103500000798FCF7F0FE804648460099FCF7EBFE72
:103510004146FCF790FE0699FCF7DFFE0599FCF7A3
:10352000E2FE3946FCF787FE60608046009903980A
:10353000FCF7D9FE089051464046FCF7D4FE0746FA
:1035400059464846FCF7CFFE3946FCF7C6FE0899B7
:10355000FCF771FE0599FCF7C6FE0799FCF76BFEB8
:10356000A06007460099FCF7BEFE00905946404611
:10357000FCF7B9FE834651464846FCF7B4FE59466F
:10358000FCF759FE0099FCF7A8FE0599FCF7ABFE85
:103590000399FCF750FE0146E060FCF7A4FE834669
:1035A00039460846FCF79FFE824641460846FCF72E
:1035B0009AFE074649460846FCF795FE3946FCF751
:1035C0003AFE5146FCF737FE5946FCF734FE02F04E
:1035D0002FFC074601462068FCF785FE206039462F
:1035E0006068FCF780FE60603946A068FCF77BFEEF
:1035F000A0603946E068FCF776FEE0602249B068DA
:10360000FCF771FE2149884202DC2149884206D933
:103610002049FCF768FEA968FCF70DFEA8600E982B
:10362000FDF79DF801F078FEDFF86C804FF0C046A2
:1036300032464346FCF77AFFFDF7D4F868600F98EE
:10364000FDF78DF807460C4601210A98FCF7BBFEF2
:10365000814601210998FCF7B6FE4946FCF7EBFDCF
:10366000FDF77DF83A46234602F09EF8324643467F
:10367000FCF75CFFFDF7B6F8286017B0BDE8F08FE7
:103680006C0200200AD7A33BA34C65420AD7A33D96
:103690000AD7A3BD0AD7233C66A64CC02DE9F04744
:1036A0000446816816461F460068FCF7C4FD60604A
:1036B0008146E168FCF7BFFD01464846FCF745FE40
:1036C000804620616069FDF74AF88A460546324621
:1036D0003B46FCF728FF07460E464046FDF73FF8FD
:1036E0003A463346FCF722FF2A465346FCF777FE5C
:1036F000FDF778F80546606141464FF07E50FCF7D3
:10370000ECFD4946FCF7EFFD20602846BDE8F04798
:10371000FDF725B82DE9FC4106461C48DFF86C8012
:1037200000240188ADF800104188ADF802108088AF
:10373000ADF804006F4608F10E0800BF37F9140019
:10374000FCF7E3FF024604EB440308EBC300054625
:103750000B46FFF7A3FF6869FCF7E8FF27F81400A2
:10376000641CE4B2032CE9D3BDF90000FCF7BFFFF1
:103770003060BDF90200FCF7BAFF7060BDF90400CB
:10378000FCF7B5FFB060BDE8FC8100001602002028
:103790002DE9FC4780462048DFF88090204F0188C3
:1037A000ADF800104188ADF802108088DFF874A0F1
:1037B000ADF8040000246E464D4636F91400FCF7BF
:1037C00096FF2946FCF78FFD054657F82400514621
:1037D000FCF789FD2946FCF72EFD47F82400FCF78D
:1037E000A5FF26F81400641CE4B2032CE4D3BDF951
:1037F0000000FCF77CFFC8F80000BDF90200FCF7F0
:1038000076FFC8F80400BDF90400FCF770FFC8F8A3
:103810000800BDE8FC8700001C0200209A99193EB0
:103820006C3000209A99593FF0B587B000208DF890
:103830000C00012503AF64240097CDE901542B4609
:103840007522D0213748FDF7A9FF9DF80C10682993
:1038500003D035A002F08EF9FEE702203A49CDE907
:10386000001001236B220294D0212E48FEF7C4F8E9
:1038700035480421801C8DE8130001231922D02132
:103880002848FEF7B9F80A20FDF740FD2E4E012327
:10389000143E1C2230788DF8100004A8CDE90005F4
:1038A000D02102941F48FEF7A7F80A20FDF72EFD4D
:1038B0000097CDE9015401231C22D0211948FDF7BE
:1038C0006DFF9DF80C00317800F018028A4203D099
:1038D0001EA002F04FF9FEE770788DF8140005A8DD
:1038E000CDE9000501231B22D02102940D48FEF7EB
:1038F00083F80A20FDF70AFD0097CDE90154012362
:103900001B22D0210748FDF749FF9DF80C00717874
:1039100000F018028A4203D01AA002F02BF9FEE749
:1039200007B0F0BDBC0300204D5055363035302077
:103930006E6F7420666F756E64212049443A2030A2
:1039400078253032580D0A00040200204163636577
:103950006C2072616E676520636F6E6669672066B2
:1039600061696C656421205365743A203078253094
:1039700032582C20526561643A2030782530325814
:103980000D0A00004779726F2072616E67652063CF
:103990006F6E666967206661696C65642120536596
:1039A000743A203078253032582C20526561643AC0
:1039B000203078253032580D0A000000F0B51C4C3C
:1039C0000025668816BBA560E56001262561668036
:1039D000158055809580A76806B23744A760D4F853
:1039E0000CC00CEB2046E6600FFA81FCD4F810E026
:1039F000ACEB030CF444C4F810C0B4F802E0BEF120
:103A0000C80F08D00EF1010EA4F802E06688C92E96
:103A1000E1D10020F0BD97FBFEF0108096FBFEF098
:103A200050809CFBFEF0908065800120F0BD00007E
:103A3000F00100203CB5284D0024686858B3E86ABE
:103A40000090298EADF80410002305F11A020199A7
:103A5000FFF7B4FF28784FF4804470B1082804D0F1
:103A6000102805D0182808D105E04FF4005404E0D0
:103A70004FF4805401E04FF40064D5F82600009024
:103A8000698D154AADF80410234620320199FFF7DD
:103A900095FF0020686010482630811F02880B883F
:103AA000D21A028042884B88D21A42808988828842
:103AB000091B511A8180801DA0F1120102880B8818
:103AC000D21A028042884B88D21A42808288898822
:103AD000511A81803CBD0000F001002010B586B075
:103AE000044642F21072062103A88DE80700012364
:103AF0003B22D0210848FDF751FEBDF80C0040BA2A
:103B00002080BDF80E0040BA6080BDF8100040BAB9
:103B1000A08006B010BD0000BC03002010B586B028
:103B2000044642F21072062103A88DE80700012323
:103B30004322D0210848FDF731FEBDF80C0040BA01
:103B40002080BDF80E0040BA6080BDF8100040BA79
:103B5000A08006B010BD0000BC0300200D4808B5D1
:103B6000416941F0010141614069002200F001001A
:103B7000009011460E20FEF799F80E20FEF788F807
:103B8000002211460F20FEF791F8BDE808400F20F3
:103B9000FEF77EB8001002402DE9F04786B0002500
:103BA00042480095019502950395816941F0100105
:103BB0008161816901F010010491816941F0200166
:103BC0008161816901F020010491816941F0040162
:103BD0008161816901F004010491816941F008016A
:103BE00081618069DFF8C89000F008004FF47047E9
:103BF0000490002239464846FDF701FDDFF8B4A0E5
:103C00004FF40048002241465046FDF7F8FC2A4E8A
:103C10003C20CDE900060124694602945046FDF798
:103C2000F1FBCDE90046694648460294FDF7EAFB00
:103C30000220CDE90250CDE9007469464846FDF7FF
:103C4000E1FB0320CDE90250CDE9008469465046EE
:103C5000FDF7D8FB002201210620FEF727F80620F9
:103C6000FEF716F8002201210820FEF71FF80820B1
:103C7000FEF70EF8002201210920FEF717F80920AF
:103C8000FEF706F8002201210A20FEF70FF80A20AD
:103C9000FDF7FEFF002201211720FEF707F817208D
:103CA000FDF7F6FF06B0BDE8F08700000010024007
:103CB000000C014000080140000031100D4810B513
:103CC0000B4901600C49416000214FF48042816042
:103CD000C0E9031241618161C1610162FDF79AFC93
:103CE000002803D0BDE81040FDF78EB910BD0000DC
:103CF00000580040BC030020801A060010B596B0A2
:103D000000240F9410941194129413941C2168466B
:103D10001494FCF77EFA202107A8FCF77AFA2D48C4
:103D20002B4901604721C0E9011444F61F61C0E935
:103D300003148021C0E90541FEF7D6FA08B1FDF76A
:103D400063F94FF480500F900FA92248FEF73AFB19
:103D500008B1FDF759F91F48FEF7A3FD08B1FDF7BB
:103D600053F9139413A91B481494FEF789FA08B168
:103D7000FDF74AF96020CDE900040294039404940D
:103D800005940022694613480694FEF724FD08B105
:103D9000FDF73AF9042269460E48FEF71CFD08B10A
:103DA000FDF732F90794089409944FF400500A94EF
:103DB000CDE90B4007A907480E94FEF737FA08B182
:103DC000FDF722F90348FEF7DFFC16B010BD000036
:103DD000002C01401004002010B58CB0242168464E
:103DE000FCF717FA0024164809944FF080410A9412
:103DF000C0E900144FF6FF71C0E90241046184611B
:103E00000320CDE900040120CDE902040221CDE91F
:103E10000441CDE90604694609480894FEF740FBD1
:103E200008B1FDF7F1F8099409A905480A94FEF7CD
:103E300027FA002801D0FDF7E7F80CB010BD00000C
:103E40005804002010B58CB024216846FCF7E1F935
:103E500000241648099414490A94C0E900144FF646
:103E6000FF71C0E90241046184610320CDE90004CF
:103E70000120CDE902040221CDE90441CDE9060487
:103E800069460A480894FEF70BFB08B1FDF7BCF839
:103E9000099409A905480A94FEF7F2F9002801D00F
:103EA000FDF7B2F80CB010BD00040040A0040020E3
:103EB0000C4810B50A4901604FF4E131416000211E
:103EC00081600C22C160C0E904128161C161FEF70A
:103ED000E1FE002803D0BDE81040FDF795B810BD05
:103EE00000380140E8040020FEE7FEE72DE9F0413C
:103EF0000446C0692062D4E90001FCF7EEF9E061F4
:103F000020F00040A16CFCF793FC04D2E169606AE8
:103F1000FCF791F96062D4E90901FCF789FC01D250
:103F2000A06A6062E16A606AFCF778FC01D2E06A2C
:103F30006062E56920692946FCF7D5F9A063074668
:103F4000616A6069FCF7CFF9E06306462846216A9A
:103F5000FCF7C3F9A169FCF7C6F9054620643146B0
:103F60003846FCF768F92946FCF765F9E060216BF3
:103F7000FCF75EFC01D2206BE060616BE068FCF74F
:103F80004DFC01D2606BE0606068A060BDE8F0812C
:103F9000FCF7DAB870B51E48FFF7A0FD1D48FFF723
:103FA000BDFDFFF747FD1C48FFF7B4FB1A480C3076
:103FB000FFF7EEFB184C194D29462068FCF793F9E2
:103FC000174E3146FCF78FF9206029466068FCF7F0
:103FD0008AF93146FCF787F960602946A068FCF74A
:103FE00082F93146FCF77FF9A0600C340D4D206852
:103FF0002946FCF778F9206029466068FCF773F9D8
:1040000060602946A068FCF76EF9A06070BD0000F2
:10401000160200201C0200208430002040DAFF3805
:104020000AE81C4145798B3AFCF76CB8B0F5000FF3
:1040300002DB4FF07E50704710F1FF4F01D3024872
:104040007047002070470000000080BF02F000BEF3
:1040500030B58FB028216846FCF7DBF814210AA898
:10406000FCF7D7F801210804CDE9001000240294E0
:1040700002250491CDE907504FF4E01009906846FD
:10408000FDF742FF08B172B6FEE70F20CDE90A0541
:104090004FF48060CDE90C4002210AA80E94FDF790
:1040A00037FE002801D072B6FEE70FB030BD704772
:1040B0000148FEF7D1BA000038070020F0B50268C9
:1040C000194B1A4C1A4D4FF08047984205D0B84210
:1040D00003D0A04201D0A84203D122F070064A6862
:1040E0003243984205D0B84203D0A04201D0A84242
:1040F00003D122F44074CA6822434C6922F0800242
:10410000224302608A68C2620A688262984201D1D0
:1041100009690163012141610169C90703D001698E
:1041200021F001010161F0BD002C014000040040BC
:104130000008004010B501F01F030121046A9940F6
:104140008C430462016A9A401143016210BD10B5AC
:10415000846842EA032224F47F440A4322438260B3
:1041600010BD826822F070020A4342F007018160AC
:104170007047000030B5036A026A22F00102026251
:104180004268846924F073050C682C4323F002050F
:104190008B682B430A4DA8420BD123F00805CB684E
:1041A00022F440722B434D6923F0040315438A69BE
:1041B0002A434260846149684163036230BD000064
:1041C000002C014030B5026A036A23F01003036239
:1041D000436884690D6824F4E64444EA05248D6844
:1041E00022F0200242EA05120B4DA8420ED1CD6802
:1041F00022F0800242EA05124D6923F4406343EA4B
:1042000085038D6922F0400243EA8503436084619F
:1042100049688163026230BD002C014030B5036AF9
:10422000026A22F4807202624268C46923F4007355
:1042300024F073050C682C438D6843EA05230C4D6C
:10424000A8420ED1CD6823F4006343EA05234D69EB
:1042500022F4405242EA05128D6923F4806342EA57
:1042600005124260C4614968C163036230BD000049
:10427000002C014030B5046A026A22F480520262C6
:104280004268C3690D6823F4E64343EA05238D6859
:1042900024F4005444EA0534064DA84204D14D6983
:1042A00022F4804242EA85124260C3614968016497
:1042B000046230BD002C014010B5036A046A24F08A
:1042C00001040462846924F0F00444EA021423F037
:1042D0000A020A438461026210BD10B5036A046ACF
:1042E00024F010040462846923F0A00324F47044D1
:1042F00044EA023243EA01118261016210BD10B545
:10430000406A0021C185C184FEF78CFB10BD70B5E9
:10431000446A2068406994F84110C0F3C010002539
:10432000212904D118B1E584204600F0B4F82068B2
:10433000406994F84210C0F38010222904D118B1CA
:10434000E585204600F080F8606C40F01000606465
:104350002046FEF767FB70BD10B50146406A09684C
:1043600009684FF0000289062ED4C28501680C311D
:1043700051E8003F23F4807341E80034002CF5D16C
:104380000168143151E8003F23F0010341E8003493
:10439000002CF5D10168143151E8003F23F04003AF
:1043A00041E80034002CF5D1202180F84210016B47
:1043B000012909D101680C3151E8003F23F01003B5
:1043C00041E80034002CF5D14263016B012902D091
:1043D000FEF714FD10BD818DFEF7EBFA10BD10B590
:1043E000406A01214163016B012902D0FEF707FDFC
:1043F00010BD818D4908FEF7DCFA10BD10B50146ED
:10440000406A09680968890616D40021C1840168D8
:10441000143151E8002F22F0800241E80023002BE4
:10442000F5D101680C3151E8002F42F0400241E81B
:104430000023002BF5D110BDFEF71EFD10BD10B5F9
:10444000406AFEF71AFD10BD01680C3151E8002FDB
:1044500022F4907241E80023002BF5D10168143159
:1044600051E8002F22F0010241E80023002BF5D192
:10447000016B012909D101680C3151E8002F22F0AC
:10448000100241E80023002BF5D1202180F84210D2
:1044900000210163704701680C3151E8002F22F0C0
:1044A000C00241E80023002BF5D1202180F8411003
:1044B000704708B590F84210222901D0022008BDAB
:1044C00082684FF480539A4201D1016921B1816A17
:1044D0009A421BD04AB10AE00268816A5268C2F36C
:1044E00008020A80816A891C08E0026972B10268C8
:1044F000526802F07F020A70816A491C8162C18D94
:10450000491E0904090CC18503D01BE002685268EA
:10451000F1E70168CA6822F02002CA600168CA682F
:1045200022F48072CA6001684A6922F001024A617D
:10453000202180F8421000214163026B012A03D040
:10454000FEF75CFC002008BD016301680C3151E8F6
:10455000002F22F0100241E80023002BF5D1016862
:104560000A68D20602D50A6849680091818DFEF773
:1045700020FAE7E770B5044600680169E26821F4B3
:104580004051114301612169A068084361690843F2
:104590002168CA6841F20C639A430243CA602068EA
:1045A0004169A26921F44071114341611E492068AB
:1045B000884202D1FDF772FC01E0FDF75FFC00EBE1
:1045C000C00101EB0012606864218000B2FBF0F3CF
:1045D000B3FBF1F36FF018067343B2FBF0F5B2FBD7
:1045E000F0F605EB8305322303EB0515B5FBF1F57A
:1045F000B6FBF1F605F0F00505EB0615B2FBF0F69B
:10460000B2FBF0F0B0FBF1F06FF01802504306EB94
:10461000800003EB0010B0FBF1F0216800F00F0008
:104620002844886070BD00000038014038B58162C0
:1046300004468285002013466064222284F84220CA
:10464000E56B1B4AAA62E56B1A4AEA62E56B1A4AF5
:104650002A63E26B50630A462168E06B091DFCF790
:104660001DFE2068016840680090206948B12068FC
:104670000C3050E8001F41F4807140E80012002A1D
:10468000F5D12068143050E8001F41F0010140E8E6
:104690000012002AF5D12068143050E8001F41F0C4
:1046A000400140E80012002AF5D1002038BD00008A
:1046B00059430008DF4300080F43000810B50C46BB
:1046C000802900D98024014622460548FBF788FD51
:1046D00022460349BDE81040A1F5E870FEF790BB03
:1046E000B806002010B50348FEF79EF9BDE810405B
:1046F00000F002B8E804002038B5154800680168E9
:10470000C943C90622D40168406800901048FEF7EA
:1047100051F90F484830006840680D49C0F18000E9
:10472000C4B2D031802201F18000FBF759FDFCF7C3
:1047300007FC07482146D030FBF76BFDBDE8384049
:1047400003498022D0310248FEF74ABB38BD000041
:10475000E8040020FEE700007CB50C001D4616466C
:10476000014601D0601E00E00020CDE90010064B9C
:104770006A462946304600F041FA002C02D0009AE1
:10478000002111707CBD000003530008490050EA6D
:10479000C12018BF04204A0D18BF40F0010040F2AC
:1047A000FF72B2EB515F08BF40F00200012808BF62
:1047B000052070474100080218BF04200A0E18BFE8
:1047C00040F001004FF07F4232EA010108BF40F0A3
:1047D0000200012808BF052070470907090E0028BC
:1047E00004DB00F1E02080F80014704700F00F00B7
:1047F00000F1E02080F8141D70472DE9F0414F1EB4
:1048000000EBC7010446D1E9000115461E4637F00A
:1048100006020DD02A463346FBF788FE7F1E04EBC6
:10482000C703D3E90023FBF7DAFD37F00602F1D125
:10483000022F25D0042F13D0062F18BFBDE8F0811A
:104840002A463346FBF772FED4E90A23FBF7C7FD7D
:104850002A463346FBF76AFED4E90823FBF7BFFD7F
:104860002A463346FBF762FED4E90623FBF7B7FD81
:104870002A463346FBF75AFED4E90423FBF7AFFD83
:104880002A463346FBF752FED4E90223FBF7A7FD85
:104890002A463346FBF74AFED4E90023BDE8F0413F
:1048A000FBF79DBD0122FCF7E7B8FBF798BD00229E
:1048B000134610461146FBF7ABBE0000024A00202B
:1048C0001107FCF7D9B8000001FDFFFF0121FBF73C
:1048D0007ABD00210846FBF738BD6FF05E0108077E
:1048E000FBF771BD2DE9F04D0D4614464FF07F41A9
:1048F000B1EB440F9EBF4FF0FF312960BDE8F08D52
:104900004FF0004040EA0421C4F3C750783810F05B
:104910001F024A4B4FEA601CC2F120067B44C4F3DD
:10492000C750A0F178004FEA601003EB800053F805
:104930002C3008BFD0E901C612D0D0F804C0934093
:104940002CFA06F73B4387680CFA02FC27FA06F8B4
:10495000C06807FA02F2F0404CEA080C42EA00068E
:10496000A3FB0132ACFB01C0A6FB016101EB0C060D
:104970008E4234BF4FF0010C4FF0000CC11861445F
:10498000BCF1000F02D0814202D903E0814201D282
:10499000012000E00020104400F120024FEA9218AC
:1049A0008006CA0C40EA42304F03C5F80080FBF78E
:1049B0009EFE82463846FBF7A3FE6FF01201FBF71E
:1049C00002FD07463046FBF79BFE6FF02501FBF723
:1049D000FAFC834639465046FBF72DFC5946FBF757
:1049E0002AFC00F500666FF30B0651463046FBF7D4
:1049F00074FC3946FBF771FC5946FBF771FC104912
:104A0000FBF771FC07460F493046FBF76CFC394653
:104A1000FBF711FC07460C493046FBF764FC3946AE
:104A2000FBF709FC14F0004F08BFBDE8F08DC8F19A
:104A3000805180F000402960BDE8F08D80270000A3
:104A4000DB0FC92F22AAFD290000C92F02E008C8E8
:104A5000121F08C1002AFAD170477047002001E0F8
:104A600001C1121F002AFBD17047000001490860F4
:104A700070470000C00200202DE9FF5F82B00021D6
:104A8000DDE90430020DDDF840B0034318D044F6F0
:104A90001050A2F2FF3242431514119801281FD082
:104AA000A5EB0B00401C5FEA000A4FF000064E4FDA
:104AB000DFF83891B046504615D5CAF1000413E02E
:104AC000119801244AA3012801D16FEA0B01029831
:104AD000119AC0E90031C0E9024206B0BDE8F09F7A
:104AE000CBF10000DFE704460021404A491842EBC1
:104AF0000450CDE9001012E0E00707D032463B46F3
:104B000040464946FBF712FD8046894632463B4601
:104B100010461946FBF70AFD06460F466410002CA6
:104B2000EAD1DDE90401DDE90023BAF1000F06DA7C
:104B3000FBF7FCFC42464B46FBF7F8FC05E0FBF7B5
:104B400067FD42464B46FBF763FD04460E460022D6
:104B5000284BFBF72FFE03D84FF0FF30014607E04C
:104B60000022254B20463146FBF739FCFBF7ECFFD2
:104B7000102409E0002C0ADB0A220023FBF778FE50
:104B8000039B30321A55641E50EA0102F2D1641CB4
:104B9000039AC4F111031444119A012A03D001228B
:104BA00008430DD10AE0084304D000204FF0110B58
:104BB000119072E7A3EB0B056D1E0DE05B4504DD64
:104BC0004FF0000205F1010504E003DA4FF00002A6
:104BD000A5F10105002AECD002981199C0E9023133
:104BE000C0E9004579E70000000014400000F03FF4
:104BF000300000000000F0430000E03F2DE9FF4FCF
:104C000095B09A46884606460025EEE1252877D1DC
:104C100000242746F94A0121039400E0044316F8D2
:104C2000013F203B01FA03F01042F7D130782A28E7
:104C300011D06FF02F033078A0F13002092A16D876
:104C4000039A44F0020402EB820203EB4202104496
:104C5000761C0390EFE758F8042B0392002A03DA3E
:104C6000504244F40054039044F00204761C30781F
:104C70002E2816D116F8010F44F004042A280DD06E
:104C80006FF02F023078A0F13003092B09D807EB21
:104C9000870302EB4303C718761CF3E758F8047B3D
:104CA000761C30786C280FD006DC4C2817D068288A
:104CB0000DD06A2814D104E0742810D07A280FD1BE
:104CC0000DE044F400140AE044F4801401E044F4DC
:104CD00040147278824202D104F58014761C761C4E
:104CE000307866280BD013DC582877D009DC0028F0
:104CF00075D04528F6D04628F4D047281AD193E13C
:104D000018E0632835D0642879D0652812D18BE16A
:104D1000702873D008DC6728F1D069286FD06E281E
:104D20000DD06F2806D1ACE073282CD0752874D034
:104D3000782853D05246179990476D1C54E1C4F31C
:104D40000250022809D003280DD0D8F800100428FA
:104D50000DD00D6008F1040846E1D8F80010EA17FC
:104D6000C1E90052F6E7D8F800100D80F2E70D70A7
:104D7000F0E718F8041B8DF8001000208DF80100F2
:104D8000EB46012003E058F804BB4FF0FF30610709
:104D90004FF0000102D40DE009F101018946B9424A
:104DA0000FDA8145F8DB1BF809100029F4D108E07F
:104DB00009F1010189468142FADB1BF8091000293B
:104DC000F6D103985346A0EB090721463846179AB7
:104DD00000F080FA284400EB090507E044E008E110
:104DE0000DE01BF8010B524617999047B9F10109E4
:104DF000F7D2534621463846179AF2E039E00A21A5
:104E0000C4F302524FF0000B0091022A06D058F86A
:104E1000040BC117032A09D00AE023E008F10700B8
:104E200020F00702F2E80201904605E000B2C11747
:104E3000042A01D140B2C117002906DA0A4600212E
:104E4000404261EB02012D2202E0220504D52B2213
:104E50008DF80420012203E0E20701D02022F7E7C9
:104E6000914657E00A2100E010214FF0000B00911D
:104E70000BE010214FF0000B44F0040408270091D0
:104E800003E008204FF0000B0090C4F30252022A06
:104E900005D058F8040B0021032A08D008E008F1D7
:104EA000070020F00702F2E80201904603E080B21A
:104EB000042A00D1C0B24FF0000922072AD5327867
:104EC000702A07D0DDF800C08CF0100C5CEA0B0CE7
:104ED00005D00EE040228DF80420012208E050EABF
:104EE000010306D030238DF804308DF8052002220E
:104EF0009146009B83F0080353EA0B030AD150EA62
:104F0000010201D1620705D530228DF804204FF04F
:104F100001097F1E3278582A04D039A20C920CAABB
:104F200002920BE03BA2F9E75B46009AFBF7A0FC7C
:104F30000C9B9B5C029A521E0292137050EA010273
:104F4000F2D1029804A9081A00F1200B600702D5DB
:104F500024F4803400E001275F4502DDA7EB0B005D
:104F600000E0002000EB0B01009003984944401A38
:104F70000390E00306D453462146179A039800F0A5
:104F8000A9F90544002706E001A85246C05D17991B
:104F900090476D1C7F1C4F45F6DBE0030CD5534654
:104FA0002146179A039800F095F9054404E0302053
:104FB0005246179990476D1C0099481E0090002991
:104FC000F5DC08E00298029952460078491C0291EB
:104FD000179990476D1CBBF10001ABF1010BF1DC9F
:104FE0005BE100F065F90544761C307800287FF419
:104FF0000DAE19B02846BDE8F08F00000928010069
:10500000303132333435363738396162636465663E
:105010000000000030313233343536373839414200
:105020004344454600000000600700D4062708F10D
:10503000070020F00700F0E80223804603F0004C50
:105040005FEA0C0001D097A009E0200501D596A0E9
:1050500005E0E00701D095A001E0AFF24C0013900D
:10506000307823F0004365280CD006DC452809D0B1
:1050700046281DD047287FD13BE0662818D06728F6
:105080007AD136E00021112F01DB112000E0781CDD
:10509000CDE9000104A90CA8FFF7EEFCDDE90D0144
:1050A0000C9A4FF0000B07F10109109200914EE0AD
:1050B0004FF000400097CDE9011004A90CA8FFF7BC
:1050C000DBFCDDE90D020C9B0F994FF0000B9146C4
:1050D0001093009211B9791C00EB0109B7EB09009C
:1050E00003D4C0F1FF3B07F10109A9EB07000190D0
:1050F00042E0012F00DA01270021112F01DD1120EC
:1051000000E03846CDE9000104A90CA8FFF7B4FC83
:10511000DDE90D010C9A00914FF0000BB946109299
:1051200021070FD4009A4A4503DA914601E0A9F11C
:105130000109B9F1010F05DD109AA9F10101515CD6
:105140003029F4D0B84202DA10F1040F03DA012159
:10515000CDE9011010E0002803DC8344A9EB000135
:1051600002E0411C494500DD8946A0EB0B00401CD4
:1051700001904FF000400290200705D40198484567
:1051800002DB4FF0FF30019000208DF84B000298B9
:105190000DF14B07B0F1004F25D002200C902B20D1
:1051A0000D90029800280CDA404202902D200D90BC
:1051B00007E00A210298FBF745FB3031029007F81F
:1051C000011D0C99481E0C900029F2DC0298002861
:1051D000EFD1791E0D980870307800F0200040F073
:1051E000450007F8020D11A8C01BC01D02901398BE
:1051F000007800B1012000EB0901019801EBE0719A
:10520000029801440398401A401E0390E00306D41C
:1052100053462146179A039800F05CF8054413980A
:10522000007818B15246179990476D1CE00323D5BA
:1052300053462146179A039800F04CF805441BE0AA
:10524000BBF1000F07DB0098584504DD1098179953
:1052500010F80B0001E01799302052469047019852
:105260000BF1010B401E05F10105019004D12E2028
:105270005246179990476D1CB9F10001A9F1010937
:10528000DEDC05E017F8010B5246179990476D1CBC
:105290000299481E02900029F4DC53462146179AD1
:1052A00003989EE62D0000002B0000002000000067
:1052B0002DE9F041044600251E461746880404D413
:1052C00005E039462020B0476D1C641EF9D52846FC
:1052D000BDE8F0812DE9F041044600251E469046C8
:1052E000C80301D5302700E02027880404D505E055
:1052F00041463846B0476D1C641EF9D52846BDE8C6
:10530000F0814A68002A06D00A68531C0B601070AE
:105310004868401E486070472DE9F04D8D4F21F0E0
:10532000004A86B005460C46BA452ADBAAEB0700C0
:1053300028430AD08848824501DC1AD1CDB106B095
:105340002846BDE8F04DFFF7ADBA844A844B2846A5
:10535000FBF7ECF807460E46824A834B2846214667
:10536000FBF7E4F806B03A463346BDE8F04DFBF7EC
:1053700036B80120FFF77AFB06B0BDE8F04DFFF725
:1053800096BA7A48824542DABAF1795F0BDA284652
:10539000FFF7FCF9042808BFFFF790FA284606B08B
:1053A0002146BDE8F08D2A460B461046FBF7BEF8B5
:1053B000834602466E480E460B4606217844FFF7A8
:1053C0001CFA5A463346FBF7B1F8804669488A46CC
:1053D0005A46334604217844FFF70FFA5A463346BB
:1053E000FBF7A4F800223B46FAF7F9FF02460B460A
:1053F00040465146FBF70CF92A462346FBF796F840
:1054000006B02A462346BDE8F04DFAF7E8BF284625
:1054100024F0004100223D463B46FBF784F84FF064
:10542000FF32FBF729FB0646024653480F460B4660
:1054300006217844FFF7E1F932463B46FBF776F860
:10544000CDE900014D4832463B4604217844FFF740
:10545000D4F932463B46FBF769F800222B46FAF7AF
:10546000BEFF834602913046394601F0A9F98046D5
:1054700043480D46504517DCDDE900015A46029BC2
:10548000FBF7C6F842462B46FBF750F842462B4640
:10549000FAF7A5FF0122FBF7EFFA304A304BFBF792
:1054A0003FF8304A304B4CE04FF0000A52460B4672
:1054B0004046FAF794FFCDE9031052462B461046BA
:1054C0001946FBF733F832463B46FBF72CF8DDE98B
:1054D0000332FBF79DF806460F46DDE900015A4608
:1054E000029BFBF795F8834600910122304639462E
:1054F000FBF7C2FA194A1A4BFBF715F806460F4696
:10550000012240462946FBF7B7FA5A46009BFBF7B3
:105510000DF832463B46FBF703F806460F460122DC
:1055200050462946FBF7A8FA0E4DDFF858802A4668
:105530004346FAF7F8FF32463B46FAF7F4FF2A46AD
:105540004346FAF7F0FF002CD8BF81F0004106B0C7
:10555000BDE8F08D0000F03F0000F07F075C1433E1
:1055600026A6913C182D4454FB21F93F0000E03F52
:10557000F01B0000061C00007A1B0000901B0000BE
:105580003333EF3FFB21E93F2DE9F84F04460D4649
:1055900021F0004000917349814211DC7249884238
:1055A00001DC06D12CB120462946BDE8F84FFFF7B3
:1055B00079B96E48002DCCBF6D496E49BDE8F88FB2
:1055C0006D49814211DD6D498142D8BF4FF0FF36F0
:1055D0006DDD20462946FFF7D9F8042808BFFFF7FC
:1055E0006DF920462946BDE8F88F6549654F25F0DD
:1055F0000045814233DD6449814219DD002632468F
:105600004FF0804320462946FAF7E9FE80468A4655
:10561000012220462946FBF72FFA00223B46FAF7E3
:105620007FFF42465346FAF7F3FF04460D463EE03D
:1056300001260022BA463B4620462946FAF7CFFE0D
:1056400080460F460022534620462946FAF768FF57
:1056500042463B46FAF7DCFF04460D4627E04B493D
:1056600081421BDDDFF828A1022600225346204696
:105670002946FAF75BFF00223B46FAF7B0FE804668
:105680000F460022534620462946FAF749FF424674
:105690003B46FAF7BDFF04460D4608E003262246C6
:1056A0002B4600203B49FAF7B3FF04460D4622463D
:1056B0002B4610461946FAF739FF8B4682460246BA
:1056C0000B46FAF733FF07460246334888460B4637
:1056D00006217844FFF791F852465B46FAF726FF19
:1056E00082462E488B463A46434605217844FFF7CA
:1056F00084F83A464346FAF719FF02460B46002E55
:10570000504659460CDAFAF76AFE22462B46FAF75B
:105710000DFF01B022462B46BDE8F04FFAF703BF5C
:10572000FAF75DFE22462B46FAF700FF1C4A7A4440
:1057300002EBC603D3E90023FAF7F2FE22462B461A
:10574000FAF7EEFE174A7A4402EBC603D3E90023C8
:10575000FAF7E9FE009A002AB8BF81F00041BDE8DF
:10576000F88F0000000010440000F07F182D445412
:10577000FB21F93FFB21F9BF0000DC3F0000203E88
:105780000000F33F0000F03F0000E63F00800340D0
:105790000000F83F0000F0BF92190000501900000F
:1057A000EE180000B61800002DE9F04D9446CCF13B
:1057B000000423F000464CEA0404594F46EAD4742E
:1057C0009A46884621F00042BC4206D8454240EA4B
:1057D000050442EAD474BC4204D9BDE8F04D6246E7
:1057E000FFF763B8AAF14055A5F17F6555EA0C04AF
:1057F0000BD0022404EAAA744A4DDFF82CE144EAF3
:10580000D87452EA000B04D00CE0BDE8F04DFFF76D
:10581000BBBE002C14BF012CBDE8F08D022C30D093
:10582000032C32D056EA0C0B0AD0BE4220D1BA4229
:1058300009D126F0804622F080423346114617E017
:1058400000291ADB25E0DFF8E4B0FB44002C04BF9C
:10585000DBE90001BDE8F08D012C02BFDBE90001AE
:1058600081F00041BDE8F08D022C0AD0032C0CD051
:10587000BA4212D1B8F1000F0BDA2A482C49BDE820
:10588000F08D28462B49BDE8F08D28467146BDE8CD
:10589000F08D24482849BDE8F08D921B12153C2A52
:1058A000C4BF204F244E10DCBAF1000FBEBF12F16E
:1058B0003C0F00273E4608DB6246FAF7A9FE21F0BE
:1058C0000041FFF761FE07460E4694B1012C08BF68
:1058D00086F000460DD0194A194B022C3846314645
:1058E00015D0FAF71DFE2A46BDE8F04D114BFAF728
:1058F00017BE0022134638463146FAF743FF04BF6D
:105900000220FFF7B3F838463146BDE8F08DFAF7CC
:1059100007FE2A46BDE8F04D064BFAF704BE00002C
:105920000000F07F182D4454FB2109C04A180000E4
:10593000FB21F9BFFB210940FB21F93F075C143330
:1059400026A6A13C70B514460E46050053D0002C87
:1059500051D0002E4FD00146A677324604F11400F4
:10596000FAF73EFC28782070012E01D9687800E013
:1059700000206070022E01D9A87800E00020A070FD
:10598000032E01D9E87800E00020E0700020042E0A
:1059900002D9A988A18000E0A080062E02D9E9885A
:1059A000E18000E0E080082E02D92989218100E011
:1059B00020810A2E02D96989618100E060810C2E64
:1059C0000BD9297BEA7B6B7B41EA0261AA7B12043B
:1059D00042EA03221143E16000E0E060102E09D9A1
:1059E000287CE97C6A7C40EA0160A97C090441EAE0
:1059F00002210843206170BD2DE9F84304460246A8
:105A00004F486946B0EB420F09D94FF0E640B0EB82
:105A1000420F94BF00204FF0FF30009030E0494B20
:105A200022F00040834271D947492046FAF75BFCD7
:105A3000FAF7A7FF8046FAF779FE00F0030000901E
:105A400042494046FAF74FFC054641494046FAF7BD
:105A50004AFC06463F494046FAF745FC07463E49A0
:105A60004046FAF740FC2146FAF73AFC3946FAF785
:105A700034FC3146FAF731FC2946FAF72EFC04468D
:105A80002546009C002C45DB294614F0010F0846F2
:105A90001CD0FAF728FC06463049FAF724FC3049B6
:105AA000FAF71EFC3146FAF71EFC2E49FAF7C3FB43
:105AB0003146FAF718FC2946FAF715FC2946FAF799
:105AC000BAFB14F0020F1CD0BDE8F883FAF70BFC08
:105AD00005462549FAF707FC2449FAF7ACFB2946A5
